:020000040000FA
:10000000F00520206D010000710100007301000067
:1000100000000000000000000000000000000000E0
:10002000000000000000000000000000750100005A
:1000300000000000000000007701000079010000CE
:100040007B010000011400007B0100007B01000027
:100050007B010000D90E00007B0100007B01000045
:10006000000000007B0100007B0100000000000098
:10007000000000007B0100007B0100007B0100000C
:10008000C9300000453800007B0100007B01000002
:100090007B0100007B010000000000000000000068
:1000A0007B0100007B010000000000000000000058
:1000B0007B010000000000007B0100007B010000CC
:1000C00000F002F800F042F812A030C808382418F6
:1000D0002D18AC4201D100F039F80FCCA246AB4646
:1000E0000CA730CF2D1B083F3F197C427F1E544484
:1000F0002D090426F441641EAC4201D300F026F819
:100100000126334200D0FB1A3343984754465D46DC
:10011000DFE700006C5200008C520000000000007D
:100120007047000000000000002300240025002686
:10013000103A01D378C1FBD8520700D330C100D5A3
:100140000B6070471FB51FBD10B510BD00F02AFE33
:100150001146FFF7F7FF03F0F7FC00F042FE03B48F
:10016000FFF7F2FF03BC00F093FE000006480047D3
:10017000FEE7FEE7FEE7FEE7FEE7FEE70348044989
:10018000044A054B70470000C1000000F003202026
:10019000F0052020F0042020F00420200022030994
:1001A0008B4273D3030A8B4258D3030B8B423CD34D
:1001B000030C8B4221D312E003460B437FD4002271
:1001C00043088B4274D303098B425FD3030A8B42EB
:1001D00044D3030B8B4228D3030C8B420DD309026B
:1001E000FF2212BA030C8B4202D31212090265D00D
:1001F000030B8B4219D300E0090AC30B8B4201D3D6
:10020000CB03C01A5241830B8B4201D38B03C01A1C
:100210005241430B8B4201D34B03C01A5241030B93
:100220008B4201D30B03C01A5241C30A8B4201D344
:10023000CB02C01A5241830A8B4201D38B02C01AEF
:100240005241430A8B4201D34B02C01A5241030A66
:100250008B4201D30B02C01A5241CDD2C3098B424B
:1002600001D3CB01C01A524183098B4201D38B01C8
:10027000C01A524143098B4201D34B01C01A52416B
:1002800003098B4201D30B01C01A5241C3088B42B0
:1002900001D3CB00C01A524183088B4201D38B009B
:1002A000C01A524143088B4201D34B00C01A52413D
:1002B000411A00D201465241104670475DE0CA0F14
:1002C00000D04942031000D3404253409C460022D4
:1002D00003098B422DD3030A8B4212D38901FC22DE
:1002E00012BA030A8B420CD3890192118B4208D3B4
:1002F000890192118B4204D389013AD0921100E016
:100300008909C3098B4201D3CB01C01A5241830929
:100310008B4201D38B01C01A524143098B4201D356
:100320004B01C01A524103098B4201D30B01C01A81
:100330005241C3088B4201D3CB00C01A52418308FB
:100340008B4201D38B00C01A5241D9D243088B4251
:1003500001D34B00C01A5241411A00D2014652410A
:10036000104663465B1001D34042002B00D5494242
:10037000704763465B1000D3404201B50449002832
:1003800002DC491C084000E00846C046C04602BDE9
:10039000FFFFFF7F70477047704700000246C80F9D
:1003A000C00781434B0030B54B405B009B0D20D014
:1003B0001923DB06C91801231B05994220DB0324FE
:1003C000A40704251346AB400BD3002B04D1EB0646
:1003D00013409B00E34204D4012464070023121954
:1003E0005941FF231B0599420BD2C9000143500F0D
:1003F00009E0CB0204D501430803024305D00548B8
:1004000030BDFF21C905084330BD08460721090555
:10041000884330BD0000C07FF0B50C46871A9C4170
:100420000D46861A9D4103D2C01BA141D2196341DA
:100430000D0D1F0DC94EEC1BAE435CD07F057F0D2B
:100440000026002F51D02D05AC46A943DD02012323
:10045000ED0A1B051D4320231B1B24D41746E74030
:10046000381871412F46E740CC199D402818314675
:1004700061410C0D27D161449A4013D50023401CE3
:10048000594152000ED14008400001224B00520554
:10049000D34207D305204007C14201D5B04900E04F
:1004A000B0493046F0BD6B00002A00D001229A18F6
:1004B0001F23203C1B1B01D5002302E0E540281828
:1004C00071410C0DD7D0012424050919C407CD07AB
:1004D00040084908E40F28436144002CD5D000248B
:1004E000401C61419A40D0D1CDE76A05520DD9D167
:1004F000C90FC907D5E79C4D4E00002801D0012443
:1005000000E0002434195F00002A01D0012600E039
:100510000026BE19954FAC420CD8AE420AD8B44260
:1005200006D001256D05EC42BCD010461946F0BD41
:100530009942FCD000203946F0BDF0B51FB40C46FE
:100540000F46811A9F412546861A9D4106D20125F4
:10055000ED076F40401ABC4152187B41210D1E0D22
:100560008D1BAC467D4D8D437ED075056D0D7CD0C9
:100570000D05AE46AC431B031B0B794D52429D410A
:10058000202366469B1B14D31746F74038180026D5
:100590000090744160462F460741E41900989D4041
:1005A0002818664116D4714671189A4025D5012342
:1005B00020E093182A466A415200002B00D0521CBA
:1005C0001E23203E9B1B002B61DD3541EE172818B2
:1005D0006641E8D5001876415B1C9A4000D3401C68
:1005E0004B05F3181524E34010D3002B52D071466D
:1005F0007118D30FC01802D3491C05B0F0BD0123F8
:10060000DB079A42F9D140084000F6E70122520583
:10061000B21801D1002853D00123CC0ADB02994340
:10062000891E002A08D1020C03D0020C00041039E4
:1006300002E00246002020390023550B05D11202AA
:100640000823550B01D152010D23550C01D1120184
:100650001B1DD50C01D192009B1C150D01D1520020
:100660005B1C2025EE1A01E02CE022E00546F54057
:1006700015439840CA1AE10769181305C918002ADA
:10068000BBDA032040070818C10FC9070FE0714605
:100690006118B2E7F10740080843711071444A003D
:1006A0000CD001235B059A42A7D2C90FC9070020CD
:1006B000A3E74905490D26D1002001E00028F4D127
:1006C00000219AE7284D6600002801D0012100E0B2
:1006D000002171185F00002A01D0012600E00026E9
:1006E000BE19224FA94210D8AE420ED8B14208D04E
:1006F00001256D05E94206D01946A8024140104681
:100700007BE79C4201D0214677E70020394674E719
:1007100010B50C465C4005D50124E4076340FFF7A3
:100720000CFF10BDFFF778FE10BD30B40C465C40E6
:1007300004D50124E407634030BC6DE630BCFCE620
:1007400070B50124E40761400D465D4002D4FFF717
:1007500063FE70BD6340FFF7F0FE70BDFF07000051
:100760000000F0FF0000F07F0000E0FF0000F87FD5
:10077000F0B58B4C0F09254689B0BD437BD01D09D0
:100780002646AE43FAD00E465E402740F60F3E4363
:10079000254071D024012142FBD0FF24AD19A404CF
:1007A0002D1B039501252D05DB02DB0AC9022B4316
:1007B000C90A29431E010901040F130F0501214332
:1007C0001701880B820391432D098C46A90B1E4308
:1007D0008A039543B30B9A0396433F09BA0B9403DC
:1007E000A74302962E467E430497B6464E19D71964
:1007F0000C460196544305977E43371B7646BF1B34
:100800003601B646BE0B361900967646BC0437193B
:10081000009C01D3641C00946400002F01D00126C9
:100820003443029E049F754366467E4304967600D9
:1008300034196E0034190094029C019E1C19664301
:10084000751BAE46069465464519059C05956C4397
:10085000594375460891691A0191049E0146514316
:10086000A41B0491611A009C0791E10605D061095F
:100870000122114302E072E06EE06109089D002749
:100880002C0A2D066918049D7C412A0A2D06691838
:10089000019D6241AC0DAD026D185441079A910D56
:1008A000920255196141029A644658435443069B8B
:1008B000059A5A43121A131B9A0E9B015B187A4130
:1008C000010B0005C3185141220A200644195A4160
:1008D0009A4200D2491C01204002814203D31523D1
:1008E0000226F64302E014230326F6432020C51A0D
:1008F000A9401746AF40DA400A4320460399D84042
:100900000914731819055118039A3843D207514036
:10091000AC4009D00122944006D30022401C514132
:10092000002C01D1400840001E4A934212D30122FC
:1009300003989206904207DB0520400709181A48E1
:100940000143C012414004E0032040070818C10FD2
:10095000C907002009B0F0BD0020F107FAE705182B
:100960000C464C4111486D42A04115D394181A46CB
:100970005A410E48644290410ED301204A0040057E
:10098000824209D35A00824206D35940C90F084A0D
:10099000C90700201143DDE700200649DAE700001F
:1009A0000000FF07FE070000FFFFFF7F0000E0FFE1
:1009B0000000F07F0000F87F0121C90501234118E4
:1009C00042001B06D3185B0E0AD0C1100722D206C4
:1009D000891840075242D14201D552008918704708
:1009E000090208D50146002A03D0C10FC90700201B
:1009F000704710467047420202D0002002497047FB
:100A0000072109050143F4E70000F87FF0B5FF2551
:100A10002D04C609C209FF2704462E400137CB0921
:100A20003E4348402A402B400746002A6BD0002B0B
:100A300069D0AA4267D0AB4265D0002800DA3246BE
:100A40000125ED0529432C4309022002090AD21A87
:100A50004B0C7F24E31A434C000A7C44E35C7D2466
:100A60002404121914145B00A218884201D3521CEA
:100A700000E0400049420C465C4324115C43DB012A
:100A80006415E318040A5C43C502200D0C46444378
:100A90006419250A5D432303EC0C0D4665430003EE
:100AA0000019EB184C42A34201D35B18401CD4053B
:100AB0002018002B07D05B00C91804D3401C002964
:100AC00001D1400840003F2189048A4209D3002A0D
:100AD00008DC1106090F04D0032149074018C00F94
:100AE000C007F0BD01224100120689187F2252067C
:100AF0009142F6D205214907C84201D59010F0BDB8
:100B0000FF20C005F0BD002F00DA32461648AA4289
:100B100007D2AB4205D21902090E17D0F80FC00751
:100B2000F0BDFF2563002D06AB42F9D84900A9426C
:100B3000F6D8AB4201D1A942F2D0A94201D100219D
:100B400001E061004908D0050843F0BD1102090E1B
:100B5000FBD0FF200243D005F0BD0A4601461046F7
:100B600054E70000A24200000000C07F10B501461B
:100B70009E240002CA15A307002A02D01843002AA7
:100B800004DBA21A002A0CDDD04010BD1206120EA2
:100B900001D140004008A21A03D4D04040420028AE
:100BA000F3DDFF2248001206904201D9002010BD5B
:100BB000C817C043584010BD0102C21504D001231C
:100BC000DB071943002A0ADB9E239A1A02D408463F
:100BD000D0407047FF2241001206914201D9002007
:100BE0007047C017C04370471F22030C02D10F2269
:100BF00000041CD0030E01D10002083A030F01D1FA
:100C00000001121F830F01D18000921E002801DB1A
:100C10004000521ED205511802125118192290405C
:100C200004D3491C002801D14908490008467047EF
:100C3000C10FC90700D04042012292071143D3E7F8
:100C400001218907D0E710B500F072F8006810BDE7
:100C500010B5044600F06CF8046010BD10B5FF221A
:100C6000C30D134009D05A4007D0914205DA5C42C7
:100C7000A14202DDC905081810BDC40FE407002B0E
:100C800006D0002A06D0002902DBFF20C00504435D
:100C9000204610BD4102FCD0004810BD0000C07FBE
:100CA00030B5C30D1906214A090E31D0FF292FD0C6
:100CB00000283ADB01025002014301207D33C3408A
:100CC00000D24908012080071724091A2406490880
:100CD00082102343FF252D064C00211A04D4891AC3
:100CE00002D45400201800E0214652085B19F3D5C5
:100CF0001A220446944007D382068A4203D18021F7
:100D00008030884300E08030C009D905081830BD24
:100D1000FF2904D04100FAD0C00FC00730BD410206
:100D200001D0104630BD0028FCDAFAE70000C07F91
:100D300000487047A801202010B5FF231B0644007F
:100D40009C421DD84C009C421AD80346124A0B43C1
:100D500007D4401A02D3EFF3008010BDEFF30080F8
:100D600010BD081A03D3EFF30080904305E0EFF3C2
:100D7000008001219043C907084380F3008810BD1B
:100D80000D231B041A4204D01146002000F031F854
:100D900010BD00F045F810BD0000009000487047FD
:100DA000A80120207546FFF7F9FFAE460500694609
:100DB0005346C008C000854618B020B5FFF7DEF9DD
:100DC00060BCB64600260027C0C5C0C5C0C5C0C5AA
:100DD000C0C5C0C5C0C5C0C5403D490849008D4615
:100DE000704710B50446C046C0462046FFF7B7F925
:100DF00010BDC80212D54803400F002804D0C80314
:100E0000C043012188407047EFF3008000010009D2
:100E100003210907084380F30088704700207047CA
:100E200010B5024800F004F810BD00000000C07FBB
:100E300010B50C461107090F092904D00A290AD058
:100E400008290CD104E011460820FFF7D2FF06E084
:100E5000510606D501E0510601D50120C007214603
:100E600010BDD10607D501010909CC084907000EBC
:100E70000006044309E0410F20024907000A01432C
:100E8000200E00061D22D14101430846E7E700007D
:100E900001491820ABBEFEE726000200704730B5BE
:100EA0008C180278401C13071B0F01D10378401CDB
:100EB000120906D10278401C03E00578401C0D7031
:100EC000491C5B1EF9D101E00B70491C521EFBD17D
:100ED000A142E6D3002030BD06480068C0B20B280E
:100EE00007D105480168054A118041685180806832
:100EF00090807047203000408082554008022020BA
:100F0000B0B50A78032313400B4A84580B4D254093
:100F1000EB18A92424061B198350072212064B68DC
:100F200013401124240205599543EA18025100196F
:100F300049780161B0BDC04608080000FCFFFF0011
:100F4000811E091F00BFFCD270470000F0B583B0BE
:100F50000B794A79002A2BD01B4A1C4C1C4F202BA2
:100F600002D00525EE0100E04C4E851802190092D2
:100F7000C219002B00D188261768474C2740BF199B
:100F8000176057682740BE1956602E68804F3E4054
:100F90002E606E683E406E600025009C2560656096
:100FA0008F24E44315692540156155692540556135
:100FB00001AA13718B79537109680191114600F0F0
:100FC00009F803B0F0BDC0463818000058180000FA
:100FD00078180000F0B584B06B4A82180292734B07
:100FE000C618784BC21800922A4BC4180A7901918E
:100FF0000D68294F202A03920AD0254BC018002AD9
:1010000017D16B1E029A536023683B40882517E076
:10101000681E029A506020683840204B18432060B8
:101020006068384018436060012045071C4F104637
:1010300008E06B08029A536023683B400525ED01E8
:101040002B432360009903683B402B4303603068C7
:101050004F4B184030607068184070600020086086
:1010600048608F20C04323690340236163690340C4
:1010700063610198407903990843BD2101401068DC
:10108000084B0340C818801C106004B0F0BDC04677
:10109000741800007018000024493E00010400008C
:1010A000FFFFFFCF4000FFCF70B5374A82184B6873
:1010B00053603E4BC3180878222857D8840001A5F6
:1010C0002C59A746631100006D1100006311000048
:1010D0006D1100006D1100006D1100006D11000018
:1010E0006D1100006D1100006D1100006D11000008
:1010F0006D1100006D1100006D1100006D110000F8
:101100006D110000511100006D110000511100001F
:101110006D1100006D1100006D1100006D110000D7
:101120006D1100006D1100006D1100006D110000C7
:101130006D1100006D1100006D1100006D110000B7
:101140006D110000511100006D11000051110000DF
:10115000032424071568A543012464072C1914608F
:1011600004E0032424071568A54315600C69D460C6
:10117000CC68064D25401C68054E264074191C603D
:10118000097A0143116070BD0418000077770200EE
:101190008888FDFF10B507239B0419409200801832
:1011A000024A84589C436118815010BD30180000D9
:1011B00010B5029CA400001911431943014A815043
:1011C00010BDC0465018000092008018014A81509E
:1011D0007047C0461018000010B501221203831892
:1011E0000C789C604B7883508978014A815010BDFF
:1011F0000C110000B0B51122120283580124A34340
:1012000083508B780C881C438B882343094C1C40EB
:101210008358094D1D402B1983508B79CC791C4381
:10122000097A21437E231940801842689A43511855
:101230004160B0BD18670000E798FDFF10B50122BE
:10124000120383180C789C604978815010BD00000F
:10125000F0B582B0002843D0032606407D21090264
:1012600001221304654C002E054637D0616000252D
:101270000195A5602568052700973D4325602568F1
:101280001D4208D125681D4205D125681D4202D1A5
:1012900025681D42F3D0256895432560012E03D1B2
:1012A000451E04283DD21BE06160019DA5602568B4
:1012B000009F3D43256025681D4208D125681D42D9
:1012C00005D125681D4202D125681D42F3D0D543C2
:1012D00027682F402760022E04D1851E042820D2C3
:1012E00002B0F0BD6160019DA5602568009E354398
:1012F000256025681D4208D125681D4205D1256855
:101300001D4202D125681D42F3D025689543256012
:10131000C51E042805D2E3E72068904320602D1FF6
:10132000DED061600020A060276805263743276073
:1013300027681F4208D127681F4205D127681F422E
:1013400002D127681F42F3D0276897432760616066
:10135000A06027683743276027681F4208D12768A5
:101360001F4205D127681F4202D127681F42F3D0D0
:101370002768974327606160A0602768374327602C
:1013800027681F4208D127681F4205D127681F42DE
:1013900002D127681F42F3D0276897432760616016
:1013A000A06020683043206020681842B4D12068D3
:1013B0001842B1D120681842AED120681842F3D04B
:1013C000AAE7C04641010D484160002181600168E3
:1013D00005220A43026001210A040368134208D16E
:1013E0000368134205D10368134202D10368134214
:1013F000F3D002688A4302607047C04610E000E004
:1014000070B50122110637480346103B1B68DC010A
:1014100013D45A0222D401221103DC0438D49A03D3
:101420005BD501225404304D2B682E68234255D1E0
:10143000264244D12E682F4B1BE02B4C2568236895
:101440000D421DD10B4245D1012223685B02274B7F
:101450003DD49205246814423CD137E00122940522
:10146000214D2B682E68234220D1264227D12E6899
:101470001E4B0E4220D12D680D42214627D029E077
:101480005B021A4B22D4950524682C421FD021E020
:10149000FB4C256823680D4213D10B421AD101225F
:1014A00023689B03134B12D45204D3E70F4B0E4215
:1014B00003D12A680A4202D10D4A214607E021469B
:1014C00008E09B030B4B01D45504DDE7084A1C8858
:1014D000A2181A8002680A43026070BD054B0E42D2
:1014E000E7D0EAE748100A4080130A40260220208D
:1014F000FFFF00002802202070470000F0B589B0EF
:101500000393019207910890DA49812006900860C0
:10151000D94D01272F602F6402262E602F612F6086
:1015200005242046FFF74EFF2F612046FFF74AFFB4
:101530002E61089840000590C0B200F0F7FB2E61C4
:1015400002972F60CB4CCD48206004962E60CC4C87
:101550002068C00736D00520FFF734FF2068C00799
:1015600030D00520FFF72EFF2068C0072AD00520C5
:10157000FFF728FF2068C00724D00520FFF722FFCF
:101580002068C0071ED00520FFF71CFF2068C00799
:1015900018D00520FFF716FF2068C00712D00520DD
:1015A000FFF710FF2068C0070CD00520FFF70AFFE7
:1015B0002068C00706D00520FFF704FF2068C00799
:1015C00000D00CE1049C2C610698FC4F3860012689
:1015D0002E602E64079800F0A9FB2C6108962E60FF
:1015E000F74838602C60F84C2068C00736D00520DA
:1015F000FFF7E8FE2068C00730D00520FFF7E2FEC5
:101600002068C0072AD00520FFF7DCFE2068C0074D
:1016100024D00520FFF7D6FE2068C0071ED0052085
:10162000FFF7D0FE2068C00718D00520FFF7CAFEDC
:101630002068C00712D00520FFF7C4FE2068C0074D
:101640000CD00520FFF7BEFE2068C00706D005209D
:10165000FFF7B8FE2068C00700D0D8E0022129615A
:101660000698D64F3860089E2E602E6438602E6033
:101670002E6429600F462E612E6005242046FFF758
:10168000A1FE2E612046D04CFFF79CFE2F610598ED
:101690003043C0B200F04AFB2F612E603E46C8487E
:1016A000C64908602F602068C00736D00520FFF7C4
:1016B00089FE2068C00730D00520FFF783FE206830
:1016C000C0072AD00520FFF77DFE2068C00724D080
:1016D0000520FFF777FE2068C0071ED00520FFF722
:1016E00071FE2068C00718D00520FFF76BFE206848
:1016F000C00712D00520FFF765FE2068C0070CD098
:101700000520FFF75FFE2068C00706D00520FFF721
:1017100059FE2068C00700D092E005962E61069E13
:10172000A6480660089828600446286400210198AD
:10173000022800910F4625D3451E0195039E27469A
:101740004D4C00F09FF830709C480699016027606E
:1017500027643846059F2761206105200790FFF721
:1017600031FE0898206127600798FFF72BFE27615C
:10177000089F27606D1E761C002DE2D13C463E4D31
:10178000069E019F00F07EF80399C8558B480660BD
:1017900026462C602C64059F2F612C610524204671
:1017A000FFF710FE2E602F602046FFF70BFE2F6123
:1017B0002E60069E009F81480660029E2E602E6469
:1017C000049828612E61286005242046FFF7FAFD61
:1017D0002E602046FFF7F6FD384609B0F0BD2646DC
:1017E00005242046FFF7EEFD3068069E734806602C
:1017F000029F2F602F64049828612F612860204683
:10180000FFF7E0FD2F602046FFF7DCFDD3E705275B
:101810003846FFF7D7FD2068684806990160089EA2
:101820002E602E64049C2C612E612C603846FFF7DC
:10183000C9FD2E60069E3846FFF7C4FD2746BAE76D
:10184000274605242046FFF7BDFD3868069F5B4804
:1018500007603046089E2E602E6428612E61286045
:101860002046FFF7AFFD2E603E462046FFF7AAFD5B
:101870000327A0E70480424090120A408100040040
:1018800080130A40F0B587B04C484D4901604D4F78
:1018900002263E6005242046FFF794FD3D46103D9C
:1018A0002E602046FFF78EFD4748006806902046D0
:1018B000FFF788FD3E602046FFF784FD2E6020463E
:1018C000FFF780FD4048006805902046FFF77AFD4D
:1018D0003E602046FFF776FD2E602046FFF772FD42
:1018E000394F386804902046FFF76CFD3548066094
:1018F0002046FFF767FD2E602046FFF763FD38683E
:1019000003902046FFF75EFD2E4806602046FFF755
:1019100059FD2E602046FFF755FD3868029020469D
:10192000FFF750FD274806602046FFF74BFD2E606D
:101930002046FFF747FD3F682046FFF743FD21485B
:1019400006602046FFF73EFD2E602046FFF73AFD79
:10195000F548006801902046FFF734FD19480660FD
:101960002046FFF72FFD2E602046FFF72BFDEE48A7
:1019700005682046FFF726FD124806600120059AFB
:1019800002400699C907890F51188900049AD207A5
:10199000920F8918039A024051188900029AD207BF
:1019A000920F8918074079188900019AD207920F7F
:1019B000891805406818C0B207B0F0BD04804240E5
:1019C00081000400A0120A4080130A40F0B587B0DD
:1019D0000393049201910690D049812005900860FC
:1019E000CF4F01253D603D6402243C603D613D6078
:1019F00005263046FFF7E6FC3D613046FFF7E2FC86
:101A00003C6106984006000E00F090F93C613D6094
:101A1000C448C249086002943C60C34C2068C007B7
:101A200036D00520FFF7CEFC2068C00730D0052057
:101A3000FFF7C8FC2068C0072AD00520FFF7C2FCCA
:101A40002068C00724D00520FFF7BCFC2068C00731
:101A50001ED00520FFF7B6FC2068C00718D005206F
:101A6000FFF7B0FC2068C00712D00520FFF7AAFCE2
:101A70002068C0070CD00520FFF7A4FC2068C00731
:101A800006D00520FFF79EFC2068C00700D0FAE0D2
:101A9000029FFA4E37610598F74C206001253560AA
:101AA0003564019800F042F92946376135609D4858
:101AB000206037609C4D2868C00706913FD0052004
:101AC000FFF780FC06992868C00738D00520FFF78B
:101AD00079FC06992868C00731D00520FFF772FC11
:101AE00006992868C0072AD00520FFF76BFC0699E5
:101AF0002868C00723D00520FFF764FC06992868F2
:101B0000C0071CD00520FFF75DFC06992868C007B8
:101B100015D00520FFF756FC06992868C0070ED09F
:101B20000520FFF74FFC06992868C00707D005205D
:101B3000FFF748FC06992868C00700D0C6E00224D9
:101B4000CE4F3C610598CC4D2860396039640498CB
:101B5000002800D183E0002609E03C61C64D0598CD
:101B6000286039603964761C0498B04277D00398B5
:101B7000805D00F0DBF806993C61396069482860B7
:101B80003C60694D2868C007E7D00520FFF71AFCC4
:101B900006992868C007E0D00520FFF713FC0699D6
:101BA0002868C007D9D00520FFF70CFC06992868E3
:101BB000C007D2D00520FFF705FC06992868C007AA
:101BC000CBD00520FFF7FEFB06992868C007C4D0DC
:101BD0000520FFF7F7FB06992868C007BDD0052050
:101BE000FFF7F0FB06992868C007B6D00520FFF77D
:101BF000E9FB06992868C007AFD00520FFF7E2FB94
:101C000006992868C007A8D005200490FFF7DAFBE2
:101C10002868994D059828600698386038643C61BA
:101C200038613C60049D2846FFF7CCFB069838607D
:101C30002846FFF7C7FB9048059901600698386071
:101C400038643C61386105463C60049C2046FFF7DF
:101C5000B9FB3D602046FFF7B5FBF51C10E0059889
:101C60002860396039643C6139613C600524204654
:101C70000D46FFF7A7FB3D602046FFF7A3FB0025BD
:101C8000E8B207B0F0BD05263046FFF79BFB2068A1
:101C9000794805990160794F3D603D64029C3C6143
:101CA0003D613C603046FFF78DFB3D603046FFF7FD
:101CB00089FB0598704908603D603D643C613D6169
:101CC0003C603046FFF77EFB3D6022E00526304653
:101CD0000C46FFF777FB2868674805990160674F56
:101CE0003C603C64029D3D613C613D603046FFF7D5
:101CF00069FB3C603046FFF765FB05985E4908606C
:101D00003C603C643D613C613D603046FFF75AFBFE
:101D10003C603046FFF756FBB2E7C04604804240C5
:101D200090120A408100040080130A40F0B581B08F
:101D3000514A81211160514F01243C603C640225CD
:101D40003D61009040B210370028384600DA4B4819
:101D500004602046FFF736FB4848056005263046FC
:101D6000FFF730FB454805613046FFF72BFB009835
:101D70004006384600D5414804602046FFF722FB64
:101D80003E4805603046FFF71DFB3C480561304684
:101D9000FFF718FB00988006384600D537480460E6
:101DA0002046FFF70FFB354805603046FFF70AFB7A
:101DB000324805613046FFF705FB0098C0063846FB
:101DC00000D52E4804602046FFF7FCFA2B4805603A
:101DD0003046FFF7F7FA294805613046FFF7F2FA77
:101DE00000980007384600D5244804602046FFF7D5
:101DF000E9FA224805603046FFF7E4FA1F4805611A
:101E00003046FFF7DFFA00984007384600D51B48F8
:101E100004602046FFF7D6FA184805603046FFF701
:101E2000D1FA164805613046FFF7CCFA00988007D2
:101E3000384600D5114804602046FFF7C3FA0F4822
:101E400005603046FFF7BEFA0C4805613046FFF7E3
:101E5000B9FA0098C00700D0084F3C602046FFF751
:101E6000B1FA064C25603046FFF7ACFA25613046E2
:101E7000FFF7A8FA01B0F0BD0480424090120A407A
:101E8000F0B589B001AC0FC468273B21062507AC2B
:101E900038462A462346FFF731FB432105AE384634
:101EA0002A463346FFF72AFB60780799090208188B
:101EB00001990880E078A178090208180299088041
:101EC00060790899090208180399088070780599C3
:101ED0000902081804990880F078B17809020818F6
:101EE0000E99088070790699090208180F990880E0
:101EF00009B0F0BDF0B589B0FFF7FEFA08AB0124D8
:101F00001C7007AD0020287006AF0920387005A9A5
:101F100000910620087004A902911820087003A9F6
:101F20000191087068266B2130462246FFF74EFD6E
:101F30006C21304622462B46FFF748FD19213046DA
:101F400022463B46FFF742FD1A2130462246009BBF
:101F5000FFF73CFD1C2130462246019BFFF736FD72
:101F60001B2130462246029BFFF730FD09B0F0BD31
:101F7000F0B581B000252E4C01F01EFD2B4E3068CF
:101F8000216902F02DFD20617068616902F028FD71
:101F90006061F068E16902F023FDE0613069216A67
:101FA00002F01EFD20627069616A02F019FD606234
:101FB000B068FEF701FD1F4A1F4BFEF7A9FB06465E
:101FC0000F46A069FEF7F8FC02460B46304639463C
:101FD000FEF79EFBFEF7E2F9A0610A20FFF738F951
:101FE000681C632D0546C7D32069144D2946FEF7AA
:101FF0000DFD206160692946FEF708FD6061A0695A
:102000002946FEF703FDA061E0692946FEF7FEFCC4
:10201000E061206A2946FEF7F9FC2062606A2946E1
:10202000FEF7F4FC606201B0F0BDC046A4032020BE
:10203000080120209A999999999923C00000C842D3
:10204000F0B581B0437D0025002B00D1ED43EB437B
:1020500009B20029009500DC1D46C0C83D4025247A
:10206000E4013259BA43521932510838002900DCD0
:10207000009BC268134085682E599643F2182A5176
:10208000CA175140891A0369027D1846FFF79CF868
:1020900001B0F0BDF0B583B001200607C7070020EE
:1020A000524C00900290C0B20190009D294600F071
:1020B000C1FB4F49206830432060206838432060CE
:1020C000206808402060781E216801402160782047
:1020D00000F01CF8402000F019F8002000F016F87D
:1020E0004349206808402060206838432060206809
:1020F00030432060681C45B2002DDBD50298401C9F
:1021000001990729CED303B0F0BDC046F0B53749D9
:102110000A68374C2240802303405B05D2180A60CE
:10212000344A531C0D681D430D600D6815400D6049
:1021300001252D0786052E400F682740BE190E6029
:102140000E681E430E600E6816400E60C6052E40D7
:102150000F682740BE190E600E681E430E600E68A1
:1021600016400E6006062E400F682740BE190E600E
:102170000E681E430E600E6816400E6046062E4026
:102180000F682740BE190E600E681E430E600E6871
:1021900016400E6086062E400F682740BE190E605E
:1021A0000E681E430E600E6816400E60C6062E4076
:1021B0000D682540AD190D600D681D430D600D685B
:1021C00015400D600D682540C007C008281808603C
:1021D00008681843086008681040086008681843D9
:1021E0000860086810400860F0BDC04680120A40D0
:1021F000FFFFFFEFFFFFFF7FF0B585B00120C707AE
:10220000FC4E316839433160040730682043306048
:102210003068204330603068384330603068F649B9
:10222000084030607D1E306828400195306078207D
:102230000290FFF76BFF00200490FFF767FFAE20CE
:10224000FFF764FF3068EC4908403060306838437D
:102250003060306820433060306820433060306840
:102260003843306030680840306030682840306063
:10227000029D2846FFF74AFF0498FFF747FFD52045
:10228000FFF744FF3068DC4908403060306838436D
:102290003060306803942043306030682043306001
:1022A0003068384330603068084030603068019CE6
:1022B000204030602846FFF729FF049D2846FFF79D
:1022C00025FF8020FFF722FF3068CB4908403060AF
:1022D00030680097384330603068039A10433060AC
:1022E00030681043306030683843306030680840F0
:1022F0003060306820403060029F3846FFF706FFAC
:102300002846FFF703FFA820FFF700FF3068BA490F
:10231000084030603068009C204330603068039B88
:1023200018433060306818433060306820433060B4
:102330003068084030603068019D28403060384681
:10234000FFF7E4FE0498FFF7E1FE3F20FFF7DEFE13
:102350003068A94908403060306827462043306023
:102360003068039C20433060306820433060306820
:102370003843306030680840306030682840306052
:10238000029D2846FFF7C2FE0498FFF7BFFED32048
:10239000FFF7BCFE30689849084030603068384329
:1023A00030603068204330603068204330603068EF
:1023B0003843306030680840306030680199084028
:1023C00030602846FFF7A2FE049D2846FFF79EFED8
:1023D0002846FFF79BFE3068874908403060306828
:1023E00038433060306820433060306820433060CC
:1023F000306838433C4630603068084030603068B0
:10240000019D284030600298FFF780FE049F384607
:10241000FFF77CFE4020FFF779FE3068764A1040D7
:1024200030603068204330603068039B1843306070
:1024300030681843306030682043306030681040A6
:102440003060306828403060029D2846FFF75EFE0D
:102450003846FFF75BFEA120FFF758FE3068F449CD
:10246000084030603068204330603068039A104381
:102470003060306810433060306820432746306059
:102480003068084030603068019C20403060284649
:10249000FFF73CFE049D2846FFF738FEC820FFF7F3
:1024A00035FE3068E24908403060306838433060BB
:1024B0003068039A104330603068104330603068F1
:1024C0003843306030680840306030682040306009
:1024D000029F3846FFF71AFE2846FFF717FEDA205C
:1024E000FFF714FE3068D249084030603068009C25
:1024F000204330603068039B1843306030681843D5
:1025000030603068204330603068084030603068A8
:10251000019D284030603846FFF7F8FD0498FFF72A
:10252000F5FD1220FFF7F2FD3068FC4908403060ED
:102530003068204330603068039A10433060306860
:1025400010433060306820432746306030680840D0
:102550003060306828403060029C2046FFF7D6FD8E
:102560000498FFF7D3FD8120FFF7D0FD3068EB4AD8
:102570001040306030683843306030680399084359
:10258000306030680843306030683843306030680D
:10259000104030603068284030602046FFF7B6FDBC
:1025A000049C2046FFF7B2FDCF20FFF7AFFD306857
:1025B000DA4A104030603068384330603068039940
:1025C000084330603068084330603068384330601A
:1025D000306810403060306828403060029F3846D4
:1025E000FFF794FD2046FFF791FDD920FFF78EFD00
:1025F00004E0C04680120A40FFFFFFEF3068C74B7F
:102600001840306030680099084330603068039AA1
:1026100010433060306810433060306808433060E9
:102620003068184030603068019C20403060384687
:10263000FFF76CFD049D2846FFF768FDF120FFF7CA
:1026400065FD3068F84A104030603068009F3843BC
:102650003060306803990843306030680843306068
:102660003068384330603068104030603068204057
:1026700030600298FFF74AFD2846FFF747FDDB2050
:10268000FFF744FD3068E84908403060306838435F
:1026900030603068039C20433060306820433060F5
:1026A0003068384330603068084030603068019DE1
:1026B000284030600298FFF729FD0498FFF726FDB7
:1026C0003020FFF723FD3068D7490840306030687C
:1026D00038433060306820433060306820433060D9
:1026E00030683843306030680840306030682840D7
:1026F0003060029D2846FFF709FD0498FFF706FDAC
:10270000A420FFF703FD3068C749084030603068F7
:102710003843306030682043306030682043306098
:102720003068384330603068084030603068019964
:10273000084030602846FFF7E9FC049D2846FFF773
:10274000E5FCA620FFF7E2FC3068B749084030609E
:102750003068384330603068204330603068204350
:102760003060306838433C46306030680840306044
:102770003068019908403060029F3846FFF7C6FC78
:102780002846FFF7C3FC8D20FFF7C0FC3068A64940
:102790000840306030682546204330603068039C34
:1027A0002043306030682043306030682843306018
:1027B0003068084030603068019908403060384621
:1027C000FFF7A4FC049F3846FFF7A0FC1420FFF796
:1027D0009DFC306894490840306030682843306080
:1027E00030682043306030682043306030682843D0
:1027F00030603068084030603068019908403060CF
:102800000298FFF783FC3846FFF780FCAF20FFF704
:102810007DFC30688449084030603068284330606F
:10282000306820433060FFF735FC05B0F0BDC0468E
:10283000FFFFFFEFF0B585B0029100900120040783
:10284000784F396821433960C507386828433860B4
:102850003868754908403860691E386808400E4677
:102860000191386078200490FFF750FC002003901D
:10287000FFF74CFCB02000990843FFF747FC38688D
:102880006949084038603868284338603868204310
:1028900038603868204338603868284338603868C2
:1028A000084038603868304038600498FFF72EFCE4
:1028B0000398FFF72BFC029E30091030FFF726FC2F
:1028C00038685949084038603868284338603868A3
:1028D00020433860386820433860386828433860BF
:1028E00038680840386038680199084038600498B2
:1028F000FFF70CFC0398FFF709FC0F203040FFF7AF
:1029000005FC386848490840386038682843386012
:1029100038682043386005B0F0BDC046FFFFFFEFC8
:10292000F0B587B0154640000390801EC0B2C900C4
:102930000839C9B20291FFF77DFF2801374901909C
:10294000401837494018049001200107C2070025AC
:10295000344F354B06913868084338603868104367
:102960003860386818403860511E38680591084052
:102970003860782014461E46FFF7C8FB4020FFF75A
:10298000C5FB0498405DFFF7C1FB3346224606991C
:102990003868304038603868204338603868084309
:1029A00038606D1C082DD6D10398401EC0B2029924
:1029B000FFF740FF3346224606990198184D281824
:1029C000164D4019083004900025386808433860D7
:1029D000386810433860386818403860386805999E
:1029E000084038607820FFF791FB4020FFF78EFB0E
:1029F0000498405DFFF78AFB334622460699386803
:102A000030403860386820433860386808433860A0
:102A10006D1C082DD9D107B0F0BDC046404D000057
:102A200000FEFFFF80120A40FFFFFFEFF0B587B006
:102A300003AC0FC4002B3CD00698451E801E0190AD
:102A40000026494F029513E0012104983418059897
:102A500001F07AFC0A21FDF7A1FB30220A43E1B222
:102A60000398FFF75DFF6D1E761C0698864220D006
:102A700002988642E8D003200199891B032901D2DC
:102A8000012105E02A46824301217943121FFCD12E
:102A9000F243069BD2180240D7D0012A01D10A2066
:102AA00005E0022A02D07D20C00000E064204143FE
:102AB000CBE707B0F0BDC046F0B587B0069314462B
:102AC0000D46002A049005D405942B222946FFF7D1
:102AD00027FF05E02D222946FFF722FF64420594D7
:102AE000069800283ED00698471E801E0190681C5C
:102AF000029000251C4E039713E00121029844190F
:102B0000059801F021FC0A21FDF748FB30220A4319
:102B1000E1B20498FFF704FF7F1E6D1C0698854202
:102B200020D003988542E8D003200199491B03294E
:102B300001D2012105E03A46824301217143121F6F
:102B4000FCD1EA43069BD2180240D7D0012A01D11A
:102B50000A2005E0022A02D07D20C00000E06420A7
:102B60004143CBE707B0F0BD10270000F0B581B0BE
:102B70000646107800280DD014460D460027791916
:102B8000C9B2C2B23046FFF7CBFE7F1CF8B2205C60
:102B90000028F4D101B0F0BDF0B585B00491044631
:102BA000C6694E480568A81BFEF74AF84C49FDF770
:102BB0002DFF002E07D007467F20C105384601F0C3
:102BC00006FD002804D1202001212154002767613F
:102BD000E5612068049901F0C7FF0646A568002159
:102BE000284601F0D3FC00283BD102950025384649
:102BF000294601F0CBFC002833D12020205C01289D
:102C0000039605D12046203005700195049E09E009
:102C10002169049E304602F00BF83946FDF7F6FEB6
:102C20000190A56926612F480168384601F0D8FE59
:102C300001463846FDF7EAFE06460198294601F0AE
:102C4000F7FF0146304601F08FFF294601F0C8FE2C
:102C50000146A061029801F087FF039901F0C0FED0
:102C6000064665680021284601F090FC00282ED118
:102C70000021384601F08AFC002828D10396284616
:102C8000049901F071FF394601F06EFF616901F0AE
:102C9000A7FE0746A6897042FDF7CAFF05463846DB
:102CA000294601F0A1FC002800D13D463046FDF741
:102CB000C7FF06462846314601F07EFC002800D1B9
:102CC0002E4666610398314601F08AFE064630467C
:102CD000FDF74CFF00B205B0F0BDC046A0032020B8
:102CE00000007A4448002020002101614161816197
:102CF000C16110300174704710B5174C1749204658
:102D0000FEF79CFA16492046FEF774FA0321CA031F
:102D100014480368934303600269134B13401A334A
:102D2000036142690A433C218A43426142680121AE
:102D30000A4043688B439A1842608A020B4B1C6816
:102D400014431C60FF2212066D4B1C6894431C60E8
:102D500002680A43026010BD00005040305300007A
:102D600032530000001150400000FFFF2810504077
:102D700010B524488522826401231C0222490C607C
:102D8000C2645A020A6082228263204AC26381229C
:102D9000826042611E4B5A655A66026642661D4C4D
:102DA0001C655C631C605C6142600260C465846594
:102DB0009C639C640A46303A0320430613600A462B
:102DC000403A154B1360154A0A600106144A13680D
:102DD0000B4313601369134C23431361124A1368A6
:102DE0000B43136051682143516010490A6A104B2C
:102DF0001A430A620A681A430A6000020D49086011
:102E0000086310BD04804240D0120A4082000400D2
:102E10008880424081000500030000900300009676
:102E200090130A400C30030008150A4028100A408D
:102E300000104201A0320A4070B582B0194C1A4904
:102E40002046FEF7C9F919492046FEF77FF800250C
:102E50000095204629462A462B46FEF7A9F920462A
:102E600029462A46FEF796F9204629462A46FEF7C5
:102E7000ABF901260096204629462A462B46FEF746
:102E800097F9204629463246FEF784F9204629461E
:102E90003246FEF799F9064886600321016002B0C8
:102EA00070BDC046000086403C5300004053000007
:102EB000001186401048002101600320C0430F49E3
:102EC0000A46083A1368034013600A6801208243E7
:102ED0000A6002020B6893430B600203091F0B6830
:102EE00013430B60FF210902054A13688B438003DB
:102EF000181810607047C04608030B4008010B40CB
:102F000000E400E010B518481849FDF7F9FF18482B
:102F10004168184A0A400321090451184160816838
:102F2000154A0A4001214B06D2188260134A052334
:102F300013600623536007239360114A42618A029B
:102F4000104B1C6A14431C621C6814431C60FF2253
:102F500012020D4B1C6894438A03A2181A6002687F
:102F60000A43026010BDC0460020004048530000E4
:102F700000310040FEFFECFFF8FFE0E08031004050
:102F8000409C00002830004004E400E080B500F0E0
:102F90001FF8FFF7EDFEFFF78DFFFFF74DFF00F085
:102FA00069F800F045F8FFF7A7FEFFF7ABFF7420C4
:102FB000044900220A54B82003490A542C2003492A
:102FC0000A5480BD180320205C0220202C022020FF
:102FD000F0B581B00D480E4941600E4A51600E4B6C
:102FE00059600E4C61600E4D69600E4E71600E4F5F
:102FF00079600E49016011601960216029603160BB
:1030000039601020FDF79CFF01B0F0BD00080A40B8
:10301000030000B100280A4000088640004808402C
:10302000008886400008504000280040010000262B
:1030300010B50B4C0B492046FEF7CEF80A49204646
:10304000FEF732F809480168012211430160FF20B0
:10305000000219490B6883430B600548026010BDEC
:103060000080864050530000545300002890864052
:103070000891864010B50C4C0C492046FEF7ACF880
:103080000B492046FEF710F80A4801680122114357
:10309000016009480168C0230B433F218B43036053
:1030A0000648026010BDC04600400840685300005A
:1030B0006C5300002850084010E400E0085108401C
:1030C0000021817181807047F0B581B0854800682A
:1030D000C0B2012800D065E3834908680006834C2C
:1030E000207800D5401C2070814A1388814D2B80A8
:1030F000814B1D8800261E80804B1D801680804BD2
:103100001D88804A15805A887F4F3A809B887F4F60
:103110003B800968E778C901C90FC919E1707C4F84
:103120003F78012F37D0002F00D0CDE0794F3F7886
:10313000042F6ED0032F53D0022F00D0C6E0764F5D
:103140003F880124BA42224600D83446BD42154683
:1031500000D832462243BB422B46644C00D833464B
:103160001A43012A0FD16D4A002353616C4A5361FF
:103170006C4A53616C4A1278521E531E9A41644B3A
:103180001A70644B1A70694A1278C9B2914200D918
:103190008CE000218BE066480088854200D393E0F4
:1031A000824200D390E0834200D38DE05E4D2878C8
:1031B000411E012951D8574802210170002054496D
:1031C0000870206055494861554948615549486132
:1031D00058480178491C0170C8B2012862D873E0D0
:1031E000554D28880A3028805449098880B2884281
:1031F0006AD90220474908700026454806702660B3
:1032000000F08AFC2E804E4901F0EAFB4D4908602F
:103210005AE04148068801200021B242074600D802
:103220000F46B542054600D80D463D43B34200D88F
:1032300008460543012D47D13B48007801282ED090
:103240000120344908703249087034480021416136
:103250003348416133484161D0E0C01E012833D872
:103260002C48032101700020294908702060324851
:1032700001210180344E3078401C307000F04CFC4D
:103280002F4901F0ADFB31490860307829780329D6
:1032900001D1012803D8042916D1072814D9002008
:1032A0001B4908701B480021017051E00121C3B285
:1032B000934200D80D46012D06D10421154B1970FB
:1032C0000021134B197067E012480778042F00D9CA
:1032D00068E2C0467F443F797F00BF44398D657AFC
:1032E0005A00C0462050084080330A4098032020EE
:1032F00026022020D403202028022020D6032020CC
:1033000008022020920320209003202094032020F4
:103310009E03202020022020320120203C0120207A
:10332000A4002020E0002020380120208000202060
:1033300030012020DA032020E40320208001202017
:10334000000034C314022020DB032020E0032020EF
:103350000025D348405FFDF76BFC0146D14800686B
:1033600001F002FC0146D048FFF716FCCF4C20804C
:10337000CF48405FFDF75CFC0146CE48006801F095
:10338000F3FB0146CC48FFF707FCCC4908802088B6
:10339000FEE1CB4802782078C0B2904238D9C948C3
:1033A00000884000454239E0C7480078411E0129A5
:1033B00040D8FD480078012800D153E1002800D012
:1033C000AEE100F0A9FBF94901F00AFB0146F8481B
:1033D000A2E1FB480088002800D1E3E1F948027827
:1033E0009000F4494018001F0168F7480068D207B0
:1033F00076D101F01DFC81E0F7480288F74800888B
:10340000F4490988EC4B1B889A420AD9081AD6E07D
:10341000E07890421FD9F94800884500F6480580B9
:103420001BE0814200D8C4E04018E4490988490003
:10343000081AC4E0C01E012800D971E1E8480478E8
:1034400000F06AFBE74901F0CBFAE10700D03DE16B
:10345000E84909685CE1E84805880026DB48805FA8
:10346000FDF7E6FB044628B2FDF7E2FB0546E4481B
:103470000168204601F078FB294601F0D9FB01469E
:10348000DA48FFF789FBDF4F3880D148805FFDF7CE
:10349000CFFB0446D848805F4042FDF7C9FB054694
:1034A000D9480168204601F05FFB294601F0C0FBC6
:1034B0000146CF48FFF770FBD449884200DC08463C
:1034C000E1225201904200DB1046D14B1880B85FD8
:1034D000884200DC0846904200DB1046388057E105
:1034E00001F07EFA0446002101F07EF80546C94944
:1034F000204601F075FA002D00D12046C64F3860F5
:1035000000F00AFBB74D294601F06AFA0024214673
:1035100001F06AF8064600F0FFFA294601F060FA69
:103520000546BC4901F05CFA002E00D128463968F6
:1035300001F07EFB0146B948FFF72EFBB84E308004
:10354000FDF776FB0546A148005FFDF771FBAC492E
:10355000096801F009FB294601F06AFB0146A3480E
:10356000FFF71AFBA74F38809948005FFDF760FB13
:103570000546305F4042FDF75BFB0646A248016806
:10358000284601F0F1FA314601F052FB0146984815
:10359000FFF702FB9D49884200DC0846E122520108
:1035A000904200DB10469A4B1880385F884291DDCC
:1035B00091E772D240189F4909884900401A9C49F6
:1035C000088000B2FDF734FB01468748FFF7E4FAB4
:1035D00004469948048000267C48805FFDF728FB5C
:1035E0000546924F38880019FDF722FB04468448AF
:1035F0000168284601F0B8FA214601F019FB01469E
:103600007A48FFF7C9FA7F4908807148805FFDF763
:103610000FFB04468848805F3988081AFDF708FBCD
:10362000054679480168204601F09EFA294601F0D6
:10363000FFFA01466E48FFF7AFFA7449884200DC92
:103640000846E1225201904200DB1046704B188080
:103650006C4B985F884200DC0846904200DB1046C5
:10366000188095E000F058FA5E4C214601F0B8F958
:10367000064600F051FA01466A4D284601F0D8FA94
:103680000146304601F0ACF9002100F095FF00281A
:1036900000D12546644829463EE06548008890E709
:1036A000D403202078002020A40020209C03202088
:1036B000D60320207C002020E0002020CC03202006
:1036C000800020204C0020203801202000242146AA
:1036D00000F08AFF074600F01FFA424901F080F926
:1036E00005464C4901F07CF90646002F00D12E46D4
:1036F000404807683846214600F053FF04463846E4
:10370000444901F06DF9002C00D107463046394696
:1037100001F08EFA01464148FFF73EFA4049088021
:1037200000262A48805FFDF783FA04463C48805F04
:103730003E4F39884018FDF77BFA0546304801684E
:10374000204601F011FA294601F072FA0146274895
:10375000FFF722FA2B4908801D48805FFDF768FAC1
:1037600004462F48805F3988081AFDF761FA05463C
:1037700025480168204601F0F7F9294601F058FA7A
:1037800001461B48FFF708FA214908801D480088B8
:1037900001B22A48FEF754FC00201D49095E284862
:1037A000FEF74EFC01B0F0BDDA032020000034C368
:1037B0005000202060012020840020208200202052
:1037C000E4032020DB032020E0032020D40320207A
:1037D000D603202092032020900320209403202051
:1037E000DB032020000034C33C012020A400202063
:1037F000E000202014022020220220204C00202063
:10380000780020209C0320207C002020E0E3FFFFA4
:10381000CC0320200000B443DC03202084012020BE
:10382000EC03202000003443500020204E002020D4
:10383000D803202082002020180220208C00202085
:10384000C800202004480068C0B2012803D1034802
:103850000168491C0160704720908640A003202029
:1038600080B501467F20C005FDF7D0F8014908600A
:1038700080BDC04688002020F0B581B0384805687A
:1038800038480168284601F06FF904463648006858
:1038900036490F68394601F067F9214601F0A0F872
:1038A00006463846394601F05FF901463F200406D6
:1038B000204601F0BDF907462846294601F054F993
:1038C0000146384601F0B4F90146304600F024FFC5
:1038D0009049086022480068234F396801F044F994
:1038E0000546224800681F4E316801F03DF9014647
:1038F000284601F09DF9014601F072F800F080FEC3
:103900007C49086038683568294601F02DF906467B
:103910001648006812490F68394601F025F931460A
:1039200001F05EF806463846394601F01DF90146B9
:10393000204601F07DF904462846294601F014F995
:103940000146204601F074F90146304600F0E4FEDD
:103950007A49086078480121017001B0F0BDC04685
:10396000C4032020C803202034012020C0032020CD
:10397000B0B500F021F8E54C2068D94D296901F077
:1039800057F920606068696901F052F96060A068C9
:10399000A96901F04DF9A060E068E96901F048F912
:1039A000E0602069296A01F043F920616069696A71
:1039B00001F03EF96061B0BDF0B583B03C480190C4
:1039C0003C4800903C483D493D4A3E4C2346FEF76A
:1039D00057FA0026A05FFDF72BF90721CD062946EF
:1039E00001F0C2F8384901F0BFF8384F394601F00C
:1039F000BBF8C64CE0602F48805FFDF719F92946F7
:103A000001F0B2F8304901F0AFF8394601F0ACF8F6
:103A100020612748805FFDF70BF9294601F0A4F8E3
:103A2000294901F0A1F8394601F09EF86061224869
:103A3000805FFDF7FDF8294601F096F88321CF0558
:103A4000394601F091F8FCF7B7FF214C214B224693
:103A5000FCF78EFEFCF7A2FCAC4908601748805FBB
:103A6000FDF7E6F8294601F07FF8394601F07CF8C9
:103A7000FCF7A2FF2246174BFCF77AFEFCF78EFC00
:103A8000A24948600E48805FFDF7D2F8294601F050
:103A90006BF8394601F068F8FCF78EFF22460D4BB3
:103AA000FCF766FEFCF77AFC9849886003B0F0BD2D
:103AB0001E0220201C0220200E02202010022020A6
:103AC000120220201A0220200000FA440000604068
:103AD0009A9999999999234080B5174800780028B8
:103AE00001D1FFF7C9FE03480068154901F03CF811
:103AF00080BDC046BC03202080B50F480078002858
:103B000001D1FFF7B9FE034800680D4901F02CF818
:103B100080BDC046D003202080B50748007800282B
:103B200001D1FFF7A9FE05480068054901F01CF81E
:103B3000044900F055FF80BD24022020E803202026
:103B4000E12E65420000344386B0FFF71FFAFEF70E
:103B500053FB624C2046FFF7B3FA7D20C000FDF70F
:103B600077FB5F480078FDF76BF801465D48FCF78E
:103B70004DFFFFF775FEFEF7BDF9FEF7F9F90125D8
:103B80006804594E3060594F386008203060386002
:103B90002046FFF795FA5648FFF7A6F85548FFF775
:103BA000A3F85548FFF7A0F85448FFF79DF854488C
:103BB000FFF79AF8280253490A6802430A60022074
:103BC0003060386020203060386028043060386011
:103BD00066E002240121059120464DA2FEF7C6FFB2
:103BE000FFF79AFFFCF7C2FF02460825032720468D
:103BF000294604953B46FEF75FFFFFF78DFF4649D8
:103C000000F0B2FFFCF7D8FF64210291FCF7C6FA7E
:103C10000A460D262046314603962346FEF706FF48
:103C2000384605993DA2FEF7A1FFFFF765FFFCF7B7
:103C30009DFF0246384629463B46FEF73DFFFFF70B
:103C40005BFF354900F090FFFCF7B6FF029D294667
:103C5000FCF7A4FA0A46384631462346FEF7E6FE4C
:103C60000426304605992FA2FEF780FFFFF734FFA8
:103C7000FCF77CFF0246304604993B46FEF71CFFEA
:103C8000FFF72AFF244900F06FFFFCF795FF294654
:103C9000FCF784FA0A46304603992346FEF7C6FE2F
:103CA0000F4CA168E268184803680020591A0346BF
:103CB00093412278891A83418BD313490968084AB2
:103CC0009160D060FFF754FE104A38CA003207CA2C
:103CD0000094019500F02AF87BE7C0460000202000
:103CE0000801202000007A4480E200E000E100E0CA
:103CF0003C0120205000202084012020A40020200E
:103D0000E000202004310040A0032020A403202054
:103D10005961773A000000000000C842526F6C6C95
:103D20003A00000050697463683A0000F0B59BB037
:103D3000139315460C46514E314600F015FF0746C9
:103D40002046314600F010FF0446169028463146C2
:103D500000F00AFF18900120C107494800681A9036
:103D60004140204600F000FF054646480068199093
:103D700039463C46109700F0F7FE0146284600F011
:103D800057FF0546404806683046189F394600F000
:103D9000EBFE0146284600F04BFF3F210906149137
:103DA00000F0E2FE159038461A9900F0DDFE074655
:103DB000364805682846214600F0D6FE394600F010
:103DC0000FFE07463046169C214600F0CDFE014608
:103DD000384600F02DFF149900F0C6FE1290189896
:103DE000199900F0C1FE07462846214600F0BCFEA6
:103DF000394600F01DFF074617963046109E3146A3
:103E000000F0B2FE394600F0EBFD149F394600F099
:103E1000ABFE11902046199900F0A6FE04461695B7
:103E20002846189900F0A0FE214600F0D9FD04466E
:103E30001A98314600F098FE0146204600F0F8FE40
:103E4000394600F091FE189000211398064614910F
:103E500000F09CFB219F209C002819D000212046C7
:103E600000F094FB002813D00021384600F08EFBB0
:103E700000280DD0159A129D119CD1E139FA8E3C83
:103E8000C4032020C0032020C803202034012020A8
:103E90002046214600F068FE05463046314600F0D7
:103EA00063FE294600F09CFD0546089738463946D2
:103EB00000F05AFE294600F093FD4610BF21090686
:103EC0000B9100F051FE0546D448871B2846394621
:103ED00000F04AFE394600F047FEFF218E053146CC
:103EE0000A9600F07DFD394600F03EFE0746284662
:103EF000394600F039FE394600F036FE314600F012
:103F00006FFD0146384600F02FFE064606901399D5
:103F100000F02AFE054613903046214600F024FEAC
:103F2000064610901A981A9900F05AFD0146099019
:103F3000284600F019FE05468120C1050E9116980D
:103F400000F012FE04461A981A9900F00DFE014680
:103F50000F90204600F008FE294600F041FD05467E
:103F6000199F3846394600F0FFFD01460D90204666
:103F700000F0FAFD294600F033FD054603208407D2
:103F80003846214600F0F0FD0790314600F0ECFD88
:103F9000294600F025FD0C90179D2846214600F08B
:103FA000E3FD01460590139800F0DEFD03903846CE
:103FB0000E9E314600F0D8FD044601902846294661
:103FC00000F0D2FD01460490204600F0CDFD03999B
:103FD00000F006FD044616980146054600F0C4FDB3
:103FE000314600F0C1FD0290394600F0BDFD21468A
:103FF00000F0F6FC06462846294600F0F1FC04468F
:10400000109900F0B1FD0146304600F011FE019D0F
:10401000294600F00DFE0646412001060391384670
:1040200000F0A2FD07460D9900F09EFD314600F01C
:10403000D7FC064638460F9900F096FD314600F051
:10404000CFFC07460698089900F08EFD01460690C1
:10405000284600F089FD394600F0C2FC0890014670
:1040600000F082FD05460C98014600F07DFD2946D2
:1040700000F0B6FC01901398214600F075FD04464F
:1040800002981A9900F070FD214600F0A9FC07463D
:104090001A980E9900F068FD0446049900F064FD3A
:1040A000394600F09DFC07460598109900F05CFD2C
:1040B000394600F095FC214600F0BAFD07461A98F3
:1040C000039900F051FD05460D9E314600F04CFD70
:1040D000394600F085FC074628460F9900F044FD5C
:1040E000394600F07DFC05462046069900F03CFD6F
:1040F000294600F075FC0690014600F035FD019957
:1041000000F06EFC05461398079900F02DFD04465B
:1041100030460E9F394600F027FD179E314600F0CD
:1041200023FD214600F05CFC04460F98394600F060
:104130001BFD314600F018FD214600F051FC0446FD
:104140000998109900F010FD0146204600F070FD1E
:104150001390014600F008FD294600F041FC46108E
:104160000B9900F001FD05467348861B2846314631
:1041700000F0FAFC314600F0F7FC0A9C214600F002
:104180002FFC314600F0F0FC06462846314600F090
:10419000EBFC314600F0E8FC214600F021FC014632
:1041A000304600F0E1FC05460C98294600F0DCFCA6
:1041B000014662480668304600F0D6FC0146159874
:1041C00000F036FD15900898294600F0CDFC014618
:1041D000304600F0C9FC0146129800F029FD074660
:1041E0000698294600F0C0FC0146304600F0BCFCB1
:1041F0000146119800F01CFD0446139829463D46DF
:1042000000F0B2FC0146304600F0AEFC01461898C2
:1042100000F00EFD159A189002E0C046DF59375F96
:10422000474814990170474807681046394600F01E
:104230009BFC169900F0D4FB16902846394600F0F6
:1042400093FC199900F0CCFB05462046394600F056
:104250008BFC1A9900F0C4FB06461898394600F00A
:1042600083FC179900F0BCFB0746199528462946A0
:1042700000F07AFC04461698014600F075FC2146D1
:1042800000F0AEFB04461A963046314600F06CFC56
:10429000214600F0A5FB04463846394600F064FC90
:1042A000214600F09DFB4410BF21090600F05CFC94
:1042B00005462148041B2846214600F055FC2146AE
:1042C00000F052FCFF218E05314600F089FB2146AB
:1042D00000F04AFC04462846214600F045FC2146F1
:1042E00000F042FC314600F07BFB0146204600F026
:1042F0003BFC05461698294600F036FC0D4908603F
:104300001998294600F030FC084908601A98294697
:1043100000F02AFC044908603846294600F024FCD5
:10432000034908601BB0F0BDC4032020C003202057
:10433000C803202034012020DF59375F740020207B
:10434000240220208800202043088B421AD3002218
:1043500003098B4279D3030A8B425ED3030B8B4252
:1043600042D3030C8B4227D30902FF2212BA030C5B
:104370008B4202D31212090203D0030B8B4233D3B8
:104380001AE0D3E0411A8041401C704703460B43BA
:1043900071D443088B42F5D3002203098B4254D3D6
:1043A000030A8B4239D3030B8B421DD3030C8B4280
:1043B00002D394466EE0090AC30B8B4201D3CB03B0
:1043C000C01A5241830B8B4201D38B03C01A524156
:1043D000430B8B4201D34B03C01A5241030B8B4258
:1043E00001D30B03C01A5241C30A8B4201D3CB0243
:1043F000C01A5241830A8B4201D38B02C01A524128
:10440000430A8B4201D34B02C01A5241030A8B422A
:1044100001D30B02C01A5241CDD2C3098B4201D342
:10442000CB01C01A524183098B4201D38B01C01AC0
:10443000524143098B4201D34B01C01A5241030937
:104440008B4201D30B01C01A5241C3088B4201D3E6
:10445000CB00C01A524183088B4201D38B00C01A93
:10446000524143088B4201D34B00C01A5241411ABA
:10447000524110007047CA0F00D04942031000D3C8
:104480004042534000229C4603098B422DD3030A2D
:104490008B4212D38901FC2212BA030A8B420CD33D
:1044A000890192118B4208D3890192118B4204D366
:1044B000890137D0921100E08909C3098B4201D3E9
:1044C000CB01C01A524183098B4201D38B01C01A20
:1044D000524143098B4201D34B01C01A5241030997
:1044E0008B4201D30B01C01A5241C3088B4201D346
:1044F000CB00C01A524183088B4201D38B00C01AF3
:104500005241D9D243088B4201D34B00C01A5241C9
:10451000411A00D201465241104663465B1000D357
:104520004042704763465B1000D3404201B5002112
:10453000004201D0C9430846C046C04602BD410002
:10454000080200D004200A0E01D001221043090EF7
:10455000FF2901D102210843012800D1052070471D
:1045600010B50121FCF77AFB10BD10B500F038FA48
:1045700010BD10B500210846FCF748FA10BD5E21B9
:1045800010B5C9430807FCF769FB10BD10B500F072
:104590006DFAEFF30080400001D5012010BD00202E
:1045A00010BD10B500F08CFAEFF30080800001D54B
:1045B000012010BD002010BD10B500F081FAEFF30E
:1045C00000804000800F012800D0002010BD10B5F1
:1045D00000F0A0FAEFF300804000800F012801D026
:1045E000012010BD002010BD10B500F093FAEFF3CC
:1045F0000080800001D4012010BD002010BD00000B
:10460000F8B504464721400049060D22411812061C
:10461000914253D83F21490688421BD960007F212F
:104620004008C90500F0F8FA0021C943FCF716FB61
:10463000074600F0BFF9002C04DA2F4D2D4EA907D4
:10464000484001E02D4E2E4D0321890700F08CFAE1
:10465000044606E0002621463546084600F084FA66
:1046600007462849384600F07FFA274900F0B8F994
:10467000394600F079FA254900F0B2F9394600F0E0
:1046800073FA234900F0ACF9394600F06DFA21497C
:1046900000F0A6F900903946204600F065FA00992E
:1046A00000F062FA07462946204600F099F939469B
:1046B00000F096F9314600F093F9F8BD392149062A
:1046C000884208D22046FFF73AFF042801D1FFF7BD
:1046D00056FF2046F8BDFF210906884203D920462F
:1046E000FFF73EFFF8BD0120FCF7B2FAFFF741FFEC
:1046F000F8BD00000000C9BF22AAFDB90000C93FF3
:1047000022AAFD3924FE1C3DC78AD83C1E67383DCD
:104710001B93993DAFAA2A3EF0B50C4601461D22D7
:104720004B00D2069F18E52605463606620087B084
:104730002046B7427BD21D27FF06D719B74276D253
:104740004F0043003E0E1A0EB21A1B2A07DD002945
:1047500002DA854807B0F0BD844807B0F0BD1A26DC
:10476000F2422FDA002807DA002902DA804807B07F
:10477000F0BD804807B0F0BD21462846FCF746F959
:104780000646FFF7DCFE042801D1FFF7F8FE2846B5
:10479000FFF7D5FE05462046FFF7D1FE044630461A
:1047A000FFF7CDFE042D01D0052D08D1042C01D03A
:1047B000052C04D1002802D10220FCF749FA30462A
:1047C00007B0F0BD9F4211D9002902DA6A4F6B4E43
:1047D00001E06B4F6B4E23462C461D4601220346DB
:1047E000D20708465440504019460BE0002807DA2B
:1047F000002902DA644F654E04E0654F654E01E022
:1048000000263746421A012352001B069A422FD235
:10481000484061490CD5BF2000060290384600F0A0
:1048200007FA07465D49304600F002FA0BE053E014
:104830003F2000060290384600F0D2F8074657495C
:10484000304600F0CDF806462846029900F08CF973
:10485000214600F0C5F800902146029800F084F946
:10486000294600F0D9F90099FCF7D0F8044604E095
:1048700021462846FCF7CAF80446014600F074F9C0
:104880004749009000F070F9464900F0A9F80099F6
:1048900000F06AF9444900F0A3F8009900F064F9C7
:1048A000424900F09DF8009900F05EF9404900F09F
:1048B00097F805462046009900F056F9294600F081
:1048C00053F9314600F08CF8214600F089F839465A
:1048D00000F086F807B0F0BDFF263606B34201D8D7
:1048E000B24205D901462846FFF73FFE07B0F0BDAA
:1048F0002F4607437F000AD0B3420CD1B2420AD1FF
:1049000001229207904391430D46044618E7FF2287
:10491000D2051043F9E7B3420CD047000AD0B242A7
:104920000ED04E000CD05340F0D4002A0EDB9F2650
:10493000F6050DE0FF22D2051143E00FC007FFE6A8
:10494000C90FC907FF22D2051043F9E65F26F60515
:104950003146284600F008F905463146204600F069
:1049600003F904462946EBE6DB0FC9BFDB0FC93F5D
:10497000DB0F49C0DB0F49400000C9BF22AAFDB9C7
:104980000000C93F22AAFD39000049C022AA7DBA11
:104990000000494022AA7D3A0060ED3EC30ACE37AE
:1049A0002DAD65BD8FB8D53D0FB511BE61C84C3E6C
:1049B000A8AAAABE70B50546FCF772F941000446E4
:1049C000FF204908C005411AC90F07D069004908EE
:1049D000401AC00F02D10120FCF73AF9204670BD01
:1049E00070B50125ED0704004C4020D4441A01D2D3
:1049F000001B0919C60D4B00F2B2FF2A29D01B0E6D
:104A00002CD000020C0228432C43D31ADC40051999
:104A100010D2280A02D3401C6D0611D0761EF6056E
:104A20008019FF2A00DA70BDC00DC00570BD694055
:104A300000F004F901200543C541521C761CE8E74B
:104A400064089C40C90161408900E7D10124A0436A
:104A5000E4E71B0E440200D0034870BD002AFCD1DD
:104A6000C00FC00770BD00BF0000C07F0123DB0581
:104A700002000A430DD4DA4203D49A4207D4884292
:104A80007047D84214D4D94212D488427047804229
:104A90007047DA4203D59A42F9D5814270475B00EC
:104AA0004200DA4204D24A00DA4201D2814270471F
:104AB00010B5024AFCF740F910BD00BF090012040E
:104AC0000123DB0502000A430DD4DA4203D49A42E3
:104AD00007D488427047D84214D4D94212D48842AD
:104AE000704780427047DA4203D59A42F9D5814235
:104AF00070475B004200DA4204D24A00DA4201D237
:104B00008142704710B5024AFCF716F910BD00BF8C
:104B1000090013040123DB0502000A430DD4DA4225
:104B200003D49A4207D488427047D84214D4D94259
:104B300012D48842704780427047DA4203D59A42C5
:104B4000F9D5814270475B004200DA4204D24A0044
:104B5000DA4201D28142704710B5024AFCF7ECF804
:104B600010BD00BF0900160470B5420064414B003F
:104B70005C41120E39D01B0E38D0FF2A3CD0FF2BDF
:104B80003AD0D2187F3A40024902400A490A4518F1
:104B9000ED0106004E43000A090A48430104731A56
:104BA0004019190C4318990F04D05B0801214907DB
:104BB0005B1A521CD80904D3401CF50301D19D0691
:104BC00007D0FF2A08D2D50506D0E40720434019B4
:104BD00070BD0125A843F4E7002A01DCE00770BDA1
:104BE0002402FF202043C00570BD1B0EFF2A03D006
:104BF000FF2B01D0E00770BDFF2636064500B54209
:104C000006D84D00B54203D8D218FF2A00D0E7E7F6
:104C1000004870BD0000C07F70B50125ED076840F9
:104C200004004C4002D5694000F008F8FFF7DEFEB2
:104C300070B50125ED0704004C4022D4441A02D27D
:104C40006C40001B0919C60D4B00F2B2FF2A4BD075
:104C50001B0E50D000020C02A8432C43D31ADC4098
:104C6000051B05D5AD0019D36D08761E521E37D031
:104C7000F605280A01D2801970BD70416D0603D077
:104C800070BD6940FFF7B2FE9C40090261404900D7
:104C900001D0401E70BD0124A04370BD6D081DD021
:104CA00001202B0C01D12D0410302B0E01D12D022F
:104CB00008302B0F01D12D01001DAB0F01D1AD002C
:104CC000801CEB0F01D16D00401C361A121A6D00CA
:104CD000680AF5054019012A02DB70BD002070BD8D
:104CE000C036300AC00770BD1B0E440201D1FF2B35
:104CF00000D1024870BD002AF0D070BD0000C07F16
:104D00008182838485868788898B8C8D8E8F919212
:104D100093959697999A9C9D9FA0A2A3A5A7A8AAB0
:104D2000ACAEB0B2B3B5B7B9BCBEC0C2C5C7C9CCD2
:104D3000CED1D4D7D9DCDFE2E6E9ECF0F3F7FAFE26
:104D40000000000000000000000000000000000063
:104D5000000000F8000000000000003330000000F8
:104D600000100C06100C06000000000000000000FF
:104D700040C07840C0784000043F04043F04040071
:104D8000007088FC08300000001820FF211E000081
:104D9000F008F000E018000000211C031E211E0096
:104DA00000F00888700000001E212324192721101C
:104DB00010160E00000000000000000000000000BF
:104DC000000000E018040200000000071820400066
:104DD00000020418E0000000004020180700000056
:104DE000404080F0804040000202010F01020200BA
:104DF000000000F0000000000101011F010101009E
:104E0000000000000000000080B070000000000002
:104E1000000000000000000000010101010101018B
:104E20000000000000000000003030000000000022
:104E300000000000806018040060180601000000F7
:104E400000E010080810E000000F102020100F00F4
:104E5000001010F8000000000020203F202000007B
:104E600000700808088870000030282422213000D3
:104E700000300888884830000018202020110E00DB
:104E80000000C02010F8000000070424243F240084
:104E900000F80888880808000019212020110E0059
:104EA00000E0108888180000000F112020110E006B
:104EB00000380808C83808000000003F0000000063
:104EC0000070880808887000001C222121221C0024
:104ED00000E010080810E0000000312222110F004D
:104EE000000000C0C00000000000003030000000E2
:104EF0000000008000000000000080600000000052
:104F0000000080402010080000010204081020006A
:104F100040404040404040000404040404040400B5
:104F2000000810204080000000201008040201004A
:104F3000007048080808F00000000030360100004A
:104F4000C030C828E810E0000718272423140B00FD
:104F50000000C038E0000000203C23020227382077
:104F600008F8888888700000203F202020110E005B
:104F7000C030080808083800071820202010080052
:104F800008F808080810E000203F202020100F003B
:104F900008F88888E8081000203F20202320180007
:104FA00008F88888E8081000203F2000030000006F
:104FB000C03008080838000007182020221E020010
:104FC00008F808000008F808203F210101213F20CF
:104FD000000808F8080800000020203F20200000FA
:104FE00000000808F8080800C08080807F000000EA
:104FF00008F888C028180800203F20012638200023
:1050000008F8080000000000203F20202020300089
:1050100008F8F800F8F80800203F003F003F2000A3
:1050200008F830C00008F808203F200007183F00AB
:10503000E01008080810E0000F10202020100F00DA
:1050400008F808080808F000203F210101010000CD
:10505000E01008080810E0000F18242438504F0012
:1050600008F8888888887000203F2000030C3020D2
:1050700000708808080838000038202121221C0010
:10508000180808F8080818000000203F2000000059
:1050900008F808000008F808001F202020201F0042
:1050A0000878880000C83808000007380E010000A2
:1050B000F80800F80008F800033C0700073C03006C
:1050C000081868808068180820302C03032C3020D2
:1050D0000838C800C83808000000203F2000000041
:1050E00010080808C8380800203826212020180099
:1050F000000000FE020202000000007F404040006D
:10510000000C30C000000000000000010638C000A4
:1051100000020202FE000000004040407F0000004C
:105120000000040202020400000000000000000071
:10513000000000000000000080808080808080806F
:105140000002020400000000000000000000000057
:1051500000008080808000000019242222223F204D
:1051600008F8008080000000003F112020110E0090
:105170000000008080800000000E1120202011001F
:10518000000000808088F800000E112020103F20D1
:105190000000808080800000001F22222222130055
:1051A000008080F0888888180020203F20200000A0
:1051B0000000808080808000006B94949493600055
:1051C00008F8008080800000203F210000203F2060
:1051D00000809898000000000020203F2020000060
:1051E000000000809898000000C08080807F000050
:1051F00008F8000080808000203F24022D3020002D
:10520000000808F8000000000020203F20200000D7
:105210008080808080808000203F20003F20003FF1
:105220008080008080800000203F210000203F20FF
:105230000000808080800000001F202020201F00B0
:10524000808000808000000080FFA12020110E00DF
:105250000000008080808000000E112020A0FF80D0
:10526000808080008080800020203F21200001007D
:1052700000008080808080000033242424241900D2
:10528000008080E0808000000000001F20200000DF
:105290008080000000808000001F202020103F2020
:1052A000808080000080808000010E3008060100B0
:1052B00080800080008080800F300C030C300F0055
:1052C00000808000808080000020312E0E31200080
:1052D000808080000080808080818E7018060100B0
:1052E00000808080808080000021302C22213000CE
:1052F00000000000807C020200000000003F4040EF
:1053000000000000FF00000000000000FF0000009F
:105310000002027C800000000040403F00000000CE
:105320000006010102020404000000000000000069
:105330000400000018000000003000000807000012
:10534000201C0000200101000105000000000003F6
:1053500008076300020000002700000001000000B1
:1053600000000000000000000807630002000000C9
:105370008F0100000100000000000000000000009C
:10538000A053000000002020A80100009E0E000095
:1053900038540000A8012020480400002801000023
:1053A0003103455040392472023C00020008A3A09A
:1053B000410217042ECDCCCC3D82B8CB4250E1CC7B
:1053C0004201350A0FC409350AD7233C430A40324B
:1053D00002430A4032047386404310C062C102187F
:1053E0000846200A40000156200A40000255864027
:1053F00001014310C062C1021B0802280A3578056A
:10540000000844803F02559A9999BE07176F12838E
:10541000BA0004358FC232423730428FC23242372F
:1054200030428FC232423730428FC2324255304210
:08543000E803A3A041021704E8
:04000005000000C136
:00000001FF
