:020000040000FA
:10000000C80520206D01000071010000730100008F
:1000100000000000000000000000000000000000E0
:10002000000000000000000000000000750100005A
:1000300000000000000000007701000079010000CE
:100040007B010000011400007B0100007B01000027
:100050007B010000D90E00007B0100007B01000045
:10006000000000007B0100007B0100000000000098
:10007000000000007B0100007B0100007B0100000C
:10008000E13000003D3800007B0100007B010000F2
:100090007B0100007B010000000000000000000068
:1000A0007B0100007B010000000000000000000058
:1000B0007B010000000000007B0100007B010000CC
:1000C00000F002F800F042F812A030C808382418F6
:1000D0002D18AC4201D100F039F80FCCA246AB4646
:1000E0000CA730CF2D1B083F3F197C427F1E544484
:1000F0002D090426F441641EAC4201D300F026F819
:100100000126334200D0FB1A3343984754465D46DC
:10011000DFE700009C520000BC520000000000001D
:100120007047000000000000002300240025002686
:10013000103A01D378C1FBD8520700D330C100D5A3
:100140000B6070471FB51FBD10B510BD00F02AFE33
:100150001146FFF7F7FF03F0F3FC00F042FE03B493
:10016000FFF7F2FF03BC00F093FE000006480047D3
:10017000FEE7FEE7FEE7FEE7FEE7FEE70348044989
:10018000044A054B70470000C1000000C80320204E
:10019000C8052020C8042020C8042020002203090C
:1001A0008B4273D3030A8B4258D3030B8B423CD34D
:1001B000030C8B4221D312E003460B437FD4002271
:1001C00043088B4274D303098B425FD3030A8B42EB
:1001D00044D3030B8B4228D3030C8B420DD309026B
:1001E000FF2212BA030C8B4202D31212090265D00D
:1001F000030B8B4219D300E0090AC30B8B4201D3D6
:10020000CB03C01A5241830B8B4201D38B03C01A1C
:100210005241430B8B4201D34B03C01A5241030B93
:100220008B4201D30B03C01A5241C30A8B4201D344
:10023000CB02C01A5241830A8B4201D38B02C01AEF
:100240005241430A8B4201D34B02C01A5241030A66
:100250008B4201D30B02C01A5241CDD2C3098B424B
:1002600001D3CB01C01A524183098B4201D38B01C8
:10027000C01A524143098B4201D34B01C01A52416B
:1002800003098B4201D30B01C01A5241C3088B42B0
:1002900001D3CB00C01A524183088B4201D38B009B
:1002A000C01A524143088B4201D34B00C01A52413D
:1002B000411A00D201465241104670475DE0CA0F14
:1002C00000D04942031000D3404253409C460022D4
:1002D00003098B422DD3030A8B4212D38901FC22DE
:1002E00012BA030A8B420CD3890192118B4208D3B4
:1002F000890192118B4204D389013AD0921100E016
:100300008909C3098B4201D3CB01C01A5241830929
:100310008B4201D38B01C01A524143098B4201D356
:100320004B01C01A524103098B4201D30B01C01A81
:100330005241C3088B4201D3CB00C01A52418308FB
:100340008B4201D38B00C01A5241D9D243088B4251
:1003500001D34B00C01A5241411A00D2014652410A
:10036000104663465B1001D34042002B00D5494242
:10037000704763465B1000D3404201B50449002832
:1003800002DC491C084000E00846C046C04602BDE9
:10039000FFFFFF7F70477047704700000246C80F9D
:1003A000C00781434B0030B54B405B009B0D20D014
:1003B0001923DB06C91801231B05994220DB0324FE
:1003C000A40704251346AB400BD3002B04D1EB0646
:1003D00013409B00E34204D4012464070023121954
:1003E0005941FF231B0599420BD2C9000143500F0D
:1003F00009E0CB0204D501430803024305D00548B8
:1004000030BDFF21C905084330BD08460721090555
:10041000884330BD0000C07FF0B50C46871A9C4170
:100420000D46861A9D4103D2C01BA141D2196341DA
:100430000D0D1F0DC94EEC1BAE435CD07F057F0D2B
:100440000026002F51D02D05AC46A943DD02012323
:10045000ED0A1B051D4320231B1B24D41746E74030
:10046000381871412F46E740CC199D402818314675
:1004700061410C0D27D161449A4013D50023401CE3
:10048000594152000ED14008400001224B00520554
:10049000D34207D305204007C14201D5B04900E04F
:1004A000B0493046F0BD6B00002A00D001229A18F6
:1004B0001F23203C1B1B01D5002302E0E540281828
:1004C00071410C0DD7D0012424050919C407CD07AB
:1004D00040084908E40F28436144002CD5D000248B
:1004E000401C61419A40D0D1CDE76A05520DD9D167
:1004F000C90FC907D5E79C4D4E00002801D0012443
:1005000000E0002434195F00002A01D0012600E039
:100510000026BE19954FAC420CD8AE420AD8B44260
:1005200006D001256D05EC42BCD010461946F0BD41
:100530009942FCD000203946F0BDF0B51FB40C46FE
:100540000F46811A9F412546861A9D4106D20125F4
:10055000ED076F40401ABC4152187B41210D1E0D22
:100560008D1BAC467D4D8D437ED075056D0D7CD0C9
:100570000D05AE46AC431B031B0B794D52429D410A
:10058000202366469B1B14D31746F74038180026D5
:100590000090744160462F460741E41900989D4041
:1005A0002818664116D4714671189A4025D5012342
:1005B00020E093182A466A415200002B00D0521CBA
:1005C0001E23203E9B1B002B61DD3541EE172818B2
:1005D0006641E8D5001876415B1C9A4000D3401C68
:1005E0004B05F3181524E34010D3002B52D071466D
:1005F0007118D30FC01802D3491C05B0F0BD0123F8
:10060000DB079A42F9D140084000F6E70122520583
:10061000B21801D1002853D00123CC0ADB02994340
:10062000891E002A08D1020C03D0020C00041039E4
:1006300002E00246002020390023550B05D11202AA
:100640000823550B01D152010D23550C01D1120184
:100650001B1DD50C01D192009B1C150D01D1520020
:100660005B1C2025EE1A01E02CE022E00546F54057
:1006700015439840CA1AE10769181305C918002ADA
:10068000BBDA032040070818C10FC9070FE0714605
:100690006118B2E7F10740080843711071444A003D
:1006A0000CD001235B059A42A7D2C90FC9070020CD
:1006B000A3E74905490D26D1002001E00028F4D127
:1006C00000219AE7284D6600002801D0012100E0B2
:1006D000002171185F00002A01D0012600E00026E9
:1006E000BE19224FA94210D8AE420ED8B14208D04E
:1006F00001256D05E94206D01946A8024140104681
:100700007BE79C4201D0214677E70020394674E719
:1007100010B50C465C4005D50124E4076340FFF7A3
:100720000CFF10BDFFF778FE10BD30B40C465C40E6
:1007300004D50124E407634030BC6DE630BCFCE620
:1007400070B50124E40761400D465D4002D4FFF717
:1007500063FE70BD6340FFF7F0FE70BDFF07000051
:100760000000F0FF0000F07F0000E0FF0000F87FD5
:10077000F0B58B4C0F09254689B0BD437BD01D09D0
:100780002646AE43FAD00E465E402740F60F3E4363
:10079000254071D024012142FBD0FF24AD19A404CF
:1007A0002D1B039501252D05DB02DB0AC9022B4316
:1007B000C90A29431E010901040F130F0501214332
:1007C0001701880B820391432D098C46A90B1E4308
:1007D0008A039543B30B9A0396433F09BA0B9403DC
:1007E000A74302962E467E430497B6464E19D71964
:1007F0000C460196544305977E43371B7646BF1B34
:100800003601B646BE0B361900967646BC0437193B
:10081000009C01D3641C00946400002F01D00126C9
:100820003443029E049F754366467E4304967600D9
:1008300034196E0034190094029C019E1C19664301
:10084000751BAE46069465464519059C05956C4397
:10085000594375460891691A0191049E0146514316
:10086000A41B0491611A009C0791E10605D061095F
:100870000122114302E072E06EE06109089D002749
:100880002C0A2D066918049D7C412A0A2D06691838
:10089000019D6241AC0DAD026D185441079A910D56
:1008A000920255196141029A644658435443069B8B
:1008B000059A5A43121A131B9A0E9B015B187A4130
:1008C000010B0005C3185141220A200644195A4160
:1008D0009A4200D2491C01204002814203D31523D1
:1008E0000226F64302E014230326F6432020C51A0D
:1008F000A9401746AF40DA400A4320460399D84042
:100900000914731819055118039A3843D207514036
:10091000AC4009D00122944006D30022401C514132
:10092000002C01D1400840001E4A934212D30122FC
:1009300003989206904207DB0520400709181A48E1
:100940000143C012414004E0032040070818C10FD2
:10095000C907002009B0F0BD0020F107FAE705182B
:100960000C464C4111486D42A04115D394181A46CB
:100970005A410E48644290410ED301204A0040057E
:10098000824209D35A00824206D35940C90F084A0D
:10099000C90700201143DDE700200649DAE700001F
:1009A0000000FF07FE070000FFFFFF7F0000E0FFE1
:1009B0000000F07F0000F87F0121C90501234118E4
:1009C00042001B06D3185B0E0AD0C1100722D206C4
:1009D000891840075242D14201D552008918704708
:1009E000090208D50146002A03D0C10FC90700201B
:1009F000704710467047420202D0002002497047FB
:100A0000072109050143F4E70000F87FF0B5FF2551
:100A10002D04C609C209FF2704462E400137CB0921
:100A20003E4348402A402B400746002A6BD0002B0B
:100A300069D0AA4267D0AB4265D0002800DA3246BE
:100A40000125ED0529432C4309022002090AD21A87
:100A50004B0C7F24E31A434C000A7C44E35C7D2466
:100A60002404121914145B00A218884201D3521CEA
:100A700000E0400049420C465C4324115C43DB012A
:100A80006415E318040A5C43C502200D0C46444378
:100A90006419250A5D432303EC0C0D4665430003EE
:100AA0000019EB184C42A34201D35B18401CD4053B
:100AB0002018002B07D05B00C91804D3401C002964
:100AC00001D1400840003F2189048A4209D3002A0D
:100AD00008DC1106090F04D0032149074018C00F94
:100AE000C007F0BD01224100120689187F2252067C
:100AF0009142F6D205214907C84201D59010F0BDB8
:100B0000FF20C005F0BD002F00DA32461648AA4289
:100B100007D2AB4205D21902090E17D0F80FC00751
:100B2000F0BDFF2563002D06AB42F9D84900A9426C
:100B3000F6D8AB4201D1A942F2D0A94201D100219D
:100B400001E061004908D0050843F0BD1102090E1B
:100B5000FBD0FF200243D005F0BD0A4601461046F7
:100B600054E70000D24200000000C07F10B50146EB
:100B70009E240002CA15A307002A02D01843002AA7
:100B800004DBA21A002A0CDDD04010BD1206120EA2
:100B900001D140004008A21A03D4D04040420028AE
:100BA000F3DDFF2248001206904201D9002010BD5B
:100BB000C817C043584010BD0102C21504D001231C
:100BC000DB071943002A0ADB9E239A1A02D408463F
:100BD000D0407047FF2241001206914201D9002007
:100BE0007047C017C04370471F22030C02D10F2269
:100BF00000041CD0030E01D10002083A030F01D1FA
:100C00000001121F830F01D18000921E002801DB1A
:100C10004000521ED205511802125118192290405C
:100C200004D3491C002801D14908490008467047EF
:100C3000C10FC90700D04042012292071143D3E7F8
:100C400001218907D0E710B500F072F8006810BDE7
:100C500010B5044600F06CF8046010BD10B5FF221A
:100C6000C30D134009D05A4007D0914205DA5C42C7
:100C7000A14202DDC905081810BDC40FE407002B0E
:100C800006D0002A06D0002902DBFF20C00504435D
:100C9000204610BD4102FCD0004810BD0000C07FBE
:100CA00030B5C30D1906214A090E31D0FF292FD0C6
:100CB00000283ADB01025002014301207D33C3408A
:100CC00000D24908012080071724091A2406490880
:100CD00082102343FF252D064C00211A04D4891AC3
:100CE00002D45400201800E0214652085B19F3D5C5
:100CF0001A220446944007D382068A4203D18021F7
:100D00008030884300E08030C009D905081830BD24
:100D1000FF2904D04100FAD0C00FC00730BD410206
:100D200001D0104630BD0028FCDAFAE70000C07F91
:100D300000487047A801202010B5FF231B0644007F
:100D40009C421DD84C009C421AD80346124A0B43C1
:100D500007D4401A02D3EFF3008010BDEFF30080F8
:100D600010BD081A03D3EFF30080904305E0EFF3C2
:100D7000008001219043C907084380F3008810BD1B
:100D80000D231B041A4204D01146002000F031F854
:100D900010BD00F045F810BD0000009000487047FD
:100DA000A80120207546FFF7F9FFAE460500694609
:100DB0005346C008C000854618B020B5FFF7DEF9DD
:100DC00060BCB64600260027C0C5C0C5C0C5C0C5AA
:100DD000C0C5C0C5C0C5C0C5403D490849008D4615
:100DE000704710B50446C046C0462046FFF7B7F925
:100DF00010BDC80212D54803400F002804D0C80314
:100E0000C043012188407047EFF3008000010009D2
:100E100003210907084380F30088704700207047CA
:100E200010B5024800F004F810BD00000000C07FBB
:100E300010B50C461107090F092904D00A290AD058
:100E400008290CD104E011460820FFF7D2FF06E084
:100E5000510606D501E0510601D50120C007214603
:100E600010BDD10607D501010909CC084907000EBC
:100E70000006044309E0410F20024907000A01432C
:100E8000200E00061D22D14101430846E7E700007D
:100E900001491820ABBEFEE726000200704730B5BE
:100EA0008C180278401C13071B0F01D10378401CDB
:100EB000120906D10278401C03E00578401C0D7031
:100EC000491C5B1EF9D101E00B70491C521EFBD17D
:100ED000A142E6D3002030BD06480068C0B20B280E
:100EE00007D105480168054A118041685180806832
:100EF00090807047203000408082554008022020BA
:100F0000B0B50A78032313400B4A84580B4D254093
:100F1000EB18A92424061B198350072212064B68DC
:100F200013401124240205599543EA18025100196F
:100F300049780161B0BDC04608080000FCFFFF0011
:100F4000811E091F00BFFCD270470000F0B583B0BE
:100F50000B794A79002A2BD01B4A1C4C1C4F202BA2
:100F600002D00525EE0100E04C4E851802190092D2
:100F7000C219002B00D188261768474C2740BF199B
:100F8000176057682740BE1956602E68804F3E4054
:100F90002E606E683E406E600025009C2560656096
:100FA0008F24E44315692540156155692540556135
:100FB00001AA13718B79537109680191114600F0F0
:100FC00009F803B0F0BDC0463818000058180000FA
:100FD00078180000F0B584B06B4A82180292734B07
:100FE000C618784BC21800922A4BC4180A7901918E
:100FF0000D68294F202A03920AD0254BC018002AD9
:1010000017D16B1E029A536023683B40882517E076
:10101000681E029A506020683840204B18432060B8
:101020006068384018436060012045071C4F104637
:1010300008E06B08029A536023683B400525ED01E8
:101040002B432360009903683B402B4303603068C7
:101050004F4B184030607068184070600020086086
:1010600048608F20C04323690340236163690340C4
:1010700063610198407903990843BD2101401068DC
:10108000084B0340C818801C106004B0F0BDC04677
:10109000741800007018000024493E00010400008C
:1010A000FFFFFFCF4000FFCF70B5374A82184B6873
:1010B00053603E4BC3180878222857D8840001A5F6
:1010C0002C59A746631100006D1100006311000048
:1010D0006D1100006D1100006D1100006D11000018
:1010E0006D1100006D1100006D1100006D11000008
:1010F0006D1100006D1100006D1100006D110000F8
:101100006D110000511100006D110000511100001F
:101110006D1100006D1100006D1100006D110000D7
:101120006D1100006D1100006D1100006D110000C7
:101130006D1100006D1100006D1100006D110000B7
:101140006D110000511100006D11000051110000DF
:10115000032424071568A543012464072C1914608F
:1011600004E0032424071568A54315600C69D460C6
:10117000CC68064D25401C68054E264074191C603D
:10118000097A0143116070BD0418000077770200EE
:101190008888FDFF10B507239B0419409200801832
:1011A000024A84589C436118815010BD30180000D9
:1011B00010B5029CA400001911431943014A815043
:1011C00010BDC0465018000092008018014A81509E
:1011D0007047C0461018000010B501221203831892
:1011E0000C789C604B7883508978014A815010BDFF
:1011F0000C110000B0B51122120283580124A34340
:1012000083508B780C881C438B882343094C1C40EB
:101210008358094D1D402B1983508B79CC791C4381
:10122000097A21437E231940801842689A43511855
:101230004160B0BD18670000E798FDFF10B50122BE
:10124000120383180C789C604978815010BD00000F
:10125000F0B582B0002843D0032606407D21090264
:1012600001221304654C002E054637D0616000252D
:101270000195A5602568052700973D4325602568F1
:101280001D4208D125681D4205D125681D4202D1A5
:1012900025681D42F3D0256895432560012E03D1B2
:1012A000451E04283DD21BE06160019DA5602568B4
:1012B000009F3D43256025681D4208D125681D42D9
:1012C00005D125681D4202D125681D42F3D0D543C2
:1012D00027682F402760022E04D1851E042820D2C3
:1012E00002B0F0BD6160019DA5602568009E354398
:1012F000256025681D4208D125681D4205D1256855
:101300001D4202D125681D42F3D025689543256012
:10131000C51E042805D2E3E72068904320602D1FF6
:10132000DED061600020A060276805263743276073
:1013300027681F4208D127681F4205D127681F422E
:1013400002D127681F42F3D0276897432760616066
:10135000A06027683743276027681F4208D12768A5
:101360001F4205D127681F4202D127681F42F3D0D0
:101370002768974327606160A0602768374327602C
:1013800027681F4208D127681F4205D127681F42DE
:1013900002D127681F42F3D0276897432760616016
:1013A000A06020683043206020681842B4D12068D3
:1013B0001842B1D120681842AED120681842F3D04B
:1013C000AAE7C04641010D484160002181600168E3
:1013D00005220A43026001210A040368134208D16E
:1013E0000368134205D10368134202D10368134214
:1013F000F3D002688A4302607047C04610E000E004
:1014000070B501223848014610390B6891045C031D
:1014100012D41C0321D4140601221105DD0236D496
:1014200023405CD0314D2B682E68234258D1264290
:1014300045D12E68304B1BE02C4C256823680D42AB
:101440001DD10B4248D1012223681B03284B40D4F5
:10145000D204246814423FD13AE00122D404234D3F
:101460002B682E68234221D1264228D12E68204B9A
:101470000E4221D12D680D4221462AD02CE01B03BB
:101480001B4B25D4D50424682C4222D024E0174DD0
:101490002B682E680B4214D10E421DD12E68164BBC
:1014A000264216D12A68224212D015E0104B0E4275
:1014B00003D12A680A4202D10E4A214609E0214698
:1014C0000AE00D4B264203D12D68254201D003E0EE
:1014D000084A1C88A2181A8002680A43026070BD7C
:1014E000054B0E42E5D0E8E748300A4080330A4019
:1014F0002A022020FFFF00002C022020704700005D
:10150000F0B589B00393019207910890DA498120E0
:1015100006900860D94D01272F602F6402262E60A7
:101520002F612F6005242046FFF74CFF2F612046D6
:10153000FFF748FF2E61089840000590C0B200F008
:10154000F7FB2E6102972F60CB4CCD4820600496AC
:101550002E60CC4C2068C00736D00520FFF732FF44
:101560002068C00730D00520FFF72CFF2068C00797
:101570002AD00520FFF726FF2068C00724D00520C9
:10158000FFF720FF2068C0071ED00520FFF71AFFD5
:101590002068C00718D00520FFF714FF2068C00797
:1015A00012D00520FFF70EFF2068C0070CD00520E1
:1015B000FFF708FF2068C00706D00520FFF702FFED
:1015C0002068C00700D00CE1049C2C610698FC4FF9
:1015D000386001262E602E64079800F0A9FB2C616C
:1015E00008962E60F74838602C60F84C2068C007D9
:1015F00036D00520FFF7E6FE2068C00730D0052072
:10160000FFF7E0FE2068C0072AD00520FFF7DAFECA
:101610002068C00724D00520FFF7D4FE2068C0074B
:101620001ED00520FFF7CEFE2068C00718D0052089
:10163000FFF7C8FE2068C00712D00520FFF7C2FEE2
:101640002068C0070CD00520FFF7BCFE2068C0074B
:1016500006D00520FFF7B6FE2068C00700D0D8E00E
:10166000022129610698D64F3860089E2E602E64AC
:1016700038602E602E6429600F462E612E6005248E
:101680002046FFF79FFE2E612046D04CFFF79AFEC2
:101690002F6105983043C0B200F04AFB2F612E60E5
:1016A0003E46C848C64908602F602068C00736D04B
:1016B0000520FFF787FE2068C00730D00520FFF720
:1016C00081FE2068C0072AD00520FFF77BFE206836
:1016D000C00724D00520FFF775FE2068C0071ED084
:1016E0000520FFF76FFE2068C00718D00520FFF720
:1016F00069FE2068C00712D00520FFF763FE20684E
:10170000C0070CD00520FFF75DFE2068C00706D09B
:101710000520FFF757FE2068C00700D092E005962D
:101720002E61069EA6480660089828600446286434
:1017300000210198022800910F4625D3451E0195EE
:10174000039E27464D4C00F09FF830709C48069948
:101750000160276027643846059F276120610520C6
:101760000790FFF72FFE0898206127600798FFF782
:1017700029FE2761089F27606D1E761C002DE2D18F
:101780003C463E4D069E019F00F07EF80399C855E9
:101790008B48066026462C602C64059F2F612C61C7
:1017A00005242046FFF70EFE2E602F602046FFF72F
:1017B00009FE2F612E60069E009F81480660029EF2
:1017C0002E602E64049828612E612860052420462E
:1017D000FFF7F8FD2E602046FFF7F4FD384609B00C
:1017E000F0BD264605242046FFF7ECFD3068069E36
:1017F00073480660029F2F602F64049828612F6150
:1018000028602046FFF7DEFD2F602046FFF7DAFD57
:10181000D3E705273846FFF7D5FD206868480699C5
:101820000160089E2E602E64049C2C612E612C6049
:101830003846FFF7C7FD2E60069E3846FFF7C2FD0B
:101840002746BAE7274605242046FFF7BBFD386840
:10185000069F5B4807603046089E2E602E64286114
:101860002E6128602046FFF7ADFD2E603E462046E3
:10187000FFF7A8FD0327A0E70480424090120A402A
:101880008100040080130A40F0B587B04C484D49F0
:1018900001604D4F02263E6005242046FFF792FD71
:1018A0003D46103D2E602046FFF78CFD47480068FE
:1018B00006902046FFF786FD3E602046FFF782FD3A
:1018C0002E602046FFF77EFD4048006805902046C8
:1018D000FFF778FD3E602046FFF774FD2E6020463E
:1018E000FFF770FD394F386804902046FFF76AFD16
:1018F000354806602046FFF765FD2E602046FFF75D
:1019000061FD386803902046FFF75CFD2E480660B5
:101910002046FFF757FD2E602046FFF753FD38683D
:1019200002902046FFF74EFD274806602046FFF74D
:1019300049FD2E602046FFF745FD3F682046FFF732
:1019400041FD214806602046FFF73CFD2E60204601
:10195000FFF738FDF548006801902046FFF732FD9B
:10196000194806602046FFF72DFD2E602046FFF740
:1019700029FDEE4805682046FFF724FD1248066061
:101980000120059A02400699C907890F511889005C
:10199000049AD207920F8918039A024051188900BD
:1019A000029AD207920F8918074079188900019A84
:1019B000D207920F891805406818C0B207B0F0BD71
:1019C0000480424081000400A0120A4080130A40B3
:1019D000F0B587B00393049201910690D04981201D
:1019E00005900860CF4F01253D603D6402243C60B6
:1019F0003D613D6005263046FFF7E4FC3D61304621
:101A0000FFF7E0FC3C6106984006000E00F090F9FC
:101A10003C613D60C448C249086002943C60C34CCC
:101A20002068C00736D00520FFF7CCFC2068C0072F
:101A300030D00520FFF7C6FC2068C0072AD005205B
:101A4000FFF7C0FC2068C00724D00520FFF7BAFCD0
:101A50002068C0071ED00520FFF7B4FC2068C0072F
:101A600018D00520FFF7AEFC2068C00712D0052073
:101A7000FFF7A8FC2068C0070CD00520FFF7A2FCE8
:101A80002068C00706D00520FFF79CFC2068C0072F
:101A900000D0FAE0029FFA4E37610598F74C2060BB
:101AA000012535603564019800F042F92946376117
:101AB00035609D48206037609C4D2868C0070691BE
:101AC0003FD00520FFF77EFC06992868C00738D074
:101AD0000520FFF777FC06992868C00731D005205C
:101AE000FFF770FC06992868C0072AD00520FFF789
:101AF00069FC06992868C00723D00520FFF762FC1F
:101B000006992868C0071CD00520FFF75BFC0699E2
:101B10002868C00715D00520FFF754FC06992868EF
:101B2000C0070ED00520FFF74DFC06992868C007B6
:101B300007D00520FFF746FC06992868C00700D0AB
:101B4000C6E00224CE4F3C610598CC4D2860396038
:101B500039640498002800D183E0002609E03C6144
:101B6000C64D0598286039603964761C0498B042E7
:101B700077D00398805D00F0DBF806993C6139600E
:101B8000694828603C60694D2868C007E7D0052097
:101B9000FFF718FC06992868C007E0D00520FFF77A
:101BA00011FC06992868C007D9D00520FFF70AFC68
:101BB00006992868C007D2D00520FFF703FC0699D4
:101BC0002868C007CBD00520FFF7FCFB06992868E2
:101BD000C007C4D00520FFF7F5FB06992868C007A9
:101BE000BDD00520FFF7EEFB06992868C007B6D0E8
:101BF0000520FFF7E7FB06992868C007AFD005204E
:101C0000FFF7E0FB06992868C007A8D005200490DC
:101C1000FFF7D8FB2868994D05982860069838602A
:101C200038643C6138613C60049D2846FFF7CAFB7C
:101C3000069838602846FFF7C5FB90480599016073
:101C40000698386038643C61386105463C60049C05
:101C50002046FFF7B7FB3D602046FFF7B3FBF51CBE
:101C600010E005982860396039643C6139613C6056
:101C7000052420460D46FFF7A5FB3D602046FFF7F3
:101C8000A1FB0025E8B207B0F0BD05263046FFF7FE
:101C900099FB2068794805990160794F3D603D6462
:101CA000029C3C613D613C603046FFF78BFB3D6030
:101CB0003046FFF787FB0598704908603D603D643A
:101CC0003C613D613C603046FFF77CFB3D6022E0BB
:101CD000052630460C46FFF775FB286867480599CE
:101CE0000160674F3C603C64029D3D613C613D602A
:101CF0003046FFF767FB3C603046FFF763FB059813
:101D00005E4908603C603C643D613C613D6030463A
:101D1000FFF758FB3C603046FFF754FBB2E7C04684
:101D20000480424090120A408100040080130A405F
:101D3000F0B581B0514A81211160514F01243C60BE
:101D40003C6402253D61009040B2103700283846BF
:101D500000DA4B4804602046FFF734FB4848056032
:101D600005263046FFF72EFB454805613046FFF754
:101D700029FB00984006384600D5414804602046BB
:101D8000FFF720FB3E4805603046FFF71BFB3C4851
:101D900005613046FFF716FB00988006384600D5EF
:101DA000374804602046FFF70DFB35480560304694
:101DB000FFF708FB324805613046FFF703FB009848
:101DC000C006384600D52E4804602046FFF7FAFAD0
:101DD0002B4805603046FFF7F5FA29480561304683
:101DE000FFF7F0FA00980007384600D52448046051
:101DF0002046FFF7E7FA224805603046FFF7E2FA8F
:101E00001F4805613046FFF7DDFA00984007384665
:101E100000D51B4804602046FFF7D4FA1848056037
:101E20003046FFF7CFFA164805613046FFF7CAFA89
:101E300000988007384600D5114804602046FFF717
:101E4000C1FA0F4805603046FFF7BCFA0C4805613F
:101E50003046FFF7B7FA0098C00700D0084F3C6043
:101E60002046FFF7AFFA064C25603046FFF7AAFA86
:101E700025613046FFF7A6FA01B0F0BD048042406C
:101E800090120A40F0B589B001AC0FC468273B211D
:101E9000062507AC38462A462346FFF731FB432187
:101EA00005AE38462A463346FFF72AFB6078079985
:101EB0000902081801990880E078A1780902081839
:101EC0000299088060790899090208180399088026
:101ED000707805990902081804990880F078B1789B
:101EE000090208180E9908807079069909020818E5
:101EF0000F99088009B0F0BDF0B589B0FFF7FEFA80
:101F000008AB01241C7007AD0020287006AF092023
:101F1000387005A900910620087004A902911820C4
:101F2000087003A90191087068266B21304622468B
:101F3000FFF74EFD6C21304622462B46FFF748FD49
:101F40001921304622463B46FFF742FD1A21304612
:101F50002246009BFFF73CFD1C2130462246019B98
:101F6000FFF736FD1B2130462246029BFFF730FD6E
:101F700009B0F0BDF0B581B000252E4C01F018FD80
:101F80002B4E3068216902F043FD20617068616961
:101F900002F03EFD6061F068E16902F039FDE06148
:101FA0003069216A02F034FD20627069616A02F0D2
:101FB0002FFD6062B068FEF7FFFC1F4A1F4BFEF763
:101FC000A7FB06460F46A069FEF7F6FC02460B4645
:101FD00030463946FEF79CFBFEF7E0F9A0610A2087
:101FE000FFF736F9681C632D0546C7D32069144DE9
:101FF0002946FEF70BFD206160692946FEF706FDC4
:102000006061A0692946FEF701FDA061E0692946EB
:10201000FEF7FCFCE061206A2946FEF7F7FC20622F
:10202000606A2946FEF7F2FC606201B0F0BDC0466E
:1020300078032020080120209A999999999923C022
:102040000000C842F0B581B0437D0025002B00D1CF
:10205000ED43EB4309B20029009500DC1D46C0C8E2
:102060003D402524E4013259BA435219325108380F
:10207000002900DC009BC268134085682E599643F6
:10208000F2182A51CA175140891A0369027D18466D
:10209000FFF79AF801B0F0BDF0B583B00120060754
:1020A000C7070020524C00900290C0B20190009DE2
:1020B000294600F0C1FB4F4920683043206020686A
:1020C00038432060206808402060781E2168014065
:1020D0002160782000F01CF8402000F019F8002062
:1020E00000F016F843492068084020602068384313
:1020F0002060206830432060681C45B2002DDBD58D
:102100000298401C01990729CED303B0F0BDC04608
:10211000F0B537490A68374C2240802303405B05FD
:10212000D2180A60344A531C0D681D430D600D68B7
:1021300015400D6001252D0786052E400F682740AC
:10214000BE190E600E681E430E600E6816400E60CB
:10215000C6052E400F682740BE190E600E681E434C
:102160000E600E6816400E6006062E400F6827406F
:10217000BE190E600E681E430E600E6816400E609B
:1021800046062E400F682740BE190E600E681E439B
:102190000E600E6816400E6086062E400F682740BF
:1021A000BE190E600E681E430E600E6816400E606B
:1021B000C6062E400D682540AD190D600D681D4303
:1021C0000D600D6815400D600D682540C007C00802
:1021D00028180860086818430860086810400860FC
:1021E000086818430860086810400860F0BDC046E1
:1021F00080120A40FFFFFFEFFFFFFF7FF0B585B0C1
:102200000120C707FC4E316839433160040730684C
:10221000204330603068204330603068384330609D
:102220003068F649084030607D1E306828400195CE
:10223000306078200290FFF76BFF00200490FFF7DA
:1022400067FFAE20FFF764FF3068EC49084030605C
:102250003068384330603068204330603068204355
:102260003060306838433060306808403060306833
:1022700028403060029D2846FFF74AFF0498FFF788
:1022800047FFD520FFF744FF3068DC490840306045
:1022900030683843306030680394204330603068E1
:1022A0002043306030683843306030680840306028
:1022B0003068019C204030602846FFF729FF049DCC
:1022C0002846FFF725FF8020FFF722FF3068CB4923
:1022D0000840306030680097384330603068039AB7
:1022E00010433060306810433060306838433060ED
:1022F000306808403060306820403060029F3846C7
:10230000FFF706FF2846FFF703FFA820FFF700FFAF
:102310003068BA49084030603068009C2043306023
:102320003068039B18433060306818433060306871
:10233000204330603068084030603068019D28409C
:1023400030603846FFF7E4FE0498FFF7E1FE3F20D7
:10235000FFF7DEFE3068A949084030603068274644
:10236000204330603068039C204330603068204355
:102370003060306838433060306808403060306822
:1023800028403060029D2846FFF7C2FE0498FFF700
:10239000BFFED320FFF7BCFE30689849084030608C
:1023A0003068384330603068204330603068204304
:1023B00030603068384330603068084030603068E2
:1023C0000199084030602846FFF7A2FE049D284688
:1023D000FFF79EFE2846FFF79BFE306887490840BE
:1023E0003060306838433060306820433060306897
:1023F00020433060306838433C46306030680840E5
:1024000030603068019D284030600298FFF780FE00
:10241000049F3846FFF77CFE4020FFF779FE3068C6
:10242000764A104030603068204330603068039B4B
:1024300018433060306818433060306820433060A3
:10244000306810403060306828403060029D284677
:10245000FFF75EFE3846FFF75BFEA120FFF758FE50
:102460003068F4490840306030682043306030689C
:10247000039A104330603068104330603068204366
:10248000274630603068084030603068019C20404A
:1024900030602846FFF73CFE049D2846FFF738FED3
:1024A000C820FFF735FE3068E249084030603068E8
:1024B000384330603068039A10433060306810430E
:1024C00030603068384330603068084030603068D1
:1024D00020403060029F3846FFF71AFE2846FFF77B
:1024E00017FEDA20FFF714FE3068D249084030604A
:1024F0003068009C204330603068039B1843306094
:1025000030681843306030682043306030680840DD
:1025100030603068019D284030603846FFF7F8FD94
:102520000498FFF7F5FD1220FFF7F2FD3068FC4933
:10253000084030603068204330603068039A1043B0
:102540003060306810433060306820432746306088
:10255000306808403060306828403060029C204677
:10256000FFF7D6FD0498FFF7D3FD8120FFF7D0FDDC
:102570003068EB4A10403060306838433060306873
:10258000039908433060306808433060306838434E
:10259000306030681040306030682840306020463D
:1025A000FFF7B6FD049C2046FFF7B2FDCF20FFF7F2
:1025B000AFFD3068DA4A1040306030683843306030
:1025C00030680399084330603068084330603068F1
:1025D00038433060306810403060306828403060E8
:1025E000029F3846FFF794FD2046FFF791FDD92062
:1025F000FFF78EFD04E0C04680120A40FFFFFFEFA8
:102600003068C74B1840306030680099084330602C
:102610003068039A1043306030681043306030688F
:10262000084330603068184030603068019C2040BA
:1026300030603846FFF76CFD049D2846FFF768FDC3
:10264000F120FFF765FD3068F84A104030603068CF
:10265000009F384330603068039908433060306829
:102660000843306030683843306030681040306074
:102670003068204030600298FFF74AFD2846FFF797
:1026800047FDDB20FFF744FD3068E8490840306033
:102690003068384330603068039C204330603068D5
:1026A0002043306030683843306030680840306024
:1026B0003068019D284030600298FFF729FD04989A
:1026C000FFF726FD3020FFF723FD3068D74908408B
:1026D00030603068384330603068204330603068A4
:1026E00020433060306838433060306808403060E4
:1026F000306828403060029D2846FFF709FD0498A5
:10270000FFF706FDA420FFF703FD3068C749084026
:102710003060306838433060306820433060306863
:1027200020433060306838433060306808403060A3
:1027300030680199084030602846FFF7E9FC049DA5
:102740002846FFF7E5FCA620FFF7E2FC3068B74912
:102750000840306030683843306030682043306073
:10276000306820433060306838433C463060306821
:10277000084030603068019908403060029F384658
:10278000FFF7C6FC2846FFF7C3FC8D20FFF7C0FC0F
:102790003068A649084030603068254620433060E4
:1027A0003068039C204330603068204330603068DC
:1027B0002843306030680840306030680199084034
:1027C00030603846FFF7A4FC049F3846FFF7A0FCB2
:1027D0001420FFF79DFC3068944908403060306851
:1027E00028433060306820433060306820433060D8
:1027F00030682843306030680840306030680199A4
:10280000084030600298FFF783FC3846FFF780FCF1
:10281000AF20FFF77DFC30688449084030603068A5
:1028200028433060306820433060FFF735FC05B046
:10283000F0BDC046FFFFFFEFF0B585B002910090FC
:1028400001200407784F396821433960C50738688B
:10285000284338603868754908403860691E386810
:1028600008400E460191386078200490FFF750FC34
:1028700000200390FFF74CFCB02000990843FFF7BD
:1028800047FC386869490840386038682843386030
:1028900038682043386038682043386038682843F7
:1028A00038603868084038603868304038600498CC
:1028B000FFF72EFC0398FFF72BFC029E3009103027
:1028C000FFF726FC386859490840386038682843C3
:1028D000386038682043386038682043386038688A
:1028E00028433860386808403860386801990840E3
:1028F00038600498FFF70CFC0398FFF709FC0F20E1
:102900003040FFF705FC38684849084038603868AF
:102910002843386038682043386005B0F0BDC046B1
:10292000FFFFFFEFF0B587B0154640000390801E13
:10293000C0B2C9000839C9B20291FFF77DFF280172
:102940003749019040183749401804900120010789
:10295000C2070025344F354B06913868084338606C
:10296000386810433860386818403860511E38683D
:10297000059108403860782014461E46FFF7C8FBD2
:102980004020FFF7C5FB0498405DFFF7C1FB3346CD
:1029900022460699386830403860386820433860ED
:1029A0003868084338606D1C082DD6D10398401E46
:1029B000C0B20299FFF740FF3346224606990198BC
:1029C000184D2818164D4019083004900025386815
:1029D00008433860386810433860386818403860F9
:1029E00038680599084038607820FFF791FB40204F
:1029F000FFF78EFB0498405DFFF78AFB33462246C3
:102A00000699386830403860386820433860386844
:102A1000084338606D1C082DD9D107B0F0BDC04601
:102A2000704D000000FEFFFF80120A40FFFFFFEF25
:102A3000F0B587B003AC0FC4002B3CD00698451E00
:102A4000801E01900026494F029513E00121049851
:102A50003418059801F090FC0A21FDF79FFB302205
:102A60000A43E1B20398FFF75DFF6D1E761C0698DE
:102A7000864220D002988642E8D003200199891B23
:102A8000032901D2012105E02A468243012179432D
:102A9000121FFCD1F243069BD2180240D7D0012A64
:102AA00001D10A2005E0022A02D07D20C00000E00A
:102AB00064204143CBE707B0F0BDC046F0B587B016
:102AC000069314460D46002A049005D405942B2243
:102AD0002946FFF727FF05E02D222946FFF722FFB1
:102AE00064420594069800283ED00698471E801E32
:102AF0000190681C029000251C4E039713E00121F1
:102B000002984419059801F037FC0A21FDF746FBAD
:102B100030220A43E1B20498FFF704FF7F1E6D1CC8
:102B20000698854220D003988542E8D00320019979
:102B3000491B032901D2012105E03A4682430121C4
:102B40007143121FFCD1EA43069BD2180240D7D032
:102B5000012A01D10A2005E0022A02D07D20C0000E
:102B600000E064204143CBE707B0F0BD1027000030
:102B7000F0B581B00646107800280DD014460D46F9
:102B800000277919C9B2C2B23046FFF7CBFE7F1CCD
:102B9000F8B2205C0028F4D101B0F0BDF0B585B0EA
:102BA00004910446C6694E480568A81BFEF748F81C
:102BB0004C49FDF72BFF002E07D007467F20C105AB
:102BC000384601F01CFD002804D1202001212154A9
:102BD00000276761E5612068049901F0DDFF064682
:102BE000A5680021284601F0E9FC00283BD10295A8
:102BF00000253846294601F0E1FC002833D1202089
:102C0000205C0128039605D12046203005700195EF
:102C1000049E09E02169049E304602F021F83946FD
:102C2000FDF7F4FE0190A56926612F48016838463A
:102C300001F0EEFE01463846FDF7E8FE0646019833
:102C4000294602F00DF80146304601F0A5FF29465D
:102C500001F0DEFE0146A061029801F09DFF03999C
:102C600001F0D6FE064665680021284601F0A6FC64
:102C700000282ED10021384601F0A0FC002828D1E0
:102C800003962846049901F087FF394601F084FF36
:102C9000616901F0BDFE0746A6897042FDF7C8FFD5
:102CA00005463846294601F0B7FC002800D13D46CC
:102CB0003046FDF7C5FF06462846314601F094FC34
:102CC000002800D12E4666610398314601F0A0FE2F
:102CD00006463046FDF74AFF00B205B0F0BDC046DB
:102CE0007403202000007A44480020200021016164
:102CF00041618161C161103001747047B0B5174CFA
:102D000017492046FEF79AFA16492046FEF772FA4E
:102D10000322D103144803688B43036003691349FA
:102D20000B401A330361436913433C2293434361CD
:102D300043680122134044689443E31843609302BC
:102D40000B4C25681D432560FF310A4B1C680C4065
:102D50001C60016811430160B0BDC0460000104016
:102D60006053000062530000001110400000FFFF9C
:102D7000281010400CE400E010B5284985228A6430
:102D800001231C0226480460CA645A02026082229F
:102D90008A65244ACA65244A8A61244A4A6381238F
:102DA0008B604B61224A1365536553669366214CD1
:102DB0009462D462946394644B600B60CC638C63C4
:102DC0001D491160516091605163D16401463039F1
:102DD0001A4A0A6001464039194A0A6019490160D5
:102DE0003F20000618490A6802430A600F200003CA
:102DF0004A6802434A6015480168154A1143016058
:102E000014480168114301604720800412490A6A8E
:102E100002430A620A6802430A6010BD048042400D
:102E2000D0120A40820004008100010081000200EB
:102E30008880424081000500810006000400000FE8
:102E4000830000908700009F08150A40A0330A40C5
:102E5000F00303000C350A4028300A4070B582B0F8
:102E6000194C1A492046FEF7B7F919492046FEF7D2
:102E70006DF800250095204629462A462B46FEF788
:102E800097F9204629462A46FEF784F92046294626
:102E90002A46FEF799F901260096204629462A4639
:102EA0002B46FEF785F9204629463246FEF772F991
:102EB000204629463246FEF787F9064886600321F8
:102EC000016002B070BDC046000086406C53000037
:102ED000705300000011864010480021016003205B
:102EE000C0430F490A46083A1368034013600A6852
:102EF000012082430A6002020B6893430B600203C5
:102F0000091F0B6813430B60FF210902054A136870
:102F10008B438003181810607047C04608030B40AD
:102F200008010B4000E400E010B517481749FDF711
:102F3000E7FF17484168174A0A400321090451185E
:102F400041608168144A0A4001214B06D218826010
:102F5000124A00231360516002239360104A4261B9
:102F60008A02104B1C6A14431C621C6814431C60C8
:102F7000FF2212020C4B1C6894438A03A2181A60A9
:102F800002680A43026010BD002000407853000030
:102F900000310040FEFFECFFF8FFE0E08031004030
:102FA000409C00002830004004E400E080B500F0C0
:102FB0001BF8FFF7E1FEFFF78FFFFFF74FFF00F071
:102FC00065F800F041F8FFF799FEFFF7ADFF7420B8
:102FD000034900220A54B82002490A5480BDC04661
:102FE000EC02202030022020F0B581B00D480E49BF
:102FF00041600E4A51600E4B59600E4C61600E4D9F
:1030000069600E4E71600E4F79600E49016011606B
:10301000196021602960316039601020FDF790FF50
:1030200001B0F0BD00080A40030000B100280A40CA
:10303000000886400048084000888640000810408C
:10304000002800400100002610B50B4C0B4920461B
:10305000FEF7C2F80A492046FEF726F8094801683B
:10306000012211430160FF20000219490B688343CC
:103070000B600548026010BD008086408053000050
:1030800084530000289086400891864010B50C4C6F
:103090000C492046FEF7A0F80B492046FEF704F83D
:1030A0000A48016801221143016009480168C023F0
:1030B0000B433F218B4303600648026010BDC046AE
:1030C00000400840985300009C53000028500840DE
:1030D00010E400E0085108400021817181807047B0
:1030E000F0B581B08B480068C0B2012800D050E331
:1030F00089480168894E32780907C90F89180091FB
:103100003170874A138800271780864A1380864AC1
:1031100014881780854B1D8885490D805A888549FC
:103120000A809B8884490B806142844C218000681E
:10313000F4784007C00F0019F070814E3478012CEC
:103140003AD0002C00D0B5E07E4C2478042C6CD012
:10315000032C54D0022C00D0AEE031467A4C2488A7
:103160000126A242324600D83E46A542154600D866
:103170003A463243A3422B4600D83B461A43012A23
:1031800012D1724A00235361714A5361714A5361EB
:10319000714A1268714B1A60714A1278521E531E9E
:1031A0009A410A70674B1A706E4A1278C0B2904208
:1031B00000D9FEE10020FDE16B480088854279D20C
:1031C000824277D2834275D23746654E3078411EAF
:1031D000012948D85B4802210170002038704F490E
:1031E00008605A4948615A4948615A4948615F48EC
:1031F0000178491C0170C8B2012854D856E05C4DD2
:1032000028880A3028805B49098880B2884251D9D1
:1032100002204C490870002434704048046000F0DB
:1032200077FC554908602C8044E047480488012019
:103230000026A242074600D83746A542054600D8D8
:1032400035463D43A34200D830460543012D3C4B53
:1032500030D143480078012800D020E20020394ACC
:103260001070187035E0C01E01281FD835480321A2
:10327000017000253D70294805603D48012101800D
:103280003E4C2078401C207000F042FC3C49086015
:1032900020783178032901D1012803D8042905D1E8
:1032A000082803D33D702748002101702A48006890
:1032B0002A49086023480478042C00D969E2C046F2
:1032C0007C4424796400A74402906A7D65001B4811
:1032D000018808B2FDF7ACFC01462A48006801F0FD
:1032E0005BFC01461A48FFF759FC274C2080002060
:1032F0000C49085EFDF79CFC01462448006801F07B
:103300004BFC01461348FFF749FC214908802088FF
:1033100035E2C0462050084080330A406C0320202C
:103320002C022020AA0320202A022020080220208C
:10333000660320206403202068032020A8032020A7
:10334000720320204C002020320120203C0120204C
:10335000A8002020E4002020740320201C0220204C
:10336000380120208400202030012020AE032020BE
:10337000B80320208001202014022020AF03202049
:10338000B40320207C002020700320208000202017
:10339000A0032020C9480278C748007818E1FE48F9
:1033A0000078411E012934D8FC480078012800D15A
:1033B00065E1002800D0AAE100F0AAFBF84901F07D
:1033C00027FB66E1FA480088002800D1E1E1F948CE
:1033D00002789000F3494018001F0168FE48006819
:1033E000D20725D101F03CFC30E0F6480288F648CF
:1033F0000088F3490988EC4B1B889A4201D9081AC6
:1034000084E081427BD94018E84909884900081ABC
:103410007CE0C01E012800D979E1EE480078C4079D
:1034200000F076FB002C00D04AE1EF49096866E124
:1034300001F0EEFA0446002101F0EEF80546F249EB
:10344000204601F0E5FA002D00D12046EF4F38600C
:1034500000F05EFB0024214601F0DEF8064600F095
:1034600057FB0546E84901F0D3FA002E00D1284663
:10347000396801F0F5FB0146E548FFF78FFB05468B
:10348000E44F3880D148005FFDF7D2FB064628465E
:10349000FDF7CEFB0546D7480168304601F07CFBBE
:1034A000294601F0DDFB0146CD48FFF777FBD24905
:1034B0000880C248005FFDF7BBFB0546385F40420D
:1034C000FDF7B6FB0646CD480168284601F064FBCF
:1034D000314601F0C5FB0146C248FFF75FFBC84912
:1034E000884200DC0846E1225201904200DB10468F
:1034F000C44B1880C04B185F884254DD54E000D3A1
:10350000CAE04018C94909884900401AC6490880DC
:1035100000B2FDF78DFB0146B048FFF73FFB0446C4
:10352000C34804800026A948805FFDF781FB05465B
:10353000BC4F38880019FDF77BFB0446AD48016895
:10354000284601F029FB214601F08AFB0146A448E8
:10355000FFF724FBA84908809848805FFDF768FBC7
:103560000446B348805F3988081AFDF761FB0546B9
:10357000A2480168204601F00FFB294601F070FBCC
:1035800001469848FFF70AFB9D49884200DC08463F
:10359000E1225201904200DB10469A4B1880964B74
:1035A000985F884200DC0846904200DB1046188095
:1035B000E5E00120009BDBB2934200D80546012DD7
:1035C00000D077E60420824B187000200870009825
:1035D000C0B2904204D9864800884000454206E0C7
:1035E0007548C078904205D98148008845007F48D9
:1035F000058001E07D48058800267448805FFDF75E
:1036000017FB044628B2FDF713FB0546794801680D
:10361000204601F0C1FA294601F022FB014670481C
:10362000FFF7BCFA744F38806448805FFDF700FBF9
:1036300004466E48805F4042FDF7FAFA05466F483F
:103640000168204601F0A8FA294601F009FB01466D
:103650006448FFF7A3FA6A49884200DC0846E12281
:103660005201904200DB1046664B1880B85F8842DA
:1036700000DC0846904200DB104638807FE000F016
:1036800047FAFDF799F9644A644BFDF741F8FCF7F6
:1036900085FE0146624836E06348008838E701202D
:1036A0004B49087018704D48002141614C484161F8
:1036B0004C4841619BE6C0466C03202084002020DA
:1036C0000025294600F0A8FF064600F021FA07462B
:1036D0004D4901F09DF90446002E00D13C46424878
:1036E00007683846294600F074FF054638464649C3
:1036F00001F08EF9002D00D107462046394601F031
:10370000AFFA01464248FFF749FA424908800026CD
:103710002E48805FFDF78CFA04463E48805F414F9B
:1037200039884018FDF784FA05463248016820467A
:1037300001F032FA294601F093FA01462848FFF7D2
:103740002DFA2D4908801D48805FFDF771FA044667
:103750003048805F3988081AFDF76AFA054627481D
:103760000168204601F018FA294601F079FA01466D
:103770001C48FFF713FA234908801F48008801B24C
:103780002C48FEF75FFC00201E49095E2A48FEF720
:1037900059FC01B0F0BDC04638012020AE03202006
:1037A000000034C3600120208800202086002020F3
:1037B000B8032020AF0320206C032020AA03202080
:1037C000660320206403202068032020A803202013
:1037D0004C002020AF032020B40320203C012020F7
:1037E000A8002020E400202014022020260220200F
:1037F0004E0020207C00202070032020800020200C
:10380000E0E3FFFFA00320200000B443B00320202A
:1038100084012020C00320209A99999999495DC07C
:103820005400202050002020AC03202086002020BF
:103830001802202090002020CC002020044800689E
:10384000C0B2012803D103480168491C01607047D8
:10385000209086407403202080B501467F20C0055B
:10386000FDF7D4F80149086080BDC0468C002020D7
:10387000F0B581B03848056838480168284601F03D
:103880008BF904463648006836490F68394601F01E
:1038900083F9214601F0BCF806463846394601F066
:1038A0007BF901463F200406204601F0D9F907467E
:1038B0002846294601F070F90146384601F0D0F952
:1038C0000146304600F040FF9049086022480068F9
:1038D000234F396801F060F90546224800681F4E01
:1038E000316801F059F90146284601F0B9F901465D
:1038F00001F08EF800F09CFE7C490860386835685D
:10390000294601F049F906461648006812490F6831
:10391000394601F041F9314601F07AF80646384659
:10392000394601F039F90146204601F099F904467B
:103930002846294601F030F90146204601F090F969
:103940000146304600F000FF7A49086078480121BE
:10395000017001B0F0BDC046980320209C032020D8
:103960003401202094032020B0B500F021F8F14C60
:103970002068E44D296901F073F920606068696985
:1039800001F06EF96060A068A96901F069F9A060B2
:10399000E068E96901F064F9E0602069296A01F0F2
:1039A0005FF920616069696A01F05AF96061B0BD30
:1039B000F0B583B03C4801903C4800903C483D49FC
:1039C0003D4A3E4C2346FEF75DFA0026A05FFDF718
:1039D0002FF90721CD06294601F0DEF8384901F01C
:1039E000DBF8384F394601F0D7F8D24CE0602F4869
:1039F000805FFDF71DF9294601F0CEF8304901F04E
:103A0000CBF8394601F0C8F820612748805FFDF700
:103A10000FF9294601F0C0F8294901F0BDF83946EF
:103A200001F0BAF860612248805FFDF701F929468C
:103A300001F0B2F88321CF05394601F0ADF8FCF76B
:103A4000BBFF214C214B2246FCF792FEFCF7A6FC63
:103A5000B84908601748805FFDF7EAF8294601F089
:103A60009BF8394601F098F8FCF7A6FF2246174B61
:103A7000FCF77EFEFCF792FCAE4948600E48805F82
:103A8000FDF7D6F8294601F087F8394601F084F8A9
:103A9000FCF792FF22460D4BFCF76AFEFCF77EFC1A
:103AA000A449886003B0F0BD240220202202202017
:103AB0000E022020100220201202202020022020AE
:103AC0000000FA44000060409A999999999923401E
:103AD00080B517480078002801D1FFF7C9FE0348D8
:103AE0000068154901F058F880BDC04690032020B9
:103AF00080B50F480078002801D1FFF7B9FE0348D0
:103B000000680D4901F048F880BDC046A40320209C
:103B100080B507480078002801D1FFF7A9FE0548C5
:103B20000068054901F038F8044900F071FF80BDD4
:103B300028022020BC032020E12E654200003443EF
:103B400088B0FFF733FAFEF759FB6D4C2046FFF7BC
:103B5000C3FA7D200001FDF77BFB6A480078FDF782
:103B60006FF801466848FCF751FFFFF775FEFEF756
:103B7000C3F9FEF7FFF901256804644E3060644F15
:103B800038606803306038602046FFF7A5FA614866
:103B9000FFF7ACF86048FFF7A9F86048FFF7A6F810
:103BA0005F48FFF7A3F85F48FFF7A0F828025E49D7
:103BB0000A6802430A6002203060386020203060CA
:103BC0003860280430603860594F4E4B9868D96887
:103BD0003A680026101A32468A411978401AB241D2
:103BE0000DD3386847498860CE60FFF7BDFE514A63
:103BF00038CA003207CA0094019500F0AFF8039666
:103C000002240121079120464BA2FEF7B1FFFFF7E6
:103C10007FFFFCF7ABFF0246082503272046294615
:103C200006953B46FEF74AFFFFF772FF444900F056
:103C3000B3FFFCF7C1FF64210491FCF7AFFA0A4619
:103C40000D262046314605962346FEF7F1FE3846FE
:103C500007993CA2FEF78CFFFFF74AFFFCF786FFAF
:103C60000246384629463B46FEF728FFFFF740FF4D
:103C7000334900F091FFFCF79FFF049D2946FCF7B4
:103C80008DFA0A46384631462346FEF7D1FE042611
:103C9000304607992DA2FEF76BFFFFF719FFFCF7DF
:103CA00065FF0246304606993B46214FFEF706FF68
:103CB000FFF70EFF224900F06FFFFCF77DFF29465A
:103CC000FCF76CFA0A46304605992346FEF7B0FE2B
:103CD000204B1868002800D177E714490E60802037
:103CE00008611968491C19603A68511A1A4A9142C8
:103CF00000D26AE70D490E6108600398186064E716
:103D0000000020200801202000007A4480E200E02A
:103D100000E100E03C01202054002020840120200C
:103D2000A8002020E40020200431004090120A4026
:103D300074032020780320205961773A00000000A6
:103D40000000C842526F6C6C3A0000005069746306
:103D5000683A00001C022020E9030000F0B59BB087
:103D6000139315460C46514E314600F015FF074699
:103D70002046314600F010FF044616902846314692
:103D800000F00AFF18900120C107494800681A9006
:103D90004140204600F000FF054646480068199063
:103DA00039463C46109700F0F7FE0146284600F0E1
:103DB00057FF0546404806683046189F394600F0D0
:103DC000EBFE0146284600F04BFF3F210906149107
:103DD00000F0E2FE159038461A9900F0DDFE074625
:103DE000364805682846214600F0D6FE394600F0E0
:103DF0000FFE07463046169C214600F0CDFE0146D8
:103E0000384600F02DFF149900F0C6FE1290189865
:103E1000199900F0C1FE07462846214600F0BCFE75
:103E2000394600F01DFF074617963046109E314672
:103E300000F0B2FE394600F0EBFD149F394600F069
:103E4000ABFE11902046199900F0A6FE0446169587
:103E50002846189900F0A0FE214600F0D9FD04463E
:103E60001A98314600F098FE0146204600F0F8FE10
:103E7000394600F091FE18900021139806461491DF
:103E800000F09CFB219F209C002819D00021204697
:103E900000F094FB002813D00021384600F08EFB80
:103EA00000280DD0159A129D119CD1E139FA8E3C53
:103EB00098032020940320209C03202034012020FC
:103EC0002046214600F068FE05463046314600F0A7
:103ED00063FE294600F09CFD0546089738463946A2
:103EE00000F05AFE294600F093FD4610BF21090656
:103EF0000B9100F051FE0546D448871B28463946F1
:103F000000F04AFE394600F047FEFF218E0531469B
:103F10000A9600F07DFD394600F03EFE0746284631
:103F2000394600F039FE394600F036FE314600F0E1
:103F30006FFD0146384600F02FFE064606901399A5
:103F400000F02AFE054613903046214600F024FE7C
:103F5000064610901A981A9900F05AFD01460990E9
:103F6000284600F019FE05468120C1050E911698DD
:103F700000F012FE04461A981A9900F00DFE014650
:103F80000F90204600F008FE294600F041FD05464E
:103F9000199F3846394600F0FFFD01460D90204636
:103FA00000F0FAFD294600F033FD054603208407A2
:103FB0003846214600F0F0FD0790314600F0ECFD58
:103FC000294600F025FD0C90179D2846214600F05B
:103FD000E3FD01460590139800F0DEFD039038469E
:103FE0000E9E314600F0D8FD044601902846294631
:103FF00000F0D2FD01460490204600F0CDFD03996B
:1040000000F006FD044616980146054600F0C4FD82
:10401000314600F0C1FD0290394600F0BDFD214659
:1040200000F0F6FC06462846294600F0F1FC04465E
:10403000109900F0B1FD0146304600F011FE019DDF
:10404000294600F00DFE0646412001060391384640
:1040500000F0A2FD07460D9900F09EFD314600F0EC
:10406000D7FC064638460F9900F096FD314600F021
:10407000CFFC07460698089900F08EFD0146069091
:10408000284600F089FD394600F0C2FC0890014640
:1040900000F082FD05460C98014600F07DFD2946A2
:1040A00000F0B6FC01901398214600F075FD04461F
:1040B00002981A9900F070FD214600F0A9FC07460D
:1040C0001A980E9900F068FD0446049900F064FD0A
:1040D000394600F09DFC07460598109900F05CFDFC
:1040E000394600F095FC214600F0BAFD07461A98C3
:1040F000039900F051FD05460D9E314600F04CFD40
:10410000394600F085FC074628460F9900F044FD2B
:10411000394600F07DFC05462046069900F03CFD3E
:10412000294600F075FC0690014600F035FD019926
:1041300000F06EFC05461398079900F02DFD04462B
:1041400030460E9F394600F027FD179E314600F09D
:1041500023FD214600F05CFC04460F98394600F030
:104160001BFD314600F018FD214600F051FC0446CD
:104170000998109900F010FD0146204600F070FDEE
:104180001390014600F008FD294600F041FC46105E
:104190000B9900F001FD05467348861B2846314601
:1041A00000F0FAFC314600F0F7FC0A9C214600F0D2
:1041B0002FFC314600F0F0FC06462846314600F060
:1041C000EBFC314600F0E8FC214600F021FC014602
:1041D000304600F0E1FC05460C98294600F0DCFC76
:1041E000014662480668304600F0D6FC0146159844
:1041F00000F036FD15900898294600F0CDFC0146E8
:10420000304600F0C9FC0146129800F029FD07462F
:104210000698294600F0C0FC0146304600F0BCFC80
:104220000146119800F01CFD0446139829463D46AE
:1042300000F0B2FC0146304600F0AEFC0146189892
:1042400000F00EFD159A189002E0C046DF59375F66
:10425000474814990170474807681046394600F0EE
:104260009BFC169900F0D4FB16902846394600F0C6
:1042700093FC199900F0CCFB05462046394600F026
:104280008BFC1A9900F0C4FB06461898394600F0DA
:1042900083FC179900F0BCFB074619952846294670
:1042A00000F07AFC04461698014600F075FC2146A1
:1042B00000F0AEFB04461A963046314600F06CFC26
:1042C000214600F0A5FB04463846394600F064FC60
:1042D000214600F09DFB4410BF21090600F05CFC64
:1042E00005462148041B2846214600F055FC21467E
:1042F00000F052FCFF218E05314600F089FB21467B
:1043000000F04AFC04462846214600F045FC2146C0
:1043100000F042FC314600F07BFB0146204600F0F5
:104320003BFC05461698294600F036FC0D4908600E
:104330001998294600F030FC084908601A98294667
:1043400000F02AFC044908603846294600F024FCA5
:10435000034908601BB0F0BD98032020940320207F
:104360009C03202034012020DF59375F7800202073
:10437000280220208C00202043088B421AD30022E0
:1043800003098B4279D3030A8B425ED3030B8B4222
:1043900042D3030C8B4227D30902FF2212BA030C2B
:1043A0008B4202D31212090203D0030B8B4233D388
:1043B0001AE0D3E0411A8041401C704703460B438A
:1043C00071D443088B42F5D3002203098B4254D3A6
:1043D000030A8B4239D3030B8B421DD3030C8B4250
:1043E00002D394466EE0090AC30B8B4201D3CB0380
:1043F000C01A5241830B8B4201D38B03C01A524126
:10440000430B8B4201D34B03C01A5241030B8B4227
:1044100001D30B03C01A5241C30A8B4201D3CB0212
:10442000C01A5241830A8B4201D38B02C01A5241F7
:10443000430A8B4201D34B02C01A5241030A8B42FA
:1044400001D30B02C01A5241CDD2C3098B4201D312
:10445000CB01C01A524183098B4201D38B01C01A90
:10446000524143098B4201D34B01C01A5241030907
:104470008B4201D30B01C01A5241C3088B4201D3B6
:10448000CB00C01A524183088B4201D38B00C01A63
:10449000524143088B4201D34B00C01A5241411A8A
:1044A000524110007047CA0F00D04942031000D398
:1044B0004042534000229C4603098B422DD3030AFD
:1044C0008B4212D38901FC2212BA030A8B420CD30D
:1044D000890192118B4208D3890192118B4204D336
:1044E000890137D0921100E08909C3098B4201D3B9
:1044F000CB01C01A524183098B4201D38B01C01AF0
:10450000524143098B4201D34B01C01A5241030966
:104510008B4201D30B01C01A5241C3088B4201D315
:10452000CB00C01A524183088B4201D38B00C01AC2
:104530005241D9D243088B4201D34B00C01A524199
:10454000411A00D201465241104663465B1000D327
:104550004042704763465B1000D3404201B50021E2
:10456000004201D0C9430846C046C04602BD4100D2
:10457000080200D004200A0E01D001221043090EC7
:10458000FF2901D102210843012800D105207047ED
:1045900010B50121FCF762FB10BD10B500F038FA30
:1045A00010BD10B500210846FCF730FA10BD5E21A1
:1045B00010B5C9430807FCF751FB10BD10B500F05A
:1045C0006DFAEFF30080400001D5012010BD0020FE
:1045D00010BD10B500F08CFAEFF30080800001D51B
:1045E000012010BD002010BD10B500F081FAEFF3DE
:1045F00000804000800F012800D0002010BD10B5C1
:1046000000F0A0FAEFF300804000800F012801D0F5
:10461000012010BD002010BD10B500F093FAEFF39B
:104620000080800001D4012010BD002010BD0000DA
:10463000F8B504464721400049060D2241181206EC
:10464000914253D83F21490688421BD960007F21FF
:104650004008C90500F0F8FA0021C943FCF7FEFA4A
:10466000074600F0BFF9002C04DA2F4D2D4EA907A4
:10467000484001E02D4E2E4D0321890700F08CFAB1
:10468000044606E0002621463546084600F084FA36
:1046900007462849384600F07FFA274900F0B8F964
:1046A000394600F079FA254900F0B2F9394600F0B0
:1046B00073FA234900F0ACF9394600F06DFA21494C
:1046C00000F0A6F900903946204600F065FA0099FE
:1046D00000F062FA07462946204600F099F939466B
:1046E00000F096F9314600F093F9F8BD39214906FA
:1046F000884208D22046FFF73AFF042801D1FFF78D
:1047000056FF2046F8BDFF210906884203D92046FE
:10471000FFF73EFFF8BD0120FCF79AFAFFF741FFD3
:10472000F8BD00000000C9BF22AAFDB90000C93FC2
:1047300022AAFD3924FE1C3DC78AD83C1E67383D9D
:104740001B93993DAFAA2A3EF0B50C4601461D22A7
:104750004B00D2069F18E52605463606620087B054
:104760002046B7427BD21D27FF06D719B74276D223
:104770004F0043003E0E1A0EB21A1B2A07DD002915
:1047800002DA854807B0F0BD844807B0F0BD1A26AC
:10479000F2422FDA002807DA002902DA804807B04F
:1047A000F0BD804807B0F0BD21462846FCF72EF941
:1047B0000646FFF7DCFE042801D1FFF7F8FE284685
:1047C000FFF7D5FE05462046FFF7D1FE04463046EA
:1047D000FFF7CDFE042D01D0052D08D1042C01D00A
:1047E000052C04D1002802D10220FCF731FA304612
:1047F00007B0F0BD9F4211D9002902DA6A4F6B4E13
:1048000001E06B4F6B4E23462C461D4601220346AA
:10481000D20708465440504019460BE0002807DAFA
:10482000002902DA644F654E04E0654F654E01E0F1
:1048300000263746421A012352001B069A422FD205
:10484000484061490CD5BF2000060290384600F070
:1048500007FA07465D49304600F002FA0BE053E0E4
:104860003F2000060290384600F0D2F8074657492C
:10487000304600F0CDF806462846029900F08CF943
:10488000214600F0C5F800902146029800F084F916
:10489000294600F0D9F90099FCF7B8F8044604E07D
:1048A00021462846FCF7B2F80446014600F074F9A8
:1048B0004749009000F070F9464900F0A9F80099C6
:1048C00000F06AF9444900F0A3F8009900F064F997
:1048D000424900F09DF8009900F05EF9404900F06F
:1048E00097F805462046009900F056F9294600F051
:1048F00053F9314600F08CF8214600F089F839462A
:1049000000F086F807B0F0BDFF263606B34201D8A6
:10491000B24205D901462846FFF73FFE07B0F0BD79
:104920002F4607437F000AD0B3420CD1B2420AD1CE
:1049300001229207904391430D46044618E7FF2257
:10494000D2051043F9E7B3420CD047000AD0B24277
:104950000ED04E000CD05340F0D4002A0EDB9F2620
:10496000F6050DE0FF22D2051143E00FC007FFE678
:10497000C90FC907FF22D2051043F9E65F26F605E5
:104980003146284600F008F905463146204600F039
:1049900003F904462946EBE6DB0FC9BFDB0FC93F2D
:1049A000DB0F49C0DB0F49400000C9BF22AAFDB997
:1049B0000000C93F22AAFD39000049C022AA7DBAE1
:1049C0000000494022AA7D3A0060ED3EC30ACE377E
:1049D0002DAD65BD8FB8D53D0FB511BE61C84C3E3C
:1049E000A8AAAABE70B50546FCF75AF941000446CC
:1049F000FF204908C005411AC90F07D069004908BE
:104A0000401AC00F02D10120FCF722F9204670BDE8
:104A100070B50125ED0704004C4020D4441A01D2A2
:104A2000001B0919C60D4B00F2B2FF2A29D01B0E3C
:104A30002CD000020C0228432C43D31ADC40051969
:104A400010D2280A02D3401C6D0611D0761EF6053E
:104A50008019FF2A00DA70BDC00DC00570BD694025
:104A600000F004F901200543C541521C761CE8E71B
:104A700064089C40C90161408900E7D10124A0433A
:104A8000E4E71B0E440200D0034870BD002AFCD1AD
:104A9000C00FC00770BD00BF0000C07F0123DB0551
:104AA00002000A430DD4DA4203D49A4207D4884262
:104AB0007047D84214D4D94212D4884270478042F9
:104AC0007047DA4203D59A42F9D5814270475B00BC
:104AD0004200DA4204D24A00DA4201D281427047EF
:104AE00010B5024AFCF728F910BD00BF09001204F6
:104AF0000123DB0502000A430DD4DA4203D49A42B3
:104B000007D488427047D84214D4D94212D488427C
:104B1000704780427047DA4203D59A42F9D5814204
:104B200070475B004200DA4204D24A00DA4201D206
:104B30008142704710B5024AFCF7FEF810BD00BF75
:104B4000090013040123DB0502000A430DD4DA42F5
:104B500003D49A4207D488427047D84214D4D94229
:104B600012D48842704780427047DA4203D59A4295
:104B7000F9D5814270475B004200DA4204D24A0014
:104B8000DA4201D28142704710B5024AFCF7D4F8EC
:104B900010BD00BF0900160470B5420064414B000F
:104BA0005C41120E39D01B0E38D0FF2A3CD0FF2BAF
:104BB0003AD0D2187F3A40024902400A490A4518C1
:104BC000ED0106004E43000A090A48430104731A26
:104BD0004019190C4318990F04D05B0801214907AB
:104BE0005B1A521CD80904D3401CF50301D19D0661
:104BF00007D0FF2A08D2D50506D0E4072043401984
:104C000070BD0125A843F4E7002A01DCE00770BD70
:104C10002402FF202043C00570BD1B0EFF2A03D0D5
:104C2000FF2B01D0E00770BDFF2636064500B542D8
:104C300006D84D00B54203D8D218FF2A00D0E7E7C6
:104C4000004870BD0000C07F70B50125ED076840C9
:104C500004004C4002D5694000F008F8FFF7DEFE82
:104C600070B50125ED0704004C4022D4441A02D24D
:104C70006C40001B0919C60D4B00F2B2FF2A4BD045
:104C80001B0E50D000020C02A8432C43D31ADC4068
:104C9000051B05D5AD0019D36D08761E521E37D001
:104CA000F605280A01D2801970BD70416D0603D047
:104CB00070BD6940FFF7B2FE9C40090261404900A7
:104CC00001D0401E70BD0124A04370BD6D081DD0F1
:104CD00001202B0C01D12D0410302B0E01D12D02FF
:104CE00008302B0F01D12D01001DAB0F01D1AD00FC
:104CF000801CEB0F01D16D00401C361A121A6D009A
:104D0000680AF5054019012A02DB70BD002070BD5C
:104D1000C036300AC00770BD1B0E440201D1FF2B04
:104D200000D1024870BD002AF0D070BD0000C07FE5
:104D30008182838485868788898B8C8D8E8F9192E2
:104D400093959697999A9C9D9FA0A2A3A5A7A8AA80
:104D5000ACAEB0B2B3B5B7B9BCBEC0C2C5C7C9CCA2
:104D6000CED1D4D7D9DCDFE2E6E9ECF0F3F7FAFEF6
:104D70000000000000000000000000000000000033
:104D8000000000F8000000000000003330000000C8
:104D900000100C06100C06000000000000000000CF
:104DA00040C07840C0784000043F04043F04040041
:104DB000007088FC08300000001820FF211E000051
:104DC000F008F000E018000000211C031E211E0066
:104DD00000F00888700000001E21232419272110EC
:104DE00010160E000000000000000000000000008F
:104DF000000000E018040200000000071820400036
:104E000000020418E0000000004020180700000025
:104E1000404080F0804040000202010F0102020089
:104E2000000000F0000000000101011F010101006D
:104E3000000000000000000080B0700000000000D2
:104E4000000000000000000000010101010101015B
:104E500000000000000000000030300000000000F2
:104E600000000000806018040060180601000000C7
:104E700000E010080810E000000F102020100F00C4
:104E8000001010F8000000000020203F202000004B
:104E900000700808088870000030282422213000A3
:104EA00000300888884830000018202020110E00AB
:104EB0000000C02010F8000000070424243F240054
:104EC00000F80888880808000019212020110E0029
:104ED00000E0108888180000000F112020110E003B
:104EE00000380808C83808000000003F0000000033
:104EF0000070880808887000001C222121221C00F4
:104F000000E010080810E0000000312222110F001C
:104F1000000000C0C00000000000003030000000B1
:104F20000000008000000000000080600000000021
:104F3000000080402010080000010204081020003A
:104F40004040404040404000040404040404040085
:104F5000000810204080000000201008040201001A
:104F6000007048080808F00000000030360100001A
:104F7000C030C828E810E0000718272423140B00CD
:104F80000000C038E0000000203C23020227382047
:104F900008F8888888700000203F202020110E002B
:104FA000C030080808083800071820202010080022
:104FB00008F808080810E000203F202020100F000B
:104FC00008F88888E8081000203F202023201800D7
:104FD00008F88888E8081000203F2000030000003F
:104FE000C03008080838000007182020221E0200E0
:104FF00008F808000008F808203F210101213F209F
:10500000000808F8080800000020203F20200000C9
:1050100000000808F8080800C08080807F000000B9
:1050200008F888C028180800203F200126382000F2
:1050300008F8080000000000203F20202020300059
:1050400008F8F800F8F80800203F003F003F200073
:1050500008F830C00008F808203F200007183F007B
:10506000E01008080810E0000F10202020100F00AA
:1050700008F808080808F000203F2101010100009D
:10508000E01008080810E0000F18242438504F00E2
:1050900008F8888888887000203F2000030C3020A2
:1050A00000708808080838000038202121221C00E0
:1050B000180808F8080818000000203F2000000029
:1050C00008F808000008F808001F202020201F0012
:1050D0000878880000C83808000007380E01000072
:1050E000F80800F80008F800033C0700073C03003C
:1050F000081868808068180820302C03032C3020A2
:105100000838C800C83808000000203F2000000010
:1051100010080808C8380800203826212020180068
:10512000000000FE020202000000007F404040003C
:10513000000C30C000000000000000010638C00074
:1051400000020202FE000000004040407F0000001C
:105150000000040202020400000000000000000041
:10516000000000000000000080808080808080803F
:105170000002020400000000000000000000000027
:1051800000008080808000000019242222223F201D
:1051900008F8008080000000003F112020110E0060
:1051A0000000008080800000000E112020201100EF
:1051B000000000808088F800000E112020103F20A1
:1051C0000000808080800000001F22222222130025
:1051D000008080F0888888180020203F2020000070
:1051E0000000808080808000006B94949493600025
:1051F00008F8008080800000203F210000203F2030
:1052000000809898000000000020203F202000002F
:10521000000000809898000000C08080807F00001F
:1052200008F8000080808000203F24022D302000FC
:10523000000808F8000000000020203F20200000A7
:105240008080808080808000203F20003F20003FC1
:105250008080008080800000203F210000203F20CF
:105260000000808080800000001F202020201F0080
:10527000808000808000000080FFA12020110E00AF
:105280000000008080808000000E112020A0FF80A0
:10529000808080008080800020203F21200001004D
:1052A00000008080808080000033242424241900A2
:1052B000008080E0808000000000001F20200000AF
:1052C0008080000000808000001F202020103F20F0
:1052D000808080000080808000010E300806010080
:1052E00080800080008080800F300C030C300F0025
:1052F00000808000808080000020312E0E31200050
:10530000808080000080808080818E70180601007F
:1053100000808080808080000021302C222130009D
:1053200000000000807C020200000000003F4040BE
:1053300000000000FF00000000000000FF0000006F
:105340000002027C800000000040403F000000009E
:105350000006010102020404000000000000000039
:1053600004000000180000000030000008070000E2
:10537000201C0000200101000105000000000003C6
:105380000807630002000000270000000100000081
:105390000000000000000000080763000200000099
:1053A0008F0100000100000000000000000000006C
:1053B000D053000000002020A80100009E0E000035
:1053C00068540000A80120202004000028010000EB
:1053D0003103451040362472023C0254020008A3F7
:1053E000A0410217042ECDCCCC3D82B8CB4250E177
:1053F000CC4201350A0FC409350AD7233C430A4081
:105400003201430A4032027386404310C062C10237
:105410001908430A403204430A40320855864001C5
:10542000014310C062C102170802280A35D00728BC
:105430000A44803F02559A9999BE07176F1283BAA2
:105440000004358FC232423730428FC23242373089
:10545000428FC232423730428FC23242553042E828
:0854600003A3A04102170400A0
:04000005000000C136
:00000001FF
