:020000040000FA
:10000000700520206D0100007101000073010000E7
:1000100000000000000000000000000000000000E0
:10002000000000000000000000000000750100005A
:1000300000000000000000007701000079010000CE
:100040007B010000F91D00007B0100007B01000026
:100050007B010000411600007B0100007B010000D5
:10006000000000007B0100007B0100000000000098
:10007000000000007B0100007B0100007B0100000C
:10008000CD380000CD3C00007B0100007B0100006A
:100090007B0100007B010000000000000000000068
:1000A0007B0100007B010000000000000000000058
:1000B0007B010000000000007B0100007B010000CC
:1000C00000F002F800F042F812A030C808382418F6
:1000D0002D18AC4201D100F039F80FCCA246AB4646
:1000E0000CA730CF2D1B083F3F197C427F1E544484
:1000F0002D090426F441641EAC4201D300F026F819
:100100000126334200D0FB1A3343984754465D46DC
:10011000DFE700009C7D0000BC7D000000000000C7
:100120007047000000000000002300240025002686
:10013000103A01D378C1FBD8520700D330C100D5A3
:100140000B6070471FB51FBD10B510BD01F0D4F98D
:100150001146FFF7F7FF04F0CDFA01F0ECF903B414
:10016000FFF7F2FF03BC01F047FA00000648004722
:10017000FEE7FEE7FEE7FEE7FEE7FEE70348044989
:10018000044A054B70470000C100000070032020A6
:1001900070052020700420207004202070B50546D2
:1001A00010460C4618430ED000210846891A984183
:1001B00027DA00210846491BA04118DA28462146C3
:1001C00000F0FDFB70BD002C03DA01230022DB07E9
:1001D00007E000210846491BA04102DA0022D24371
:1001E000530810461946C046C0462A4627E000215B
:1001F0006842A14100F0E3FB002440428C412146CB
:100200001AE000210846491BA0410CDA21460020D3
:10021000524298410346284600F0D1FB0024404258
:100220008C41214670BD0020524298410021034676
:100230006842A14100F0C3FB002452429C41234686
:1002400070BD034610B50B439B070FD1042A0DD395
:1002500008C810C9121FA342F8D018BA21BA8842A0
:1002600001D9012010BD0020C04310BD002A03D0D9
:10027000D30703D0521C07E0002010BD03780C7890
:10028000401C491C1B1B07D103780C78401C491CDF
:100290001B1B01D1921EF1D1184610BD002203098B
:1002A0008B4273D3030A8B4258D3030B8B423CD34C
:1002B000030C8B4221D312E003460B437FD4002270
:1002C00043088B4274D303098B425FD3030A8B42EA
:1002D00044D3030B8B4228D3030C8B420DD309026A
:1002E000FF2212BA030C8B4202D31212090265D00C
:1002F000030B8B4219D300E0090AC30B8B4201D3D5
:10030000CB03C01A5241830B8B4201D38B03C01A1B
:100310005241430B8B4201D34B03C01A5241030B92
:100320008B4201D30B03C01A5241C30A8B4201D343
:10033000CB02C01A5241830A8B4201D38B02C01AEE
:100340005241430A8B4201D34B02C01A5241030A65
:100350008B4201D30B02C01A5241CDD2C3098B424A
:1003600001D3CB01C01A524183098B4201D38B01C7
:10037000C01A524143098B4201D34B01C01A52416A
:1003800003098B4201D30B01C01A5241C3088B42AF
:1003900001D3CB00C01A524183088B4201D38B009A
:1003A000C01A524143088B4201D34B00C01A52413C
:1003B000411A00D201465241104670475DE0CA0F13
:1003C00000D04942031000D3404253409C460022D3
:1003D00003098B422DD3030A8B4212D38901FC22DD
:1003E00012BA030A8B420CD3890192118B4208D3B3
:1003F000890192118B4204D389013AD0921100E015
:100400008909C3098B4201D3CB01C01A5241830928
:100410008B4201D38B01C01A524143098B4201D355
:100420004B01C01A524103098B4201D30B01C01A80
:100430005241C3088B4201D3CB00C01A52418308FA
:100440008B4201D38B00C01A5241D9D243088B4250
:1004500001D34B00C01A5241411A00D20146524109
:10046000104663465B1001D34042002B00D5494241
:10047000704763465B1000D3404201B50449002831
:1004800002DC491C084000E00846C046C04602BDE8
:10049000FFFFFF7F70477047704700000246C80F9C
:1004A000C00781434B0030B54B405B009B0D20D013
:1004B0001923DB06C91801231B05994220DB0324FD
:1004C000A40704251346AB400BD3002B04D1EB0645
:1004D00013409B00E34204D4012464070023121953
:1004E0005941FF231B0599420BD2C9000143500F0C
:1004F00009E0CB0204D501430803024305D00548B7
:1005000030BDFF21C905084330BD08460721090554
:10051000884330BD0000C07FF0B58B4C0F092546E5
:1005200089B0BD437BD01D092646AE43FAD00E46A6
:100530005E402740F60F3E43254071D02401214202
:10054000FBD0FF24AD19A4042D1B039501252D0517
:10055000DB02DB0AC9022B43C90A29431E01090138
:10056000040F130F050121431701880B82039143E8
:100570002D098C46A90B1E438A039543B30B9A039E
:1005800096433F09BA0B9403A74302962E467E4337
:100590000497B6464E19D7190C4601965443059751
:1005A0007E43371B7646BF1B3601B646BE0B361957
:1005B00000967646BC043719009C01D3641C009455
:1005C0006400002F01D001263443029E049F75432E
:1005D00066467E430496760034196E003419009402
:1005E000029C019E1C196643751BAE460694654627
:1005F0004519059C05956C43594375460891691A40
:100600000191049E01465143A41B0491611A009C70
:100610000791E10605D061090122114302E072E071
:100620006EE06109089D00272C0A2D066918049DBB
:100630007C412A0A2D066918019D6241AC0DAD026C
:100640006D185441079A910D920255196141029A11
:10065000644658435443069B059A5A43121A131B87
:100660009A0E9B015B187A41010B0005C31851419A
:10067000220A200644195A419A4200D2491C0120FC
:100680004002814203D315230226F64302E01423DD
:100690000326F6432020C51AA9401746AF40DA408A
:1006A0000A4320460399D8400914731819055118B4
:1006B000039A3843D2075140AC4009D001229440FC
:1006C00006D30022401C5141002C01D140084000BB
:1006D0001E4A934212D3012203989206904207DBEE
:1006E0000520400709181A480143C012414004E0A0
:1006F000032040070818C10FC907002009B0F0BD4A
:100700000020F107FAE705180C464C4111486D42EC
:10071000A04115D394181A465A410E48644290419C
:100720000ED301204A004005824209D35A0082427A
:1007300006D35940C90F084AC90700201143DDE715
:1007400000200649DAE700000000FF07FE0700006E
:10075000FFFFFF7F0000E0FF0000F07F0000F87F58
:100760000121C9050123411842001B06D3185B0E65
:100770000AD0C1100722D206891840075242D1423E
:1007800001D5520089187047090208D50146002A90
:1007900003D0C10FC90700207047104670474202BE
:1007A00002D0002002497047072109050143F4E700
:1007B0000000F87FF0B5FF252D04C609C209FF2708
:1007C00004462E400137CB093E4348402A402B4087
:1007D0000746002A6BD0002B69D0AA4267D0AB42F3
:1007E00065D0002800DA32460125ED0529432C4367
:1007F00009022002090AD21A4B0C7F24E31A434C47
:10080000000A7C44E35C7D242404121914145B0068
:10081000A218884201D3521C00E0400049420C4615
:100820005C4324115C43DB016415E318040A5C4358
:10083000C502200D0C4644436419250A5D43230379
:10084000EC0C0D46654300030019EB184C42A34223
:1008500001D35B18401CD4052018002B07D05B0087
:10086000C91804D3401C002901D1400840003F2191
:1008700089048A4209D3002A08DC1106090F04D032
:10088000032149074018C00FC007F0BD01224100F5
:10089000120689187F2252069142F6D20521490795
:1008A000C84201D59010F0BDFF20C005F0BD002F5B
:1008B00000DA32461648AA4207D2AB4205D21902E4
:1008C000090E17D0F80FC007F0BDFF2563002D06F5
:1008D000AB42F9D84900A942F6D8AB4201D1A942AE
:1008E000F2D0A94201D1002101E061004908D00500
:1008F0000843F0BD1102090EFBD0FF200243D005D2
:10090000F0BD0A460146104654E700005E62000052
:100910000000C07F10B501469E240002CA15A3073F
:10092000002A02D01843002A04DBA21A002A0CDD98
:10093000D04010BD1206120E01D140004008A21A8C
:1009400003D4D04040420028F3DDFF2248001206C5
:10095000904201D9002010BDC817C043584010BDB7
:100960001F22030C02D10F2200041CD0030E01D160
:100970000002083A030F01D10001121F830F01D1B9
:100980008000921E002801DB4000521ED205511843
:10099000021251181922904004D3491C002801D199
:1009A0004908490008467047C10FC90700D04042B6
:1009B000012292071143D3E701218907D0E7FEB551
:1009C000044610460D46184373D0A6468C460020B8
:1009D000A41A01469D4167D36646002701243D467F
:1009E000B61A9D4102D313463A46212465467646FF
:1009F0002F04360C3E432D0CB61A9D4104D3150C22
:100A00001B042B4312041034654676462F06360A23
:100A10003E432D0AB61A9D4104D3150E1B022B43EB
:100A200012020834654676462F0736093E432D09E3
:100A3000B61A9D4104D3150F1B012B431201241D2F
:100A400065467646AF07B6083E43AD08B61A9D41E7
:100A500004D3950F9B002B439200A41C6546764659
:100A6000EF0776083E436D08B61A9D411AD39218D7
:100A70005B41641C16E00018764665464941B71A8A
:100A80009D410191009009D36046B11A98418E466C
:100A90008446009801990025401C6941DD075208F1
:100AA0002A435B08641EE6D57246634603B0F0BD78
:100AB000FFE72046284307D00020C0430146C04638
:100AC000C04622462B46F1E700200146F7E710B565
:100AD00000F008FC006810BD10B5044600F002FCF0
:100AE000046010BDF0B50C46871A9C410D46861A6D
:100AF0009D4103D2C01BA141D21963410D0D1F0DB1
:100B0000C94EEC1BAE435CD07F057F0D0026002F45
:100B100051D02D05AC46A943DD020123ED0A1B058A
:100B20001D4320231B1B24D41746E740381871416E
:100B30002F46E740CC199D402818314661410C0DE5
:100B400027D161449A4013D50023401C59415200DB
:100B50000ED14008400001224B005205D34207D37A
:100B600005204007C14201D5B04900E0B0493046F8
:100B7000F0BD6B00002A00D001229A181F23203CF0
:100B80001B1B01D5002302E0E540281871410C0D24
:100B9000D7D0012424050919C407CD074008490806
:100BA000E40F28436144002CD5D00024401C61414F
:100BB0009A40D0D1CDE76A05520DD9D1C90FC907E6
:100BC000D5E79C4D4E00002801D0012400E0002410
:100BD00034195F00002A01D0012600E00026BE196A
:100BE000954FAC420CD8AE420AD8B44206D001258B
:100BF0006D05EC42BCD010461946F0BD9942FCD0C0
:100C000000203946F0BDF0B51FB40C460F46811ADE
:100C10009F412546861A9D4106D20125ED076F406A
:100C2000401ABC4152187B41210D1E0D8D1BAC4654
:100C30007D4D8D437ED075056D0D7CD00D05AE4686
:100C4000AC431B031B0B794D52429D41202366464A
:100C50009B1B14D31746F7403818002600907441A8
:100C600060462F460741E41900989D4028186641C8
:100C700016D4714671189A4025D5012320E09318A7
:100C80002A466A415200002B00D0521C1E23203EEF
:100C90009B1B002B61DD3541EE1728186641E8D516
:100CA000001876415B1C9A4000D3401C4B05F3189A
:100CB0001524E34010D3002B52D071467118D30F86
:100CC000C01802D3491C05B0F0BD0123DB079A42CE
:100CD000F9D140084000F6E701225205B21801D1CF
:100CE000002853D00123CC0ADB029943891E002A35
:100CF00008D1020C03D0020C0004103902E00246B5
:100D0000002020390023550B05D112020823550B72
:100D100001D152010D23550C01D112011B1DD50C1F
:100D200001D192009B1C150D01D152005B1C2025A6
:100D3000EE1A01E02CE022E00546F540154398400C
:100D4000CA1AE10769181305C918002ABBDA03207B
:100D500040070818C10FC9070FE071466118B2E7D4
:100D6000F10740080843711071444A000CD0012378
:100D70005B059A42A7D2C90FC9070020A3E749051E
:100D8000490D26D1002001E00028F4D100219AE786
:100D9000284D6600002801D0012100E000217118D3
:100DA0005F00002A01D0012600E00026BE19224F74
:100DB000A94210D8AE420ED8B14208D001256D0527
:100DC000E94206D01946A802414010467BE79C4202
:100DD00001D0214677E70020394674E710B50C466C
:100DE0005C4005D50124E4076340FFF70CFF10BD0C
:100DF000FFF778FE10BD30B40C465C4004D50124EA
:100E0000E407634030BC6DE630BCFCE670B50124FD
:100E1000E40761400D465D4002D4FFF763FE70BDFC
:100E20006340FFF7F0FE70BDFF0700000000F0FF19
:100E30000000F07F0000E0FF0000F87FF0B5F94D02
:100E40000C091E092C402E402F468BB0A7437DD0A5
:100E5000B543FCD0002E7AD0002CFCD00D465D406E
:100E6000ED0F2543AC1BFF25AD0464190894C502A2
:100E7000440DC9022143500DDC0204430120C00788
:100E800001430443D2020191200C110C00958C46C1
:100E9000010423468B430A9161460904E24D8A43CB
:100EA0000991010A7D4449198039097805464D4365
:100EB00001266D18F605751B6943C90C640B891C66
:100EC0004C436418B5012C1B250C2E04B4434C4331
:100ED0004D43210C691889090591009DE90701D04E
:100EE0000121C90704912C4601996708CD072F43BA
:100EF0004C08059DE10B4D432D0C29466646754374
:100F000002950D4645432E46029D7D1BB44100953A
:100F10000D465D4301942C0C2F040D465543AE46FF
:100F20002D0C3D43029503947546049C2D04641BCF
:100F3000049406D2029C039D641C0026754103950F
:100F4000029401AC70CC009F7D1B01E03EE162E1A8
:100F5000B44109040095079101940599A4086143DF
:100F6000090C0C464443650BE7040C466646744383
:100F7000A646640B3C43039502947446049DE40426
:100F80002C1B049406D2029C039D641C0026754110
:100F90000395029401AC70CC009F7D1BB441019479
:100FA0000C465C430095650FE7000C465443A6468B
:100FB000640F3C43039502947446049DE4002C1B8B
:100FC000049406D2029C039D641C0026754103957F
:100FD000029401AC70CC009F7D1BB441AE09AF06FA
:100FE000049DC900AD092F43049DA406AD060495D8
:100FF000079D344369180791059DE10B4D432D0C66
:1010000029466646754302950D4645432E46029D88
:101010007D1BB44100950D465D4301942C0C2F04BB
:101020000D465543AE462D0C3D430295039475463F
:10103000049C2D04641B049406D2029C039D641C32
:10104000002675410395029401AC70CC009F7D1B76
:10105000B44101948C050694079C890A6118009597
:101060000791019C0599A4086143090C0D4645436D
:10107000680BEF040D46644665436C0B3C43049FCC
:10108000ED047D1BAC4602D20025641C6841009E25
:10109000019D371B85410846584301950C46460F74
:1010A000C5005443600F28436546E4002C1B02D260
:1010B0000025401C6E41019D3F1AB5412846BD09DF
:1010C000800628438446A009BF064E020699A4065E
:1010D00076180743079D002068410A990790194335
:1010E0000020099B00906046FF1913434041E20F26
:1010F00064003A43A4460446D71A8C41A04203D95F
:101100000120009020463A46C70F9418404162469D
:10111000D20F2243644664000494009CBE466400DF
:10112000D71AA446044602978C417746002F01D176
:10113000A04204D96046401C8446029A2046C40F4F
:10114000A64694184041049A0546D20F22436446AD
:101150006400D31A8D417146002901D1A84202D9F9
:1011600028461A46641C10430122002800D016436A
:1011700061020020079B891904465C410223002C70
:1011800002DB491813466441089DCE0A2D145D19EF
:101190004B056705E10A2C050D1908993E43C9075F
:1011A0006940002B08D0934006D30022761C5141A1
:1011B000002B01D1760876001C4A002D43DB154236
:1011C00041D0AA433FD030460BB0F0BD06180D46C3
:1011D0004D41174C7642AC411AD395181C465C41E0
:1011E000134A6D42A24113D3012252054C00D4424E
:1011F0000AD15C00D4420BD04B4002D5920211437D
:10120000E2E749004908DFE75940C90FC90718E07C
:1012100000200849D8E7054801420DD10342F7D024
:10122000F2E700000000FF07505C00000000F07FC4
:101230000000E0FF0000F87F114859400143C01250
:1012400041400020C0E70123089A9B069A4205DC32
:10125000032252078918C90FC907B5E705225207AB
:101260008918074A1143D2125140ADE770B51546AF
:101270001C4602460B4628462146FFF7DFFD70BD9F
:10128000FFFFFF7F70B505464800440D124B00205C
:10129000002C0AD0634008D09A4206DA6642B24275
:1012A00003DD12054019514170BD002C08D0002B00
:1012B00009D0C90FC907002AF6DB084A114370BDDF
:1012C000C90FC90770BD28460A03104302D0002089
:1012D000034970BD284670BDFF0700000000F07F85
:1012E0000000F87F0048704758012020F8B5264CD0
:1012F0004E00069DA6420AD8A64201D1002806D17A
:101300005E00A64203D8A6420AD1002A08D00D24C6
:101310002404254233D02946002000F014F9F8BDFA
:101320000C461C4311D4994207D0C81A02D3EFF3DC
:101330000080F8BDEFF30080F8BD801A02D3EFF310
:101340000080F8BDEFF30080F8BD09242407E50014
:101350008B4207D0581A02D3EFF3008006E0EFF378
:10136000008007E0101A03D3EFF30080A04303E0EE
:10137000EFF30080A043284380F30088F8BD009578
:1013800000F0F8F8F8BD00000000E0FFF0B53D4BBC
:1013900002460C461C400020002C63D03A4D8B4383
:1013A00066D000296BDB0B0D1D05A94301252D051A
:1013B00029430124FD33E34001D392184941FF330F
:1013C00081339C468B02940D0121234389074C42B3
:1013D000920200271B198C105D1A04D42D1B02D415
:1013E0002B466500491992185B416408F4D15C1AD8
:1013F00008D40125ED07EE175519744102D42A4689
:101400002346491C94185B41012292071D46E61BA6
:101410008D4106D4B61A854103D42B465500344677
:101420007F1924195B415208802AEFD1234300D051
:10143000022338460A22D04001D3012213438A05F1
:1014400010436246890A12058918002B09D001222F
:10145000D34002D30022401C5141002B01D140084F
:101460004000F0BD0B03134307D0C90FC907F0BDFF
:101470000803104303D1002901DB1046F0BD002012
:101480002946F0BD0000F07F0000F87F10B5FF2373
:101490001B0644009C421DD84C009C421AD80346AF
:1014A000124A0B4307D4401A02D3EFF3008010BD59
:1014B000EFF3008010BD081A03D3EFF300809043D0
:1014C00005E0EFF3008001219043C907084380F352
:1014D000008810BD0D231B041A4204D011460020C1
:1014E00000F031F810BD00F04FF810BD0000009082
:1014F00000487047580120207546FFF7F9FFAE46B7
:10150000050069465346C008C000854618B020B59E
:10151000FEF734FE60BCB64600260027C0C5C0C535
:10152000C0C5C0C5C0C5C0C5C0C5C0C5403D4908CF
:1015300049008D46704710B50446C046C046204657
:10154000FEF70DFE10BDC80212D54803400F00285B
:1015500004D0C803C043012188407047EFF30080E6
:101560000001000903210907084380F30088704740
:101570000020704710B500200249029A00F00CF8D4
:1015800010BD00000000F87F10B5024800F004F81C
:1015900010BD00000000C07F10B50C461107090FF8
:1015A000092904D00A290AD008290CD104E01146DF
:1015B0000820FFF7C8FF06E0510606D501E05106F6
:1015C00001D50120C007214610BDD10607D5010174
:1015D0000909CC084907000E0006044309E0410F41
:1015E00020024907000A0143200E00061D22D141B6
:1015F00001430846E7E7000001491820ABBEFEE7BB
:1016000026000200704730B58C180278401C130782
:101610001B0F01D10378401C120906D10278401C2F
:1016200003E00578401C0D70491C5B1EF9D101E0F8
:101630000B70491C521EFBD1A142E6D3002030BDE5
:1016400006480068C0B20B2807D105480168054A62
:101650001180416851808068908070472030004040
:1016600080825540B8012020B0B50A78032313408A
:101670000B4A84580B4D2540EB18A92424061B194E
:101680008350072212064B68134011242402055987
:101690009543EA180251001949780161B0BDC0466E
:1016A00008080000FCFFFF00811E091F00BFFCD2DC
:1016B00070470000F0B583B00B794A79002A2BD02F
:1016C0001B4A1C4C1C4F202B02D00525EE0100E0CC
:1016D0004C4E851802190092C219002B00D18826A1
:1016E0001768474C2740BF19176057682740BE1935
:1016F00056602E68804F3E402E606E683E406E60A1
:101700000025009C256065608F24E4431569254011
:10171000156155692540556101AA13718B79537183
:1017200009680191114600F009F803B0F0BDC04608
:10173000381800005818000078180000F0B584B080
:101740006B4A82180292734BC618784BC2180092EB
:101750002A4BC4180A7901910D68294F202A039257
:101760000AD0254BC018002A17D16B1E029A53606D
:1017700023683B40882517E0681E029A5060206865
:101780003840204B18432060606838401843606040
:10179000012045071C4F104608E06B08029A536071
:1017A00023683B400525ED012B4323600099036826
:1017B0003B402B43036030684F4B184030607068EB
:1017C000184070600020086048608F20C043236983
:1017D0000340236163690340636101984079039981
:1017E0000843BD2101401068084B0340C818801C05
:1017F000106004B0F0BDC0467418000070180000FE
:1018000024493E0001040000FFFFFFCF4000FFCF4E
:1018100070B5374A82184B6853603E4BC31808783E
:10182000222857D8840001A52C59A746CB180000C0
:10183000D5180000CB180000D5180000D5180000FE
:10184000D5180000D5180000D5180000D5180000E4
:10185000D5180000D5180000D5180000D5180000D4
:10186000D5180000D5180000D5180000B9180000E0
:10187000D5180000B9180000D5180000D5180000D0
:10188000D5180000D5180000D5180000D5180000A4
:10189000D5180000D5180000D5180000D518000094
:1018A000D5180000D5180000D5180000B9180000A0
:1018B000D5180000B9180000032424071568A543B3
:1018C000012464072C19146004E00324240715681C
:1018D000A54315600C69D460CC68064D25401C6892
:1018E000054E264074191C60097A0143116070BDD1
:1018F00004180000777702008888FDFF10B50723E1
:101900009B04194092008018024A84589C43611835
:10191000815010BD3018000010B5029CA4000019C1
:1019200011431943014A815010BDC04650180000B0
:1019300092008018014A81507047C046101800007C
:1019400010B50122120383180C789C604B788350E9
:101950008978014A815010BD0C110000B0B51122E8
:10196000120283580124A34383508B780C881C43B4
:101970008B882343094C1C408358094D1D402B196B
:1019800083508B79CC791C43097A21437E231940FB
:10199000801842689A4351184160B0BD1867000032
:1019A000E798FDFF10B50122120383180C789C60A4
:1019B0004978815010BD0000F0B595B008920E46F0
:1019C000054610A801900BAC00940EA80CA911AA12
:1019D0000AAB02F0E9FA2088C00500D4BDE01198F6
:1019E000FEF7E2FF6121CC05214604F07BFF05965E
:1019F000049507901298FEF7D7FF214604F072FF76
:101A0000054606901398FEF7CFFF214604F06AFFC3
:101A100007461498FEF7C8FF214604F063FF064608
:101A2000099003208107284604F05CFF04460390D8
:101A30000798014604F092FE0290394604F052FFE6
:101A400005462046314604F04DFF294604F086FE47
:101A5000FEF786FE04F016FB414A424BFEF75CFDA2
:101A6000FEF71CFD049908603846394604F076FEFE
:101A700006460298069C214604F034FF054630468F
:101A8000099904F02FFF294604F068FEFEF768FE6E
:101A900004900D463846314604F024FF064603986C
:101AA000214604F01FFF314604F074FF7F21C90571
:101AB00004F054FEFEF754FE02460B4604982946F5
:101AC00004F028FD264A274BFEF726FDFEF7E6FC2C
:101AD00005990860079D2846099904F003FF04460C
:101AE000069E3046394604F0FDFE214604F036FEDF
:101AF000014604F033FEFEF733FE044605913046FE
:101B0000314604F0EFFE06462846294604F0EAFE78
:101B1000314604F023FE06463846394604F0E2FE1C
:101B20000146304604F036FF06460998014604F0A7
:101B3000D9FE0146304604F02DFFFEF711FE0246A5
:101B40000B462046059904F0E5FC054A054BFEF7D7
:101B5000E3FCFEF7A3FC0899086015B0F0BDC04691
:101B60006666666666A64C40B0B586B000F0C0F901
:101B7000002002F08DFE7824204604F02FF8204645
:101B800002F01AFEC824204603F0B6FF02F0FEF968
:101B9000AC2002F015FBFF20743002F0A5F82046BF
:101BA00002F0D8FA03A8694603F0D8F9072844D10F
:101BB0000098FEF7F9FE45210C06214604F092FE3E
:101BC000FEF7A8FE001400900398FEF7EDFE1D4DF1
:101BD000294604F087FEFEF79DFE0014039004984A
:101BE000FEF7E2FE294604F07DFEFEF793FE0014A8
:101BF00004900198FEF7D8FE214604F073FEFEF72C
:101C000089FE001401900598FEF7CEFE294604F0E7
:101C100069FEFEF77FFE001405900298FEF7C4FEF1
:101C2000214604F05FFEFEF775FE0014029003A843
:101C300003F0E0FE684603F0A9FD012003F074FE06
:101C400006B0B0BD33330342F0B582B0002843D0B4
:101C5000032606407D21090201221304654C002E53
:101C6000054637D0616000250195A56025680527E8
:101C700000973D43256025681D4208D125681D4217
:101C800005D125681D4202D125681D42F3D0256883
:101C900095432560012E03D1451E04283DD21BE04B
:101CA0006160019DA5602568009F3D432560256812
:101CB0001D4208D125681D4205D125681D4202D16B
:101CC00025681D42F3D0D54327682F402760022E98
:101CD00004D1851E042820D202B0F0BD6160019DB0
:101CE000A5602568009E3543256025681D4208D102
:101CF00025681D4205D125681D4202D125681D4277
:101D0000F3D0256895432560C51E042805D2E3E776
:101D10002068904320602D1FDED061600020A0600D
:101D2000276805263743276027681F4208D12768A0
:101D30001F4205D127681F4202D127681F42F3D0F6
:101D40002768974327606160A06027683743276052
:101D500027681F4208D127681F4205D127681F4204
:101D600002D127681F42F3D027689743276061603C
:101D7000A06027683743276027681F4208D127687B
:101D80001F4205D127681F4202D127681F42F3D0A6
:101D90002768974327606160A06020683043206017
:101DA00020681842B4D120681842B1D12068184286
:101DB000AED120681842F3D0AAE7C04641010D48D1
:101DC000416000218160016805220A43026001210F
:101DD0000A040368134208D10368134205D103685B
:101DE000134202D103681342F3D002688A430260AF
:101DF0007047C04610E000E070B501221106374878
:101E00000346103B1B68DC0113D45A0222D4012282
:101E10001103DC0438D49A035BD501225404304DFD
:101E20002B682E68234255D1264244D12E682F4B71
:101E30001BE02B4C256823680D421DD10B4245D178
:101E4000012223685B02274B3DD49205246814428B
:101E50003CD137E001229405214D2B682E682342A6
:101E600020D1264227D12E681E4B0E4220D12D684C
:101E70000D42214627D029E05B021A4B22D495055A
:101E800024682C421FD021E0FB4C256823680D42BA
:101E900013D10B421AD1012223689B03134B12D496
:101EA0005204D3E70F4B0E4203D12A680A4202D1F3
:101EB0000D4A214607E0214608E09B030B4B01D465
:101EC0005504DDE7084A1C88A2181A8002680A43F4
:101ED000026070BD054B0E42E7D0EAE748100A40A9
:101EE00080130A40D8012020FFFF0000DA012020E3
:101EF00070470000F0B589B00393019207910890F4
:101F0000DA49812006900860D94D01272F602F649F
:101F100002262E602F612F6005242046FFF74EFF1A
:101F20002F612046FFF74AFF2E6108984000059078
:101F3000C0B200F0F7FB2E6102972F60CB4CCD486A
:101F4000206004962E60CC4C2068C00736D0052057
:101F5000FFF734FF2068C00730D00520FFF72EFFC1
:101F60002068C0072AD00520FFF728FF2068C00797
:101F700024D00520FFF722FF2068C0071ED00520CF
:101F8000FFF71CFF2068C00718D00520FFF716FFD9
:101F90002068C00712D00520FFF710FF2068C00797
:101FA0000CD00520FFF70AFF2068C00706D00520E7
:101FB000FFF704FF2068C00700D00CE1049C2C61EF
:101FC0000698FC4F386001262E602E64079800F0BA
:101FD000A9FB2C6108962E60F74838602C60F84CFD
:101FE0002068C00736D00520FFF7E8FE2068C0074C
:101FF00030D00520FFF7E2FE2068C0072AD0052078
:10200000FFF7DCFE2068C00724D00520FFF7D6FECE
:102010002068C0071ED00520FFF7D0FE2068C0074B
:1020200018D00520FFF7CAFE2068C00712D005208F
:10203000FFF7C4FE2068C0070CD00520FFF7BEFEE6
:102040002068C00706D00520FFF7B8FE2068C0074B
:1020500000D0D8E0022129610698D64F3860089E4A
:102060002E602E6438602E602E6429600F462E612B
:102070002E6005242046FFF7A1FE2E612046D04C9D
:10208000FFF79CFE2F6105983043C0B200F04AFB79
:102090002F612E603E46C848C64908602F60206800
:1020A000C00736D00520FFF789FE2068C00730D072
:1020B0000520FFF783FE2068C0072AD00520FFF720
:1020C0007DFE2068C00724D00520FFF777FE20683A
:1020D000C0071ED00520FFF771FE2068C00718D08A
:1020E0000520FFF76BFE2068C00712D00520FFF720
:1020F00065FE2068C0070CD00520FFF75FFE206852
:10210000C00706D00520FFF759FE2068C00700D0A1
:1021100092E005962E61069EA64806600898286003
:102120000446286400210198022800910F4625D317
:10213000451E0195039E27464D4C00F09FF83070D8
:102140009C4806990160276027643846059F2761EF
:10215000206105200790FFF731FE08982061276075
:102160000798FFF72BFE2761089F27606D1E761CDE
:10217000002DE2D13C463E4D069E019F00F07EF8C8
:102180000399C8558B48066026462C602C64059F31
:102190002F612C6105242046FFF710FE2E602F6072
:1021A0002046FFF70BFE2F612E60069E009F8148A0
:1021B0000660029E2E602E64049828612E612860BD
:1021C00005242046FFF7FAFD2E602046FFF7F6FDB6
:1021D000384609B0F0BD264605242046FFF7EEFD3F
:1021E0003068069E73480660029F2F602F64049833
:1021F00028612F6128602046FFF7E0FD2F60204610
:10220000FFF7DCFDD3E705273846FFF7D7FD206849
:10221000684806990160089E2E602E64049C2C611B
:102220002E612C603846FFF7C9FD2E60069E3846A9
:10223000FFF7C4FD2746BAE7274605242046FFF7E7
:10224000BDFD3868069F5B4807603046089E2E60DB
:102250002E6428612E6128602046FFF7AFFD2E60B6
:102260003E462046FFF7AAFD0327A0E70480424030
:1022700090120A408100040080130A40F0B587B034
:102280004C484D4901604D4F02263E6005242046D2
:10229000FFF794FD3D46103D2E602046FFF78EFD72
:1022A0004748006806902046FFF788FD3E602046BC
:1022B000FFF784FD2E602046FFF780FD4048006850
:1022C00005902046FFF77AFD3E602046FFF776FD39
:1022D0002E602046FFF772FD394F38680490204683
:1022E000FFF76CFD354806602046FFF767FD2E605E
:1022F0002046FFF763FD386803902046FFF75EFD38
:102300002E4806602046FFF759FD2E602046FFF755
:1023100055FD386802902046FFF750FD27480660BB
:102320002046FFF74BFD2E602046FFF747FD3F6834
:102330002046FFF743FD214806602046FFF73EFD9B
:102340002E602046FFF73AFDF548006801902046D0
:10235000FFF734FD194806602046FFF72FFD2E6079
:102360002046FFF72BFDEE4805682046FFF726FDC7
:10237000124806600120059A02400699C907890F94
:1023800051188900049AD207920F8918039A0240C3
:1023900051188900029AD207920F891807407918BC
:1023A0008900019AD207920F891805406818C0B2B7
:1023B00007B0F0BD0480424081000400A0120A4032
:1023C00080130A40F0B587B0039304920191069000
:1023D000D049812005900860CF4F01253D603D64C4
:1023E00002243C603D613D6005263046FFF7E6FC77
:1023F0003D613046FFF7E2FC3C6106984006000E66
:1024000000F090F93C613D60C448C2490860029404
:102410003C60C34C2068C00736D00520FFF7CEFCD7
:102420002068C00730D00520FFF7C8FC2068C0072F
:102430002AD00520FFF7C2FC2068C00724D0052061
:10244000FFF7BCFC2068C0071ED00520FFF7B6FCD4
:102450002068C00718D00520FFF7B0FC2068C0072F
:1024600012D00520FFF7AAFC2068C0070CD0052079
:10247000FFF7A4FC2068C00706D00520FFF79EFCEC
:102480002068C00700D0FAE0029FFA4E3761059835
:10249000F74C2060012535603564019800F042F961
:1024A0002946376135609D48206037609C4D28681B
:1024B000C00706913FD00520FFF780FC06992868E9
:1024C000C00738D00520FFF779FC06992868C007B7
:1024D00031D00520FFF772FC06992868C0072AD082
:1024E0000520FFF76BFC06992868C00723D005205C
:1024F000FFF764FC06992868C0071CD00520FFF789
:102500005DFC06992868C00715D00520FFF756FC2A
:1025100006992868C0070ED00520FFF74FFC0699E2
:102520002868C00707D00520FFF748FC06992868EF
:10253000C00700D0C6E00224CE4F3C610598CC4DC8
:102540002860396039640498002800D183E00026AF
:1025500009E03C61C64D0598286039603964761CF5
:102560000498B04277D00398805D00F0DBF80699BC
:102570003C613960694828603C60694D2868C00743
:10258000E7D00520FFF71AFC06992868C007E0D0BD
:102590000520FFF713FC06992868C007D9D005204D
:1025A000FFF70CFC06992868C007D2D00520FFF77A
:1025B00005FC06992868C007CBD00520FFF7FEFB75
:1025C00006992868C007C4D00520FFF7F7FB0699D5
:1025D0002868C007BDD00520FFF7F0FB06992868E2
:1025E000C007B6D00520FFF7E9FB06992868C007A9
:1025F000AFD00520FFF7E2FB06992868C007A8D0F6
:1026000005200490FFF7DAFB2868994D05982860AB
:102610000698386038643C6138613C60049D284607
:10262000FFF7CCFB069838602846FFF7C7FB9048B9
:10263000059901600698386038643C613861054648
:102640003C60049C2046FFF7B9FB3D602046FFF745
:10265000B5FBF51C10E005982860396039643C61D1
:1026600039613C60052420460D46FFF7A7FB3D601D
:102670002046FFF7A3FB0025E8B207B0F0BD052612
:102680003046FFF79BFB2068794805990160794F38
:102690003D603D64029C3C613D613C603046FFF71B
:1026A0008DFB3D603046FFF789FB05987049086057
:1026B0003D603D643C613D613C603046FFF77EFB20
:1026C0003D6022E0052630460C46FFF777FB286880
:1026D000674805990160674F3C603C64029D3D611D
:1026E0003C613D603046FFF769FB3C603046FFF7D8
:1026F00065FB05985E4908603C603C643D613C6157
:102700003D603046FFF75AFB3C603046FFF756FB12
:10271000B2E7C0460480424090120A4081000400A3
:1027200080130A40F0B581B0514A81211160514FA8
:1027300001243C603C6402253D61009040B21037AA
:102740000028384600DA4B4804602046FFF736FB85
:102750004848056005263046FFF730FB45480561CF
:102760003046FFF72BFB00984006384600D541481D
:1027700004602046FFF722FB3E4805603046FFF725
:102780001DFB3C4805613046FFF718FB00988006AA
:10279000384600D5374804602046FFF70FFB354820
:1027A00005603046FFF70AFB324805613046FFF707
:1027B00005FB0098C006384600D52E480460204628
:1027C000FFF7FCFA2B4805603046FFF7F7FA294877
:1027D00005613046FFF7F2FA00980007384600D549
:1027E000244804602046FFF7E9FA22480560304695
:1027F000FFF7E4FA1F4805613046FFF7DFFA00985B
:102800004007384600D51B4804602046FFF7D6FA3B
:10281000184805603046FFF7D1FA16480561304682
:10282000FFF7CCFA00988007384600D511480460BD
:102830002046FFF7C3FA0F4805603046FFF7BEFA9F
:102840000C4805613046FFF7B9FA0098C00700D080
:10285000084F3C602046FFF7B1FA064C2560304631
:10286000FFF7ACFA25613046FFF7A8FA01B0F0BDDA
:102870000480424090120A40F0B581B0437D0025AB
:10288000002B00D1ED43EB4309B20029009500DC99
:102890001D46C0C83D402524E4013259BA435219AF
:1028A00032510838002900DC009BC268134085685B
:1028B0002E599643F2182A51CA175140891A0369B2
:1028C000027D1846FFF734F801B0F0BDF0B583B0D3
:1028D00001200607C7070020524C00900290C0B2AA
:1028E0000190009D294600F0C1FB4F49206830430C
:1028F0002060206838432060206808402060781EEF
:10290000216801402160782000F01CF8402000F090
:1029100019F8002000F016F84349206808402060AC
:10292000206838432060206830432060681C45B22E
:10293000002DDBD50298401C01990729CED303B0A6
:10294000F0BDC046F0B537490A68374C22408023B5
:1029500003405B05D2180A60344A531C0D681D43BE
:102960000D600D6815400D6001252D0786052E4070
:102970000F682740BE190E600E681E430E600E6879
:1029800016400E60C6052E400F682740BE190E6027
:102990000E681E430E600E6816400E6006062E403E
:1029A0000F682740BE190E600E681E430E600E6849
:1029B00016400E6046062E400F682740BE190E6076
:1029C0000E681E430E600E6816400E6086062E408E
:1029D0000F682740BE190E600E681E430E600E6819
:1029E00016400E60C6062E400D682540AD190D60DC
:1029F0000D681D430D600D6815400D600D68254084
:102A0000C007C008281808600868184308600868EC
:102A100010400860086818430860086810400860A3
:102A2000F0BDC04680120A40FFFFFFEFFFFFFF7FAF
:102A3000F0B585B00120C707FC4E316839433160DD
:102A400004073068204330603068204330603068CD
:102A5000384330603068F649084030607D1E306889
:102A600028400195306078200290FFF76BFF00202E
:102A70000490FFF767FFAE20FFF764FF3068EC4972
:102A80000840306030683843306030682043306040
:102A90003068204330603068384330603068084028
:102AA0003060306828403060029D2846FFF74AFFBA
:102AB0000498FFF747FFD520FFF744FF3068DC4953
:102AC00008403060306838433060306803942043F9
:102AD00030603068204330603068384330603068A0
:102AE000084030603068019C204030602846FFF785
:102AF00029FF049D2846FFF725FF8020FFF722FFCE
:102B00003068CB4908403060306800973843306007
:102B10003068039A1043306030681043306030688A
:102B200038433060306808403060306820403060A2
:102B3000029F3846FFF706FF2846FFF703FFA8204D
:102B4000FFF700FF3068BA49084030603068009CE9
:102B5000204330603068039B18433060306818436E
:102B60003060306820433060306808403060306842
:102B7000019D284030603846FFF7E4FE0498FFF7D7
:102B8000E1FE3F20FFF7DEFE3068A94908403060D3
:102B900030682746204330603068039C2043306013
:102BA0003068204330603068384330603068084017
:102BB0003060306828403060029D2846FFF7C2FE32
:102BC0000498FFF7BFFED320FFF7BCFE306898499A
:102BD00008403060306838433060306820433060EF
:102BE00030682043306030683843306030680840D7
:102BF000306030680199084030602846FFF7A2FE37
:102C0000049D2846FFF79EFE2846FFF79BFE30688E
:102C1000874908403060306838433060306820436E
:102C20003060306820433060306838433C46306064
:102C30003068084030603068019D2840306002985C
:102C4000FFF780FE049F3846FFF77CFE4020FFF729
:102C500079FE3068764A104030603068204330603A
:102C60003068039B18433060306818433060306828
:102C70002043306030681040306030682840306059
:102C8000029D2846FFF75EFE3846FFF75BFEA12057
:102C9000FFF758FE3068F449084030603068204340
:102CA00030603068039A1043306030681043306001
:102CB0003068204327463060306808403060306814
:102CC000019C204030602846FFF73CFE049D2846CA
:102CD000FFF738FEC820FFF735FE3068E2490840AC
:102CE00030603068384330603068039A1043306099
:102CF00030681043306030683843306030680840D6
:102D00003060306820403060029F3846FFF71AFE7E
:102D10002846FFF717FEDA20FFF714FE3068D24985
:102D2000084030603068009C204330603068039B6E
:102D3000184330603068184330603068204330609A
:102D40003068084030603068019D28403060384667
:102D5000FFF7F8FD0498FFF7F5FD1220FFF7F2FDED
:102D60003068FC490840306030682043306030688B
:102D7000039A10433060306810433060306820435D
:102D80002746306030680840306030682840306046
:102D9000029C2046FFF7D6FD0498FFF7D3FD812063
:102DA000FFF7D0FD3068EB4A1040306030683843A0
:102DB0003060306803990843306030680843306001
:102DC00030683843306030681040306030682840E8
:102DD00030602046FFF7B6FD049C2046FFF7B2FDA9
:102DE000CF20FFF7AFFD3068DA4A1040306030681E
:102DF00038433060306803990843306030680843D6
:102E0000306030683843306030681040306030687F
:102E100028403060029F3846FFF794FD2046FFF7B8
:102E200091FDD920FFF78EFD04E0C04680120A40D4
:102E3000FFFFFFEF3068C74B1840306030680099E3
:102E4000084330603068039A1043306030681043A4
:102E50003060306808433060306818403060306857
:102E6000019C204030603846FFF76CFD049D2846E9
:102E7000FFF768FDF120FFF765FD3068F84A104064
:102E800030603068009F38433060306803990843F1
:102E900030603068084330603068384330603068F4
:102EA000104030603068204030600298FFF74AFDE3
:102EB0002846FFF747FDDB20FFF744FD3068E8496F
:102EC000084030603068384330603068039C2043ED
:102ED000306030682043306030683843306030689C
:102EE000084030603068019D284030600298FFF74C
:102EF00029FD0498FFF726FD3020FFF723FD3068F9
:102F0000D74908403060306838433060306820432B
:102F1000306030682043306030683843306030685B
:102F200008403060306828403060029D2846FFF736
:102F300009FD0498FFF706FDA420FFF703FD3068A4
:102F4000C7490840306030683843306030682043FB
:102F5000306030682043306030683843306030681B
:102F60000840306030680199084030602846FFF71B
:102F7000E9FC049D2846FFF7E5FCA620FFF7E2FCEC
:102F80003068B74908403060306838433060306896
:102F900020433060306820433060306838433C461E
:102FA0003060306808403060306801990840306017
:102FB000029F3846FFF7C6FC2846FFF7C3FC8D206A
:102FC000FFF7C0FC3068A6490840306030682546ED
:102FD000204330603068039C2043306030682043D9
:102FE00030603068284330603068084030603068B6
:102FF0000199084030603846FFF7A4FC049F38462A
:10300000FFF7A0FC1420FFF79DFC306894490840AE
:10301000306030682843306030682043306030686A
:1030200020433060306828433060306808403060AA
:1030300030680199084030600298FFF783FC3846F9
:10304000FFF780FCAF20FFF77DFC30688449084023
:103050003060306828433060306820433060FFF7CC
:1030600035FC05B0F0BDC046FFFFFFEFF0B585B001
:103070000291009001200407784F3968214339609C
:10308000C507386828433860386875490840386093
:10309000691E386808400E46019138607820049017
:1030A000FFF750FC00200390FFF74CFCB020009984
:1030B0000843FFF747FC38686949084038603868BA
:1030C00028433860386820433860386820433860C7
:1030D00038682843386038680840386038683040BD
:1030E00038600498FFF72EFC0398FFF72BFC029E34
:1030F00030091030FFF726FC38685949084038601D
:10310000386828433860386820433860386820437E
:103110003860386828433860386808403860386854
:103120000199084038600498FFF70CFC0398FFF7FA
:1031300009FC0F203040FFF705FC3868484908407B
:10314000386038682843386038682043386005B0F4
:10315000F0BDC046FFFFFFEFF0B587B01546400059
:103160000390801EC0B2C9000839C9B20291FFF7AE
:103170007DFF2801374901904018374940180490D5
:1031800001200107C2070025344F354B06913868EE
:103190000843386038681043386038681840386031
:1031A000511E3868059108403860782014461E4644
:1031B000FFF7C8FB4020FFF7C5FB0498405DFFF711
:1031C000C1FB33462246069938683040386038687B
:1031D000204338603868084338606D1C082DD6D10C
:1031E0000398401EC0B20299FFF740FF33462246C3
:1031F00006990198184D2818164D4019083004906A
:1032000000253868084338603868104338603868EB
:103210001840386038680599084038607820FFF712
:1032200091FB4020FFF78EFB0498405DFFF78AFB7F
:103230003346224606993868304038603868204363
:1032400038603868084338606D1C082DD9D107B044
:10325000F0BDC0461E6C000000FEFFFF80120A4059
:10326000FFFFFFEFF0B587B003AC0FC4002B3CD0DD
:103270000698451E801E01900026494F029513E0D6
:10328000012104983418059802F04AFD0A21FDF73F
:1032900005F830220A43E1B20398FFF75DFF6D1E87
:1032A000761C0698864220D002988642E8D00320F9
:1032B0000199891B032901D2012105E02A46824395
:1032C00001217943121FFCD1F243069BD218024020
:1032D000D7D0012A01D10A2005E0022A02D07D20A0
:1032E000C00000E064204143CBE707B0F0BDC0461A
:1032F000F0B587B0069314460D46002A049005D415
:1033000005942B222946FFF727FF05E02D222946A9
:10331000FFF722FF64420594069800283ED00698E5
:10332000471E801E0190681C029000251C4E0397CA
:1033300013E0012102984419059802F0F1FC0A21DA
:10334000FCF7ACFF30220A43E1B20498FFF704FF18
:103350007F1E6D1C0698854220D003988542E8D0D8
:1033600003200199491B032901D2012105E03A46B6
:10337000824301217143121FFCD1EA43069BD218FC
:103380000240D7D0012A01D10A2005E0022A02D04A
:103390007D20C00000E064204143CBE707B0F0BDD2
:1033A00010270000F0B585B004910446C6694E4868
:1033B0000568A81BFDF700FB4C49FDF7FBF9002E43
:1033C00007D007467F20C105384602F043FE00289B
:1033D00004D120200121215400276761E561206884
:1033E000049903F07FFA0646A5680021284602F0FA
:1033F0001BFE00283BD1029500253846294602F0E5
:1034000013FE002833D12020205C0128039605D12B
:103410002046203005700195049E09E02169049E34
:10342000304603F0B7FA3946FDF7C4F90190A569B3
:1034300026612F480168384603F090F90146384666
:10344000FDF7B8F906460198294603F0A3FA0146AC
:10345000304603F047FA294603F080F90146A0619F
:10346000029803F03FFA039903F078F9064665687D
:103470000021284602F0D8FD00282ED10021384630
:1034800002F0D2FD002828D103962846049903F0C3
:1034900029FA394603F026FA616903F05FF9074615
:1034A000A6897042FDF780FA05463846294602F0A3
:1034B000DEFD002800D13D463046FDF77DFA064688
:1034C0002846314602F0BBFD002800D12E46666139
:1034D0000398314603F042F906463046FDF71AFAE2
:1034E00000B205B0F0BDC0464C03202000007A4475
:1034F000480020200021016141618161C1611030DB
:103500000174704710B5174C17492046FEF74AFA68
:1035100016492046FEF722FA0321CA03144803681D
:10352000934303600269134B13401A3303614269EA
:103530000A433C218A434261426801210A404368B0
:103540008B439A1842608A020B4B1C6814431C6020
:10355000FF2212066B4B1C6894431C6002680A43EE
:10356000026010BD000050400C7E00000E7E000086
:10357000001150400000FFFF2810504010B52248B5
:103580008522826401231C0220490C60C2645A0215
:103590000A60822282631E4AC26381228260426183
:1035A0001C4B5A655A66026642661B4C1C655C637E
:1035B0001C605C61426002600A46303A03204306A8
:1035C00013600A46403A154B1360154A0A6001061B
:1035D000144A13680B4313601369134C234313619C
:1035E000124A13680B43136051682143516010491C
:1035F0000A6A104B1A430A620A681A430A600002F8
:103600000D490860086310BD04804240D0120A4092
:103610008200040088804240810005000300009081
:103620000300009690130A400C30030008150A406E
:1036300028100A4000104201A0320A4070B582B042
:10364000194C1A492046FEF77BF919492046FEF726
:1036500031F800250095204629462A462B46FEF7DC
:103660005BF9204629462A46FEF748F920462946B6
:103670002A46FEF75DF901260096204629462A468D
:103680002B46FEF749F9204629463246FEF736F921
:10369000204629463246FEF74BF90648866003214C
:1036A000016002B070BDC04600008640187E000078
:1036B0001C7E00000011864010480021016003209C
:1036C000C0430F490A46083A1368034013600A686A
:1036D000012082430A6002020B6893430B600203DD
:1036E000091F0B6813430B60FF210902054A136889
:1036F0008B438003181810607047C04608030B40C6
:1037000008010B4000E400E010B518481849FDF727
:10371000ABFF18484168184A0A40032109045118B0
:1037200041608168154A0A4001214B06D218826027
:10373000134A052313600623536007239360114A3D
:1037400042618A02104B1C6A14431C621C681443B9
:103750001C60FF2212020D4B1C6894438A03A218BE
:103760001A6002680A43026010BDC0460020004093
:10377000247E000000310040FEFFECFFF8FFE0E097
:1037800080310040409C00002830004004E400E00C
:1037900080B500F01FF8FFF7F1FEFFF78DFFFFF790
:1037A0004DFF00F069F800F045F8FFF7ABFEFFF7BA
:1037B000ABFF7420044900220A54B82003490A547C
:1037C0002C2003490A5480BDC80220200C0220206E
:1037D000DC012020F0B581B00D480E4941600E4A51
:1037E00051600E4B59600E4C61600E4D69600E4E7B
:1037F00071600E4F79600E4901601160196021609F
:103800002960316039601020FDF74EFF01B0F0BD36
:1038100000080A40030000B100280A400008864062
:1038200000480840008886400008504000280040BA
:103830000100002610B50B4C0B492046FEF780F81E
:103840000A492046FDF7E4FF0948016801221143B7
:103850000160FF20000219490B6883430B60054893
:10386000026010BD008086402C7E0000307E00008B
:10387000289086400891864010B50C4C0C49204693
:10388000FEF75EF80B492046FDF7C2FF0A480168C3
:1038900001221143016009480168C0230B433F2105
:1038A0008B4303600648026010BDC04600400840DC
:1038B000447E0000487E00002850084010E400E0EC
:1038C000085108400021817181807047F0B581B0B6
:1038D000D9480068C0B2012800D03AE1D74807882B
:1038E000D74D2F80D7490A8800260E80D6490A80F6
:1038F0000680D6490888D64A10804B88D54A13805E
:103900008A88D5490A80D54C2178012930D00029F0
:1039100046D10097D8490D880124AB42214600D8F2
:103920003146A842274600D837460F43AA4200D85E
:1039300034462743012F0BD1CA4901240C70C749D3
:103940000C70C94900244C61C8494C61C8494C619C
:10395000CA490C88CA490D88A542B94D009FBF4C81
:103960001ED9002020700880BE480221017047E067
:10397000BB490988884213D28B4211D28A420FD2A6
:10398000B849264602240C7000213170B64C6161A2
:10399000B64C6161B64C6161B6490C78641C0C7020
:1039A000B0490978032900D9D3E0C04679440979A0
:1039B00049008F4401D0256D38B2FCF7F5FF014670
:1039C000B548006802F08EFF0146A848FFF7EAFC00
:1039D000B24D288000249C48005FFCF7E5FF0146BB
:1039E000AF48006802F07EFF0146A148FFF7DAFC0D
:1039F000AD4E3080295FAD48FEF73EFF315F13E1E9
:103A00009C4800780027C00701D0394600E0A9494A
:103A10009E48006802F0BEFF01469D48FFF7C2FCC9
:103A200004469C480480E85FFCF7BEFF0546A24EB2
:103A300030880019FCF7B8FF04469748016828460B
:103A400002F050FF214602F0A5FF01468748FFF72C
:103A5000A9FC924908807C48C05FFCF7A5FF04469A
:103A60008C48C05F3188081AFCF79EFF05468C48D9
:103A70000168204602F036FF294602F08BFF01461E
:103A80007B48FFF78FFC884C20808448C15FC7E0EB
:103A90007B48008800285CD07A4800687A49096829
:103AA00002F05CFE7949096802F074FF014678482B
:103AB000FFF778FC0446774E30800027E85FFCF77C
:103AC00073FF05462046FCF76FFF04467248016805
:103AD000284602F007FF214602F05CFF01466348DA
:103AE000FFF760FC6D4908805748C05FFCF75CFF3A
:103AF0000446F05F4042FCF757FF054668480168FE
:103B0000204602F0EFFE294602F044FF01465848E5
:103B1000FFF748FC634A904200DC1046E1214B016C
:103B2000984200DB1846604C20805C48C15F91429F
:103B300000DC1146994200DB194601805B48FEF724
:103B40009BFEE15F5A48FEF797FE4D4908880A3010
:103B5000088001B0F0BD594909888B4201D9801A0B
:103B60000DE0904205D91018564909884900081AF5
:103B700005E05ED21018534909884900401A50499F
:103B8000088000B2FCF710FF01463748FFF70AFC37
:103B900004464D4804800027E85FFCF705FF054612
:103BA000454E30880019FCF7FFFE04463A4801688C
:103BB000284602F097FE214602F0ECFE01462B4813
:103BC000FFF7F0FB354908801F48C05FFCF7ECFEAB
:103BD00004463D48C05F3188081AFCF7E5FE0546FB
:103BE0002F480168204602F07DFE294602F0D2FEF1
:103BF00001461F48FFF7D6FB2A4A904200DC1046D8
:103C0000E1214B01984200DB1846274C20802348D5
:103C1000C15F914200DC1146994200DB19460180E8
:103C20002248FEF729FEE15F2148FEF725FE01B09C
:103C3000F0BD23480088A4E720500840D801202088
:103C40005C032020DA0120205E032020B801202020
:103C5000420320204003202044032020480320204A
:103C6000D40020204C0020200401202074002020BB
:103C7000B0002020C0012020D60020202C012020D0
:103C80002E0120206403202028012020680320200A
:103C9000300120206C0320205000202046032020EB
:103CA00054002020E0E3FFFF540320205C0020208C
:103CB00098002020000034434E0020205A0020208D
:103CC0006003202058002020BE0120200448006806
:103CD000C0B2012803D103480168491C0160704744
:103CE000209086404C032020F0B58DB0044607AFED
:103CF0000920F870E320B870CA2078700220029082
:103D00003870682004213A4601F0D4FFA32179726B
:103D10003972F971402323405C20C043002B0246D6
:103D200001D03D22D243FA70002B024601D0372247
:103D3000D243BA703F250593002B024600D0EA43D8
:103D400001957A70397001252E023146803121406B
:103D50000691014601D03921C943B971069900295C
:103D6000014601D03321C94379710699002901D058
:103D70003B20C04338717D480F300A213A4601F09C
:103D800099FF0320272120400490039101D0202097
:103D900000E0C843387075481E3029463A4601F0A5
:103DA00089FF9720C000A10605D4C7210C91724954
:103DB0000B91724904E05D210C916D490B916D49A5
:103DC0000A9109210AAA01F075FF0698002821D05E
:103DD000264001D0642000E06F20C04307AAD070C5
:103DE000002E01D0492000E04B20C0439070002EEF
:103DF00001D0742000E07F20C0435070002E01D01D
:103E00004D2000E04F20C043107058480A30042174
:103E100001F050FF8B200001E10704D107AAD8214F
:103E20001170012149E007AAF821117001252946E6
:103E300001F040FF0720FA2100F02EFA0AAA0198AB
:103E400010702920C7003846294601F033FF0AAA1E
:103E500000261670F81D294601F02CFF0AAA14202E
:103E60005070167038469630029D294601F022FFA8
:103E70000AAA64205070167038469230294601F024
:103E800019FF0AAA9020D070F92090708E205070EF
:103E9000167038461430042101F00CFF0AAA0820DD
:103EA0005070167038461230294601F003FF0AAAF6
:103EB0005570167010373846294601F0FBFE059DF7
:103EC000A007039800D52620C04307AA10702C48ED
:103ED000012101F0EFFE600704D42A480A90042172
:103EE0000AAA09E00AAAC620D070C4209070C22095
:103EF0005070C020107004211C4801F0DBFE00F05F
:103F000087FFE00606D420480A901848801D042147
:103F10000AAA0BE00AAA3820D0703020907028201E
:103F20005070202010701148801D042101F0C2FE45
:103F300000F06EFF0820204383490880002D00D048
:103F400006250698002800D0AD1D1420044201D09B
:103F5000102005430498002800D02D1D00F058FFC4
:103F60007848057000200DB0F0BDC046980A0000EA
:103F7000B4980D35B8AAB38DB088C3C5B8AAAAAA9B
:103F80003D0700008B8B8B8BA3A3A3A380B50120DF
:103F9000820203480349C82300F0F4FC80BDC046F8
:103FA000F60B000016720000F0B58FB016460F46F3
:103FB0000690149D00242C806248007807A9159A69
:103FC00000F0D4FE0146E043002901D00FB0F0BD5F
:103FD000059503975C490A8801273D021421049244
:103FE0000A4246D0019507990A0607A902974B781D
:103FF0001B049F18CA788B781B029A18D21932605A
:10400000089A12064B791B049A18CB798D792D02E8
:10401000EB189B187360099B1B064D7A2D04ED1855
:10402000CB7A8C7A2402E3185B19B3600A9B1B06D7
:104030004C7B2404E318CC7B897B09020919C9183D
:10404000F160111449433A14524351182A1452434F
:1040500089181A1452438918F12212068918029AF3
:104060005206914265D805990888019D2843088029
:104070001024049E700602D42346059F18E007A86A
:1040800001194A78005D00028018039F3880C878C3
:104090008A7812021018788048790979090208187C
:1040A000B880059F388808210143398006232343BF
:1040B00080352E4216D007A8C1184A78C05C00028D
:1040C0008018069C2080C8788A78120210186080B8
:1040D0004879097909020818A080388870210143BD
:1040E00039809B1D0020B10700D16FE707A9CD18CB
:1040F000EC786978CA070DD0144A1368002B09D0F0
:1041000007212140491CA206520F06461046984737
:1041100030466978090700D458E70D490A68002A33
:1041200000D153E7A10904460846904720460FB046
:10413000F0BD044600F06CFE20460021059A118077
:104140000FB0F0BDD6012020D0012020C4012020D6
:10415000C8012020F0B585B013490491134903919B
:10416000134902910026F443C82819D86D462E70D1
:104170000746C1B2C82001F0D3FD401E68700D484B
:1041800002212A4601F096FD002809D10A480C2197
:1041900002AA01F08FFD002802D1084807803446AA
:1041A000204605B0F0BDC046BBAFDFDFAAF1DFDFC0
:1041B000FEF2ABC416020000C10A0000D4012020A8
:1041C000F0B583B00446032108402D4B1D5C02AAC4
:1041D00015702C4D285C01AE30702006800F1F5CDE
:1041E0009770E706BF0FDB5D5370285CB070E85D29
:1041F0007070254E304601F05DFD0027FD4300281C
:1042000029D1301D032101AA01F054FD002822D13B
:104210001E4801901E48029060071FD4A00625D4B6
:10422000E00505D501A86721817002A8772181707A
:1042300030461A30032102AA01F03CFD00280AD1C1
:104240000B36032101AA304601F034FD002802D1CB
:10425000104804803D46284603B0F0BD01A8272140
:10426000017002A837210170A006D9D501A8472105
:10427000417002A857214170E005D3D4D8E7C04669
:104280001B6C0000186C0000260400002646660027
:1042900036567600CC012020F0B585B00E46054696
:1042A0000021CC431920800186426FD80720284086
:1042B0006CD0019103AF384600F0D0FA3046FCF7DD
:1042C0007BFB3D49FCF776FA39788A1E0121CA4109
:1042D000072A5BD88D21CE053849C0467A44127929
:1042E000520097440E0353075353530B23214E069A
:1042F000354906E08B21CE05324902E045210E0604
:104300002F490294074602F0EDFAFCF703FB04463E
:1043100031462E4604ADE870384602F0E3FAFCF769
:10432000F9FA6870210AA970000A2870AF1CF0071A
:1043300006D1B00718D47007029C2AD4019C25E04E
:104340003C46492087003846B030022104AA01F0DB
:10435000B1FC002819D1022138462746224601F037
:10436000A9FC002811D1E4E7492084002046B4309C
:10437000022104AA01F09EFC002806D1201D022182
:104380003A4601F097FC0028D5D0029C204605B0A3
:10439000F0BD492085002846B830022104AA01F06A
:1043A00089FC0028F2D10835022128463A4601F05E
:1043B00081FC0028EAD1C1E70000484300004046E4
:1043C0000000C044000040450000C045F0B589B081
:1043D00015460C46074606AB00265E700120187095
:1043E000C14905C9417D10780222FDF7EBFFF14379
:1043F000002800D0C8E032462E4605910494C8201B
:104400001446FDF721FC06AB1C70B74D05CD417C71
:1044100010780122083DFDF7D5FF002800D0B2E05A
:10442000039405CD41791078012206AB083DFDF7D4
:10443000C9FF002800D0A6E005CD417D10780122FB
:1044400006AB083DFDF7BEFF002800D09BE005CD80
:10445000817E1078012206AB083DFDF7B3FF0028EE
:1044600000D090E005CD01791078012206AB083D1F
:10447000FDF7A8FF002800D085E006AB0C201870DF
:1044800005CD017910780122083DFDF79BFF00283A
:1044900079D10F20FDF7D8FBA86A407A06AB1870D7
:1044A00005CD817810780122083DFDF78BFF0028AB
:1044B00069D1A86A007A06AB187005CD41781078EA
:1044C0000122083DFDF77EFF00285CD1A86A807AB2
:1044D0003146002E01D0E021084306AB187005CD0F
:1044E000817910780122FDF76DFF00284BD1002E55
:1044F00006D01F20C143E348806AC07A084300E029
:10450000182006AB1870DF4905C9C179107801225F
:10451000FDF758FF002836D1002E02D0C820FDF745
:1045200093FB06AB40201870D64905C90179107875
:104530000122FDF747FF002825D106AB782018702F
:10454000D04905C9417910780122FDF73BFF0028C9
:1045500019D13220FDF778FB06AB03981870C949D2
:1045600005C94179107801220292FDF72BFF00283E
:1045700009D1C44905C9017B1078022206ABFDF7B9
:10458000B9FC002803D00599084609B0F0BD3846AB
:10459000039939607960B960049801604160816075
:1045A00006A8008840BA51494143C80CC0B205462C
:1045B000002833D0F14905C9417B10780C2206ABA5
:1045C000FDF798FC0028DED10698C0BA049B196854
:1045D000081818600798C0BA996808189860586851
:1045E00006A94A88D2BA801858600898C0BA3B46D3
:1045F0007A681018064678604889C0BABA681018F8
:10460000B860C988C9BA3A6851180C46396003992C
:10461000491C0391C9B2A942CCD303E0384650CF1C
:104620003868083F010CC217120451180004832295
:10463000039200230593059BFBF7B0FD2A460195E5
:10464000059D2B46FBF7AAFD0097B860300CF117CB
:10465000090409183004039F3A462B46FBF79EFDD8
:10466000019A2B462E46FBF799FD009D6860200CB1
:10467000E1170904091820043A463346FBF78EFD7A
:10468000019C22463346FBF789FD2860049D28687B
:10469000C10EC21752015118400122463346FBF7A2
:1046A0007DFD28606868C10EC21752015118400193
:1046B00022463346FBF772FD6860A868C10EC21738
:1046C000520151184001224635463346FBF766FD3C
:1046D000002802DC0299090400E005490818049941
:1046E0008860294650E7C046D8002020ABAA0000C9
:1046F0000000FFFFFFF74CF8FEF79AF9FDF734FAD8
:10470000214C2046FFF7DEF8012568041F4E30607B
:104710001F4F38600820306038602046FFF7D2F81D
:104720001C48FEF7E7FE1C48FEF7E4FE1B48FEF7B8
:10473000E1FE1B48FEF7DEFE28021A490A68024322
:104740000A60022030603860202030603860280421
:1047500030603860154D164E164C134829463246C7
:10476000FDF72AF93068FCF7D5F802460127032344
:1047700038463946FEF7BCFD22680220062339463A
:10478000FEF770FDE9E7C0460000202080E200E06F
:1047900000E100E0040120203001202074002020EE
:1047A000B000202004310040500320205803202076
:1047B000680320204C032020F0B585B00446242057
:1047C000B94E305C002802D0002005B0F0BDB17AAF
:1047D0000020C74300293ED0FE2214402140357CF2
:1047E0003174A14200D0C043002C14D1317D002986
:1047F00011D1044604AB0020187005CE417C10781E
:104800000122083EFDF7DEFD002801D104987074F6
:10481000204605B0F0BD717C002912D103AB012206
:104820001A70316801957568497C2D780290284688
:10483000019DFDF7C7FD01460298002901D10399AA
:104840007174002CE5D0044600F0E2FA01462046DF
:104850000029DED03574384605B0F0BD10B50146EC
:104860000020914B5A7A032A0AD8D200064CD44031
:104870000C70DB7C002B02D0044BD3400B7010BDBE
:10488000C04310BDD80020200204081004081020E6
:10489000F0B585B001AB80201870FC4E05CE417D8F
:1048A00010780122083EFDF78DFD0027FC4300280B
:1048B0002CD16420FDF7C8F901AB1F7005CE417DF6
:1048C000107801252A46083EFDF77CFD00281DD101
:1048D000FF2030742A49F18170823573B460280456
:1048E0007761B761F7613062304608300777477704
:1048F0008777C77703AB1820187005CE81791078B9
:104900002A46083EFDF75EFD002802D0204605B08D
:10491000F0BD03A80078C0083072B07A0028F5D046
:1049200004A80770707A00280DD005CEC1791078E0
:10493000012204AB083EFDF745FD0028E6D104A89E
:104940000078C00870722A2001F09CF80028DDD1A0
:10495000322001F0D1F80028D8D10020FFF72CFF39
:104960000028D3D10025284600F05CFF0028CDD1D7
:10497000284601F033F92C46C8E7C046D80020206D
:10498000FFFF0000F0B58FB007460025E84309910E
:10499000002977D02524F449095D002972D10194BA
:1049A000049003920293002F5CD00597AEB2BB1B1C
:1049B000012BED4A00DB0123907A002864D00DA87A
:1049C00045702F0A0770E8B299B208910C18506828
:1049D00041898C4258D800781168C97E02220A9316
:1049E0000DABFDF7EFFC0A9BDF4900284CD13246A6
:1049F0003E460998871805C9017E1078DAB20792F9
:104A000006973B46FDF7DEFC00283DD1D64A907A5A
:104A1000002839D0F0B20EA94D7008705068418955
:104A20008C4231D800781168C97E02220EABFDF7A6
:104A3000C9FCF649002827D105C9017E10780CABC6
:104A4000079AFDF757FA00281ED10CA90698089A74
:104A5000FBF7F7FB002822D10A982D18A8B2059F72
:104A6000B842A3D30BAB03985870000A1870E74CF8
:104A700005CC417F10780222083CFDF7A3FC0028FA
:104A8000049804D00FB0F0BD04980FB0F0BD012021
:104A9000019960540298E08400200FB0F0BD0498A2
:104AA000401E0FB0F0BDC046D8002020F0B589B040
:104AB0000025EE4300280BD001962324D34F395D07
:104AC00001293AD0B97C0029009518D0322217E08C
:104AD0002324CE4D285D002800D1C4E0A87C411ECF
:104AE00002468A41510003AA11702221695C002903
:104AF00000D1ACE0002800D1A5E07D20A4E0302268
:104B0000054604A802702220385C002807D000293E
:104B100001D04D2000E04F20C04304A9087005CF0C
:104B2000C17D1078012604AB3246083FFDF74AFCF0
:104B300000282846009D00D13E5502A920220A7077
:104B4000012830D102A800214170B87A002811D084
:104B500005A806210170F87A06280BD005CF8178C8
:104B60001078012205AB083FFDF72CFC002801D18D
:104B70000598F872019E02AB58788001C01D5870EC
:104B800005CF417D10780222083FFDF71BFC00286D
:104B900078D1012038753D730820B8722846FFF798
:104BA0000BFE2E466EE0052818D802A801214170A0
:104BB000B87A0028019EDED006A806210170F87A96
:104BC0000628D8D005CF81781078012206AB083F9F
:104BD000FDF7F8FB0028CED1069832E0142818D84B
:104BE00002A802214170B87A0028019EC3D007A80C
:104BF00005210170F87A0528BDD005CF817810789D
:104C0000012207AB083FFDF7DDFB0028B3D1079871
:104C100017E002A803214170B87A0028019EAAD0AB
:104C200008A804210170F87A0428A4D005CF81785F
:104C30001078012208AB083FFDF7C4FB00289AD189
:104C40000898F87297E77F20C04303A9087005CD44
:104C5000C17D1078012203AB083DFDF7B3FB0028AE
:104C600001D1002028550720000202AB188005CD95
:104C7000417D10780222083DFDF7A4FB002801D1F8
:104C800000262E75304609B0F0BDC046D800202061
:104C9000F0B583B00446B04F786800780621022250
:104CA00001ABFDF727F90026F543002823D17868EA
:104CB000007801A98B1C08210222FDF71BF90028AE
:104CC00019D17868007801A90B1D0A210222FDF78D
:104CD00011F900280FD101A8417802781202511869
:104CE000C27883781B029A18437900790002C018B1
:104CF00006C420603546284603B0F0BDF0B583B049
:104D00000446954F786800781321022201ABFDF725
:104D1000F1F80026F543002823D17868007801A92E
:104D20008B1C15210222FDF7E5F8002819D17868BF
:104D3000007801A90B1D17210222FDF7DBF80028DE
:104D40000FD101A84178027812025118C2788378F5
:104D50001B029A18437900790002C01806C420602B
:104D60003546284603B0F0BDD8002020F0B585B008
:104D700005462420784E305C0024E743002842D0CA
:104D8000B07A00283FD00291039205CE017B1078C3
:104D9000022204AB083EFDF7ADF8002833D104A889
:104DA0004178007800024218AA4203D200210398F9
:104DB000017028E070684188490801928A420DD943
:104DC00000783168C97C012204ABFDF793F8002814
:104DD00019D104A80078C00612D470680078316830
:104DE000497BEAB2029BFDF785F800280BD10198B8
:104DF000294600F095FF411E03980170274602E006
:104E000000F006F87F1E384605B0F0BDD80020201F
:104E100070B582B00026F4434F4DA87A00281ED00A
:104E200001AB1E7005CD417C10780122083DFDF7D5
:104E3000C9FA002813D105CD41791078012201ABC0
:104E4000083DFDF7BFFA002809D105CD017910789A
:104E5000012201AB083DFDF7B5FA002802D020463B
:104E600002B070BD2420285C002813D001AB0C20B8
:104E7000187005CD017910780122083DFDF7A2FADE
:104E80000028ECD13220FCF7DFFEA87AC0073AD028
:104E90001F2039E001AB0420187005CD017910788E
:104EA0000122083DFDF78EFA0028D8D1A97A4020CA
:104EB000C907014600D06021AA7C002A00D0014623
:104EC00001AB197005CD017910780122083DFDF77D
:104ED00079FA0028C3D13220FCF7B6FE687C411E67
:104EE000884101AB187005CD417C10780122083D46
:104EF000FDF768FA0028B2D105CD41791078083560
:104F000001222B4621E03F20C04301AB187005CDA4
:104F1000017910780122083DFDF754FA00289ED14E
:104F2000687C411E8841400001AB187005CD417C72
:104F300010780122083DFDF745FA00288FD101AB1A
:104F40001E7005CD417910780122FDF73BFA00284B
:104F500085D1344683E7C046D8002020F0B59FB005
:104F6000179116902420F54E345C002C02D00020BE
:104F700000F0DAFC307A00220328174602D84000FD
:104F8000EF490F5A707A0328114608D88000F17C47
:104F9000002901D0EBA100E0EEA1081801681594EA
:104FA0000E91F17A0629109215461446134614D82C
:104FB000481E424242417F2008403E23C340012117
:104FC0000B401E24C4400C400E25C5400D401197D7
:104FD0000627C7400F401097119F08A838C00C92B1
:104FE000307C1490B07A1390F089129000251698B6
:104FF00017992A46FFF7EAF9002808D0169817995A
:105000002A46FFF7E3F900282C4600D0F8E21BA857
:1050100018A901220B92FFF7D9F9002808D01BA884
:1050200018A90122FFF7D2F900282C4600D0E7E2A8
:105030000795706800780D2104221EABFCF75AFF1B
:105040000028119700D0BBE01EA9C87803220346B0
:10505000059213400F938A78D3081C2213400D93B6
:105060004978CB0813400107890F02930191591821
:1050700004911E99CB0813408006800FC1180025AB
:10508000002906952FD04E1E0BD03246059C22409B
:105090000343981E002A06D0012A06D18E1EB14D68
:1050A0000DE0B14D1FE0B04D09E0022A01D0AF4D37
:1050B00000E0AF4D022A01D00E1F00E0CE1E0328F3
:1050C00011D3AC4C2846214601F00CFC214601F0DE
:1050D00009FC214601F006FC214601F003FC0546CF
:1050E000361F3006EED10F980D9908180390049AD8
:1050F000002A069C31D0571E0DD039460598014034
:105100000298019B1843801E002906D0012906D170
:10511000971E944C0DE0944C1FE0934C09E002293B
:1051200001D0924C00E0924C022901D0171F00E000
:10513000D71E032811D38F4E2046314601F0D2FBF3
:10514000314601F0CFFB314601F0CCFB314601F096
:10515000C9FB04463F1F3806EED1039B002B2FD01E
:105160005F1E0CD0059A3A400F980D990143891E95
:10517000002A06D0012A06D19F1E7A480DE07A48FF
:105180001DE0794809E0022A01D0784800E078481B
:10519000022A01D01F1F00E0DF1E03290FD3754E26
:1051A000314601F09FFB314601F09CFB314601F096
:1051B00099FB314601F096FB3F1F3906F0D106906E
:1051C000179800681899401AC1174840401AFBF711
:1051D000EBFB6F21C9050D9101F084FB0646002110
:1051E00028460F9100F020FF002836D1304629468E
:1051F000FBF7E0FA604901F0B1FA0125E9078843BD
:105200005E4900F027FF002800D10F9517984068ED
:105210001999401AC1174840401AFBF7C5FB0D9970
:1052200001F060FB05460021204600F0FDFE00284D
:1052300023D128462146FBF7BDFA4F4901F08EFAEB
:105240000121C90788434D4900F004FF002802D11D
:105250000F98801C0F90079D24E04949304600F0CC
:10526000EEFE0546401E85414649304600F0FFFEF1
:1052700000280B980F90C8D0C8E74149284600F095
:10528000DEFE0446401E84413E49284600F0EFFE03
:1052900000280B9800D120460028079D02D00F98C7
:1052A000801C0F90179880681A99401AC1174840BF
:1052B000401AFBF779FB0D9901F014FB044600211D
:1052C000069E30460F4600F0AFFE0028179710D11B
:1052D00020463146FBF76EFA274901F03FFA0121DB
:1052E000C9078843254900F0B5FE002816D10F9C58
:1052F00012E02349204600F0A2FE0546401E8541EB
:105300002049204600F0B3FE00280B9800D1284623
:105310000028079D0F9C02D0241D00E00F9C119FC8
:105320000648406800780D2103261EAB3246FCF784
:10533000E1FD002828D007265BE1C046D8002020E8
:105340000E720000040000000800000010000000C1
:10535000200000000200000004000000080000001F
:1053600010000000ADFFB33E7B14AE3E5E72C03E47
:10537000631EBA3E1D5A843F000080BF295C0F3E69
:105380003333733F9A99993E06960F9416980068A6
:105390001B99401AC1174840401AFBF705FB0D99AD
:1053A00001F0A0FA05461EA886781F2144780C401B
:1053B000027805910A400DD00495551E1BD02B464E
:1053C00006980340901E002B17D0012B17D1E749F8
:1053D00005461EE0E949284600F031FE0746401E1A
:1053E0008741E749284600F042FE00280B981790B5
:1053F00032D1179730E0DC491FE0DB4909E0022B8E
:1054000001D0DC4900E0DA49022B01D0151F00E091
:10541000D51E032811D3D84F0846394601F062FA49
:10542000394601F05FFA394601F05CFA394601F07D
:1054300059FA01462D1F2806EED10498FBF7BAF958
:10544000C74901F08BF90125E9078843C54900F0F8
:1054500001FE002800D1179505980640059616987C
:1054600040681C99401AC1174840401AFBF79CFA43
:105470000D9901F037FA0646002C0CD0651E1CD0A1
:105480002A4606980240A01E002A18D0012A18D1E8
:10549000B64905461FE0B949304600F0D0FD074641
:1054A000401E8741B649304600F0E1FD00280B98C8
:1054B00000D13846002830D132E0AB491FE0AA497C
:1054C00009E0022A01D0AB4900E0A949022A01D033
:1054D000251F00E0E51E032811D3A74F08463946D3
:1054E00001F000FA394601F0FDF9394601F0FAF908
:1054F000394601F0F7F901462D1F2806EED1304656
:10550000FBF758F9964901F029F90121C9078843A9
:10551000944900F09FFD002802D11798801C179035
:10552000119F169880681D99401AC1174840401A6B
:10553000FBF73AFA0D9901F0D5F90446059A002ACD
:105540000BD0571E1FD0069E3E40901E002E1DD031
:10555000012E1DD18549074624E08849204600F0E8
:105560006EFD0546401E85418549204600F07FFDC1
:10557000002800D10B950B9800280F9C179E00D097
:10558000361D079D35E07849179E20E0764909E0F1
:10559000022E01D0774900E07549022E01D0171F75
:1055A00000E0D71E179E032811D3734D08462946E5
:1055B00001F098F9294601F095F9294601F092F990
:1055C000294601F08FF901463F1F3806EED12046EB
:1055D000FBF7F0F8624901F0C1F80121C9078843DF
:1055E000604900F037FD002800D1361D119F079D4E
:1055F0000F9C70427041002C00D1801C574E041D3E
:10560000FF2030745F48F081284601253573C04380
:10561000B0605D48874208DCFA2F10D07D20800002
:10562000874223D11EA808210EE07D20C1008F42B1
:1056300008D00001874219D11EA8182104E01EA835
:10564000002101E01EA81021017005CE817910789B
:1056500001221EAB083EFCF7B5FE002803D11EA8B0
:105660000078C0083072B07A002811D00E98C0B20D
:10567000801EE84107282BD87844007940008744F1
:10568000030E2709272727121EA8002505700EE004
:10569000149D51E01EA810210170022507E01EA8EC
:1056A0000821017003E01EA8182101700325707AFB
:1056B000A8420DD005CEC179107801221EAB083E5C
:1056C000FCF780FE002803D11EA80078C008707285
:1056D000B07A0028149D2FD00C98002802D01EA963
:1056E000012019E01098002802D01EA9022013E022
:1056F0000A98002802D01EA903200DE0099800286E
:1057000002D01EA9042007E00898002802D01EA994
:10571000052001E01EA906200870F17A81420BD015
:1057200005CE8178107801221EAB083EFCF74AFEB8
:10573000002801D11E98F072129800F0DDF913983C
:1057400000F04CFA2846FFF737F81598002802D0E9
:10575000012000F0E9F820461FB0F0BDD80020205D
:10576000000080BF295C0F3E0000C8413333D141A7
:10577000BDD2DA419AE3E44154E3853F0000D242CE
:1057800000002041FFFF0000E7030000F0B585B0F6
:10579000054600260296019600966846FFF778FABD
:1057A0000146F043002901D005B0F0BD07460120B5
:1057B000C043A9680140029A511A03AC61716A683A
:1057C0000240019B9A1AE2702B6803400098C01AAD
:1057D0006070090A2171110AA170000A2070C54D7C
:1057E00068680078062102222346FCF7EBFD0028BA
:1057F00002D0384605B0F0BDA31C686800780821C7
:105800000222FCF7DFFD00283846CDD1231D686851
:1058100000780A210222FCF7D5FD0028C4D0F0430D
:1058200005B0F0BDF0B581B00446EB4DA87CA042B8
:1058300002D1002001B0F0BD05CD01791078012220
:105840006B46083DFCF756FB01460026F043002C52
:105850001BD0002962D107466B461878DF21014032
:10586000197005CD017910780122083DFCF7AAFDD9
:1058700000281FD10320FCF7E7F929460831887E6C
:10588000002836D07D20C04334E0002946D10746A9
:105890006B461878DF210140A87AC007800E0818EF
:1058A000187005CD017910780122083DFCF78AFDBA
:1058B000002802D0384601B0F0BD0320FCF7C4F93F
:1058C00029460831887E421E03469341DA016B4621
:1058D0001A70002801D07F20C043C97E002903D060
:1058E000302108436946087005CDC17D107801223A
:1058F0000EE002206A461070C97E002903D03021D4
:1059000008436946087005CDC17D107801226B46B9
:10591000083DFCF757FD0028384601D001B0F0BD26
:10592000AC74304601B0F0BDF0B585B02427FB4E15
:10593000F15D0024814259D0002835D02520305C0B
:105940000025002851D0002902D1B07A00280CD0BF
:1059500002AB1D7005CE417C10780122083EFCF799
:1059600031FD002801D1029870742846FFF75AFFD4
:10597000F08C00F0C1F801AB1D7070680078232135
:1059800001252A46FCF71EFDF55503AB02201870D1
:1059900005CE417C10782A46083EFCF713FD00280E
:1059A00020D1039870741DE0002902D1B07A00283C
:1059B0000DD004AB0020187005CE417C1078012278
:1059C000083EFCF7FFFC002801D104987074307C7D
:1059D00001AB18707068007823210122FCF7F2FCFB
:1059E0000020F055FFF714FA00E0EC43204605B024
:1059F000F0BDC046F0B585B005460026029601967A
:105A000000966846FFF77AF90146F043002901D075
:105A100005B0F0BD0746A8680299081A03AC60718A
:105A20006968019A511AE1702A68009B9A1A62709B
:105A3000000A2071080AA070100A2070B74D68682B
:105A40000078132102222346FCF7BCFC002802D078
:105A5000384605B0F0BDA31C686800781521022205
:105A6000FCF7B0FC00283846D2D1231D68680078C6
:105A700017210222FCF7A6FC0028C9D0F04305B08C
:105A8000F0BDC046F0B581B001460025E843A34E05
:105A9000B27A002A27D06A46BC2901D3012110E03E
:105AA000622901D302210CE02A2901D3032108E055
:105AB000142901D3042104E00A2901D3052100E0BF
:105AC00006211170F27A8A4211D006CE89781478B4
:105AD00001226B4607462046083EFCF773FC014650
