:020000040000FA
:10000000100620206D010000710100007301000046
:1000100000000000000000000000000000000000E0
:10002000000000000000000000000000750100005A
:1000300000000000000000007701000079010000CE
:100040007B010000011400007B0100007B01000027
:100050007B010000D90E00007B0100007B01000045
:10006000000000007B0100007B0100000000000098
:10007000000000007B0100007B0100007B0100000C
:1000800031310000553800007B0100007B01000089
:100090007B0100007B010000000000000000000068
:1000A0007B0100007B010000000000000000000058
:1000B0007B010000000000007B0100007B010000CC
:1000C00000F002F800F042F812A030C808382418F6
:1000D0002D18AC4201D100F039F80FCCA246AB4646
:1000E0000CA730CF2D1B083F3F197C427F1E544484
:1000F0002D090426F441641EAC4201D300F026F819
:100100000126334200D0FB1A3343984754465D46DC
:10011000DFE70000B4530000D453000000000000EB
:100120007047000000000000002300240025002686
:10013000103A01D378C1FBD8520700D330C100D5A3
:100140000B6070471FB51FBD10B510BD00F02AFE33
:100150001146FFF7F7FF03F003FD00F042FE03B482
:10016000FFF7F2FF03BC00F093FE000006480047D3
:10017000FEE7FEE7FEE7FEE7FEE7FEE70348044989
:10018000044A054B70470000C10000001004202005
:100190001006202010052020100520200022030931
:1001A0008B4273D3030A8B4258D3030B8B423CD34D
:1001B000030C8B4221D312E003460B437FD4002271
:1001C00043088B4274D303098B425FD3030A8B42EB
:1001D00044D3030B8B4228D3030C8B420DD309026B
:1001E000FF2212BA030C8B4202D31212090265D00D
:1001F000030B8B4219D300E0090AC30B8B4201D3D6
:10020000CB03C01A5241830B8B4201D38B03C01A1C
:100210005241430B8B4201D34B03C01A5241030B93
:100220008B4201D30B03C01A5241C30A8B4201D344
:10023000CB02C01A5241830A8B4201D38B02C01AEF
:100240005241430A8B4201D34B02C01A5241030A66
:100250008B4201D30B02C01A5241CDD2C3098B424B
:1002600001D3CB01C01A524183098B4201D38B01C8
:10027000C01A524143098B4201D34B01C01A52416B
:1002800003098B4201D30B01C01A5241C3088B42B0
:1002900001D3CB00C01A524183088B4201D38B009B
:1002A000C01A524143088B4201D34B00C01A52413D
:1002B000411A00D201465241104670475DE0CA0F14
:1002C00000D04942031000D3404253409C460022D4
:1002D00003098B422DD3030A8B4212D38901FC22DE
:1002E00012BA030A8B420CD3890192118B4208D3B4
:1002F000890192118B4204D389013AD0921100E016
:100300008909C3098B4201D3CB01C01A5241830929
:100310008B4201D38B01C01A524143098B4201D356
:100320004B01C01A524103098B4201D30B01C01A81
:100330005241C3088B4201D3CB00C01A52418308FB
:100340008B4201D38B00C01A5241D9D243088B4251
:1003500001D34B00C01A5241411A00D2014652410A
:10036000104663465B1001D34042002B00D5494242
:10037000704763465B1000D3404201B50449002832
:1003800002DC491C084000E00846C046C04602BDE9
:10039000FFFFFF7F70477047704700000246C80F9D
:1003A000C00781434B0030B54B405B009B0D20D014
:1003B0001923DB06C91801231B05994220DB0324FE
:1003C000A40704251346AB400BD3002B04D1EB0646
:1003D00013409B00E34204D4012464070023121954
:1003E0005941FF231B0599420BD2C9000143500F0D
:1003F00009E0CB0204D501430803024305D00548B8
:1004000030BDFF21C905084330BD08460721090555
:10041000884330BD0000C07FF0B50C46871A9C4170
:100420000D46861A9D4103D2C01BA141D2196341DA
:100430000D0D1F0DC94EEC1BAE435CD07F057F0D2B
:100440000026002F51D02D05AC46A943DD02012323
:10045000ED0A1B051D4320231B1B24D41746E74030
:10046000381871412F46E740CC199D402818314675
:1004700061410C0D27D161449A4013D50023401CE3
:10048000594152000ED14008400001224B00520554
:10049000D34207D305204007C14201D5B04900E04F
:1004A000B0493046F0BD6B00002A00D001229A18F6
:1004B0001F23203C1B1B01D5002302E0E540281828
:1004C00071410C0DD7D0012424050919C407CD07AB
:1004D00040084908E40F28436144002CD5D000248B
:1004E000401C61419A40D0D1CDE76A05520DD9D167
:1004F000C90FC907D5E79C4D4E00002801D0012443
:1005000000E0002434195F00002A01D0012600E039
:100510000026BE19954FAC420CD8AE420AD8B44260
:1005200006D001256D05EC42BCD010461946F0BD41
:100530009942FCD000203946F0BDF0B51FB40C46FE
:100540000F46811A9F412546861A9D4106D20125F4
:10055000ED076F40401ABC4152187B41210D1E0D22
:100560008D1BAC467D4D8D437ED075056D0D7CD0C9
:100570000D05AE46AC431B031B0B794D52429D410A
:10058000202366469B1B14D31746F74038180026D5
:100590000090744160462F460741E41900989D4041
:1005A0002818664116D4714671189A4025D5012342
:1005B00020E093182A466A415200002B00D0521CBA
:1005C0001E23203E9B1B002B61DD3541EE172818B2
:1005D0006641E8D5001876415B1C9A4000D3401C68
:1005E0004B05F3181524E34010D3002B52D071466D
:1005F0007118D30FC01802D3491C05B0F0BD0123F8
:10060000DB079A42F9D140084000F6E70122520583
:10061000B21801D1002853D00123CC0ADB02994340
:10062000891E002A08D1020C03D0020C00041039E4
:1006300002E00246002020390023550B05D11202AA
:100640000823550B01D152010D23550C01D1120184
:100650001B1DD50C01D192009B1C150D01D1520020
:100660005B1C2025EE1A01E02CE022E00546F54057
:1006700015439840CA1AE10769181305C918002ADA
:10068000BBDA032040070818C10FC9070FE0714605
:100690006118B2E7F10740080843711071444A003D
:1006A0000CD001235B059A42A7D2C90FC9070020CD
:1006B000A3E74905490D26D1002001E00028F4D127
:1006C00000219AE7284D6600002801D0012100E0B2
:1006D000002171185F00002A01D0012600E00026E9
:1006E000BE19224FA94210D8AE420ED8B14208D04E
:1006F00001256D05E94206D01946A8024140104681
:100700007BE79C4201D0214677E70020394674E719
:1007100010B50C465C4005D50124E4076340FFF7A3
:100720000CFF10BDFFF778FE10BD30B40C465C40E6
:1007300004D50124E407634030BC6DE630BCFCE620
:1007400070B50124E40761400D465D4002D4FFF717
:1007500063FE70BD6340FFF7F0FE70BDFF07000051
:100760000000F0FF0000F07F0000E0FF0000F87FD5
:10077000F0B58B4C0F09254689B0BD437BD01D09D0
:100780002646AE43FAD00E465E402740F60F3E4363
:10079000254071D024012142FBD0FF24AD19A404CF
:1007A0002D1B039501252D05DB02DB0AC9022B4316
:1007B000C90A29431E010901040F130F0501214332
:1007C0001701880B820391432D098C46A90B1E4308
:1007D0008A039543B30B9A0396433F09BA0B9403DC
:1007E000A74302962E467E430497B6464E19D71964
:1007F0000C460196544305977E43371B7646BF1B34
:100800003601B646BE0B361900967646BC0437193B
:10081000009C01D3641C00946400002F01D00126C9
:100820003443029E049F754366467E4304967600D9
:1008300034196E0034190094029C019E1C19664301
:10084000751BAE46069465464519059C05956C4397
:10085000594375460891691A0191049E0146514316
:10086000A41B0491611A009C0791E10605D061095F
:100870000122114302E072E06EE06109089D002749
:100880002C0A2D066918049D7C412A0A2D06691838
:10089000019D6241AC0DAD026D185441079A910D56
:1008A000920255196141029A644658435443069B8B
:1008B000059A5A43121A131B9A0E9B015B187A4130
:1008C000010B0005C3185141220A200644195A4160
:1008D0009A4200D2491C01204002814203D31523D1
:1008E0000226F64302E014230326F6432020C51A0D
:1008F000A9401746AF40DA400A4320460399D84042
:100900000914731819055118039A3843D207514036
:10091000AC4009D00122944006D30022401C514132
:10092000002C01D1400840001E4A934212D30122FC
:1009300003989206904207DB0520400709181A48E1
:100940000143C012414004E0032040070818C10FD2
:10095000C907002009B0F0BD0020F107FAE705182B
:100960000C464C4111486D42A04115D394181A46CB
:100970005A410E48644290410ED301204A0040057E
:10098000824209D35A00824206D35940C90F084A0D
:10099000C90700201143DDE700200649DAE700001F
:1009A0000000FF07FE070000FFFFFF7F0000E0FFE1
:1009B0000000F07F0000F87F0121C90501234118E4
:1009C00042001B06D3185B0E0AD0C1100722D206C4
:1009D000891840075242D14201D552008918704708
:1009E000090208D50146002A03D0C10FC90700201B
:1009F000704710467047420202D0002002497047FB
:100A0000072109050143F4E70000F87FF0B5FF2551
:100A10002D04C609C209FF2704462E400137CB0921
:100A20003E4348402A402B400746002A6BD0002B0B
:100A300069D0AA4267D0AB4265D0002800DA3246BE
:100A40000125ED0529432C4309022002090AD21A87
:100A50004B0C7F24E31A434C000A7C44E35C7D2466
:100A60002404121914145B00A218884201D3521CEA
:100A700000E0400049420C465C4324115C43DB012A
:100A80006415E318040A5C43C502200D0C46444378
:100A90006419250A5D432303EC0C0D4665430003EE
:100AA0000019EB184C42A34201D35B18401CD4053B
:100AB0002018002B07D05B00C91804D3401C002964
:100AC00001D1400840003F2189048A4209D3002A0D
:100AD00008DC1106090F04D0032149074018C00F94
:100AE000C007F0BD01224100120689187F2252067C
:100AF0009142F6D205214907C84201D59010F0BDB8
:100B0000FF20C005F0BD002F00DA32461648AA4289
:100B100007D2AB4205D21902090E17D0F80FC00751
:100B2000F0BDFF2563002D06AB42F9D84900A9426C
:100B3000F6D8AB4201D1A942F2D0A94201D100219D
:100B400001E061004908D0050843F0BD1102090E1B
:100B5000FBD0FF200243D005F0BD0A4601461046F7
:100B600054E70000E64300000000C07F10B50146D6
:100B70009E240002CA15A307002A02D01843002AA7
:100B800004DBA21A002A0CDDD04010BD1206120EA2
:100B900001D140004008A21A03D4D04040420028AE
:100BA000F3DDFF2248001206904201D9002010BD5B
:100BB000C817C043584010BD0102C21504D001231C
:100BC000DB071943002A0ADB9E239A1A02D408463F
:100BD000D0407047FF2241001206914201D9002007
:100BE0007047C017C04370471F22030C02D10F2269
:100BF00000041CD0030E01D10002083A030F01D1FA
:100C00000001121F830F01D18000921E002801DB1A
:100C10004000521ED205511802125118192290405C
:100C200004D3491C002801D14908490008467047EF
:100C3000C10FC90700D04042012292071143D3E7F8
:100C400001218907D0E710B500F072F8006810BDE7
:100C500010B5044600F06CF8046010BD10B5FF221A
:100C6000C30D134009D05A4007D0914205DA5C42C7
:100C7000A14202DDC905081810BDC40FE407002B0E
:100C800006D0002A06D0002902DBFF20C00504435D
:100C9000204610BD4102FCD0004810BD0000C07FBE
:100CA00030B5C30D1906214A090E31D0FF292FD0C6
:100CB00000283ADB01025002014301207D33C3408A
:100CC00000D24908012080071724091A2406490880
:100CD00082102343FF252D064C00211A04D4891AC3
:100CE00002D45400201800E0214652085B19F3D5C5
:100CF0001A220446944007D382068A4203D18021F7
:100D00008030884300E08030C009D905081830BD24
:100D1000FF2904D04100FAD0C00FC00730BD410206
:100D200001D0104630BD0028FCDAFAE70000C07F91
:100D300000487047F001202010B5FF231B06440037
:100D40009C421DD84C009C421AD80346124A0B43C1
:100D500007D4401A02D3EFF3008010BDEFF30080F8
:100D600010BD081A03D3EFF30080904305E0EFF3C2
:100D7000008001219043C907084380F3008810BD1B
:100D80000D231B041A4204D01146002000F031F854
:100D900010BD00F045F810BD0000009000487047FD
:100DA000F00120207546FFF7F9FFAE4605006946C1
:100DB0005346C008C000854618B020B5FFF7DEF9DD
:100DC00060BCB64600260027C0C5C0C5C0C5C0C5AA
:100DD000C0C5C0C5C0C5C0C5403D490849008D4615
:100DE000704710B50446C046C0462046FFF7B7F925
:100DF00010BDC80212D54803400F002804D0C80314
:100E0000C043012188407047EFF3008000010009D2
:100E100003210907084380F30088704700207047CA
:100E200010B5024800F004F810BD00000000C07FBB
:100E300010B50C461107090F092904D00A290AD058
:100E400008290CD104E011460820FFF7D2FF06E084
:100E5000510606D501E0510601D50120C007214603
:100E600010BDD10607D501010909CC084907000EBC
:100E70000006044309E0410F20024907000A01432C
:100E8000200E00061D22D14101430846E7E700007D
:100E900001491820ABBEFEE726000200704730B5BE
:100EA0008C180278401C13071B0F01D10378401CDB
:100EB000120906D10278401C03E00578401C0D7031
:100EC000491C5B1EF9D101E00B70491C521EFBD17D
:100ED000A142E6D3002030BD06480068C0B20B280E
:100EE00007D105480168054A118041685180806832
:100EF0009080704720300040808255405002202072
:100F0000B0B50A78032313400B4A84580B4D254093
:100F1000EB18A92424061B198350072212064B68DC
:100F200013401124240205599543EA18025100196F
:100F300049780161B0BDC04608080000FCFFFF0011
:100F4000811E091F00BFFCD270470000F0B583B0BE
:100F50000B794A79002A2BD01B4A1C4C1C4F202BA2
:100F600002D00525EE0100E04C4E851802190092D2
:100F7000C219002B00D188261768474C2740BF199B
:100F8000176057682740BE1956602E68804F3E4054
:100F90002E606E683E406E600025009C2560656096
:100FA0008F24E44315692540156155692540556135
:100FB00001AA13718B79537109680191114600F0F0
:100FC00009F803B0F0BDC0463818000058180000FA
:100FD00078180000F0B584B06B4A82180292734B07
:100FE000C618784BC21800922A4BC4180A7901918E
:100FF0000D68294F202A03920AD0254BC018002AD9
:1010000017D16B1E029A536023683B40882517E076
:10101000681E029A506020683840204B18432060B8
:101020006068384018436060012045071C4F104637
:1010300008E06B08029A536023683B400525ED01E8
:101040002B432360009903683B402B4303603068C7
:101050004F4B184030607068184070600020086086
:1010600048608F20C04323690340236163690340C4
:1010700063610198407903990843BD2101401068DC
:10108000084B0340C818801C106004B0F0BDC04677
:10109000741800007018000024493E00010400008C
:1010A000FFFFFFCF4000FFCF70B5374A82184B6873
:1010B00053603E4BC3180878222857D8840001A5F6
:1010C0002C59A746631100006D1100006311000048
:1010D0006D1100006D1100006D1100006D11000018
:1010E0006D1100006D1100006D1100006D11000008
:1010F0006D1100006D1100006D1100006D110000F8
:101100006D110000511100006D110000511100001F
:101110006D1100006D1100006D1100006D110000D7
:101120006D1100006D1100006D1100006D110000C7
:101130006D1100006D1100006D1100006D110000B7
:101140006D110000511100006D11000051110000DF
:10115000032424071568A543012464072C1914608F
:1011600004E0032424071568A54315600C69D460C6
:10117000CC68064D25401C68054E264074191C603D
:10118000097A0143116070BD0418000077770200EE
:101190008888FDFF10B507239B0419409200801832
:1011A000024A84589C436118815010BD30180000D9
:1011B00010B5029CA400001911431943014A815043
:1011C00010BDC0465018000092008018014A81509E
:1011D0007047C0461018000010B501221203831892
:1011E0000C789C604B7883508978014A815010BDFF
:1011F0000C110000B0B51122120283580124A34340
:1012000083508B780C881C438B882343094C1C40EB
:101210008358094D1D402B1983508B79CC791C4381
:10122000097A21437E231940801842689A43511855
:101230004160B0BD18670000E798FDFF10B50122BE
:10124000120383180C789C604978815010BD00000F
:10125000F0B582B0002843D0032606407D21090264
:1012600001221304654C002E054637D0616000252D
:101270000195A5602568052700973D4325602568F1
:101280001D4208D125681D4205D125681D4202D1A5
:1012900025681D42F3D0256895432560012E03D1B2
:1012A000451E04283DD21BE06160019DA5602568B4
:1012B000009F3D43256025681D4208D125681D42D9
:1012C00005D125681D4202D125681D42F3D0D543C2
:1012D00027682F402760022E04D1851E042820D2C3
:1012E00002B0F0BD6160019DA5602568009E354398
:1012F000256025681D4208D125681D4205D1256855
:101300001D4202D125681D42F3D025689543256012
:10131000C51E042805D2E3E72068904320602D1FF6
:10132000DED061600020A060276805263743276073
:1013300027681F4208D127681F4205D127681F422E
:1013400002D127681F42F3D0276897432760616066
:10135000A06027683743276027681F4208D12768A5
:101360001F4205D127681F4202D127681F42F3D0D0
:101370002768974327606160A0602768374327602C
:1013800027681F4208D127681F4205D127681F42DE
:1013900002D127681F42F3D0276897432760616016
:1013A000A06020683043206020681842B4D12068D3
:1013B0001842B1D120681842AED120681842F3D04B
:1013C000AAE7C04641010D484160002181600168E3
:1013D00005220A43026001210A040368134208D16E
:1013E0000368134205D10368134202D10368134214
:1013F000F3D002688A4302607047C04610E000E004
:1014000070B501223848014610390B6891045C031D
:1014100012D41C0321D4140601221105DD0236D496
:1014200023405CD0314D2B682E68234258D1264290
:1014300045D12E68304B1BE02C4C256823680D42AB
:101440001DD10B4248D1012223681B03284B40D4F5
:10145000D204246814423FD13AE00122D404234D3F
:101460002B682E68234221D1264228D12E68204B9A
:101470000E4221D12D680D4221462AD02CE01B03BB
:101480001B4B25D4D50424682C4222D024E0174DD0
:101490002B682E680B4214D10E421DD12E68164BBC
:1014A000264216D12A68224212D015E0104B0E4275
:1014B00003D12A680A4202D10E4A214609E0214698
:1014C0000AE00D4B264203D12D68254201D003E0EE
:1014D000084A1C88A2181A8002680A43026070BD7C
:1014E000054B0E42E5D0E8E748300A4080330A4019
:1014F00072022020FFFF000074022020B0B50446D5
:101500002720C50103CC405908402278083C002A16
:1015100002D0884202D010E000280ED10A20FFF746
:1015200097FE03CC405908402278002A03D0884215
:1015300003D10120B0BD0028FBD00020B0BD704712
:10154000F0B589B00393019207910890DA498120A0
:1015500006900860D94D01272F602F6402262E6067
:101560002F612F6005242046FFF72CFF2F612046B6
:10157000FFF728FF2E61089840000590C0B200F0E8
:10158000F7FB2E6102972F60CB4CCD48206004966C
:101590002E60CC4C2068C00736D00520FFF712FF24
:1015A0002068C00730D00520FFF70CFF2068C00777
:1015B0002AD00520FFF706FF2068C00724D00520A9
:1015C000FFF700FF2068C0071ED00520FFF7FAFED6
:1015D0002068C00718D00520FFF7F4FE2068C00778
:1015E00012D00520FFF7EEFE2068C0070CD00520C2
:1015F000FFF7E8FE2068C00706D00520FFF7E2FEEF
:101600002068C00700D00CE1049C2C610698FC4FB8
:10161000386001262E602E64079800F0A9FB2C612B
:1016200008962E60F74838602C60F84C2068C00798
:1016300036D00520FFF7C6FE2068C00730D0052051
:10164000FFF7C0FE2068C0072AD00520FFF7BAFECA
:101650002068C00724D00520FFF7B4FE2068C0072B
:101660001ED00520FFF7AEFE2068C00718D0052069
:10167000FFF7A8FE2068C00712D00520FFF7A2FEE2
:101680002068C0070CD00520FFF79CFE2068C0072B
:1016900006D00520FFF796FE2068C00700D0D8E0EE
:1016A000022129610698D64F3860089E2E602E646C
:1016B00038602E602E6429600F462E612E6005244E
:1016C0002046FFF77FFE2E612046D04CFFF77AFEC2
:1016D0002F6105983043C0B200F04AFB2F612E60A5
:1016E0003E46C848C64908602F602068C00736D00B
:1016F0000520FFF767FE2068C00730D00520FFF700
:1017000061FE2068C0072AD00520FFF75BFE206835
:10171000C00724D00520FFF755FE2068C0071ED063
:101720000520FFF74FFE2068C00718D00520FFF7FF
:1017300049FE2068C00712D00520FFF743FE20684D
:10174000C0070CD00520FFF73DFE2068C00706D07B
:101750000520FFF737FE2068C00700D092E005960D
:101760002E61069EA64806600898286004462864F4
:1017700000210198022800910F4625D3451E0195AE
:10178000039E27464D4C00F09FF830709C48069908
:101790000160276027643846059F27612061052086
:1017A0000790FFF70FFE0898206127600798FFF762
:1017B00009FE2761089F27606D1E761C002DE2D16F
:1017C0003C463E4D069E019F00F07EF80399C855A9
:1017D0008B48066026462C602C64059F2F612C6187
:1017E00005242046FFF7EEFD2E602F602046FFF710
:1017F000E9FD2F612E60069E009F81480660029ED3
:101800002E602E64049828612E61286005242046ED
:10181000FFF7D8FD2E602046FFF7D4FD384609B00B
:10182000F0BD264605242046FFF7CCFD3068069E15
:1018300073480660029F2F602F64049828612F610F
:1018400028602046FFF7BEFD2F602046FFF7BAFD57
:10185000D3E705273846FFF7B5FD206868480699A5
:101860000160089E2E602E64049C2C612E612C6009
:101870003846FFF7A7FD2E60069E3846FFF7A2FD0B
:101880002746BAE7274605242046FFF79BFD386820
:10189000069F5B4807603046089E2E602E642861D4
:1018A0002E6128602046FFF78DFD2E603E462046C3
:1018B000FFF788FD0327A0E70480424090120A400A
:1018C0008100040080130A40F0B587B04C484D49B0
:1018D00001604D4F02263E6005242046FFF772FD51
:1018E0003D46103D2E602046FFF76CFD47480068DE
:1018F00006902046FFF766FD3E602046FFF762FD3A
:101900002E602046FFF75EFD4048006805902046A7
:10191000FFF758FD3E602046FFF754FD2E6020463D
:10192000FFF750FD394F386804902046FFF74AFD15
:10193000354806602046FFF745FD2E602046FFF73C
:1019400041FD386803902046FFF73CFD2E480660B5
:101950002046FFF737FD2E602046FFF733FD38683D
:1019600002902046FFF72EFD274806602046FFF72D
:1019700029FD2E602046FFF725FD3F682046FFF732
:1019800021FD214806602046FFF71CFD2E60204601
:10199000FFF718FDF548006801902046FFF712FD9B
:1019A000194806602046FFF70DFD2E602046FFF720
:1019B00009FDEE4805682046FFF704FD1248066061
:1019C0000120059A02400699C907890F511889001C
:1019D000049AD207920F8918039A0240511889007D
:1019E000029AD207920F8918074079188900019A44
:1019F000D207920F891805406818C0B207B0F0BD31
:101A00000480424081000400A0120A4080130A4072
:101A1000F0B587B00393049201910690D0498120DC
:101A200005900860CF4F01253D603D6402243C6075
:101A30003D613D6005263046FFF7C4FC3D61304600
:101A4000FFF7C0FC3C6106984006000E00F090F9DC
:101A50003C613D60C448C249086002943C60C34C8C
:101A60002068C00736D00520FFF7ACFC2068C0070F
:101A700030D00520FFF7A6FC2068C0072AD005203B
:101A8000FFF7A0FC2068C00724D00520FFF79AFCD0
:101A90002068C0071ED00520FFF794FC2068C0070F
:101AA00018D00520FFF78EFC2068C00712D0052053
:101AB000FFF788FC2068C0070CD00520FFF782FCE8
:101AC0002068C00706D00520FFF77CFC2068C0070F
:101AD00000D0FAE0029FFA4E37610598F74C20607B
:101AE000012535603564019800F042F929463761D7
:101AF00035609D48206037609C4D2868C00706917E
:101B00003FD00520FFF75EFC06992868C00738D053
:101B10000520FFF757FC06992868C00731D005203B
:101B2000FFF750FC06992868C0072AD00520FFF768
:101B300049FC06992868C00723D00520FFF742FC1E
:101B400006992868C0071CD00520FFF73BFC0699C2
:101B50002868C00715D00520FFF734FC06992868CF
:101B6000C0070ED00520FFF72DFC06992868C00796
:101B700007D00520FFF726FC06992868C00700D08B
:101B8000C6E00224CE4F3C610598CC4D28603960F8
:101B900039640498002800D183E0002609E03C6104
:101BA000C64D0598286039603964761C0498B042A7
:101BB00077D00398805D00F0DBF806993C613960CE
:101BC000694828603C60694D2868C007E7D0052057
:101BD000FFF7F8FB06992868C007E0D00520FFF75B
:101BE000F1FB06992868C007D9D00520FFF7EAFB6A
:101BF00006992868C007D2D00520FFF7E3FB0699B5
:101C00002868C007CBD00520FFF7DCFB06992868C1
:101C1000C007C4D00520FFF7D5FB06992868C00788
:101C2000BDD00520FFF7CEFB06992868C007B6D0C7
:101C30000520FFF7C7FB06992868C007AFD005202D
:101C4000FFF7C0FB06992868C007A8D005200490BC
:101C5000FFF7B8FB2868994D05982860069838600A
:101C600038643C6138613C60049D2846FFF7AAFB5C
:101C7000069838602846FFF7A5FB90480599016053
:101C80000698386038643C61386105463C60049CC5
:101C90002046FFF797FB3D602046FFF793FBF51CBE
:101CA00010E005982860396039643C6139613C6016
:101CB000052420460D46FFF785FB3D602046FFF7D3
:101CC00081FB0025E8B207B0F0BD05263046FFF7DE
:101CD00079FB2068794805990160794F3D603D6442
:101CE000029C3C613D613C603046FFF76BFB3D6010
:101CF0003046FFF767FB0598704908603D603D641A
:101D00003C613D613C603046FFF75CFB3D6022E09A
:101D1000052630460C46FFF755FB286867480599AD
:101D20000160674F3C603C64029D3D613C613D60E9
:101D30003046FFF747FB3C603046FFF743FB059812
:101D40005E4908603C603C643D613C613D603046FA
:101D5000FFF738FB3C603046FFF734FBB2E7C04684
:101D60000480424090120A408100040080130A401F
:101D7000F0B581B0514A81211160514F01243C607E
:101D80003C6402253D61009040B21037002838467F
:101D900000DA4B4804602046FFF714FB4848056012
:101DA00005263046FFF70EFB454805613046FFF734
:101DB00009FB00984006384600D54148046020469B
:101DC000FFF700FB3E4805603046FFF7FBFA3C4852
:101DD00005613046FFF7F6FA00988006384600D5D0
:101DE000374804602046FFF7EDFA35480560304675
:101DF000FFF7E8FA324805613046FFF7E3FA00984A
:101E0000C006384600D52E4804602046FFF7DAFAAF
:101E10002B4805603046FFF7D5FA29480561304662
:101E2000FFF7D0FA00980007384600D52448046030
:101E30002046FFF7C7FA224805603046FFF7C2FA8E
:101E40001F4805613046FFF7BDFA00984007384645
:101E500000D51B4804602046FFF7B4FA1848056017
:101E60003046FFF7AFFA164805613046FFF7AAFA89
:101E700000988007384600D5114804602046FFF7D7
:101E8000A1FA0F4805603046FFF79CFA0C4805613F
:101E90003046FFF797FA0098C00700D0084F3C6023
:101EA0002046FFF78FFA064C25603046FFF78AFA86
:101EB00025613046FFF786FA01B0F0BD048042404C
:101EC00090120A40F0B589B001AC0FC468273B21DD
:101ED000062507AC38462A462346FFF731FB432147
:101EE00005AE38462A463346FFF72AFB6078079945
:101EF0000902081801990880E078A17809020818F9
:101F000002990880607908990902081803990880E5
:101F1000707805990902081804990880F078B1785A
:101F2000090208180E9908807079069909020818A4
:101F30000F99088009B0F0BDF0B589B0FFF7FFFA3E
:101F400008AB01241C7007AD0020287006AF0920E3
:101F5000387005A900910620087004A90291182084
:101F6000087003A90191087068266B21304622464B
:101F7000FFF74EFD6C21304622462B46FFF748FD09
:101F80001921304622463B46FFF742FD1A213046D2
:101F90002246009BFFF73CFD1C2130462246019B58
:101FA000FFF736FD1B2130462246029BFFF730FD2E
:101FB00009B0F0BDF0B581B000252E4C01F006FD52
:101FC0002B4E3068216902F0ADFD206170686169B7
:101FD00002F0A8FD6061F068E16902F0A3FDE06134
:101FE0003069216A02F09EFD20627069616A02F028
:101FF00099FD6062B068FEF7DFFC1F4A1F4BFEF7D9
:1020000087FB06460F46A069FEF7D6FC02460B4644
:1020100030463946FEF77CFBFEF7C0F9A0610A2086
:10202000FFF716F9681C632D0546C7D32069144DC8
:102030002946FEF7EBFC206160692946FEF7E6FCC5
:102040006061A0692946FEF7E1FCA061E0692946CC
:10205000FEF7DCFCE061206A2946FEF7D7FC20622F
:10206000606A2946FEF7D2FC606201B0F0BDC0464E
:10207000C0032020480120209A999999999923C05A
:102080000000C842F0B581B0437D0025002B00D18F
:10209000ED43EB4309B20029009500DC1D46C0C8A2
:1020A0003D402524E4013259BA43521932510838CF
:1020B000002900DC009BC268134085682E599643B6
:1020C000F2182A51CA175140891A0369027D18462D
:1020D000FFF77AF801B0F0BDF0B583B00120060734
:1020E000C7070020524C00900290C0B20190009DA2
:1020F000294600F0C1FB4F4920683043206020682A
:1021000038432060206808402060781E2168014024
:102110002160782000F01CF8402000F019F8002021
:1021200000F016F8434920680840206020683843D2
:102130002060206830432060681C45B2002DDBD54C
:102140000298401C01990729CED303B0F0BDC046C8
:10215000F0B537490A68374C2240802303405B05BD
:10216000D2180A60344A531C0D681D430D600D6877
:1021700015400D6001252D0786052E400F6827406C
:10218000BE190E600E681E430E600E6816400E608B
:10219000C6052E400F682740BE190E600E681E430C
:1021A0000E600E6816400E6006062E400F6827402F
:1021B000BE190E600E681E430E600E6816400E605B
:1021C00046062E400F682740BE190E600E681E435B
:1021D0000E600E6816400E6086062E400F6827407F
:1021E000BE190E600E681E430E600E6816400E602B
:1021F000C6062E400D682540AD190D600D681D43C3
:102200000D600D6815400D600D682540C007C008C1
:1022100028180860086818430860086810400860BB
:10222000086818430860086810400860F0BDC046A0
:1022300080120A40FFFFFFEFFFFFFF7FF0B585B080
:102240000120C707FC4E316839433160040730680C
:10225000204330603068204330603068384330605D
:102260003068F649084030607D1E3068284001958E
:10227000306078200290FFF76BFF00200490FFF79A
:1022800067FFAE20FFF764FF3068EC49084030601C
:102290003068384330603068204330603068204315
:1022A00030603068384330603068084030603068F3
:1022B00028403060029D2846FFF74AFF0498FFF748
:1022C00047FFD520FFF744FF3068DC490840306005
:1022D00030683843306030680394204330603068A1
:1022E00020433060306838433060306808403060E8
:1022F0003068019C204030602846FFF729FF049D8C
:102300002846FFF725FF8020FFF722FF3068CB49E2
:102310000840306030680097384330603068039A76
:1023200010433060306810433060306838433060AC
:10233000306808403060306820403060029F384686
:10234000FFF706FF2846FFF703FFA820FFF700FF6F
:102350003068BA49084030603068009C20433060E3
:102360003068039B18433060306818433060306831
:10237000204330603068084030603068019D28405C
:1023800030603846FFF7E4FE0498FFF7E1FE3F2097
:10239000FFF7DEFE3068A949084030603068274604
:1023A000204330603068039C204330603068204315
:1023B00030603068384330603068084030603068E2
:1023C00028403060029D2846FFF7C2FE0498FFF7C0
:1023D000BFFED320FFF7BCFE30689849084030604C
:1023E00030683843306030682043306030682043C4
:1023F00030603068384330603068084030603068A2
:102400000199084030602846FFF7A2FE049D284647
:10241000FFF79EFE2846FFF79BFE3068874908407D
:102420003060306838433060306820433060306856
:1024300020433060306838433C46306030680840A4
:1024400030603068019D284030600298FFF780FEC0
:10245000049F3846FFF77CFE4020FFF779FE306886
:10246000764A104030603068204330603068039B0B
:102470001843306030681843306030682043306063
:10248000306810403060306828403060029D284637
:10249000FFF75EFE3846FFF75BFEA120FFF758FE10
:1024A0003068F4490840306030682043306030685C
:1024B000039A104330603068104330603068204326
:1024C000274630603068084030603068019C20400A
:1024D00030602846FFF73CFE049D2846FFF738FE93
:1024E000C820FFF735FE3068E249084030603068A8
:1024F000384330603068039A1043306030681043CE
:102500003060306838433060306808403060306890
:1025100020403060029F3846FFF71AFE2846FFF73A
:1025200017FEDA20FFF714FE3068D2490840306009
:102530003068009C204330603068039B1843306053
:10254000306818433060306820433060306808409D
:1025500030603068019D284030603846FFF7F8FD54
:102560000498FFF7F5FD1220FFF7F2FD3068FC49F3
:10257000084030603068204330603068039A104370
:102580003060306810433060306820432746306048
:10259000306808403060306828403060029C204637
:1025A000FFF7D6FD0498FFF7D3FD8120FFF7D0FD9C
:1025B0003068EB4A10403060306838433060306833
:1025C000039908433060306808433060306838430E
:1025D00030603068104030603068284030602046FD
:1025E000FFF7B6FD049C2046FFF7B2FDCF20FFF7B2
:1025F000AFFD3068DA4A10403060306838433060F0
:1026000030680399084330603068084330603068B0
:1026100038433060306810403060306828403060A7
:10262000029F3846FFF794FD2046FFF791FDD92021
:10263000FFF78EFD04E0C04680120A40FFFFFFEF67
:102640003068C74B184030603068009908433060EC
:102650003068039A1043306030681043306030684F
:10266000084330603068184030603068019C20407A
:1026700030603846FFF76CFD049D2846FFF768FD83
:10268000F120FFF765FD3068F84A1040306030688F
:10269000009F3843306030680399084330603068E9
:1026A0000843306030683843306030681040306034
:1026B0003068204030600298FFF74AFD2846FFF757
:1026C00047FDDB20FFF744FD3068E84908403060F3
:1026D0003068384330603068039C20433060306895
:1026E00020433060306838433060306808403060E4
:1026F0003068019D284030600298FFF729FD04985A
:10270000FFF726FD3020FFF723FD3068D74908404A
:102710003060306838433060306820433060306863
:1027200020433060306838433060306808403060A3
:10273000306828403060029D2846FFF709FD049864
:10274000FFF706FDA420FFF703FD3068C7490840E6
:102750003060306838433060306820433060306823
:102760002043306030683843306030680840306063
:1027700030680199084030602846FFF7E9FC049D65
:102780002846FFF7E5FCA620FFF7E2FC3068B749D2
:102790000840306030683843306030682043306033
:1027A000306820433060306838433C4630603068E1
:1027B000084030603068019908403060029F384618
:1027C000FFF7C6FC2846FFF7C3FC8D20FFF7C0FCCF
:1027D0003068A649084030603068254620433060A4
:1027E0003068039C2043306030682043306030689C
:1027F00028433060306808403060306801990840F4
:1028000030603846FFF7A4FC049F3846FFF7A0FC71
:102810001420FFF79DFC3068944908403060306810
:102820002843306030682043306030682043306097
:102830003068284330603068084030603068019963
:10284000084030600298FFF783FC3846FFF780FCB1
:10285000AF20FFF77DFC3068844908403060306865
:1028600028433060306820433060FFF735FC05B006
:10287000F0BDC046FFFFFFEFF0B585B002910090BC
:1028800001200407784F396821433960C50738684B
:10289000284338603868754908403860691E3868D0
:1028A00008400E460191386078200490FFF750FCF4
:1028B00000200390FFF74CFCB02000990843FFF77D
:1028C00047FC3868694908403860386828433860F0
:1028D00038682043386038682043386038682843B7
:1028E000386038680840386038683040386004988C
:1028F000FFF72EFC0398FFF72BFC029E30091030E7
:10290000FFF726FC38685949084038603868284382
:102910003860386820433860386820433860386849
:1029200028433860386808403860386801990840A2
:1029300038600498FFF70CFC0398FFF709FC0F20A0
:102940003040FFF705FC386848490840386038686F
:102950002843386038682043386005B0F0BDC04671
:10296000FFFFFFEFF0B587B0154640000390801ED3
:10297000C0B2C9000839C9B20291FFF77DFF280132
:102980003749019040183749401804900120010749
:10299000C2070025344F354B06913868084338602C
:1029A000386810433860386818403860511E3868FD
:1029B000059108403860782014461E46FFF7C8FB92
:1029C0004020FFF7C5FB0498405DFFF7C1FB33468D
:1029D00022460699386830403860386820433860AD
:1029E0003868084338606D1C082DD6D10398401E06
:1029F000C0B20299FFF740FF33462246069901987C
:102A0000184D2818164D40190830049000253868D4
:102A100008433860386810433860386818403860B8
:102A200038680599084038607820FFF791FB40200E
:102A3000FFF78EFB0498405DFFF78AFB3346224682
:102A40000699386830403860386820433860386804
:102A5000084338606D1C082DD9D107B0F0BDC046C1
:102A6000844E000000FEFFFF80120A40FFFFFFEFD0
:102A7000F0B587B003AC0FC4002B3CD00698451EC0
:102A8000801E01900026494F029513E00121049811
:102A90003418059801F006FD0A21FDF77FFB30226E
:102AA0000A43E1B20398FFF75DFF6D1E761C06989E
:102AB000864220D002988642E8D003200199891BE3
:102AC000032901D2012105E02A46824301217943ED
:102AD000121FFCD1F243069BD2180240D7D0012A24
:102AE00001D10A2005E0022A02D07D20C00000E0CA
:102AF00064204143CBE707B0F0BDC046F0B587B0D6
:102B0000069314460D46002A049005D405942B2202
:102B10002946FFF727FF05E02D222946FFF722FF70
:102B200064420594069800283ED00698471E801EF1
:102B30000190681C029000251C4E039713E00121B0
:102B400002984419059801F0ADFC0A21FDF726FB17
:102B500030220A43E1B20498FFF704FF7F1E6D1C88
:102B60000698854220D003988542E8D00320019939
:102B7000491B032901D2012105E03A468243012184
:102B80007143121FFCD1EA43069BD2180240D7D0F2
:102B9000012A01D10A2005E0022A02D07D20C000CE
:102BA00000E064204143CBE707B0F0BD10270000F0
:102BB000F0B581B00646107800280DD014460D46B9
:102BC00000277919C9B2C2B23046FFF7CBFE7F1C8D
:102BD000F8B2205C0028F4D101B0F0BDF0B585B0AA
:102BE00004910446C6694E480568A81BFEF728F8FC
:102BF0004C49FDF70BFF002E07D007467F20C1058B
:102C0000384601F087FD002804D1202001212154FD
:102C100000276761E5612068049902F047F80646DD
:102C2000A5680021284601F05FFD00283BD10295F0
:102C300000253846294601F057FD002833D12020D1
:102C4000205C0128039605D12046203005700195AF
:102C5000049E09E02169049E304602F08BF8394653
:102C6000FDF7D4FE0190A56926612F48016838461A
:102C700001F058FF01463846FDF7C8FE06460198A8
:102C8000294602F077F80146304602F00FF829464F
:102C900001F048FF0146A061029802F007F803998D
:102CA00001F040FF064665680021284601F01CFD42
:102CB00000282ED10021384601F016FD002828D129
:102CC00003962846049901F0F1FF394601F0EEFF22
:102CD000616901F027FF0746A6897042FDF7A8FF4A
:102CE00005463846294601F022FD002800D13D4620
:102CF0003046FDF7A5FF06462846314601F0FFFCA9
:102D0000002800D12E4666610398314601F00AFF83
:102D100006463046FDF72AFF00B205B0F0BDC046BA
:102D2000BC03202000007A444800202000210161DB
:102D300041618161C161103001747047B0B5174CB9
:102D400017492046FEF77AFA16492046FEF752FA4E
:102D50000322D103144803688B43036003691349BA
:102D60000B401A330361436913433C22934343618D
:102D700043680122134044689443E318436093027C
:102D80000B4C25681D432560FF310A4B1C680C4025
:102D90001C60016811430160B0BDC04600001040D6
:102DA0007454000076540000001110400000FFFF32
:102DB000281010400CE400E010B52B4985228A64ED
:102DC00001231C0229480460CA645A02026082225C
:102DD0008A65274ACA65274A8A61274A4A63812346
:102DE0008B604B61254A1365536553669366244C8B
:102DF0009462D462946394644B600B608C63CC6384
:102E00000C664C661F4911605160D164916051633A
:102E1000014630391C4A0A60014640391B4A0A60A3
:102E20001B4901603F2000061A490A6802430A60F4
:102E30000F2000034A6802434A6017480168174A96
:102E40001143016016480168164B0B43036041684B
:102E5000114341604720800413490A6A02430A6211
:102E60000A6802430A6010BD04804240D0120A4042
:102E7000820004008100010081000200888042403D
:102E800081000500810006000400000F830000900F
:102E90008700009F08150A40A0330A40F003030092
:102EA00008350A40F0000F0028300A4070B582B0A3
:102EB000194C1A492046FEF78FF919492046FEF7AA
:102EC00045F800250095204629462A462B46FEF760
:102ED0006FF9204629462A46FEF75CF92046294626
:102EE0002A46FEF771F901260096204629462A4611
:102EF0002B46FEF75DF9204629463246FEF74AF991
:102F0000204629463246FEF75FF9064886600321CF
:102F1000016002B070BDC0460000864080540000D1
:102F200084540000001186401048002101600320F5
:102F3000C0430F490A46083A1368034013600A6801
:102F4000012082430A6002020B6893430B60020374
:102F5000091F0B6813430B60FF210902054A136820
:102F60008B438003181810607047C04608030B405D
:102F700008010B4000E400E010B517481749FDF7C1
:102F8000BFFF17484168174A0A4003210904511836
:102F900041608168144A0A4001214B06D2188260C0
:102FA000124A00231360516002239360104A426169
:102FB0008A02104B1C6A14431C621C6814431C6078
:102FC000FF2212020C4B1C6894438A03A2181A6059
:102FD00002680A43026010BD002000408C540000CB
:102FE00000310040FEFFECFFF8FFE0E080310040E0
:102FF000409C00002830004004E400E080B500F070
:103000001BF8FFF7D9FEFFF78FFFFFF74FFF00F028
:1030100065F800F041F8FFF791FEFFF7ADFF74206F
:10302000034900220A54B82002490A5480BDC04610
:103030003403202078022020F0B581B00D480E49DD
:1030400041600E4A51600E4B59600E4C61600E4D4E
:1030500069600E4E71600E4F79600E49016011601B
:10306000196021602960316039601020FDF768FF28
:1030700001B0F0BD00080A40030000B100280A407A
:10308000000886400048084000888640000810403C
:10309000002800400100002610B50B4C0B492046CB
:1030A000FEF79AF80A492046FDF7FEFF0948016835
:1030B000012211430160FF20000219490B6883437C
:1030C0000B600548026010BD0080864094540000EB
:1030D00098540000289086400891864010B50C4C0A
:1030E0000C492046FEF778F80B492046FDF7DCFF37
:1030F0000A48016801221143016009480168C023A0
:103100000B433F218B4303600648026010BDC0465D
:1031100000400840AC540000B05400002850084063
:1031200010E400E00851084000218171818070475F
:10313000F0B585B09B480068C0B2012800D033E3E9
:10314000994B1868994F39784007C00F4018039081
:103150003870186879780007C00F401802907870AE
:103160001868B978C005C00F40180190B870904930
:103170000C8800250D808F490C808F490A880D80AE
:103180008E490E888E4C26804C888E480480898813
:103190008D480491018051428C4A11801968FA7857
:1031A0008905C90F8B18FB70894A1178012962D0F3
:1031B000002900D0E8E0874F3978042900D194E055
:1031C00003297DD0022900D0E0E08349098801204D
:1031D0008C42009000D828468E42009C00D82C4695
:1031E000044304988842009900D829460C43012CD6
:1031F00013D17A49104600224A6179494A617949D6
:103200004A6179490968794A116079490978491E02
:103210004A1E914102460170397076490F78019833
:10322000C1B201200024B942054600D82546164601
:103230000299C9B2B942014600D82146039AD2B2D6
:10324000BA42009A00D80A46002A009900D12946BD
:10325000DAB2BA4200D82046002900D10090009886
:10326000012800D090E004205A49087000203070F6
:103270004E490398F3E060480088864200D383E01B
:10328000844200D380E0049981427DD2584D287851
:10329000411E012944D84F480221017000201070BE
:1032A000424908604D4948614D4948614D4948616E
:1032B00052480178491C0170C8B2012852D85FE019
:1032C0004F4C20880A3020804E49098880B28842BD
:1032D0005AD902203870002515703448056000F076
:1032E00027FC4949086025804EE015463A48028887
:1032F000012000219442044600D80C469642034621
:1033000000D80B462343049C944200D8084603434C
:10331000012B39D136480078012827D100202DE033
:10332000C01E01282CD82B480321017000241470E2
:103330001E480460324801210180344E3078401C20
:103340003070174600F0F4FB3A4631490860307897
:103350002978032901D1012803D8042910D108288C
:103360000ED314701B480021017009E01C48002195
:1033700041611A4841611B48416101203870287041
:10338000194800681949086012480178042900D9D1
:103390000AE2C0467944097949008F443BA4687A1F
:1033A0005C00C0462050084080330A40B40320200F
:1033B00074022020FA0320207202202050022020D4
:1033C000AE032020AC032020B0032020F8032020EF
:1033D000BA0320204C0020207201202078012020F8
:1033E000E400202020012020BC03202064022020B3
:1033F000E80320208400202070012020FE032020EC
:10340000C4012020BC0120205C022020FF032020DA
:10341000C00120200025EC48405FFDF709FC014673
:10342000F648006801F042FC0146ED48FFF7D6FB84
:10343000F34C2080E048405FFDF7FAFB0146F1487D
:10344000006801F033FC0146E648FFF7C7FBEF498F
:10345000088020889EE1E6480778D6490878C0B2FF
:10346000B8424FD9E448008840004542C6E0D748FA
:103470000078411E01294CD8DB4800780128D24C45
:103480006DD000287BD100F053FBEA4901F04AFBE4
:103490006FE0CF480088002800D185E1CD48007852
:1034A000072800D9EFE001218140A822114200D174
:1034B000E9E08000D6490958C748006801F032FBAE
:1034C000D449086000F034FBD34901F030F90546D7
:1034D00000F02EFB0446D14901F024FB002D00D062
:1034E000DCE02046DAE0B7480088B4490988D34ACE
:1034F0001288B34B1B88934218D9081AD049088008
:10350000B14DF8E04878B84219D9BB480088454227
:1035100074E0C01E0128AC4C31D800F009FBB3495F
:10352000096801F027FC0146BD4824E08142A64D10
:103530000BD94018C34909884900081A0CE088785B
:10354000B84254D9AC48058858E000D3D1E04018BF
:10355000BC4909884900401AB9490880CBE000F00D
:10356000E7FAFDF729FAB04AB04BFDF7D1F8FCF7BE
:1035700015FF0146AE48FFF731FBAA490880002637
:10358000A05FFDF755FB0446A648805FAA4F398827
:103590004018FDF74DFB054698480168204601F0AC
:1035A00085FB294601F0E6FB01468D48FFF716FB37
:1035B000934908808048805FFDF73AFB04469948AC
:1035C000805F3988081AFDF733FB05468D4801688E
:1035D000204601F06BFB294601F0CCFB01468148F7
:1035E000FFF7FCFA8949088085480088D2E0C8784E
:1035F000B84200D8DAE08048008845007D48058060
:1036000000267148805FFDF713FB044628B2FDF7E2
:103610000FFB054679480168204601F047FB294623
:1036200001F0A8FB01466E48FFF7D8FA744F3880C6
:103630006148805FFDF7FCFA04466E48805F4042B7
:10364000FDF7F6FA05466F480168204601F02EFBAB
:10365000294601F08FFB01466248FFF7BFFA6A492D
:10366000884200DC0846E1225201904200DB10460D
:10367000664B1880B85F884200DC0846904200DB49
:103680001046388086E08000614909585248006839
:1036900001F048FA5F49086000F04AFA4A4D5D4976
:1036A000096801F067FB01465D48FFF797FA044699
:1036B0005C4F38800026A85FFDF7BAFA0546204621
:1036C000FDF7B6FA04464D480168284601F0EEFAC7
:1036D000214601F04FFB01464148FFF77FFA484978
:1036E00008803548805FFDF7A3FA0446B85F404282
:1036F0002DE05348008800B2FDF79AFA014637489A
:10370000FFF76CFA0446504804800026A85FFDF7D6
:103710008FFA0546484F38880019FDF789FA0446A4
:1037200036480168284601F0C1FA214601F022FB23
:1037300001462B48FFF752FA314908801E48805F46
:10374000FDF776FA04464048805F3988081AFDF78D
:103750006FFA05462B480168204601F0A7FA294672
:1037600001F008FB01461F48FFF738FA2649884256
:1037700000DC0846E1225201904200DB1046234B58
:1037800018801F4B985F884200DC0846904200DB9F
:103790001046188001B22D48FEF774FC00201B492A
:1037A000095E2B48FEF76EFC05B0F0BD1148058898
:1037B00026E7C046B4032020FA032020AE032020D1
:1037C000AC032020B0032020F8032020E8032020B1
:1037D000C4012020FF032020C001202078012020E8
:1037E000E400202020012020FE0320205C02202075
:1037F000840020206E0220204E0020207C0020200B
:10380000B803202080002020E0E3FFFFF003202009
:103810009C01202000042020000034430000B44319
:10382000C8012020080420209A99999999895DC09F
:1038300054002020000034C35000202088002020A5
:10384000FC0320208600202060022020CC002020C5
:103850000801202004480068C0B2012803D10348B1
:103860000168491C0160704720908640BC032020FD
:1038700080B501467F20C005FDF7C8F80149086002
:1038800080BDC0468C002020F0B581B03848056866
:1038900038480168284601F009FA044636480068AD
:1038A00036490F68394601F001FA214601F03AF92C
:1038B00006463846394601F0F9F901463F2004062C
:1038C000204601F057FA07462846294601F0EEF94E
:1038D0000146384601F04EFA0146304600F0BEFF80
:1038E0009249086022480068234F396801F0DEF9E8
:1038F0000546224800681F4E316801F0D7F901469D
:10390000284601F037FA014601F00CF900F01AFFE1
:103910007E49086038683568294601F0C7F90646CF
:103920001648006812490F68394601F0BFF9314660
:1039300001F0F8F806463846394601F0B7F9014675
:10394000204601F017FA04462846294601F0AEF950
:103950000146204601F00EFA0146304600F07EFF97
:103960007C4908607A480121017001B0F0BDC04671
:10397000E0032020E403202074012020DC03202029
:10398000B0B500F023F8574C20680F4D296901F0BD
:10399000F1F920606068696901F0ECF96060A06885
:1039A000A96901F0E7F9A060E068E96901F0E2F9CE
:1039B000E0602069296A01F0DDF920616069696AC7
:1039C00001F0D8F96061B0BD48012020F0B583B0A6
:1039D0003C4801903C4800903C483D493D4A3E4CA3
:1039E0002346FEF76FFA0026A05FFDF721F90721B5
:1039F000CD06294601F05AF9384901F057F9384FF8
:103A0000394601F053F9374CE0602F48805FFDF7ED
:103A10000FF9294601F04AF9304901F047F93946D2
:103A200001F044F920612748805FFDF701F929463C
:103A300001F03CF9294901F039F9394601F036F92C
:103A400060612248805FFDF7F3F8294601F02EF906
:103A50008321CF05394601F029F9FCF7ADFF224C4F
:103A6000224B2246FCF784FEFCF798FC1D490860B7
:103A70001748805FFDF7DCF8294601F017F9394651
:103A800001F014F9FCF798FF2246184BFCF770FE82
:103A9000FCF784FCF24948600E48805FFDF7C8F8E7
:103AA000294601F003F9394601F000F9FCF784FFDB
:103AB00022460E4BFCF75CFEFCF770FCE849886080
:103AC00003B0F0BD6C0220206A02202056022020A4
:103AD000580220205A022020680220200000FA44C8
:103AE00000006040C00320209A9999999999234039
:103AF00080B517480078002801D1FFF7C5FE0348BC
:103B00000068154901F0D2F880BDC046D8032020D6
:103B100080B50F480078002801D1FFF7B5FE0348B3
:103B200000680D4901F0C2F880BDC046F4032020B2
:103B300080B507480078002801D1FFF7A5FE0548A9
:103B40000068054901F0B2F8044900F0EBFF80BDC0
:103B50007002202004042020E12E6542000034433E
:103B600088B0FFF74BFAFEF769FB9C4800684142BA
:103B700041419B4E3078424242410A43012A57D18B
:103B80000120079001E0002852D00127384639462D
:103B900094A2FFF70DF832780B25384629463B46AC
:103BA000FEF766FF02242046394692A2FFF700F88E
:103BB0008A480068002801D094A200E091A2204623
:103BC0002946FEF7F5FF9348FDF798FC012800D140
:103BD00037709148FDF792FC012801D10220307026
:103BE0008E48FDF78BFC012801D1032030708C48F2
:103BF000FDF784FC012801D1042030708948FDF7CD
:103C00007DFC012801D1754807603078411E0229EA
:103C100003D3C11E012902D8032483490C706F49C4
:103C20000A685142514100280798ACD00846AAE7DB
:103C3000012460047D4D28607D4E30607D48FFF793
:103C400073FA7D48FFF772F87C48FFF76FF87C48FD
:103C5000FFF76CF87B48FFF769F87B48FFF766F8D9
:103C60007D200001FDF7F4FA78480078FCF7E8FFC2
:103C700001467748FCF7CAFEFFF7FAFDFEF75CF94C
:103C8000FEF798F9600328603060022028603060F9
:103C900020202860306020026E490A6802430A60D2
:103CA0002004286030606D4F684B9868D9683A6886
:103CB0000026101A32468A411978401AB2410DD3B3
:103CC000386862498860CE60FFF75AFE644A38CA95
:103CD000003207CA0094019500F0D6F8039602243A
:103CE0000121079120465FA2FEF762FFFFF720FF48
:103CF000FCF73CFF02460825032720462946069587
:103D00003B46FEF7FBFEFFF713FF584900F0CEFFDE
:103D1000FCF752FF64210491FCF740FA0A460D2695
:103D20002046314605962346FEF7A2FE38460799FF
:103D30004FA2FEF73DFFFFF7EBFEFCF717FF024631
:103D4000384629463B46FEF7D9FEFFF7E1FE4749D4
:103D500000F0ACFFFCF730FF049D2946FCF71EFA8B
:103D60000A46384631462346FEF782FE0426304690
:103D7000079941A2FEF71CFFFFF7BAFEFCF7F6FE1B
:103D80000246304606993B46344FFEF7B7FEFFF732
:103D9000AFFE364900F08AFFFCF70EFF2946FCF71C
:103DA000FDF90A46304605992346FEF761FE344B7D
:103DB0001868002800D177E727490E608020086145
:103DC00019683A68511A2F4A914200D26CE7224989
:103DD0000E6108600398186066E7C046EC03202077
:103DE000E80320207175657374696F6E3A20202096
:103DF00020200000636F6E666F726D3A20202020D5
:103E00002020000044495341424C4500454E414268
:103E10004C450000900020209C002020A80020207D
:103E2000B4002020C00020204C00202080E200E0D0
:103E300000E100E000002020780120205400202034
:103E4000C8012020E400202020012020480120205B
:103E500000007A440431004090120A40BC03202044
:103E6000C00320205961773A000000000000C842DA
:103E7000526F6C6C3A00000050697463683A00003D
:103E80006402202021030000F0B59BB01393154677
:103E90000C46514E314600F009FF07462046314698
:103EA00000F004FF044616902846314600F0FEFE5E
:103EB00018900120C107494800681A9041402046E7
:103EC00000F0F4FE054646480068199039463C4625
:103ED000109700F0EBFE0146284600F04BFF054628
:103EE000404806683046189F394600F0DFFE01461C
:103EF000284600F03FFF3F210906149100F0D6FE4E
:103F0000159038461A9900F0D1FE074636480568E4
:103F10002846214600F0CAFE394600F003FE074657
:103F20003046169C214600F0C1FE0146384600F09E
:103F300021FF149900F0BAFE12901898199900F018
:103F4000B5FE07462846214600F0B0FE394600F08F
:103F500011FF074617963046109E314600F0A6FE28
:103F6000394600F0DFFD149F394600F09FFE1190A6
:103F70002046199900F09AFE04461695284618998D
:103F800000F094FE214600F0CDFD04461A9831461B
:103F900000F08CFE0146204600F0ECFE394600F0B1
:103FA00085FE1890002113980646149100F09CFBA2
:103FB000219F209C002819D00021204600F094FB6E
:103FC000002813D00021384600F08EFB00280DD0C9
:103FD000159A129D119CD1E139FA8E3CE003202004
:103FE000DC032020E4032020740120202046214609
:103FF00000F05CFE05463046314600F057FE29468B
:1040000000F090FD054608973846394600F04EFE10
:10401000294600F087FD4610BF2109060B9100F0EC
:1040200045FE0546D448871B2846394600F03EFE2B
:10403000394600F03BFEFF218E0531460A9600F01E
:1040400071FD394600F032FE07462846394600F039
:104050002DFE394600F02AFE314600F063FD014690
:10406000384600F023FE06460690139900F01EFE27
:10407000054613903046214600F018FE0646109083
:104080001A981A9900F04EFD01460990284600F052
:104090000DFE05468120C1050E91169800F006FE22
:1040A00004461A981A9900F001FE01460F90204626
:1040B00000F0FCFD294600F035FD0546199F384605
:1040C000394600F0F3FD01460D90204600F0EEFD6C
:1040D000294600F027FD054603208407384621467F
:1040E00000F0E4FD0790314600F0E0FD294600F0C5
:1040F00019FD0C90179D2846214600F0D7FD01467A
:104100000590139800F0D2FD039038460E9E31467C
:1041100000F0CCFD044601902846294600F0C6FD7B
:1041200001460490204600F0C1FD039900F0FAFC1E
:10413000044616980146054600F0B8FD314600F0E9
:10414000B5FD0290394600F0B1FD214600F0EAFCD1
:1041500006462846294600F0E5FC0446109900F082
:10416000A5FD0146304600F005FE019D294600F000
:1041700001FE0646412001060391384600F096FDF7
:1041800007460D9900F092FD314600F0CBFC064643
:1041900038460F9900F08AFD314600F0C3FC07460F
:1041A0000698089900F082FD01460690284600F026
:1041B0007DFD394600F0B6FC0890014600F076FD22
:1041C00005460C98014600F071FD294600F0AAFC56
:1041D00001901398214600F069FD044602981A994F
:1041E00000F064FD214600F09DFC07461A980E99E8
:1041F00000F05CFD0446049900F058FD394600F0DB
:1042000091FC07460598109900F050FD394600F0E2
:1042100089FC214600F0AEFD07461A98039900F08C
:1042200045FD05460D9E314600F040FD394600F043
:1042300079FC074628460F9900F038FD394600F012
:1042400071FC05462046069900F030FD294600F035
:1042500069FC0690014600F029FD019900F062FC1E
:1042600005461398079900F021FD044630460E9F3D
:10427000394600F01BFD179E314600F017FD214620
:1042800000F050FC04460F98394600F00FFD31460F
:1042900000F00CFD214600F045FC044609981099F9
:1042A00000F004FD0146204600F064FD1390014635
:1042B00000F0FCFC294600F035FC46100B9900F09C
:1042C000F5FC05467348861B2846314600F0EEFC97
:1042D000314600F0EBFC0A9C214600F023FC3146FD
:1042E00000F0E4FC06462846314600F0DFFC31468B
:1042F00000F0DCFC214600F015FC0146304600F0E1
:10430000D5FC05460C98294600F0D0FC01466248D1
:104310000668304600F0CAFC0146159800F02AFDF8
:1043200015900898294600F0C1FC0146304600F07F
:10433000BDFC0146129800F01DFD0746069829466F
:1043400000F0B4FC0146304600F0B0FC0146119884
:1043500000F010FD0446139829463D4600F0A6FCE7
:104360000146304600F0A2FC0146189800F002FD1C
:10437000159A189002E0C046DF59375F47481499F4
:104380000170474807681046394600F08FFC1699BF
:1043900000F0C8FB16902846394600F087FC1999B2
:1043A00000F0C0FB05462046394600F07FFC1A9914
:1043B00000F0B8FB06461898394600F077FC1799CC
:1043C00000F0B0FB074619952846294600F06EFC20
:1043D00004461698014600F069FC214600F0A2FB55
:1043E00004461A963046314600F060FC214600F043
:1043F00099FB04463846394600F058FC214600F047
:1044000091FB4410BF21090600F050FC05462148ED
:10441000041B2846214600F049FC214600F046FCDA
:10442000FF218E05314600F07DFB214600F03EFC69
:1044300004462846214600F039FC214600F036FCAF
:10444000314600F06FFB0146204600F02FFC054688
:104450001698294600F02AFC0D490860199829464B
:1044600000F024FC084908601A98294600F01EFC58
:10447000044908603846294600F018FC03490860E2
:104480001BB0F0BDE0032020DC032020E40320204B
:1044900074012020DF59375F78002020700220202F
:1044A0008C00202043088B421AD3002203098B4240
:1044B00079D3030A8B425ED3030B8B4242D3030CA6
:1044C0008B4227D30902FF2212BA030C8B4202D37C
:1044D0001212090203D0030B8B4233D31AE0D3E04C
:1044E000411A8041401C704703460B4371D4430876
:1044F0008B42F5D3002203098B4254D3030A8B422B
:1045000039D3030B8B421DD3030C8B4202D3944649
:104510006EE0090AC30B8B4201D3CB03C01A524190
:10452000830B8B4201D38B03C01A5241430B8B4246
:1045300001D34B03C01A5241030B8B4201D30B032F
:10454000C01A5241C30A8B4201D3CB02C01A524156
:10455000830A8B4201D38B02C01A5241430A8B4219
:1045600001D34B02C01A5241030A8B4201D30B0202
:10457000C01A5241CDD2C3098B4201D3CB01C01A1C
:10458000524183098B4201D38B01C01A5241430926
:104590008B4201D34B01C01A524103098B4201D314
:1045A0000B01C01A5241C3088B4201D3CB00C01A81
:1045B000524183088B4201D38B00C01A52414308F9
:1045C0008B4201D34B00C01A5241411A5241100094
:1045D0007047CA0F00D04942031000D340425340F5
:1045E00000229C4603098B422DD3030A8B4212D32F
:1045F0008901FC2212BA030A8B420CD38901921161
:104600008B4208D3890192118B4204D3890137D0A0
:10461000921100E08909C3098B4201D3CB01C01A72
:10462000524183098B4201D38B01C01A5241430985
:104630008B4201D34B01C01A524103098B4201D373
:104640000B01C01A5241C3088B4201D3CB00C01AE0
:10465000524183088B4201D38B00C01A5241D9D2F8
:1046600043088B4201D34B00C01A5241411A00D279
:1046700001465241104663465B1000D340427047EA
:1046800063465B1000D3404201B50021004201D0D7
:10469000C9430846C046C04602BD4100080200D0DA
:1046A00004200A0E01D001221043090EFF2901D176
:1046B00002210843012800D10520704710B50121CF
:1046C000FCF7CCFA10BD10B500F02CFA10BD10B5F7
:1046D00000210846FCF79AF910BD5E2110B5C943C8
:1046E0000807FCF7BBFA10BD10B500F061FAEFF354
:1046F0000080400001D5012010BD002010BD10B584
:1047000000F080FAEFF300804000800F012800D015
:10471000002010BD10B500F09FFAEFF300804000BC
:10472000800F012801D0012010BD002010BD10B560
:1047300000F092FAEFF30080800001D4012010BD58
:10474000002010BDF8B504464721400049060D225F
:1047500041181206914253D83F21490688421BD97D
:1047600060007F214008C90500F0F8FA0021C94324
:10477000FCF774FA074600F0BFF9002C04DA2F4D5D
:104780002D4EA907484001E02D4E2E4D03218907EB
:1047900000F08CFA044606E000262146354608461D
:1047A00000F084FA07462849384600F07FFA274986
:1047B00000F0B8F9394600F079FA254900F0B2F96D
:1047C000394600F073FA234900F0ACF9394600F09D
:1047D0006DFA214900F0A6F900903946204600F014
:1047E00065FA009900F062FA07462946204600F073
:1047F00099F9394600F096F9314600F093F9F8BD81
:1048000039214906884208D22046FFF746FF04288E
:1048100001D1FFF762FF2046F8BDFF21090688425B
:1048200003D92046FFF74AFFF8BD0120FCF710FA34
:10483000FFF74DFFF8BD00000000C9BF22AAFDB977
:104840000000C93F22AAFD3924FE1C3DC78AD83C7E
:104850001E67383D1B93993DAFAA2A3EF0B50C4622
:1048600001461D224B00D2069F18E5260546360656
:10487000620087B02046B7427BD21D27FF06D719BA
:10488000B74276D24F0043003E0E1A0EB21A1B2AD0
:1048900007DD002902DA854807B0F0BD844807B07B
:1048A000F0BD1A26F2422FDA002807DA002902DAD0
:1048B000804807B0F0BD804807B0F0BD21462846CB
:1048C000FCF7A4F80646FFF7E8FE042801D1FFF73D
:1048D00004FF2846FFF7E1FE05462046FFF7DDFE10
:1048E00004463046FFF7D9FE042D01D0052D08D12E
:1048F000042C01D0052C04D1002802D10220FCF7A1
:10490000A7F9304607B0F0BD9F4211D9002902DA5D
:104910006A4F6B4E01E06B4F6B4E23462C461D4693
:1049200001220346D20708465440504019460BE086
:10493000002807DA002902DA644F654E04E0654F6B
:10494000654E01E000263746421A012352001B063D
:104950009A422FD2484061490CD5BF2000060290F0
:10496000384600F007FA07465D49304600F002FA83
:104970000BE053E03F2000060290384600F0D2F8EA
:1049800007465749304600F0CDF8064628460299BA
:1049900000F08CF9214600F0C5F8009021460298FD
:1049A00000F084F9294600F0D9F90099FCF72EF8B7
:1049B000044604E021462846FCF728F80446014650
:1049C00000F074F94749009000F070F9464900F092
:1049D000A9F8009900F06AF9444900F0A3F8009999
:1049E00000F064F9424900F09DF8009900F05EF98A
:1049F000404900F097F805462046009900F056F926
:104A0000294600F053F9314600F08CF8214600F0B9
:104A100089F8394600F086F807B0F0BDFF26360663
:104A2000B34201D8B24205D901462846FFF74BFEF2
:104A300007B0F0BD2F4607437F000AD0B3420CD128
:104A4000B2420AD101229207904391430D46044697
:104A500018E7FF22D2051043F9E7B3420CD0470014
:104A60000AD0B2420ED04E000CD05340F0D4002AEF
:104A70000EDB9F26F6050DE0FF22D2051143E00F65
:104A8000C007FFE6C90FC907FF22D2051043F9E6A8
:104A90005F26F6053146284600F008F905463146FE
:104AA000204600F003F904462946EBE6DB0FC9BFB8
:104AB000DB0FC93FDB0F49C0DB0F49400000C9BF16
:104AC00022AAFDB90000C93F22AAFD39000049C051
:104AD00022AA7DBA0000494022AA7D3A0060ED3E3C
:104AE000C30ACE372DAD65BD8FB8D53D0FB511BE0C
:104AF00061C84C3EA8AAAABE70B50546FCF7D0F81E
:104B000041000446FF204908C005411AC90F07D0DB
:104B100069004908401AC00F02D10120FCF798F83B
:104B2000204670BD70B50125ED0704004C4020D42F
:104B3000441A01D2001B0919C60D4B00F2B2FF2A1C
:104B400029D01B0E2CD000020C0228432C43D31A70
:104B5000DC40051910D2280A02D3401C6D0611D082
:104B6000761EF6058019FF2A00DA70BDC00DC0055B
:104B700070BD694000F004F901200543C541521C95
:104B8000761CE8E764089C40C90161408900E7D1D0
:104B90000124A043E4E71B0E440200D0034870BD8B
:104BA000002AFCD1C00FC00770BD00BF0000C07F4D
:104BB0000123DB0502000A430DD4DA4203D49A42F2
:104BC00007D488427047D84214D4D94212D48842BC
:104BD000704780427047DA4203D59A42F9D5814244
:104BE00070475B004200DA4204D24A00DA4201D246
:104BF0008142704710B5024AFCF79EF810BD00BF15
:104C0000090012040123DB0502000A430DD4DA4235
:104C100003D49A4207D488427047D84214D4D94268
:104C200012D48842704780427047DA4203D59A42D4
:104C3000F9D5814270475B004200DA4204D24A0053
:104C4000DA4201D28142704710B5024AFCF774F88B
:104C500010BD00BF090013040123DB0502000A4355
:104C60000DD4DA4203D49A4207D488427047D8421E
:104C700014D4D94212D48842704780427047DA4235
:104C800003D59A42F9D5814270475B004200DA426F
:104C900004D24A00DA4201D28142704710B5024A7A
:104CA000FCF74AF810BD00BF0900160470B54200B9
:104CB00064414B005C41120E39D01B0E38D0FF2AE4
:104CC0003CD0FF2B3AD0D2187F3A40024902400A2A
:104CD000490A4518ED0106004E43000A090A4843F7
:104CE0000104731A4019190C4318990F04D05B087A
:104CF000012149075B1A521CD80904D3401CF50353
:104D000001D19D0607D0FF2A08D2D50506D0E407B9
:104D10002043401970BD0125A843F4E7002A01DCB7
:104D2000E00770BD2402FF202043C00570BD1B0EAC
:104D3000FF2A03D0FF2B01D0E00770BDFF26360607
:104D40004500B54206D84D00B54203D8D218FF2A17
:104D500000D0E7E7004870BD0000C07F70B50125B6
:104D6000ED07684004004C4002D5694000F008F8A7
:104D7000FFF7DEFE70B50125ED0704004C4022D49C
:104D8000441A02D26C40001B0919C60D4B00F2B246
:104D9000FF2A4BD01B0E50D000020C02A8432C431C
:104DA000D31ADC40051B05D5AD0019D36D08761E5E
:104DB000521E37D0F605280A01D2801970BD704105
:104DC0006D0603D070BD6940FFF7B2FE9C4009023A
:104DD0006140490001D0401E70BD0124A04370BD58
:104DE0006D081DD001202B0C01D12D0410302B0E8D
:104DF00001D12D0208302B0F01D12D01001DAB0F69
:104E000001D1AD00801CEB0F01D16D00401C361AA2
:104E1000121A6D00680AF5054019012A02DB70BDFF
:104E2000002070BDC036300AC00770BD1B0E4402A2
:104E300001D1FF2B00D1024870BD002AF0D070BD17
:104E40000000C07F8182838485868788898B8C8DD2
:104E50008E8F919293959697999A9C9D9FA0A2A3CD
:104E6000A5A7A8AAACAEB0B2B3B5B7B9BCBEC0C214
:104E7000C5C7C9CCCED1D4D7D9DCDFE2E6E9ECF0A6
:104E8000F3F7FAFE00000000000000000000000040
:104E900000000000000000F80000000000000033E7
:104EA0003000000000100C06100C0600000000008E
:104EB0000000000040C07840C0784000043F040477
:104EC0003F040400007088FC08300000001820FF38
:104ED000211E0000F008F000E018000000211C0373
:104EE0001E211E0000F00888700000001E212324EF
:104EF0001927211010160E0000000000000000000D
:104F000000000000000000E018040200000000079C
:104F10001820400000020418E000000000402018A3
:104F200007000000404080F0804040000202010F76
:104F300001020200000000F0000000000101011F5A
:104F400001010100000000000000000080B07000BE
:104F5000000000000000000000000000000101014E
:104F600001010101000000000000000000303000DD
:104F700000000000000000008060180400601806B7
:104F80000100000000E010080810E000000F1020F1
:104F900020100F00001010F8000000000020203F3B
:104FA00020200000007008080888700000302824C5
:104FB0002221300000300888884830000018202066
:104FC00020110E000000C02010F80000000704248B
:104FD000243F240000F808888808080000192120D0
:104FE00020110E0000E0108888180000000F11202A
:104FF00020110E0000380808C83808000000003FE3
:10500000000000000070880808887000001C222141
:1050100021221C0000E010080810E00000003122EE
:1050200022110F00000000C0C0000000000000308E
:1050300030000000000000800000000000008060E0
:105040000000000000008040201008000001020461
:105050000810200040404040404040000404040448
:105060000404040000081020408000000020100804
:1050700004020100007048080808F0000000003039
:1050800036010000C030C828E810E00007182724C7
:1050900023140B000000C038E0000000203C230275
:1050A0000227382008F8888888700000203F2020D8
:1050B00020110E00C030080808083800071820200A
:1050C0002010080008F808080810E000203F202001
:1050D00020100F0008F88888E8081000203F2020E2
:1050E0002320180008F88888E8081000203F2000D6
:1050F00003000000C030080808380000071820200E
:10510000221E020008F808000008F808203F2101CC
:1051100001213F20000808F8080800000020203F77
:105120002020000000000808F8080800C0808080E7
:105130007F00000008F888C028180800203F2001E0
:105140002638200008F8080000000000203F20203A
:105150002020300008F8F800F8F80800203F003F51
:10516000003F200008F830C00008F808203F200069
:1051700007183F00E01008080810E0000F1020207A
:1051800020100F0008F808080808F000203F21014F
:1051900001010000E01008080810E0000F182424A6
:1051A00038504F0008F8888888887000203F200019
:1051B000030C3020007088080808380000382021CF
:1051C00021221C00180808F8080818000000203FD9
:1051D0002000000008F808000008F808001F202040
:1051E00020201F000878880000C838080000073811
:1051F0000E010000F80800F80008F800033C070062
:10520000073C0300081868808068180820302C03C9
:10521000032C30200838C800C83808000000203FA0
:105220002000000010080808C8380800203826218F
:1052300020201800000000FE020202000000007F93
:1052400040404000000C30C00000000000000001A1
:105250000638C00000020202FE000000004040408C
:105260007F000000000004020202040000000000B1
:10527000000000000000000000000000808080802E
:105280008080808000020204000000000000000016
:1052900000000000000080808080000000192422AF
:1052A00022223F2008F8008080000000003F1120EB
:1052B00020110E000000008080800000000E1120F0
:1052C00020201100000000808088F800000E1120CE
:1052D00020103F200000808080800000001F2222DC
:1052E00022221300008080F0888888180020203F48
:1052F000202000000000808080808000006B94945B
:105300009493600008F8008080800000203F210016
:1053100000203F2000809898000000000020203FDF
:1053200020200000000000809898000000C08080CD
:10533000807F000008F8000080808000203F240269
:105340002D302000000808F8000000000020203F59
:10535000202000008080808080808000203F20000E
:105360003F20003F8080008080800000203F21009F
:1053700000203F200000808080800000001F20204F
:1053800020201F00808000808000000080FFA1207E
:1053900020110E000000008080808000000E11208F
:1053A00020A0FF80808080008080800020203F211E
:1053B00020000100000080808080800000332424D1
:1053C00024241900008080E0808000000000001F7D
:1053D000202000008080000000808000001F20202E
:1053E00020103F20808080000080808000010E30EF
:1053F0000806010080800080008080800F300C0350
:105400000C300F0000808000808080000020312E52
:105410000E312000808080000080808080818E702E
:105420001806010000808080808080000021302CE0
:105430002221300000000000807C020200000000F9
:10544000003F404000000000FF000000000000009E
:10545000FF0000000002027C800000000040403F8E
:105460000000000000060101020204040000000028
:1054700000000000040000001800000000300000E0
:1054800008070000201C00002001010001050000A9
:10549000000000030807630002000000270000006E
:1054A0000100000000000000000000000807630089
:1054B000020000008F010000010000000000000059
:1054C0000000000000000000E85400000000202060
:1054D000F00100009E0E0000A0550000F001202009
:1054E00020040000280100003103451040362472DA
:1054F000023C0254020008A3A0410217042ECDCCA6
:10550000CC3D82B8CB4250E1CC4202350A0FC409EF
:10551000350AD7233C950A400010950A40002033F5
:105520000A408280950A400040330A408240430A84
:10553000403201430A4032027386404310C062C1C8
:10554000021908430A403204430A40320855864093
:1055500001014310C062C1021B0802280A35D007AE
:10556000F00A43803F52BF07176F1283BA000450FE
:10557000233763B4C29BEBE642F7E6D9C2CD4CE9D0
:10558000420973D6C2D853E342914DD4C21311E9F4
:1055900042E80364344301A3A041021B040000005D
:04000005000000C136
:00000001FF
