:020000040000FA
:10000000680120206D0100007101000073010000F3
:1000100000000000000000000000000000000000E0
:10002000000000000000000000000000750100005A
:10003000000000000000000077010000990C0000A3
:100040007B0100007B0100007B0100007B010000C0
:100050007B0100007B0100007B0100007B010000B0
:10006000000000007B0100007B0100000000000098
:10007000000000007B0100007B0100007B0100000C
:100080007B0100007B0100007B0100007B01000080
:100090007B0100007B010000000000000000000068
:1000A0007B0100007B010000000000000000000058
:1000B0007B010000000000007B0100007B010000CC
:1000C00000F002F800F042F812A030C808382418F6
:1000D0002D18AC4201D100F039F80FCCA246AB4646
:1000E0000CA730CF2D1B083F3F197C427F1E544484
:1000F0002D090426F441641EAC4201D300F026F819
:100100000126334200D0FB1A3343984754465D46DC
:10011000DFE70000AC110000BC110000000000008F
:100120007047000000000000002300240025002686
:10013000103A01D378C1FBD8520700D330C100D5A3
:100140000B6070471FB51FBD10B510BD00F027F83C
:100150001146FFF7F7FF00F0A9FD00F03FF803B4E8
:10016000FFF7F2FF03BC00F045F800000648004727
:10017000FEE7FEE7FEE7FEE7FEE7FEE70348044989
:10018000024A044B70470000C100000068002020B4
:10019000680120206800202070477047704775462E
:1001A00000F024F8AE46050069465346C008C0007A
:1001B000854618B020B5FFF7E1FF60BCB6460026C3
:1001C0000027C0C5C0C5C0C5C0C5C0C5C0C5C0C565
:1001D000C0C5403D490849008D46704710B50446EA
:1001E000C046C0462046FFF7BAFF10BD0048704722
:1001F0000000202001491820ABBEFEE726000200C7
:100200007047811E091F00BFFCD27047F0B583B054
:100210000120060647060020514C00900290C0B213
:100220000190009D294600F0BDFB4E4920683843EF
:1002300020602068304320602068084020602068EB
:10024000B0432060782000F01BF8402000F018F840
:10025000002000F015F8434920680840206020681D
:1002600030432060206838432060681C45B2002D70
:10027000DCD50298401C01990729CFD303B0F0BD0B
:10028000F0B537490A68374C2240802303409B046D
:10029000D2180A6001252A060B6813430B600E680A
:1002A000314B1E400E606D06C6042E400F6827407D
:1002B000BE190E600E6816430E600E681E400E607A
:1002C00006052E400F682740BE190E600E681643C3
:1002D0000E600E681E400E6046052E400F682740D7
:1002E000BE190E600E6816430E600E681E400E604A
:1002F00086052E400F682740BE190E600E68164313
:100300000E600E681E400E60C6052E400F68274026
:10031000BE190E600E6816430E600E681E400E6019
:1003200006062E400D682540AD190D600D68154379
:100330000D600D681D400D600D682540C0078009E7
:1003400028180860086810430860086818400860AA
:10035000086810430860086818400860F0BDC0468F
:1003600080120A40FFFFFFFDFFFFFFFEF0B583B0E4
:1003700001200406FD4E3168214331604706306894
:100380003843306030683843306030682043306034
:100390003068F749084030603068F64908403060FE
:1003A000782528460295FFF76BFF00200190FFF7A4
:1003B00067FFAE20FFF764FF3068ED49084030600A
:1003C00030682043306030683843306030683843EC
:1003D00030603068204330603068084030603068FA
:1003E000E449084030602846FFF74AFF019D28464F
:1003F000FFF746FFD520FFF743FF3068DC49084090
:100400003060306820433060306838433060306896
:1004100038433060306820433060306808403060D6
:100420003068D449084030600298FFF729FF284619
:10043000FFF726FF8020FFF723FF3068CC490840F4
:100440003060306820433060306838433060306856
:100450003843306030682043306030680840306096
:100460003068C449084030600298FFF709FF284609
:10047000FFF706FFA820FFF703FF3068BC490840DC
:100480003060306820433060306838433060306816
:100490003843306030682043306030680840306056
:1004A0003068B449084030600298FFF7E9FE2846FA
:1004B000FFF7E6FE3F20FFF7E3FE3068AC49084057
:1004C00030603068204330603068384330603068D6
:1004D0003843306030682043306030680840306016
:1004E0003068A449084030600298FFF7C9FE2846EA
:1004F000FFF7C6FED320FFF7C3FE30689C490840D3
:100500003060306820433060306800973843306096
:1005100030683843306030682043306030680840CD
:1005200030603068934908403060029F3846FFF7DA
:10053000A7FE2846FFF7A4FE2846FFF7A1FE306875
:100540008B49084030603068204330603068009A42
:1005500010433060306810433060306820433060B2
:100560003068084030603068824908403060384662
:10057000FFF786FE2846FFF783FE4020FFF780FE48
:1005800030687B490840306030682746204330603F
:100590003068009C20433060306820433060306811
:1005A000384330603068084030603068FC490840AB
:1005B0003060029D2846FFF763FE0198FFF760FE5A
:1005C000A120FFF75DFE3068F449084030603068D4
:1005D00038433060306820433060306820433060FA
:1005E0003068384330603068084030603068EC492B
:1005F000084030602846FFF743FE0198FFF740FEB1
:10060000C820FFF73DFE3068E4490840306030689C
:100610003A463843306030682043306030682043C9
:100620002746306030681043144630603068084018
:1006300030603068DA49084030602846FFF720FE15
:100640000198FFF71DFEDA20FFF71AFE3068D34944
:100650000840306030682043306030683843306094
:100660003068384330603068204327463060306857
:1006700008400C4630603068C94908403060284660
:10068000FFF7FEFD019D2846FFF7FAFD1220FFF758
:10069000F7FD3068214620403060306838433060D4
:1006A0003068009C20433060306820433060306800
:1006B000384330603068084030603068F4490840A2
:1006C00030600298FFF7DCFD2846FFF7D9FD812056
:1006D000FFF7D6FD3068ED49084030603068384398
:1006E00030603068204330603068204330603068CC
:1006F000384330603068084030603068E449084072
:100700003060029D2846FFF7BBFD0198FFF7B8FD5A
:10071000CF20FFF7B5FD3068DC4908403060306815
:1007200038433060306820433060306820433060A8
:100730003068384330603068084030603068D449F1
:10074000084030602846FFF79BFD019D2846FFF7D3
:1007500097FDD920FFF794FD3068CC490840306000
:1007600030683A463843306006E0C04680120A409E
:10077000FFFFFFFDFFFFFFFE306820433060306861
:10078000204327463060306810431446306030689C
:10079000084030603068BE49084030600298FFF77A
:1007A0006FFD2846FFF76CFDF120FFF769FD30680B
:1007B000F949084030603068204330603068384381
:1007C00030603068384330603068204327463060FE
:1007D000306808400C4630603068F04908403060AE
:1007E0000298FFF74DFD2846FFF74AFDDB20FFF793
:1007F00047FD306821462040306030683843306023
:100800003068009C2043306030682043306030689E
:10081000384330603068084030603068DF49084055
:1008200030600298FFF72CFD2846FFF729FD3020A5
:10083000FFF726FD3068D8490840306030683843FB
:10084000306030682043306030682043306030686A
:10085000384330603068084030603068CF49084025
:1008600030600298FFF70CFD2846FFF709FDA42031
:10087000FFF706FD3068C8490840306030683843EB
:10088000306030682043306030682043306030682A
:10089000384330603068084030603068BF490840F5
:1008A00030600298FFF7ECFC2846FFF7E9FCA62031
:1008B000FFF7E6FC3068B8490840306030683843DC
:1008C00030603068204330603068204330603068EA
:1008D00038433C4630603068084030603068AF498B
:1008E00008403060029D2846FFF7CAFC019F384649
:1008F000FFF7C6FC8D20FFF7C3FC3068A64908400F
:1009000030603068204330603068009B18433060AE
:1009100030681843306030682043306030680840E9
:10092000306030689D49084030602846FFF7A8FCD9
:100930003D463846FFF7A4FC1420FFF7A1FC3068C1
:100940009549084030603068204330603068009F2F
:10095000384330603068384330603068204330605E
:1009600030680840306030688C4908403060029838
:10097000FFF786FC2846FFF783FCAF20FFF780FCDB
:100980003068854908403060306820433060306806
:1009900038433060FFF73AFC03B0F0BDFFFFFFFDC6
:1009A000FFFFFFFEF0B585B00391019001204406E2
:1009B000784F396821433960050638682843386024
:1009C00038687549084038603868744908403860AC
:1009D000782630460296FFF753FC00200490FFF77C
:1009E0004FFCB02001990843FFF74AFC38686A4978
:1009F00008403860386828433860386820433860D9
:100A000038682043386038682843386038680840C0
:100A1000386038686149084038603046FFF730FC7C
:100A20000498FFF72DFC039E30091030FFF728FCD7
:100A30003868594908403860386828433860386851
:100A4000204338603868204338603868284338606D
:100A50003868084038603868504908403860029863
:100A6000FFF70EFC0498FFF70BFC0F203040FFF758
:100A700007FC3868484908403860386828433860BF
:100A800038682043386005B0F0BDC046FFFFFFFD69
:100A9000FFFFFFFEF0B585B0154640000390801EB5
:100AA000C0B2C9000839C9B20291FFF77BFF280123
:100AB000364901904018364940180490012002063A
:100AC00041060024334F344B386808433860386897
:100AD0001043386038681840386038682F4B184029
:100AE0003860782016460D46FFF7CAFB4020FFF716
:100AF000C7FB0498005DFFF7C3FB29463246264B2F
:100B0000386818403860386830433860386828439F
:100B10003860641C082CD7D10398401EC0B20299DB
:100B2000FFF740FF2B4632461B490198184C20180E
:100B3000164C0019083004900024386818433860B7
:100B4000386810433860386808403860386813499E
:100B5000084038607820FFF793FB4020FFF790FBB8
:100B60000498005DFFF78CFB2B4632460A49386833
:100B70000840386038683043386038682843386047
:100B8000641C082CD9D105B0F0BDC046D00C0000C3
:100B900000FEFFFF80120A40FFFFFFFDFFFFFFFE88
:100BA000F0B581B00646107800280DD014460D46E9
:100BB00000277919C9B2C2B23046FFF76BFF7F1C1C
:100BC000F8B2205C0028F4D101B0F0BD04488121C6
:100BD0000160416003200006024908600863704715
:100BE000D8804240A0120A400D4800210160032035
:100BF000C1430C48021F13680B4013604168012277
:100C000091434160110242688A4342600168302288
:100C10009143016001680F22914301607047C04613
:100C200008030B4004010B40084809494160FF21BB
:100C30000906084A13688B43032189075918116074
:100C400000218160072101607047C04610E000E08C
:100C5000FF7C000020ED00E080B500F007F8FFF712
:100C6000B5FFFFF7C1FFFFF7DFFF80BD80B5064886
:100C700006494160064A5160064901601160102032
:100C8000FFF7BFFA80BDC04600080A40030000B16C
:100C900000280A400100002603480168002902D00C
:100CA0000168491E0160704760002020FFF7D4FFF3
:100CB000FFF75CFB012002A20146FFF771FFFEE790
:100CC00048656C6C6F2057696C6C69616D00000041
:100CD0000000000000000000000000000000000014
:100CE000000000F8000000000000003330000000A9
:100CF00000100C06100C06000000000000000000B0
:100D000040C07840C0784000043F04043F04040021
:100D1000007088FC08300000001820FF211E000031
:100D2000F008F000E018000000211C031E211E0046
:100D300000F00888700000001E21232419272110CC
:100D400010160E000000000000000000000000006F
:100D5000000000E018040200000000071820400016
:100D600000020418E0000000004020180700000006
:100D7000404080F0804040000202010F010202006A
:100D8000000000F0000000000101011F010101004E
:100D9000000000000000000080B0700000000000B3
:100DA000000000000000000000010101010101013C
:100DB00000000000000000000030300000000000D3
:100DC00000000000806018040060180601000000A8
:100DD00000E010080810E000000F102020100F00A5
:100DE000001010F8000000000020203F202000002C
:100DF0000070080808887000003028242221300084
:100E000000300888884830000018202020110E008B
:100E10000000C02010F8000000070424243F240034
:100E200000F80888880808000019212020110E0009
:100E300000E0108888180000000F112020110E001B
:100E400000380808C83808000000003F0000000013
:100E50000070880808887000001C222121221C00D4
:100E600000E010080810E0000000312222110F00FD
:100E7000000000C0C0000000000000303000000092
:100E80000000008000000000000080600000000002
:100E9000000080402010080000010204081020001B
:100EA0004040404040404000040404040404040066
:100EB00000081020408000000020100804020100FB
:100EC000007048080808F0000000003036010000FB
:100ED000C030C828E810E0000718272423140B00AE
:100EE0000000C038E0000000203C23020227382028
:100EF00008F8888888700000203F202020110E000C
:100F0000C030080808083800071820202010080002
:100F100008F808080810E000203F202020100F00EB
:100F200008F88888E8081000203F202023201800B7
:100F300008F88888E8081000203F2000030000001F
:100F4000C03008080838000007182020221E0200C0
:100F500008F808000008F808203F210101213F207F
:100F6000000808F8080800000020203F20200000AA
:100F700000000808F8080800C08080807F0000009A
:100F800008F888C028180800203F200126382000D3
:100F900008F8080000000000203F2020202030003A
:100FA00008F8F800F8F80800203F003F003F200054
:100FB00008F830C00008F808203F200007183F005C
:100FC000E01008080810E0000F10202020100F008B
:100FD00008F808080808F000203F2101010100007E
:100FE000E01008080810E0000F18242438504F00C3
:100FF00008F8888888887000203F2000030C302083
:1010000000708808080838000038202121221C00C0
:10101000180808F8080818000000203F2000000009
:1010200008F808000008F808001F202020201F00F2
:101030000878880000C83808000007380E01000052
:10104000F80800F80008F800033C0700073C03001C
:10105000081868808068180820302C03032C302082
:101060000838C800C83808000000203F20000000F1
:1010700010080808C8380800203826212020180049
:10108000000000FE020202000000007F404040001D
:10109000000C30C000000000000000010638C00055
:1010A00000020202FE000000004040407F000000FD
:1010B0000000040202020400000000000000000022
:1010C0000000000000000000808080808080808020
:1010D0000002020400000000000000000000000008
:1010E00000008080808000000019242222223F20FE
:1010F00008F8008080000000003F112020110E0041
:101100000000008080800000000E112020201100CF
:10111000000000808088F800000E112020103F2081
:101120000000808080800000001F22222222130005
:10113000008080F0888888180020203F2020000050
:101140000000808080808000006B94949493600005
:1011500008F8008080800000203F210000203F2010
:1011600000809898000000000020203F2020000010
:10117000000000809898000000C08080807F000000
:1011800008F8000080808000203F24022D302000DD
:10119000000808F8000000000020203F2020000088
:1011A0008080808080808000203F20003F20003FA2
:1011B0008080008080800000203F210000203F20B0
:1011C0000000808080800000001F202020201F0061
:1011D000808000808000000080FFA12020110E0090
:1011E0000000008080808000000E112020A0FF8081
:1011F000808080008080800020203F21200001002E
:101200000000808080808000003324242424190082
:10121000008080E0808000000000001F202000008F
:101220008080000000808000001F202020103F20D0
:10123000808080000080808000010E300806010060
:1012400080800080008080800F300C030C300F0005
:1012500000808000808080000020312E0E31200030
:10126000808080000080808080818E701806010060
:1012700000808080808080000021302C222130007E
:1012800000000000807C020200000000003F40409F
:1012900000000000FF00000000000000FF00000050
:1012A0000002027C800000000040403F000000007F
:1012B000000601010202040400000000000000001A
:1012C000D01200000000202068010000280100006A
:04000005000000C136
:00000001FF
