:020000040000FA
:1000000018032020890200008D0200008F020000EA
:1000100000000000000000000000000000000000E0
:10002000000000000000000000000000910200003D
:100030000000000000000000930200009502000094
:1000400097020000691E000097020000970200005E
:10005000970200009702000097020000970200003C
:10006000000000009702000097020000000000005E
:1000700000000000970200009702000097020000B5
:100080006D23000097020000970200009702000015
:10009000970200009702000000000000000000002E
:1000A000970200009702000000000000000000001E
:1000B0009702000000000000970200009702000075
:1000C00000F002F800F0D1F812A030C80838241867
:1000D0002D18AC4201D100F0C8F80FCCA246AB46B7
:1000E0000CA730CF2D1B083F3F197C427F1E544484
:1000F0002D090426F441641EAC4201D300F0B5F88A
:100100000126334200D0FB1A3343984754465D46DC
:10011000DFE7000014250000342500000000000087
:10012000103A02D378C878C1FAD8520701D330C840
:1001300030C101D504680C60704700000000000069
:100140007047000000000000002300240025002666
:10015000103A01D378C1FBD8520700D330C100D583
:100160000B60704710B56E2902D100F04DFA10BD3A
:10017000702902D100F087FB10BD662902D102F080
:100180009BF910BD652902D102F096F910BD6729CF
:1001900002D102F091F910BD612902D102F094F967
:1001A00010BD03681B0A01D380231943692902D1BA
:1001B00000F0F4F910BD642902D100F0EFF910BD90
:1001C000752902D100F0EAF910BD6F2902D100F0C3
:1001D00005FB10BD782902D100F042FB10BDE929D2
:1001E00002D100F0A1FA10BDE42902D100F09CFA7E
:1001F00010BDF52902D100F097FA10BDEF2902D108
:1002000000F0F8FA10BDF82902D100F037FB10BD5C
:100210000368DB0901D380231943632902D101F06C
:100220001AF810BD732902D101F01DF810BDE329A1
:1002300002D101F027F810BDF32902D101F02AF80C
:1002400010BD002010BD1FB501F08AF80400002089
:10025000002102F01BF9401C60600020002102F028
:10026000FFF8E0601FBD10B510BD01F051F8114658
:10027000FFF7E9FF02F0A8F801F0E6FB03B4FFF78F
:10028000F2FF03BC01F040FC06480047FEE7FEE732
:10029000FEE7FEE7FEE7FEE703480449024A044B97
:1002A00070470000C1000000180220201803202021
:1002B000180220201CB50C46064B7B446946009072
:1002C000204600F0BAF904460020694600F0C8F95B
:1002D00020461CBDA3030000002203098B4273D3F8
:1002E000030A8B4258D3030B8B423CD3030C8B4243
:1002F00021D312E003460B437FD4002243088B42F4
:1003000074D303098B425FD3030A8B4244D3030B9C
:100310008B4228D3030C8B420DD30902FF2212BA61
:10032000030C8B4202D31212090265D0030B8B42DD
:1003300019D300E0090AC30B8B4201D3CB03C01AC7
:100340005241830B8B4201D38B03C01A5241430BA2
:100350008B4201D34B03C01A5241030B8B4201D392
:100360000B03C01A5241C30A8B4201D3CB02C01AFD
:100370005241830A8B4201D38B02C01A5241430A75
:100380008B4201D34B02C01A5241030A8B4201D364
:100390000B02C01A5241CDD2C3098B4201D3CB010B
:1003A000C01A524183098B4201D38B01C01A5241BA
:1003B00043098B4201D34B01C01A524103098B42BE
:1003C00001D30B01C01A5241C3088B4201D3CB00A9
:1003D000C01A524183088B4201D38B00C01A52418C
:1003E00043088B4201D34B00C01A5241411A00D23C
:1003F00001465241104670475DE0CA0F00D04942A5
:10040000031000D3404253409C46002203098B4214
:100410002DD3030A8B4212D38901FC2212BA030A9C
:100420008B420CD3890192118B4208D3890192111E
:100430008B4204D389013AD0921100E08909C309A3
:100440008B4201D3CB01C01A524183098B4201D3A5
:100450008B01C01A524143098B4201D34B01C01A90
:10046000524103098B4201D30B01C01A5241C30808
:100470008B4201D3CB00C01A524183088B4201D377
:100480008B00C01A5241D9D243088B4201D34B0092
:10049000C01A5241411A00D20146524110466346E9
:1004A0005B1001D34042002B00D5494270476346A0
:1004B0005B1000D3404201B50449002802DC491C0E
:1004C000084000E00846C046C04602BDFFFFFF7F6F
:1004D00070477047704770B5044685690068C1066B
:1004E00001D5302600E02026C00707D070BD626825
:1004F0003046A1689047206A401C20626D1EF6D5E8
:1005000070BD70B5044685690078C00707D170BD1D
:100510006268A16820209047206A401C20626D1EFE
:10052000F6D570BD09684A0501D540B27047C905C6
:10053000FCD500B2704709684A0501D5C0B27047C2
:10054000C905FCD580B2704770B50C460546012A36
:1005500005D02878800600D5EA69002302E001234F
:1005600005E05B1C934202D2E05C0028F9D1A86947
:10057000E618C01AA861286AC01828622846FFF742
:10058000AAFF04E06A682078A968641C9047B44216
:10059000F8D32846FFF7B5FF70BD0000F7B500257A
:1005A00075291068009914A611D0FFF7BBFF002829
:1005B00002DA404211A608E0009909688A0701D5CD
:1005C0000FA602E0490704D50EA6012501E0FFF7BA
:1005D000B2FF009F0024243704E000F080FE303199
:1005E0003955641C0028F8D12B4632462146009824
:1005F00000F057FAFEBD0000000000002D000000D2
:100600002B0000002000000011680268006A5305FA
:1006100001D5087009E0D30501D5088005E013066F
:1006200002D5C21705C100E0086001207047000034
:1006300001694A1C02610878704700B58FB00291C9
:1006400000210591054901937944039111460490D5
:10065000684600F025F90FB000BD0000E5FFFFFF80
:100660000A681070521C0A6070470000F7B5044613
:10067000154686B02B487844002703C83E460090B4
:10068000019111E007986A467100415A02A800F0F2
:1006900005FE411C07D02178890603D5E269391887
:1006A00091420ED83F18761C2078800602D5E0696A
:1006B000B84206DDAE42E5DB07987100405A0028DB
:1006C000E0D1A069C01BA0612046FFF704FF1548D8
:1006D00078445A3803C800900020019116E0410088
:1006E0006A460798415A02A800F0D8FD0590401CC0
:1006F0000AD0002505E0626802A8A168405D904725
:100700006D1C05988542F6D30498401CB0420490B5
:10071000E5DB206AC01920622046FFF7F2FE09B02F
:10072000F0BD00005E1E0000F7B5D21D0025D20806
:1007300015A6D200F52905CA11D0002A05DA002134
:100740004042914111A60A4608E0009909688B07CA
:1007500001D50FA602E0490701D50EA601251146D5
:10076000009F0024243704E000F05EF930323A554F
:10077000641C02460A43F7D12B46324621460098B4
:1007800000F08FF9FEBD0000000000002D00000009
:100790002B0000002000000070B504460021243426
:1007A00008E05507D2086D0F303565545D072A43C0
:1007B000DB08491C15461D43F3D10468002310A231
:1007C000250708D520252C400C4304D0C4690123FB
:1007D0000CA2641EC46100F064F970BD10B504463B
:1007E00021461068FFF7A7FE002302462046FFF7C8
:1007F000D3FF10BDD21DD108C9000CC9CCE7000041
:100800000000000030000000F8B50F46018809051F
:1008100002D5224C7C4402E0204C7C440E34054638
:100820000021243508E016071209360FA65D6E5424
:100830001E0732431B09491C16461E43F3D12246AC
:1008400004780023240705D5702F06D0002901D095
:100850000223113200F025F9F8BD01231032F9E727
:1008600070B504460D4621461068FFF764FE00236C
:10087000024629462046FFF7C7FF70BDD21DD308A8
:10088000DB000CCBC0E730B403682024126823439C
:1008900003600823C36130BC0023B5E7C81C000017
:1008A000F3B50446002081B020622046E168884705
:1008B000002872D0252802D06268A168ABE0594FA9
:1008C00000267F442046E16888472028054608DB4B
:1008D000312D06D2781920380078002801D006433F
:1008E000F0E7B00701D5042086430020E061074609
:1008F000A0612A2D0AD0284601F0AAFD002827D0A1
:10090000B8000019303D0090856119E00298BA00E6
:10091000121902C8916102902046E1688847012FB0
:10092000054617D1E06900281FDA202086431CE025
:1009300000980A218069484300994019303888613D
:100940002046E1688847054601F082FD0028EFD186
:10095000012F0AD02E2D08D12046E1688847054690
:10096000202006437F1C022FC3DBA069002803DA86
:100970004042A06101200643F00701D010208643C9
:100980006C2D0BD0682D09D04C2D3CD06A2D38D061
:10099000742D38D07A2D36D016E040E0E1682F462D
:1009A00020468847B842054609D16C2F29D001203E
:1009B0008002E168064320468847054604E06C2F24
:1009C0001DD0FF2001300643002D28D02846413895
:1009D000192803D80120C00206432035204626608E
:1009E0002946029A1646FFF7BDFB002810D00128C1
:1009F0000BD0F61DF008C0000830029055E74020EB
:100A0000E1E78020D5E70020D3E7361D02964CE7CA
:100A100062682846A1689047206A401C44E7206A23
:100A2000FEBD0000421C00000B4670B5024689075F
:100A30008008084319469D08141AA941250908078A
:100A4000054308092C194841250A01060D43010AEE
:100A50002C194141200C0D0428430D0C00194D4167
:100A6000002140194D41C00869070843E908840F77
:100A70008D002543840024184D4124196D41121B1B
:100A8000AB4107E00925ED432C11521963410024C5
:100A9000401C61411C460A250026551BB441F1D279
:100AA00070BDFFB504460D4681B02430009021682A
:100AB000880604D51022E0699143216000E00120FE
:100AC000A84201DD471B00E000270498A1697A19BC
:100AD0001018081AA0612078C00602D42046FFF73B
:100AE000FAFC002608E003986268A168805D9047E0
:100AF000206A401C761C206204988642F3DB207832
:100B0000C0060AD52046FFF7E6FC06E06268A16849
:100B100030209047206A401C206238467F1E002803
:100B2000F4DC07E000986268A168405D9047206AA5
:100B3000401C206228466D1E0028F3DC2046FFF78B
:100B4000E0FC2078000602D5022005B0F0BD0120AF
:100B5000FBE70000FFB50C461E468FB003CA0890A5
:100B600009914F007D0D00D16D1E00210846002027
:100B7000C0460321099A89050840002A03DA820049
:100B8000801840080840800D01280A9002DD0020EE
:100B9000C0430A90089807430DD0F048F049281840
:100BA00048430714189800281DD07542291E1DDDE2
:100BB0000A9842421BE01898012802D000203021F8
:100BC00004E00020F24305E02154401CB042FBDB6E
:100BD00030460022189B002121540F998B600A6037
:100BE000486013B0F0BDBD1B6D1CDFE70A9A0029F9
:100BF00000DA69420BA800F0FBFB0BAB07CB03ABA1
:100C000007C30899099800F05FFC6B4607C30146CB
:100C1000D4480918002D00910BDDD24903980A9A97
:100C200049424018002303A90390684600F0BCFE27
:100C300008E003990A9A0023081803A9039068465C
:100C400000F05CFE6B4607C30004000C03D00020DC
:100C5000C043410800E01046189A002A03D0002241
:100C6000009215461EE0751E05D4FFF7DDFE3032FA
:100C700062556D1EF9D501220843079602D0002265
:100C80007F1C04E02078302801D100227F1E002A3A
:100C9000069787D01EE0112D07DAFFF7C5FE303228
:100CA00062556D1C02460A43F5D1084303D00098F3
:100CB000002819D00EE00021681E05E0235C625C6C
:100CC00063542254401E491C8142F7DBA81B401E7E
:100CD00007950690079A18990020A0540F98079B33
:100CE000069A81600CC07CE711260020189059E715
:100CF000D21DF0B50D460446D10893B0C90003C912
:100D00000C900D9101F08EFB02460D98C00F01D0A2
:100D10002D2007E02068810701D52B2002E0400745
:100D2000C00F4001032A0F9001D0072A05DB0346BC
:100D30002946204600F018FB0EE12078800601D5F8
:100D4000E76900E006272846652D04D0662814D000
:100D5000672D69D12DE00020112F009001DB1123B8
:100D600000E07B1C0CAA03A910A8FFF7F3FE119961
:100D7000002610987D1C0E9142E001203B460CAAF3
:100D8000C0070B900120009003A910A8FFF7E2FE16
:100D9000119D12981099002600280E9501D1781CFB
:100DA0000D18781B02D446427D1C761EE81B00906D
:100DB0003AE0012F00DA01270020112F009001DD19
:100DC000112300E03B460CAA03A910A8FFF7C2FEBE
:100DD00011993D46109800260E91217809070BD4F1
:100DE0000E99A94200DA0D4603A9012D04DD4A1926
:100DF000203AD27F302A06D0B84201DA011D04DA47
:100E0000012100910FE06D1EEFE7002802DC86193A
:100E10002D1A03E0411CA94200DD0D46801B401C39
:100E200000900120C0070B902078000705D400989F
:100E3000A84202DB0020C043009069460020C8722F
:100E40000B98012102AF0337C907884225D0022041
:100E500010902B2011900B9800280BDA40420B9039
:100E60002D20119006E00B9800F039FA30317F1EEA
:100E70000B9039701099481E00291090F3DC0B98E4
:100E80000028F0D111987F1E38702088000501D508
:100E9000452000E065207F1E387001A8C01BC01DE2
:100EA0000B900F98002800D0012041190098C0171E
:100EB00009180B980818A169081A401EA06120782B
:100EC000C00602D42046FFF706FB0F98002805D085
:100ED0006268A1689047206A401C20622078C006A2
:100EE00025D52046FFF7F7FA21E0002E07DB0E9804
:100EF000B04204DD03A86268805DA16802E0626818
:100F0000A16830209047206A761C401C206200981F
:100F1000401E002800900AD100F022FAC0686268E2
:100F20000168405CA1689047206A401C2062284606
:100F30006D1E0028D9DC07E062683878A1687F1C44
:100F40009047206A401C20620B99481E00290B9094
:100F5000F2DC2046FFF7D5FA032042E601FCFFFF52
:100F6000104D0000E1DFFFFFD21DF0B504460D4635
:100F7000D0088DB0C000466807683146384601F099
:100F800051FA0246F00F01D02D2307E020688107B7
:100F900001D52B2302E04007C00F43016846002B18
:100FA000037001D0012000E00020032A0A9001D044
:100FB000072A04DB2946204600F0D6F92DE12078E7
:100FC000800601D40D2500E0E5697000400D0D2D6F
:100FD00001904BDA300D00210B9008460020C046EE
:100FE000032189050840002E05DA82008018C20F0F
:100FF0001018401008408015012801DD0020C04372
:10100000A9000023182906D39C460A460123183A52
:101010001B07D34003E001221205CA4094460C315D
:10102000202902D33A46203900E032468A4000287F
:1010300002DD002A06D119E0002817D10121C907D5
:101040008A4213D3194663467F185E41002806D1B1
:101050000120C007824202D1084687439E430B9875
:10106000310D814202D00198401C0190208800057A
:1010700002D57149794402E06F49794419396B46C8
:101080000A9830221A540A980A7C401C1A54401CB0
:101090000A900198002801DC302000E0312018720D
:1010A000019A0120002A02D0644BD21804E0720099
:1010B0003A4302D0614A521C0192002D02DC227890
:1010C000120703D56A462E2050720220002286465F
:1010D00094460CE032033601120F6D1E8B5C02AA9F
:1010E00013546246521C401C9446052A01DA002D16
:1010F000F0DC002202AE08E03B0F3F01CB5C521C4B
:101100006D1E3354401C082A01DA002DF4DC2368DC
:101110009A0601D511E0401E704504DD3218203AD0
:10112000D27F302AF7D0002807DD3218203AD27F4C
:101130002E2A02D11A0700D4401E002D03DD3E22C4
:101140003254401C6D1E497C31540199401C0029C9
:1011500006DA2D21471C315401984042019003E0EA
:101160002B21471C315401987D21C900884206DBA0
:10117000FFF7C0F83030F0557F1C019101E0642882
:1011800008DB01986421FFF7B5F83030F0557F1C7B
:10119000019101E00A2806DB01980A21FFF7AAF86D
:1011A0003030F0557F1C01980A21FFF7A3F8303149
:1011B000F1550A98A1697F1C7A191018081AA061C4
:1011C0002078C00602D42046FFF785F9216A6E46D2
:1011D0000A980818206204E062683078A168761CDA
:1011E00090470A98401E0A90401CF5D12078C0060E
:1011F00002D52046FFF76FF902AE09E03078761C81
:101200003E280DD06268A1689047206A401C206289
:101210007F1EF3D22046FFF774F90DB00320F0BD16
:10122000206A4019206203E06268A168302090477C
:101230006D1EEDD3F8E70000B414000001FCFFFFC1
:1012400010B54369002B02D0C046C04601E0FFF74D
:101250007BF9012010BD1278014624310A7000226A
:101260004A700122ECE711680022D243E8E710B58A
:101270004369002B02D0C046C04601E0FFF7F6F9F3
:10128000012010BD12880146243182840022C284CC
:101290000122ECE711680022D243E8E7F8B51646D0
:1012A0000C46054600F054F80368FF200230C05C8D
:1012B000012807D0FF2C0FD8185D00280CD0012082
:1012C0002C70F8BDFF333246214608331868C71822
:1012D00028460023B847F8BD0020C043F8BD0146AA
:1012E0008008081A02091018020A1018020C1018B7
:1012F000C008820012185200891A01E0401C0A3905
:101300000A29FBD27047000000487047480020209F
:101310007546FFF7F9FFAE46050069465346C0081B
:10132000C000854618B020B5FEF7B6FF60BCB646D3
:1013300000260027C0C5C0C5C0C5C0C5C0C5C0C542
:10134000C0C5C0C5403D490849008D4670470000F2
:1013500010B500F005F8001D10BD00BF31110000F0
:101360000048704768002020F8B51F460446012356
:101370000068DB02032601461840072A05DB002827
:1013800001D017A506E017A504E0002801D016A596
:1013900000E016A5102081432160A069C01E002F27
:1013A000A06101D0401EA0612046FFF794F8002FF5
:1013B00009D038466268A1689047206A401C2062C4
:1013C000C01C206206E0206AFAE762682878A168FB
:1013D0006D1C9047761EF8D22046FFF792F8F8BDB4
:1013E0004E414E006E616E00494E4600696E6600C9
:1013F000F7B516468AB0334878446C4603467C33CA
:10140000C06F5A689B680DC42E487844763003AC90
:101410000DC80DC43720C001081837211B30FEF756
:1014200069FF05460C46803D1B3C02D56442012005
:1014300000E000200027099010E0E0070CD00C200D
:1014400020497843794432464C3941186846012393
:1014500000F054FA6B4607C364107F1C002CECD1DB
:10146000184F7F442E3F16E0E80712D02001C01924
:101470000EC80691089307920068F04201D19819AE
:1014800008903246012306A903A800F037FA03ABFF
:1014900007C36D10641C002DE6D10998002806D002
:1014A00032466946012303A800F07EFA05E00123D5
:1014B0003246694603A800F021FA0A9B07C30DB023
:1014C000F0BD000044110000034640000A4610B57C
:1014D000400D0BD00121C9070F24A40200191C03E1
:1014E00064082143540D2143D20207E0002101206A
:1014F000F2E7D40F490021435200401E0029F8DAD8
:10150000DB0FDB07184310BDFFB50D46144685B051
:101510004868516800F06EFF00910190A868A168CA
:1015200000F068FF02910390A868616800F062FF14
:10153000029A12188242029201D2012000E0002099
:10154000019A0B18D2180028019202D08A4202D9BF
:1015500003E08A4201D2012000E00020009908182F
:1015600000906868A16800F045FF029A1218824254
:10157000029201D2012000E00020019A0B18D2183B
:101580000028019202D08A4202D903E08A4201D2A5
:10159000012000E0002000990818009028682168C8
:1015A00040004900400849084018FA49471814E02B
:1015B00001994000C90F084300900198029940002A
:1015C000C90F08430190029803994000C90F0843CE
:1015D0000290039840007F1E039000980028E7DAED
:1015E0000898002801D0EC4E00E00026B74201DA4E
:1015F000012000E00020002804902AD0F71BF80604
:10160000C00E15D0029B2021091A039A8B401A4361
:101610000392029A019BC2408B401A430292019AA4
:10162000009BC2408B4000991A430192C140009137
:101630007B110DD06F460320C11A03D50021820013
:10164000B95003E08A008100BA587A50401EF3D5A1
:10165000374603980299002800D0012001430898DA
:101660000291002808460CD0002800D001200199E2
:10167000019A490508430121D20AC902D202019206
:1016800000E001210E9B0122D207012B02D0002B8A
:1016900003D013E0002807D120E0904204D8904204
:1016A0000CD1019B0B4209D0019B5918019105D126
:1016B0000099491C009101D17F1C009200280DD097
:1016C000102108460020C0460498002806D00F9834
:1016D000002803D0082108460020C0462868216859
:1016E000019B009A4840C10F0598C90739430EC0B5
:1016F00009B0F0BDFFB587B0099A089808995368FA
:10170000926840688968964600220393174694467B
:10171000089A12685300099A5B081268520052082E
:101720009A1A9E4BD4180A9A002A01D0352200E05A
:10173000402206920022012315460492DB070593FE
:1017400024E0002D05D175460346039E4D1BB34191
:1017500009D375466646039B491B049D9841059B2A
:101760007519AC465F4163463B4308D0059B049E18
:10177000DD0776082E435B080496059301E0521EB0
:10178000641EC50FED0749184041521C069B9A4242
:10179000D7DB002D04D17546039A6B1A824101D222
:1017A00003200CE0039A0B466B404240134303D0E6
:1017B000014303D0012002E0022000E00020614646
:1017C00001910021009702910A99002905D06146F4
:1017D00040020143704B019102E080070023029018
:1017E0009C4201DA012000E0002007003AD01A1BD9
:1017F000D006C00E15D0029D2021019C091AC540BB
:101800008C402543029C8C4000D001242543019C40
:101810000295009DC4408D4000992C430194C14025
:10182000009154111DD06D460221002202290CD1D5
:101830000320001B07E0002804DB8600AE59002EC1
:1018400000D00122401C0328F5DB081B02D58800CC
:101850002A5004E08000285810438A00A850491EEE
:10186000E3D51C460A98002802980CD0002800D026
:1018700001200199019A490508430121D20AC902B0
:10188000D202019200E00121109B0122D207012B1C
:1018900002D0002B03D013E0002807D11FE09042B4
:1018A00004D890420CD1019B0B4209D0019B5918DE
:1018B000019105D10099491C009101D1641C00924D
:1018C00000280CD0102108460020C046002F06D06A
:1018D0001198002803D0082108460020C046089827
:1018E0000999019A009B006809684840C10F079850
:1018F000C907214382600AC00BB0F0BD00B585B0B6
:10190000019300920A460146002302A8FFF7FCFD5E
:1019100002A807C805B000BDFFB50A461F4685B03E
:101920000799019301230091014602A8FFF7ECFDFE
:1019300002990398049ECA0F4900D20700920F2211
:10194000490892028C1A0021002800DB0C46450051
:1019500013486D08844214D3079A002A04DA441EFF
:101960000026104DF64302E004460D460E461021B7
:1019700008460020C046002F03D00421084600205E
:10198000C0462005E90A0843009908436905F20AA0
:101990001143ADE602C0FFFF013C0000FF3F000025
:1019A000FF070000FFFFFF7F00B585B001930092A5
:1019B0000A460146002302A8FFF79CFE02A807C8BA
:1019C000A8E7FFB50A461F4685B007990193012392
:1019D0000091014602A8FFF78DFE02990398049E2C
:1019E000CA0F4900D20700920F22490892028C1AAE
:1019F0000021002800DB0C46450011486D08844298
:101A000014D3079A002A04DA441E00260D4DF6432B
:101A100002E004460D460E46102108460020C0464E
:101A2000002F03D0042108460020C0462005E90A03
:101A30000843009908436905F20A114358E600007B
:101A4000FF070000FFFFFF7F10B50446C046C046F9
:101A50002046FEF713FC10BD82078B079A423FD148
:101A600070B5920F0AD0032402780B78401C491CF1
:101A7000002A33D09A4231D12042F5D1214EF401CF
:101A800004C808C9951B9543254018D19A420FD127
:101A900004C808C9951B9543254010D19A4207D127
:101AA00004C808C9951B9543254008D19A42E7D040
:101AB00012BA1BBA01209A4200D2404270BD12BA3B
:101AC0001BBA2DBA18241000E0401900E140401A5A
:101AD00005D12E00E64002D1083CF4D1D01A70BDE9
:101AE00002780B78401C491C002A09D09A4207D181
:101AF00002780B78401C491C002A01D09A42EFD092
:101B0000D01A70470101010101491820ABBEFEE760
:101B10002600020070470000B0B50A780323134086
:101B20000B4A84580B4D2540EB18A92424061B1999
:101B30008350072212064B681340112424020559D2
:101B40009543EA180251001949780161B0BDC046B9
:101B500008080000FCFFFF00811E091F00BFFCD227
:101B600070470000F0B583B00B794A79002A2BD07A
:101B70001B4A1C4C1C4F202B02D00525EE0100E017
:101B80004C4E851802190092C219002B00D18826EC
:101B90001768474C2740BF19176057682740BE1980
:101BA00056602E68804F3E402E606E683E406E60EC
:101BB0000025009C256065608F24E443156925405D
:101BC000156155692540556101AA13718B795371CF
:101BD00009680191114600F009F803B0F0BDC04654
:101BE000381800005818000078180000F0B584B0CC
:101BF0006B4A82180292734BC618784BC218009237
:101C00002A4BC4180A7901910D68294F202A0392A2
:101C10000AD0254BC018002A17D16B1E029A5360B8
:101C200023683B40882517E0681E029A50602068B0
:101C30003840204B1843206060683840184360608B
:101C4000012045071C4F104608E06B08029A5360BC
:101C500023683B400525ED012B4323600099036871
:101C60003B402B43036030684F4B18403060706836
:101C7000184070600020086048608F20C0432369CE
:101C800003402361636903406361019840790399CC
:101C90000843BD2101401068084B0340C818801C50
:101CA000106004B0F0BDC046741800007018000049
:101CB00024493E0001040000FFFFFFCF4000FFCF9A
:101CC00070B5374A82184B6853603E4BC31808788A
:101CD000222857D8840001A52C59A7467B1D000057
:101CE000851D00007B1D0000851D0000851D000076
:101CF000851D0000851D0000851D0000851D00005C
:101D0000851D0000851D0000851D0000851D00004B
:101D1000851D0000851D0000851D0000691D000057
:101D2000851D0000691D0000851D0000851D000047
:101D3000851D0000851D0000851D0000851D00001B
:101D4000851D0000851D0000851D0000851D00000B
:101D5000851D0000851D0000851D0000691D000017
:101D6000851D0000691D0000032424071568A54394
:101D7000012464072C19146004E003242407156867
:101D8000A54315600C69D460CC68064D25401C68DD
:101D9000054E264074191C60097A0143116070BD1C
:101DA00004180000777702008888FDFF10B507232C
:101DB0009B04194092008018024A84589C43611881
:101DC000815010BD3018000010B5029CA40000190D
:101DD00011431943014A815010BDC04650180000FC
:101DE00092008018014A81507047C04610180000C8
:101DF00010B50122120383180C789C604B78835035
:101E00008978014A815010BD0C110000B0B5112233
:101E1000120283580124A34383508B780C881C43FF
:101E20008B882343094C1C408358094D1D402B19B6
:101E300083508B79CC791C43097A21437E23194046
:101E4000801842689A4351184160B0BD186700007D
:101E5000E798FDFF10B50122120383180C789C60EF
:101E60004978815010BD000070B501223848014604
:101E700010390B681103DC0412D49C0321D494059F
:101E8000012291035D0436D423405CD0314D2B6890
:101E90002E68234258D1264245D12E68304B1BE094
:101EA0002C4C256823680D421DD10B4248D10122DC
:101EB00023689B03284B40D45204246814423FD12A
:101EC0003AE001225404234D2B682E68234221D18D
:101ED000264228D12E68204B0E4221D12D680D427A
:101EE00021462AD02CE09B031B4B25D455042468A3
:101EF0002C4222D024E0174D2B682E680B4214D1BF
:101F00000E421DD12E68164B264216D12A68224257
:101F100012D015E0104B0E4203D12A680A4202D1BA
:101F20000E4A214609E021460AE00D4B264203D124
:101F30002D68254201D003E0084A1C88A2181A80A7
:101F400002680A43026070BD054B0E42E5D0E8E727
:101F500048100A4080130A40A8002020FFFF00001C
:101F6000AA00202010B5184C18492046FFF772FF30
:101F700017492046FFF74AFF0321CA0315480368A3
:101F8000934303600269144B13401A33036142699F
:101F90000A433C218A434261426801210A40436866
:101FA0008B439A1842608A020C4B1C6814431C60D5
:101FB000FF221206684B1C6894438A07A2181A6015
:101FC00002680A43026010BD00005040D4250000A2
:101FD000D6250000001150400000FFFF281050409F
:101FE00010B51F4985228A6401231C021D48046024
:101FF000CA645A02026082228A631B4ACA6381222F
:102000008A604A61194B5A655A660A664A66184CD4
:102010001C605C619C605C634A600A600246303A06
:1020200003214B0613600246403A124B1360124ADA
:10203000026033200006114A1368034313601069DD
:102040000F4B034313610F48026A0F4B1A4302629E
:1020500002681A43026008020C490860086310BD58
:1020600004804240D0120A4082000400888042402E
:1020700081000500030000900300009690130A40C1
:102080000C30000028100A4000504200A0320A40E4
:1020900070B582B0194C1A492046FFF7A9FE1949BC
:1020A0002046FFF75FFD00250095204629462A4679
:1020B0002B46FFF789FE204629462A46FFF776FE83
:1020C000204629462A46FFF78BFE01260096204629
:1020D00029462A462B46FFF777FE204629463246F8
:1020E000FFF764FE204629463246FFF779FE064890
:1020F00086600321016002B070BDC04600008640CA
:10210000E0250000E4250000001186401048002171
:1021100001600320C0430F490A46083A1368034090
:1021200013600A68012082430A6002020B6893432D
:102130000B600203091F0B6813430B60FF210902A8
:10214000054A13688B438003181810607047C04617
:1021500008030B4008010B4000E400E010B51848EC
:102160001849FFF7D9FC18484168184A0A4003216A
:102170000904511841608168154A0A4001214B0643
:10218000D2188260134A00231360516005239360C4
:102190001922120142618A020F4B1C6A14431C620D
:1021A0001C6814431C60FF2212020C4B1C689443F1
:1021B0008A03A2181A6002680A43026010BDC04672
:1021C00000200040EC25000000310040FEFFECFF45
:1021D000F8FFE0E0803100402830004004E400E0F7
:1021E00080B500F01FF8FFF7FBFEFFF78FFFFFF74A
:1021F0004FFF00F06BF800F045F8FFF7B3FEFFF774
:10220000ADFF7420044900220A54B82003490A543F
:102210002C2003490A5480BD98012020DC00202096
:10222000AC002020F0B581B00D480E4941600E4A47
:1022300051600E4B59600E4C61600E4D69600E4E40
:1022400071600E4F79600E49016011601960216064
:102250002960316039601020FFF77EFC01B0F0BDCD
:1022600000080A40030000B100280A400008864028
:102270000048084000888640000850400028004080
:102280000100002610B50B4C0B492046FFF7B0FDAE
:102290000A492046FFF714FD09480168012211434D
:1022A0000160FF20000207490B6883430B6006486A
:1022B000026010BD00808640F4250000F825000073
:1022C0002890864010E400E00891864010B5084C44
:1022D00008492046FFF78CFD07492046FFF7F0FC30
:1022E000064801680122114301600548026010BDE3
:1022F000004008400C26000010260000285008402E
:1023000008510840002181718180704782B0B0B5CA
:1023100092B004461692179316AA019202AD28466F
:10232000FDF7C8FF2878002818D021680E4A8918C0
:10233000002206E08861521CD0B202AB185C002873
:102340000CD00B68DB07F5D00B68DB07F2D00B680D
:10235000DB07EFD00B68DB07F3D1EBE712B0B0BCC3
:1023600001BC02B00047C0460811000010B50D487E
:102370000068C0B2012814D100200B490A5E088011
:102380000A490A800A490B5E08800A480380012036
:10239000000209490C6804430C60084808A1FFF7D3
:1023A000B5FF10BD20500840A800202010022020BA
:1023B000AA0020201202202004310040000020202A
:1023C00025642C25640D0A00FFF70AFF0648FFF775
:1023D00099FF064802210160054A116001210904A4
:1023E00001601160FEE7C0460000202080E200E0AE
:1023F00000E100E0F8B5040C8BB2264682B25E43E1
:10240000104658430D0C370C36040021801916462F
:1024100079416E43370C36048019264679416E4364
:102420008919F8BD4900CA020243100000D00420F7
:102430004A0D01D001221043044A490D914201D1B5
:1024400002210843012800D105207047FF07000042
:1024500030380A2801D20120704700207047000060
:1024600010B500290AD00878002807D0054878441C
:10247000FFF7F2FA002801D0002010BD024878448E
:1024800010BD0000DA010000D201000010B50029E3
:102490000AD00878002807D005487844FFF7DCFA0E
:1024A000002801D0002010BD0248784410BD000073
:1024B000CA010000C201000003B402487844844607
:1024C00003BC604731E8FFFF03B402487844844608
:1024D00003BC604799EAFFFF000000000000000015
:1024E000303132333435363738394142434445464A
:1024F0004030580030313233343536373839616244
:102500006364656640307800040000080000000045
:102510000000000200010000103031323334353643
:102520003738396162636465667870003031323300
:102530003435363738394142434445465850000017
:1025400002400000000000A0000000000540000064
:10255000000000C8000000000C4000000000409C8B
:1025600000000000194000000020BCBE0000000078
:1025700034400000BFC91B8E00000004B5400000BD
:10258000504BCFD06607E2CF010000006C41000045
:102590003E8251AADFEEA73401000000D9420000BC
:1025A000DCB5A0E23A301F97FFFFFFFFB445000003
:1025B000FD25A0C8E9A3C14FFFFFFFFFFF3F0000BB
:1025C0000000008000000000FF3F000000000080CD
:1025D00000000000040000001800000000300000AF
:1025E00008070000201C0000200101000105000078
:1025F000000000030807630002000000270000003D
:102600000100000000000000000000000807630057
:10261000020000008F010000010000000000000027
:1026200000000000000000007827000000002020CB
:102630004800000020010000C027000048002020C2
:10264000D0020000480100001C0000004300000010
:10265000F8FFFFFF0C0000000E0000000F0000005C
:102660002E0000001001000043000000F8FFFFFFF3
:102670000040404040404040404041414141414095
:10268000404040404040404040404040404040404A
:1026900040050202020202020202020202020202D9
:1026A00002202020202020202020200202020202DE
:1026B0000202909090909090101010101010101036
:1026C0001010101010101010101010100202020242
:1026D0000202888888888888080808080808080886
:1026E0000808080808080808080808080202020282
:1026F000400000000000000000000000000000009A
:1027000000000000000000000000000000000000C9
:1027100000000000000000000000000000000000B9
:1027200000000000000000000000000000000000A9
:102730000000000000000000000000000000000099
:102740000000000000000000000000000000000089
:102750000000000000000000000000000000000079
:102760000000000000000000000000000000000069
:1027700000000000000000000000504000000000C9
:102780000000000000000000000000000000000049
:102790000000000000000000000000000000000039
:1027A0000000000000000000000000000000000029
:1027B0000000000000000000000000000000000019
:04000005000000C136
:00000001FF
