:020000040000FA
:10000000C00320208D010000910100009301000039
:1000100000000000000000000000000000000000E0
:10002000000000000000000000000000950100003A
:10003000000000000000000097010000990100008E
:100040009B010000A50A00009B010000991E000012
:100050009B0100002D0700009B0100009B01000098
:10006000000000009B0100009B0100000000000058
:10007000000000009B0100009B0100009B010000AC
:10008000FD1B00007D1E00009B0100009B01000085
:100090009B0100009B010000000000000000000028
:1000A0009B0100009B010000000000000000000018
:1000B0009B010000000000009B0100009B0100006C
:1000C00000F002F800F052F812A030C808382418E6
:1000D0002D18AC4201D100F049F80FCCA246AB4636
:1000E0000CA730CF2D1B083F3F197C427F1E544484
:1000F0002D090426F441641EAC4201D300F036F809
:100100000126334200D0FB1A3343984754465D46DC
:10011000DFE700007C2A00009C2A000000000000AD
:10012000103A02D378C878C1FAD8520701D330C840
:1001300030C101D504680C60704700000000000069
:100140007047000000000000002300240025002666
:10015000103A01D378C1FBD8520700D330C100D583
:100160000B6070471FB51FBD10B510BD00F060FAE1
:100170001146FFF7F7FF01F0E9FE00F078FA03B44B
:10018000FFF7F2FF03BC00F0C9FA00000648004781
:10019000FEE7FEE7FEE7FEE7FEE7FEE70348044969
:1001A000024A044B70470000C1000000C00220203A
:1001B000C0032020C0022020002203098B4273D3F9
:1001C000030A8B4258D3030B8B423CD3030C8B4264
:1001D00021D312E003460B437FD4002243088B4215
:1001E00074D303098B425FD3030A8B4244D3030BBE
:1001F0008B4228D3030C8B420DD30902FF2212BA83
:10020000030C8B4202D31212090265D0030B8B42FE
:1002100019D300E0090AC30B8B4201D3CB03C01AE8
:100220005241830B8B4201D38B03C01A5241430BC3
:100230008B4201D34B03C01A5241030B8B4201D3B3
:100240000B03C01A5241C30A8B4201D3CB02C01A1E
:100250005241830A8B4201D38B02C01A5241430A96
:100260008B4201D34B02C01A5241030A8B4201D385
:100270000B02C01A5241CDD2C3098B4201D3CB012C
:10028000C01A524183098B4201D38B01C01A5241DB
:1002900043098B4201D34B01C01A524103098B42DF
:1002A00001D30B01C01A5241C3088B4201D3CB00CA
:1002B000C01A524183088B4201D38B00C01A5241AD
:1002C00043088B4201D34B00C01A5241411A00D25D
:1002D00001465241104670475DE0CA0F00D04942C6
:1002E000031000D3404253409C46002203098B4236
:1002F0002DD3030A8B4212D38901FC2212BA030ABE
:100300008B420CD3890192118B4208D3890192113F
:100310008B4204D389013AD0921100E08909C309C4
:100320008B4201D3CB01C01A524183098B4201D3C6
:100330008B01C01A524143098B4201D34B01C01AB1
:10034000524103098B4201D30B01C01A5241C30829
:100350008B4201D3CB00C01A524183088B4201D398
:100360008B00C01A5241D9D243088B4201D34B00B3
:10037000C01A5241411A00D201465241104663460A
:100380005B1001D34042002B00D5494270476346C1
:100390005B1000D3404201B50449002802DC491C2F
:1003A000084000E00846C046C04602BDFFFFFF7F90
:1003B0007047704770470000F0B5FF252D04C6094F
:1003C000C209FF2704462E400137CB093E4348406F
:1003D0002A402B400746002A6BD0002B69D0AA4246
:1003E00067D0AB4265D0002800DA32460125ED0522
:1003F00029432C4309022002090AD21A4B0C7F24FC
:10040000E31A434C000A7C44E35C7D242404121963
:1004100014145B00A218884201D3521C00E0400073
:1004200049420C465C4324115C43DB016415E3182C
:10043000040A5C43C502200D0C4644436419250A96
:100440005D432303EC0C0D46654300030019EB18D4
:100450004C42A34201D35B18401CD4052018002B4A
:1004600007D05B00C91804D3401C002901D1400803
:1004700040003F2189048A4209D3002A08DC110682
:10048000090F04D0032149074018C00FC007F0BD71
:1004900001224100120689187F2252069142F6D2AB
:1004A00005214907C84201D59010F0BDFF20C005C5
:1004B000F0BD002F00DA32461648AA4207D2AB42FE
:1004C00005D21902090E17D0F80FC007F0BDFF259D
:1004D00063002D06AB42F9D84900A942F6D8AB42D9
:1004E00001D1A942F2D0A94201D1002101E061006D
:1004F0004908D0050843F0BD1102090EFBD0FF20CA
:100500000243D005F0BD0A460146104654E70000FC
:10051000022100000000C07F10B501469E240002A9
:10052000CA15A307002A02D01843002A04DBA21A26
:10053000002A0CDDD04010BD1206120E01D1400081
:100540004008A21A03D4D04040420028F3DDFF2225
:1005500048001206904201D9002010BDC817C043C0
:10056000584010BD1F22030C02D10F2200041CD0E2
:10057000030E01D10002083A030F01D10001121F3E
:10058000830F01D18000921E002801DB4000521E23
:10059000D2055118021251181922904004D3491C57
:1005A000002801D14908490008467047C10FC90712
:1005B00000D04042012292071143D3E7012189076D
:1005C000D0E7000010B5FF231B0644009C421DD855
:1005D0004C009C421AD80346124A0B4307D4401AD7
:1005E00002D3EFF3008010BDEFF3008010BD081AB6
:1005F00003D3EFF30080904305E0EFF30080012187
:100600009043C907084380F3008810BD0D231B04E5
:100610001A4204D01146002000F031F810BD00F05D
:1006200045F810BD0000009000487047D800202019
:100630007546FFF7F9FFAE46050069465346C00808
:10064000C000854618B020B5FFF7A8FD60BCB646CF
:1006500000260027C0C5C0C5C0C5C0C5C0C5C0C52F
:10066000C0C5C0C5403D490849008D46704710B51A
:100670000446C046C0462046FFF781FD10BDC802B3
:1006800012D54803400F002804D0C803C0430121FD
:1006900088407047EFF3008000010009032109073B
:1006A000084380F3008870470020704710B5024867
:1006B00000F004F810BD00000000C07F10B50C462B
:1006C0001107090F092904D00A290AD008290CD1D9
:1006D00004E011460820FFF7D2FF06E0510606D5D8
:1006E00001E0510601D50120C007214610BDD10609
:1006F00007D501010909CC084907000E000604438B
:1007000009E0410F20024907000A0143200E0006BC
:100710001D22D14101430846E7E7000001491820A6
:10072000ABBEFEE7260002007047000006480068E6
:10073000C0B20B2807D105480168054A11804168FD
:100740005180806890807047203000408082554002
:1007500038012020B0B50A78032313400B4A84588F
:100760000B4D2540EB18A92424061B1983500722A2
:1007700012064B6813401124240205599543EA18C8
:100780000251001949780161B0BDC0460808000057
:10079000FCFFFF00811E091F00BFFCD27047000054
:1007A000F0B583B00B794A79002A2BD01B4A1C4C38
:1007B0001C4F202B02D00525EE0100E04C4E851881
:1007C00002190092C219002B00D188261768474CE5
:1007D0002740BF19176057682740BE1956602E681A
:1007E000804F3E402E606E683E406E600025009C4B
:1007F000256065608F24E4431569254015615569BE
:100800002540556101AA13718B79537109680191D3
:10081000114600F009F803B0F0BDC04638180000DA
:100820005818000078180000F0B584B06B4A8218A0
:100830000292734BC618784BC21800922A4BC41808
:100840000A7901910D68294F202A03920AD0254B7D
:10085000C018002A17D16B1E029A536023683B40D0
:10086000882517E0681E029A506020683840204BA7
:1008700018432060606838401843606001204507D5
:100880001C4F104608E06B08029A536023683B40F7
:100890000525ED012B432360009903683B402B4362
:1008A000036030684F4B18403060706818407060CB
:1008B0000020086048608F20C04323690340236103
:1008C0006369034063610198407903990843BD213E
:1008D00001401068084B0340C818801C106004B029
:1008E000F0BDC046741800007018000024493E0096
:1008F00001040000FFFFFFCF4000FFCF70B5374A73
:1009000082184B6853603E4BC3180878222857D88A
:10091000840001A52C59A746B7090000C1090000B1
:10092000B7090000C1090000C1090000C1090000A9
:10093000C1090000C1090000C1090000C10900008F
:10094000C1090000C1090000C1090000C10900007F
:10095000C1090000C1090000A5090000C10900008B
:10096000A5090000C1090000C1090000C10900007B
:10097000C1090000C1090000C1090000C10900004F
:10098000C1090000C1090000C1090000C10900003F
:10099000C1090000C1090000A5090000C10900004B
:1009A000A5090000032424071568A5430124640752
:1009B0002C19146004E0032424071568A54315606E
:1009C0000C69D460CC68064D25401C68054E264055
:1009D00074191C60097A0143116070BD041800008D
:1009E000777702008888FDFF10B507239B04194024
:1009F00092008018024A84589C436118815010BDAF
:100A00003018000010B5029CA400001911431943CE
:100A1000014A815010BDC046501800009200801855
:100A2000014A81507047C0461018000010B50122DD
:100A3000120383180C789C604B7883508978014AA4
:100A4000815010BD0C110000B0B511221202835864
:100A50000124A34383508B780C881C438B88234349
:100A6000094C1C408358094D1D402B1983508B792C
:100A7000CC791C43097A21437E23194080184268AF
:100A80009A4351184160B0BD18670000E798FDFF18
:100A900010B50122120383180C789C6049788150AC
:100AA00010BD000070B53E48014610390C680123A6
:100AB00019035A04E5041BD414422CD139490C40C3
:100AC00001239A05D905E50D44D194423AD3364C19
:100AD000236825680D400021CC430126002D3146B6
:100AE00056D1002D57D1134200D02146304B22E081
:100AF0002D4D2C682D6815400022D643002D32461E
:100B000021D1002D22D10C4200D01A46274B1C883F
:100B1000A2181A8013E0244C236825680D40002198
:100B2000CC430126002D314624D1002D25D113427E
:100B300000D021461D4B1C8861181980114602689F
:100B40000A43026070BD1A46002DDCD033460C42C9
:100B5000DBD1DBE7144D2C682D6815400022D6430D
:100B6000002D32460DD1002D0ED10C4200D01A4678
:100B70000F4BCCE72146002DD9D034461342D8D1B3
:100B8000D8E71A46002DF0D033460C42EFD1EFE7FC
:100B90002146002DA7D034461342A6D1A6E7C04671
:100BA00048100A400010C20080130A404201202071
:100BB00044012020F0B581B0437D0025002B00D1F9
:100BC000ED43EB4309B20029009500DC1D46C0C887
:100BD0003D402524E4013259BA43521932510838B4
:100BE000002900DC009BC268134085682E5996439B
:100BF000F2182A51CA175140891A0369027D184612
:100C0000FFF70CFF01B0F0BDF0B583B0012006077F
:100C1000C7070020524C00900290C0B20190009D86
:100C2000294600F0C1FB4F4920683043206020680E
:100C300038432060206808402060781E2168014009
:100C40002160782000F01CF8402000F019F8002006
:100C500000F016F8434920680840206020683843B7
:100C60002060206830432060681C45B2002DDBD531
:100C70000298401C01990729CED303B0F0BDC046AD
:100C8000F0B537490A68374C2240802303405B05A2
:100C9000D2180A60344A531C0D681D430D600D685C
:100CA00015400D6001252D0786052E400F68274051
:100CB000BE190E600E681E430E600E6816400E6070
:100CC000C6052E400F682740BE190E600E681E43F1
:100CD0000E600E6816400E6006062E400F68274014
:100CE000BE190E600E681E430E600E6816400E6040
:100CF00046062E400F682740BE190E600E681E4340
:100D00000E600E6816400E6086062E400F68274063
:100D1000BE190E600E681E430E600E6816400E600F
:100D2000C6062E400D682540AD190D600D681D43A7
:100D30000D600D6815400D600D682540C007C008A6
:100D400028180860086818430860086810400860A0
:100D5000086818430860086810400860F0BDC04685
:100D600080120A40FFFFFFEFFFFFFF7FF0B585B065
:100D70000120C707FC4E31683943316004073068F1
:100D80002043306030682043306030683843306042
:100D90003068F649084030607D1E30682840019573
:100DA000306078200290FFF76BFF00200490FFF77F
:100DB00067FFAE20FFF764FF3068EC490840306001
:100DC00030683843306030682043306030682043FA
:100DD00030603068384330603068084030603068D8
:100DE00028403060029D2846FFF74AFF0498FFF72D
:100DF00047FFD520FFF744FF3068DC4908403060EA
:100E00003068384330603068039420433060306885
:100E100020433060306838433060306808403060CC
:100E20003068019C204030602846FFF729FF049D70
:100E30002846FFF725FF8020FFF722FF3068CB49C7
:100E40000840306030680097384330603068039A5B
:100E50001043306030681043306030683843306091
:100E6000306808403060306820403060029F38466B
:100E7000FFF706FF2846FFF703FFA820FFF700FF54
:100E80003068BA49084030603068009C20433060C8
:100E90003068039B18433060306818433060306816
:100EA000204330603068084030603068019D284041
:100EB00030603846FFF7E4FE0498FFF7E1FE3F207C
:100EC000FFF7DEFE3068A9490840306030682746E9
:100ED000204330603068039C2043306030682043FA
:100EE00030603068384330603068084030603068C7
:100EF00028403060029D2846FFF7C2FE0498FFF7A5
:100F0000BFFED320FFF7BCFE306898490840306030
:100F100030683843306030682043306030682043A8
:100F20003060306838433060306808403060306886
:100F30000199084030602846FFF7A2FE049D28462C
:100F4000FFF79EFE2846FFF79BFE30688749084062
:100F5000306030683843306030682043306030683B
:100F600020433060306838433C4630603068084089
:100F700030603068019D284030600298FFF780FEA5
:100F8000049F3846FFF77CFE4020FFF779FE30686B
:100F9000764A104030603068204330603068039BF0
:100FA0001843306030681843306030682043306048
:100FB000306810403060306828403060029D28461C
:100FC000FFF75EFE3846FFF75BFEA120FFF758FEF5
:100FD0003068F44908403060306820433060306841
:100FE000039A10433060306810433060306820430B
:100FF000274630603068084030603068019C2040EF
:1010000030602846FFF73CFE049D2846FFF738FE77
:10101000C820FFF735FE3068E2490840306030688C
:10102000384330603068039A1043306030681043B2
:101030003060306838433060306808403060306875
:1010400020403060029F3846FFF71AFE2846FFF71F
:1010500017FEDA20FFF714FE3068D24908403060EE
:101060003068009C204330603068039B1843306038
:101070003068184330603068204330603068084082
:1010800030603068019D284030603846FFF7F8FD39
:101090000498FFF7F5FD1220FFF7F2FD3068FC49D8
:1010A000084030603068204330603068039A104355
:1010B000306030681043306030682043274630602D
:1010C000306808403060306828403060029C20461C
:1010D000FFF7D6FD0498FFF7D3FD8120FFF7D0FD81
:1010E0003068EB4A10403060306838433060306818
:1010F00003990843306030680843306030683843F3
:1011000030603068104030603068284030602046E1
:10111000FFF7B6FD049C2046FFF7B2FDCF20FFF796
:10112000AFFD3068DA4A10403060306838433060D4
:101130003068039908433060306808433060306895
:10114000384330603068104030603068284030608C
:10115000029F3846FFF794FD2046FFF791FDD92006
:10116000FFF78EFD04E0C04680120A40FFFFFFEF4C
:101170003068C74B184030603068009908433060D1
:101180003068039A10433060306810433060306834
:10119000084330603068184030603068019C20405F
:1011A00030603846FFF76CFD049D2846FFF768FD68
:1011B000F120FFF765FD3068F84A10403060306874
:1011C000009F3843306030680399084330603068CE
:1011D0000843306030683843306030681040306019
:1011E0003068204030600298FFF74AFD2846FFF73C
:1011F00047FDDB20FFF744FD3068E84908403060D8
:101200003068384330603068039C20433060306879
:1012100020433060306838433060306808403060C8
:101220003068019D284030600298FFF729FD04983E
:10123000FFF726FD3020FFF723FD3068D74908402F
:101240003060306838433060306820433060306848
:101250002043306030683843306030680840306088
:10126000306828403060029D2846FFF709FD049849
:10127000FFF706FDA420FFF703FD3068C7490840CB
:101280003060306838433060306820433060306808
:101290002043306030683843306030680840306048
:1012A00030680199084030602846FFF7E9FC049D4A
:1012B0002846FFF7E5FCA620FFF7E2FC3068B749B7
:1012C0000840306030683843306030682043306018
:1012D000306820433060306838433C4630603068C6
:1012E000084030603068019908403060029F3846FD
:1012F000FFF7C6FC2846FFF7C3FC8D20FFF7C0FCB4
:101300003068A64908403060306825462043306088
:101310003068039C20433060306820433060306880
:1013200028433060306808403060306801990840D8
:1013300030603846FFF7A4FC049F3846FFF7A0FC56
:101340001420FFF79DFC30689449084030603068F5
:10135000284330603068204330603068204330607C
:101360003068284330603068084030603068019948
:10137000084030600298FFF783FC3846FFF780FC96
:10138000AF20FFF77DFC306884490840306030684A
:1013900028433060306820433060FFF735FC05B0EB
:1013A000F0BDC046FFFFFFEFF0B585B002910090A1
:1013B00001200407784F396821433960C507386830
:1013C000284338603868754908403860691E3868B5
:1013D00008400E460191386078200490FFF750FCD9
:1013E00000200390FFF74CFCB02000990843FFF762
:1013F00047FC3868694908403860386828433860D5
:10140000386820433860386820433860386828439B
:101410003860386808403860386830403860049870
:10142000FFF72EFC0398FFF72BFC029E30091030CB
:10143000FFF726FC38685949084038603868284367
:10144000386038682043386038682043386038682E
:101450002843386038680840386038680199084087
:1014600038600498FFF70CFC0398FFF709FC0F2085
:101470003040FFF705FC3868484908403860386854
:101480002843386038682043386005B0F0BDC04656
:10149000FFFFFFEFF0B587B0154640000390801EB8
:1014A000C0B2C9000839C9B20291FFF77DFF280117
:1014B000374901904018374940180490012001072E
:1014C000C2070025344F354B069138680843386011
:1014D000386810433860386818403860511E3868E2
:1014E000059108403860782014461E46FFF7C8FB77
:1014F0004020FFF7C5FB0498405DFFF7C1FB334672
:101500002246069938683040386038682043386091
:101510003868084338606D1C082DD6D10398401EEA
:10152000C0B20299FFF740FF334622460699019860
:10153000184D2818164D40190830049000253868B9
:10154000084338603868104338603868184038609D
:1015500038680599084038607820FFF791FB4020F3
:10156000FFF78EFB0498405DFFF78AFB3346224667
:1015700006993868304038603868204338603868E9
:10158000084338606D1C082DD9D107B0F0BDC046A6
:101590004C25000000FEFFFF80120A40FFFFFFEF16
:1015A000F0B587B0069314460D46002A049005D482
:1015B00005942B222946FFF76DFF05E02D222946D1
:1015C000FFF768FF64420594069800283ED006980D
:1015D000471E801E0190681C029000251C4E039738
:1015E00013E0012102984419059800F0E1FC0A215A
:1015F000FEF7E2FD30220A43E1B20498FFF74AFF0A
:101600007F1E6D1C0698854220D003988542E8D045
:1016100003200199491B032901D2012105E03A4623
:10162000824301217143121FFCD1EA43069BD21869
:101630000240D7D0012A01D10A2005E0022A02D0B7
:101640007D20C00000E064204143CBE707B0F0BD3F
:1016500010270000F0B585B004910446C6694E48D5
:101660000568A81BFEF7AAFF4C49FEF7A5FE002E51
:1016700007D007467F20C105384600F0AAFD0028A4
:1016800004D120200121215400276761E5612068F1
:10169000049900F07BFE0646A5680021284600F06C
:1016A00082FD00283BD1029500253846294600F0EE
:1016B0007AFD002833D12020205C0128039605D133
:1016C0002046203005700195049E09E02169049EA2
:1016D000304600F0B3FE3946FEF76EFE0190A56974
:1016E00026612F480168384600F08CFD01463846D7
:1016F000FEF762FE06460198294600F09FFE01466D
:10170000304600F043FE294600F07CFD0146A06112
:10171000029800F03BFE039900F074FD06466568F0
:101720000021284600F03FFD00282ED10021384638
:1017300000F039FD002828D103962846049900F0CE
:1017400025FE394600F022FE616900F05BFD074688
:10175000A6897042FEF72AFF05463846294600F062
:1017600045FD002800D13D463046FEF727FF0646DE
:101770002846314600F022FD002800D12E46666141
:101780000398314600F03EFD06463046FEF7C4FEA3
:1017900000B205B0F0BDC046B002202000007A447F
:1017A0004800202010B5184C18492046FFF770F962
:1017B00017492046FFF748F90321CA031548036873
:1017C000934303600269144B13401A330361426967
:1017D0000A433C218A434261426801210A4043682E
:1017E0008B439A1842608A020C4B1C6814431C609D
:1017F000FF2212066C4B1C6894438A07A2181A60D9
:1018000002680A43026010BD000050403C2B0000FB
:101810003E2B0000001150400000FFFF28105040F8
:1018200010B522488522826401231C0220490C60E5
:10183000C2645A020A60822282631E4AC263812203
:10184000826042611C4B5A655A66026642661B4CB6
:101850001C605C61DC645C63426002600A46303A92
:101860000320430613600A46403A154B1360154A9D
:101870000A600106144A13680B4313601369134C82
:1018800023431361124A13680B43136051682143C9
:10189000516010490A6A104B1A430A620A681A43D7
:1018A0000A6000020D490860086310BD04804240D0
:1018B000D0120A4082000400888042408100050066
:1018C000030000900300009690130A400CF0000003
:1018D00008150A4028100A400010C200A0320A4031
:1018E00070B582B0194C1A492046FFF79FF8194984
:1018F0002046FEF755FF00250095204629462A463A
:101900002B46FFF77FF8204629462A46FFF76CF85A
:10191000204629462A46FFF781F8012600962046F0
:1019200029462A462B46FFF76DF8204629463246BF
:10193000FFF75AF8204629463246FFF76FF8064867
:1019400086600321016002B070BDC0460000864081
:10195000482B00004C2B000000118640104800214D
:1019600001600320C0430F490A46083A1368034048
:1019700013600A68012082430A6002020B689343E5
:101980000B600203091F0B6813430B60FF21090260
:10199000054A13688B438003181810607047C046CF
:1019A00008030B4008010B4000E400E010B51848A4
:1019B0001849FEF7CFFE18484168184A0A4003212B
:1019C0000904511841608168154A0A4001214B06FB
:1019D000D2188260134A002313605160052393607C
:1019E0001922120142618A020F4B1C6A14431C62C5
:1019F0001C6814431C60FF2212020C4B1C689443A9
:101A00008A03A2181A6002680A43026010BDC04629
:101A100000200040542B000000310040FEFFECFF8E
:101A2000F8FFE0E0803100402830004004E400E0AE
:101A300080B500F01FF8FFF7F3FEFFF78FFFFFF709
:101A40004FFF00F069F800F045F8FFF7ABFEFFF735
:101A5000ADFF7420044900220A54B82003490A54F7
:101A60002C2003490A5480BD340220207801202014
:101A700048012020F0B581B00D480E4941600E4A62
:101A800051600E4B59600E4C61600E4D69600E4EF8
:101A900071600E4F79600E4901601160196021601C
:101AA0002960316039601020FEF774FE01B0F0BD8E
:101AB00000080A40030000B100280A4000088640E0
:101AC0000048084000888640000850400028004038
:101AD0000100002610B50B4C0B492046FEF7A6FF6F
:101AE0000A492046FEF70AFF09480168012211430E
:101AF0000160FF20000219490B6883430B60054811
:101B0000026010BD008086405C2B0000602B00004E
:101B1000289086400891864010B50C4C0C49204610
:101B2000FEF784FF0B492046FEF7E8FE0A480168ED
:101B300001221143016009480168C0230B433F2182
:101B40008B4303600648026010BDC0460040084059
:101B5000742B0000782B00002850084010E400E0AF
:101B60000851084010B5044600F02CF80146E07119
:101B7000ED4800F02FF8A179022907D0002915D1EE
:101B8000E179FF2912D10221A17110BD2179E279F9
:101B9000FE2A04D1032902D10121617110BD63180D
:101BA0001A72491C2171C9B2042902D3204600F0DF
:101BB00001F810BD00218171818070470021817181
:101BC00081807047006802494058C0B27047C046E3
:101BD000241100000068084A80180268D20708D063
:101BE0000268D20705D00268D20702D00268D20785
:101BF000F3D181617047C04608110000F0B581B093
:101C00008F480068C0B2012800D016E101242002EC
:101C10008C490A6802430A608B48008840428B4F17
:101C200038808B49098849428A4E318002B20425A6
:101C3000204621462B46FFF7B3FC0020325E0646C5
:101C4000022021462B46FFF7ABFCB848007803285A
:101C500000D9F2E0784400794000874401A1237D57
:101C6000B85FFEF7A3FC01467C4D286800F08EFBB0
:101C700001467B48FFF7EEFC7A4C20807548805F78
:101C8000FEF794FC0146286800F080FB0146764888
:101C9000FFF7E0FC764D2880A15FC348FEF78AFF7E
:101CA000A95FC7E0A7480088002800D1C5E0B85F59
:101CB000FEF77CFC0446A24FB85FFEF777FC0546B2
:101CC00066480168204600F061FB294600F0B6FB3B
:101CD00001466348FFF7BEFC624908805D48805FAB
:101CE000FEF764FC0446B85F4042FEF75FFC054621
:101CF0005A480168204600F049FB294600F09EFB47
:101D000001465948FFF7A6FC5849884200DC0846BE
:101D1000E1225201904200DB1046554C2080514B8D
:101D2000985F884200DC0846904200DB104618802D
:101D3000504D2988081801B29B48FEF73BFF2888C0
:101D40002188081801B29948FEF734FF7D490888B8
:101D50000A30088001B0F0BDB85FFEF727FC0446EA
:101D60003D4F3888FEF72AFC05463C48016820466E
:101D700000F00CFB294600F061FB01463848FFF7F4
:101D800069FC384908803348805FFEF70FFC044641
:101D900038884042FEF70AFC05463048016827E0D3
:101DA000B85FFEF703FC04466748805F3249098844
:101DB0004018FEF7FBFB0546284F3968204600F027
:101DC000E5FA294600F03AFB01462548FFF742FCB8
:101DD000244908801F48805FFEF7E8FB04465A4804
:101DE000805F25490988081AFEF7E0FB0546396837
:101DF000204600F0CBFA294600F020FB01461A48A5
:101E0000FFF728FC194A904200DC1046E1214B0103
:101E1000984200DB1846164C20801248815F9142A0
:101E200000DC1146994200DB194601805E48FEF74E
:101E3000C1FEA15F5D48FEF7BDFE01B0F0BDC0462A
:101E4000205008400431004042012020B6022020EA
:101E500044012020B8022020CC0020205000202067
:101E60006C002020AC022020A8002020E0E3FFFF2F
:101E7000B4022020CE0020204C002020044800681E
:101E8000C0B2012803D103480168491C01607047B2
:101E900020908640B002202010B522480068C0B2D1
:101EA0000B283ED13D4C2046FFF75CFE60790128AF
:101EB00037D1207A1D49087003281DD8784400794D
:101EC000400087442B01082BA07A617A0902081888
:101ED0001D49088022E0A07A15490870082811D011
:101EE00004280CD0022816D1124800881249088014
:101EF0001248008840420CE0002008700EE00D48B7
:101F0000008802E00B48008840000B4908800B481D
:101F100000880B4908800B48012101801F48FFF70A
:101F200049FE10BD2010504000002020400120201C
:101F30004E002020D2002020BC022020D0002020F3
:101F4000BA022020BE0220203E012020FFF770FDB3
:101F5000FEF70CFF114C2046FFF730FE0125680408
:101F60000F4E30600F4F38600820306038602046D8
:101F7000FFF724FE022030603860280430603860AB
:101F8000E1204401084D094E28462146FEF712FE85
:101F900030462146FEF70EFEF6E7C0460000202040
:101FA00080E200E000E100E05400202090002020CA
:101FB00043088B421AD3002203098B4279D3030AC8
:101FC0008B425ED3030B8B4242D3030C8B4227D34D
:101FD0000902FF2212BA030C8B4202D31212090229
:101FE00003D0030B8B4233D31AE0D3E0411A804174
:101FF000401C704703460B4371D443088B42F5D312
:10200000002203098B4254D3030A8B4239D3030BBA
:102010008B421DD3030C8B4202D394466EE0090A17
:10202000C30B8B4201D3CB03C01A5241830B8B42AB
:1020300001D38B03C01A5241430B8B4201D34B0394
:10204000C01A5241030B8B4201D30B03C01A5241F9
:10205000C30A8B4201D3CB02C01A5241830A8B427E
:1020600001D38B02C01A5241430A8B4201D34B0267
:10207000C01A5241030A8B4201D30B02C01A5241CB
:10208000CDD2C3098B4201D3CB01C01A524183097F
:102090008B4201D38B01C01A524143098B4201D3B9
:1020A0004B01C01A524103098B4201D30B01C01AE4
:1020B0005241C3088B4201D3CB00C01A524183085E
:1020C0008B4201D38B00C01A524143088B4201D38B
:1020D0004B00C01A5241411A524110007047CA0FBA
:1020E00000D04942031000D34042534000229C4696
:1020F00003098B422DD3030A8B4212D38901FC22A0
:1021000012BA030A8B420CD3890192118B4208D375
:10211000890192118B4204D3890137D0921100E0DA
:102120008909C3098B4201D3CB01C01A52418309EB
:102130008B4201D38B01C01A524143098B4201D318
:102140004B01C01A524103098B4201D30B01C01A43
:102150005241C3088B4201D3CB00C01A52418308BD
:102160008B4201D38B00C01A5241D9D243088B4213
:1021700001D34B00C01A5241411A00D201465241CC
:10218000104663465B1000D34042704763465B10C5
:1021900000D3404201B50021004201D0C9430846A6
:1021A000C046C04602BD10B500F072F8EFF30080E3
:1021B000400001D5012010BD002010BD10B500F079
:1021C00091F8EFF300804000800F012800D000203C
:1021D00010BD10B500F0B0F8EFF300804000800FA4
:1021E000012801D0012010BD002010BD10B500F065
:1021F000A3F8EFF30080800001D4012010BD00207F
:1022000010BD000070B50125ED0704004C4020D43E
:10221000441A01D2001B0919C60D4B00F2B2FF2A65
:1022200029D01B0E2CD000020C0228432C43D31AB9
:10223000DC40051910D2280A02D3401C6D0611D0CB
:10224000761EF6058019FF2A00DA70BDC00DC005A4
:1022500070BD694000F0F8F801200543C541521CEB
:10226000761CE8E764089C40C90161408900E7D119
:102270000124A043E4E71B0E440200D0034870BDD4
:10228000002AFCD1C00FC00770BD00BF0000C07F96
:102290000123DB0502000A430DD4DA4203D49A423B
:1022A00007D488427047D84214D4D94212D4884205
:1022B000704780427047DA4203D59A42F9D581428D
:1022C00070475B004200DA4204D24A00DA4201D28F
:1022D0008142704710B5024AFEF774F910BD00BF85
:1022E000090012040123DB0502000A430DD4DA427F
:1022F00003D49A4207D488427047D84214D4D942B2
:1023000012D48842704780427047DA4203D59A421D
:10231000F9D5814270475B004200DA4204D24A009C
:10232000DA4201D28142704710B5024AFEF74AF9FB
:1023300010BD00BF090013040123DB0502000A439E
:102340000DD4DA4203D49A4207D488427047D84267
:1023500014D4D94212D48842704780427047DA427E
:1023600003D59A42F9D5814270475B004200DA42B8
:1023700004D24A00DA4201D28142704710B5024AC3
:10238000FEF720F910BD00BF0900160470B5420029
:1023900064414B005C41120E39D01B0E38D0FF2A2D
:1023A0003CD0FF2B3AD0D2187F3A40024902400A73
:1023B000490A4518ED0106004E43000A090A484340
:1023C0000104731A4019190C4318990F04D05B08C3
:1023D000012149075B1A521CD80904D3401CF5039C
:1023E00001D19D0607D0FF2A08D2D50506D0E40703
:1023F0002043401970BD0125A843F4E7002A01DC01
:10240000E00770BD2402FF202043C00570BD1B0EF5
:10241000FF2A03D0FF2B01D0E00770BDFF26360650
:102420004500B54206D84D00B54203D8D218FF2A60
:1024300000D0E7E7004870BD0000C07F70B50125FF
:10244000ED0704004C4022D4441A02D26C40001B19
:102450000919C60D4B00F2B2FF2A4BD01B0E50D00B
:1024600000020C02A8432C43D31ADC40051B05D5FF
:10247000AD0019D36D08761E521E37D0F605280A16
:1024800001D2801970BD70416D0603D070BD6940E6
:10249000FFF7BEFE9C4009026140490001D0401E8A
:1024A00070BD0124A04370BD6D081DD001202B0C10
:1024B00001D12D0410302B0E01D12D0208302B0F2D
:1024C00001D12D01001DAB0F01D1AD00801CEB0F20
:1024D00001D16D00401C361A121A6D00680AF5050C
:1024E0004019012A02DB70BD002070BDC036300AE1
:1024F000C00770BD1B0E440201D1FF2B00D1024862
:1025000070BD002AF0D070BD0000C07F818283843E
:1025100085868788898B8C8D8E8F919293959697DF
:10252000999A9C9D9FA0A2A3A5A7A8AAACAEB0B261
:10253000B3B5B7B9BCBEC0C2C5C7C9CCCED1D4D75C
:10254000D9DCDFE2E6E9ECF0F3F7FAFE0000000088
:10255000000000000000000000000000000000F883
:1025600000000000000000333000000000100C06E6
:10257000100C0600000000000000000040C0784081
:10258000C0784000043F04043F040400007088FC4D
:1025900008300000001820FF211E0000F008F000A5
:1025A000E018000000211C031E211E0000F0088816
:1025B000700000001E2123241927211010160E0080
:1025C000000000000000000000000000000000E02B
:1025D0001804020000000007182040000002041840
:1025E000E00000000040201807000000404080F09C
:1025F000804040000202010F01020200000000F0D2
:10260000000000000101011F0101010000000000A5
:102610000000000080B0700000000000000000001A
:1026200000000000000101010101010100000000A3
:10263000000000000030300000000000000000003A
:1026400080601804006018060100000000E0100817
:102650000810E000000F102020100F00001010F8EC
:10266000000000000020203F20200000007008082B
:1026700008887000003028242221300000300888AB
:10268000884830000018202020110E000000C020D3
:1026900010F8000000070424243F240000F80888F4
:1026A000880808000019212020110E0000E0108881
:1026B00088180000000F112020110E0000380808B3
:1026C000C83808000000003F0000000000708808C3
:1026D00008887000001C222121221C0000E0100844
:1026E0000810E0000000312222110F00000000C09D
:1026F000C00000000000003030000000000000803A
:102700000000000000008060000000000000804029
:102710002010080000010204081020004040404042
:102720004040400004040404040404000008102095
:1027300040800000002010080402010000704808DA
:102740000808F0000000003036010000C030C82842
:10275000E810E0000718272423140B000000C038FD
:10276000E0000000203C23020227382008F8888877
:1027700088700000203F202020110E00C030080883
:1027800008083800071820202010080008F808085A
:102790000810E000203F202020100F0008F8888853
:1027A000E8081000203F20202320180008F888881F
:1027B000E8081000203F200003000000C030080897
:1027C0000838000007182020221E020008F8080020
:1027D0000008F808203F210101213F20000808F8E7
:1027E000080800000020203F20200000000008080A
:1027F000F8080800C08080807F00000008F888C0CA
:1028000028180800203F20012638200008F808007A
:1028100000000000203F20202020300008F8F800B1
:10282000F8F80800203F003F003F200008F830C0C3
:102830000008F808203F200007183F00E0100808B3
:102840000810E0000F10202020100F0008F80808E2
:102850000808F000203F210101010000E0100808F5
:102860000810E0000F18242438504F0008F888881A
:1028700088887000203F2000030C302000708808FA
:10288000080838000038202121221C00180808F808
:10289000080818000000203F2000000008F8080089
:1028A0000008F808001F202020201F00087888005A
:1028B00000C83808000007380E010000F80800F8CA
:1028C0000008F800033C0700073C03000818688074
:1028D0008068180820302C03032C30200838C800EA
:1028E000C83808000000203F200000001008080839
:1028F000C83808002038262120201800000000FEDB
:10290000020202000000007F40404000000C30C086
:1029100000000000000000010638C00000020202B2
:10292000FE000000004040407F0000000000040264
:10293000020204000000000000000000000000008F
:10294000000000008080808080808080000202047F
:102950000000000000000000000000000000808077
:10296000808000000019242222223F2008F80080E5
:1029700080000000003F112020110E0000000080A8
:1029800080800000000E1120202011000000008037
:102990008088F800000E112020103F200000808069
:1029A00080800000001F222222221300008080F07D
:1029B000888888180020203F2020000000008080A8
:1029C00080808000006B94949493600008F80080ED
:1029D00080800000203F210000203F200080989848
:1029E000000000000020203F2020000000000080A8
:1029F0009898000000C08080807F000008F80000E8
:102A000080808000203F24022D302000000808F83C
:102A1000000000000020203F2020000080808080F7
:102A200080808000203F20003F20003F8080008089
:102A300080800000203F210000203F200000808097
:102A400080800000001F202020201F008080008048
:102A50008000000080FFA12020110E0000000080F7
:102A600080808000000E112020A0FF8080808000E8
:102A70008080800020203F21200001000000808015
:102A8000808080000033242424241900008080E00A
:102A9000808000000000001F2020000080800000D7
:102AA00000808000001F202020103F2080808000B8
:102AB0000080808000010E300806010080800080C8
:102AC000008080800F300C030C300F0000808000ED
:102AD000808080000020312E0E3120008080800018
:102AE0000080808080818E701806010000808080C8
:102AF000808080000021302C222130000000000066
:102B0000807C020200000000003F40400000000006
:102B1000FF00000000000000FF0000000002027C37
:102B2000800000000040403F00000000000601015E
:102B30000202040400000000000000000400000085
:102B4000180000000030000008070000201C0000F2
:102B500020010100010500000000000308076300D8
:102B6000020000002700000001000000000000003B
:102B70000000000008076300020000008F01000051
:102B80000100000000000000000000000000000044
:102B9000B02B000000002020D80000002001000021
:102BA000882C0000D8002020E80200004801000026
:102BB0000000504000000000000000000000000085
:102BC0000000000000000000000000000000000005
:102BD00000000000000000000000000000000000F5
:102BE00000000000000000000000000000000000E5
:102BF00000000000000000002472023C00040400F9
:102C0000BAE8024300000A400000000200000A4047
:102C100000000004000086400001000000000000E9
:102C2000000000000000000000080000000000009C
:102C30000000000000000000000000000000000094
:102C400000200A400001000000200A4000020000AD
:102C500000008640010000000000000000000000AD
:102C6000000000000008000000000000000000005C
:102C70000000000000000000000000008601000CC1
:082C80008601E80300000000DA
:04000005000000C136
:00000001FF
