:020000040000FA
:10000000C0042020890200008D0200008F02000041
:1000100000000000000000000000000000000000E0
:10002000000000000000000000000000910200003D
:100030000000000000000000930200009502000094
:10004000970200007D21000097020000E9330000C4
:10005000970200009702000097020000970200003C
:10006000000000009702000097020000000000005E
:1000700000000000970200009702000097020000B5
:1000800035310000CD3300009702000097020000D8
:10009000970200009702000000000000000000002E
:1000A000970200009702000000000000000000001E
:1000B0009702000000000000970200009702000075
:1000C00000F002F800F0D1F812A030C80838241867
:1000D0002D18AC4201D100F0C8F80FCCA246AB46B7
:1000E0000CA730CF2D1B083F3F197C427F1E544484
:1000F0002D090426F441641EAC4201D300F0B5F88A
:100100000126334200D0FB1A3343984754465D46DC
:10011000DFE70000AC390000CC390000000000002F
:10012000103A02D378C878C1FAD8520701D330C840
:1001300030C101D504680C60704700000000000069
:100140007047000000000000002300240025002666
:10015000103A01D378C1FBD8520700D330C100D583
:100160000B60704710B56E2902D100F055FB10BD31
:10017000702902D100F08FFC10BD662902D103F076
:10018000C7FB10BD652902D103F0C2FB10BD672972
:1001900002D103F0BDFB10BD612902D103F0C0FB09
:1001A00010BD03681B0A01D380231943692902D1BA
:1001B00000F0FCFA10BD642902D100F0F7FA10BD7E
:1001C000752902D100F0F2FA10BD6F2902D100F0BA
:1001D0000DFC10BD782902D100F04AFC10BDE929C0
:1001E00002D100F0A9FB10BDE42902D100F0A4FB6C
:1001F00010BDF52902D100F09FFB10BDEF2902D1FF
:1002000000F000FC10BDF82902D100F03FFC10BD49
:100210000368DB0901D380231943632902D101F06C
:1002200022F910BD732902D101F025F910BDE3298F
:1002300002D101F02FF910BDF32902D101F032F9FA
:1002400010BD002010BD1FB501F0C4F9040000204E
:10025000002103F0C3F9401C60600020002103F07E
:10026000A7F9E0601FBD10B510BD01F08BF9114674
:10027000FFF7E9FF03F010F901F020FD03B4FFF7E9
:10028000F2FF03BC01F0CAFD06480047FEE7FEE7A7
:10029000FEE7FEE7FEE7FEE703480449044A054B94
:1002A00070470000C1000000C0022020C0042020D0
:1002B000C0032020C00320201CB50C46064B7B4405
:1002C00069460090204600F0C0FA044600206946C6
:1002D00000F0CEFA20461CBDAF0500000022030945
:1002E0008B4273D3030A8B4258D3030B8B423CD30C
:1002F000030C8B4221D312E003460B437FD4002230
:1003000043088B4274D303098B425FD3030A8B42A9
:1003100044D3030B8B4228D3030C8B420DD3090229
:10032000FF2212BA030C8B4202D31212090265D0CB
:10033000030B8B4219D300E0090AC30B8B4201D394
:10034000CB03C01A5241830B8B4201D38B03C01ADB
:100350005241430B8B4201D34B03C01A5241030B52
:100360008B4201D30B03C01A5241C30A8B4201D303
:10037000CB02C01A5241830A8B4201D38B02C01AAE
:100380005241430A8B4201D34B02C01A5241030A25
:100390008B4201D30B02C01A5241CDD2C3098B420A
:1003A00001D3CB01C01A524183098B4201D38B0187
:1003B000C01A524143098B4201D34B01C01A52412A
:1003C00003098B4201D30B01C01A5241C3088B426F
:1003D00001D3CB00C01A524183088B4201D38B005A
:1003E000C01A524143088B4201D34B00C01A5241FC
:1003F000411A00D201465241104670475DE0CA0FD3
:1004000000D04942031000D3404253409C46002292
:1004100003098B422DD3030A8B4212D38901FC229C
:1004200012BA030A8B420CD3890192118B4208D372
:10043000890192118B4204D389013AD0921100E0D4
:100440008909C3098B4201D3CB01C01A52418309E8
:100450008B4201D38B01C01A524143098B4201D315
:100460004B01C01A524103098B4201D30B01C01A40
:100470005241C3088B4201D3CB00C01A52418308BA
:100480008B4201D38B00C01A5241D9D243088B4210
:1004900001D34B00C01A5241411A00D201465241C9
:1004A000104663465B1001D34042002B00D5494201
:1004B000704763465B1000D3404201B504490028F1
:1004C00002DC491C084000E00846C046C04602BDA8
:1004D000FFFFFF7F7047704770470000F0B5FF25B2
:1004E0002D04C609C209FF2704462E400137CB0957
:1004F0003E4348402A402B400746002A6BD0002B41
:1005000069D0AA4267D0AB4265D0002800DA3246F3
:100510000125ED0529432C4309022002090AD21ABC
:100520004B0C7F24E31A434C000A7C44E35C7D249B
:100530002404121914145B00A218884201D3521C1F
:1005400000E0400049420C465C4324115C43DB015F
:100550006415E318040A5C43C502200D0C464443AD
:100560006419250A5D432303EC0C0D466543000323
:100570000019EB184C42A34201D35B18401CD40570
:100580002018002B07D05B00C91804D3401C002999
:1005900001D1400840003F2189048A4209D3002A42
:1005A00008DC1106090F04D0032149074018C00FC9
:1005B000C007F0BD01224100120689187F225206B1
:1005C0009142F6D205214907C84201D59010F0BDED
:1005D000FF20C005F0BD002F00DA32461648AA42BF
:1005E00007D2AB4205D21902090E17D0F80FC00787
:1005F000F0BDFF2563002D06AB42F9D84900A942A2
:10060000F6D8AB4201D1A942F2D0A94201D10021D2
:1006100001E061004908D0050843F0BD1102090E50
:10062000FBD0FF200243D005F0BD0A46014610462C
:1006300054E70000023400000000C07F10B50146FE
:100640009E240002CA15A307002A02D01843002ADC
:1006500004DBA21A002A0CDDD04010BD1206120ED7
:1006600001D140004008A21A03D4D04040420028E3
:10067000F3DDFF2248001206904201D9002010BD90
:10068000C817C043584010BD1F22030C02D10F22CF
:1006900000041CD0030E01D10002083A030F01D15F
:1006A0000001121F830F01D18000921E002801DB80
:1006B0004000521ED20551180212511819229040C2
:1006C00004D3491C002801D1490849000846704755
:1006D000C10FC90700D04042012292071143D3E75E
:1006E00001218907D0E770B5044685690068C10615
:1006F00001D5302600E02026C00707D070BD626813
:100700003046A1689047206A401C20626D1EF6D5D5
:1007100070BD70B5044685690078C00707D170BD0B
:100720006268A16820209047206A401C20626D1EEC
:10073000F6D570BD09684A0501D540B27047C905B4
:10074000FCD500B2704709684A0501D5C0B27047B0
:10075000C905FCD580B2704770B50C460546012A24
:1007600005D02878800600D5EA69002302E001233D
:1007700005E05B1C934202D2E05C0028F9D1A86935
:10078000E618C01AA861286AC01828622846FFF730
:10079000AAFF04E06A682078A968641C9047B44204
:1007A000F8D32846FFF7B5FF70BD0000F7B5002568
:1007B00075291068009914A611D0FFF7BBFF002817
:1007C00002DA404211A608E0009909688A0701D5BB
:1007D0000FA602E0490704D50EA6012501E0FFF7A8
:1007E000B2FF009F0024243704E000F080FE303187
:1007F0003955641C0028F8D12B4632462146009812
:1008000000F057FAFEBD0000000000002D000000BF
:100810002B0000002000000011680268006A5305E8
:1008200001D5087009E0D30501D5088005E013065D
:1008300002D5C21705C100E0086001207047000022
:1008400001694A1C02610878704700B58FB00291B7
:1008500000210591054901937944039111460490C3
:10086000684600F025F90FB000BD0000E5FFFFFF6E
:100870000A681070521C0A6070470000F7B5044601
:10088000154686B02B487844002703C83E460090A2
:10089000019111E007986A467100415A02A800F0E0
:1008A00005FE411C07D02178890603D5E269391875
:1008B00091420ED83F18761C2078800602D5E06958
:1008C000B84206DDAE42E5DB07987100405A0028C9
:1008D000E0D1A069C01BA0612046FFF704FF1548C6
:1008E00078445A3803C800900020019116E0410076
:1008F0006A460798415A02A800F0D8FD0590401CAE
:100900000AD0002505E0626802A8A168405D904712
:100910006D1C05988542F6D30498401CB0420490A3
:10092000E5DB206AC01920622046FFF7F2FE09B01D
:10093000F0BD0000E6300000F7B5D21D0025D2085A
:1009400015A6D200F52905CA11D0002A05DA002122
:100950004042914111A60A4608E0009909688B07B8
:1009600001D50FA602E0490701D50EA601251146C3
:10097000009F0024243704E000F05EF930323A553D
:10098000641C02460A43F7D12B46324621460098A2
:1009900000F08FF9FEBD0000000000002D000000F7
:1009A0002B0000002000000070B504460021243414
:1009B00008E05507D2086D0F303565545D072A43AE
:1009C000DB08491C15461D43F3D10468002310A21F
:1009D000250708D520252C400C4304D0C4690123E9
:1009E0000CA2641EC46100F064F970BD10B5044629
:1009F00021461068FFF7A7FE002302462046FFF7B6
:100A0000D3FF10BDD21DD108C9000CC9CCE700002E
:100A10000000000030000000F8B50F46018809050D
:100A200002D5224C7C4402E0204C7C440E34054626
:100A30000021243508E016071209360FA65D6E5412
:100A40001E0732431B09491C16461E43F3D122469A
:100A500004780023240705D5702F06D0002901D083
:100A60000223113200F025F9F8BD01231032F9E715
:100A700070B504460D4621461068FFF764FE00235A
:100A8000024629462046FFF7C7FF70BDD21DD30896
:100A9000DB000CCBC0E730B403682024126823438A
:100AA00003600823C36130BC0023B5E7502F00006A
:100AB000F3B50446002081B020622046E1688847F3
:100AC000002872D0252802D06268A168ABE0594F97
:100AD00000267F442046E16888472028054608DB39
:100AE000312D06D2781920380078002801D006432D
:100AF000F0E7B00701D5042086430020E0610746F7
:100B0000A0612A2D0AD0284602F04AFD002827D0ED
:100B1000B8000019303D0090856119E00298BA00D4
:100B2000121902C8916102902046E1688847012F9E
:100B3000054617D1E06900281FDA202086431CE013
:100B400000980A218069484300994019303888612B
:100B50002046E1688847054602F022FD0028EFD1D3
:100B6000012F0AD02E2D08D12046E168884705467E
:100B7000202006437F1C022FC3DBA069002803DA74
:100B80004042A06101200643F00701D010208643B7
:100B90006C2D0BD0682D09D04C2D3CD06A2D38D04F
:100BA000742D38D07A2D36D016E040E0E1682F461B
:100BB00020468847B842054609D16C2F29D001202C
:100BC0008002E168064320468847054604E06C2F12
:100BD0001DD0FF2001300643002D28D02846413883
:100BE000192803D80120C00206432035204626607C
:100BF0002946029A1646FFF7B5FA002810D00128B8
:100C00000BD0F61DF008C0000830029055E74020D8
:100C1000E1E78020D5E70020D3E7361D02964CE7B8
:100C200062682846A1689047206A401C44E7206A11
:100C3000FEBD0000CA2E00000B4670B502468907B3
:100C40008008084319469D08141AA9412509080778
:100C5000054308092C194841250A01060D43010ADC
:100C60002C194141200C0D0428430D0C00194D4155
:100C7000002140194D41C00869070843E908840F65
:100C80008D002543840024184D4124196D41121B09
:100C9000AB4107E00925ED432C11521963410024B3
:100CA000401C61411C460A250026551BB441F1D267
:100CB00070BDFFB504460D4681B024300090216818
:100CC000880604D51022E0699143216000E00120EC
:100CD000A84201DD471B00E000270498A1697A19AA
:100CE0001018081AA0612078C00602D42046FFF729
:100CF000FAFC002608E003986268A168805D9047CE
:100D0000206A401C761C206204988642F3DB20781F
:100D1000C0060AD52046FFF7E6FC06E06268A16837
:100D200030209047206A401C206238467F1E0028F1
:100D3000F4DC07E000986268A168405D9047206A93
:100D4000401C206228466D1E0028F3DC2046FFF779
:100D5000E0FC2078000602D5022005B0F0BD01209D
:100D6000FBE70000FFB50C461E468FB003CA089093
:100D700009914F007D0D00D16D1E00210846002015
:100D8000C0460321099A89050840002A03DA820037
:100D9000801840080840800D01280A9002DD0020DC
:100DA000C0430A90089807430DD0F048F04928182E
:100DB00048430714189800281DD07542291E1DDDD0
:100DC0000A9842421BE01898012802D000203021E6
:100DD00004E00020F24305E02154401CB042FBDB5C
:100DE00030460022189B002121540F998B600A6025
:100DF000486013B0F0BDBD1B6D1CDFE70A9A0029E7
:100E000000DA69420BA800F02DFC0BAB07CB03AB5B
:100E100007C30899099800F091FC6B4607C3014687
:100E2000D4480918002D00910BDDD24903980A9A85
:100E300049424018002303A90390684600F0EEFEE3
:100E400008E003990A9A0023081803A9039068464A
:100E500000F08EFE6B4607C30004000C03D0002098
:100E6000C043410800E01046189A002A03D000222F
:100E7000009215461EE0751E05D4FFF7DDFE3032E8
:100E800062556D1EF9D501220843079602D0002253
:100E90007F1C04E02078302801D100227F1E002A28
:100EA000069787D01EE0112D07DAFFF7C5FE303216
:100EB00062556D1C02460A43F5D1084303D00098E1
:100EC000002819D00EE00021681E05E0235C625C5A
:100ED00063542254401E491C8142F7DBA81B401E6C
:100EE00007950690079A18990020A0540F98079B21
:100EF000069A81600CC07CE711260020189059E703
:100F0000D21DF0B50D460446D10893B0C90003C9FF
:100F10000C900D9102F000FB02460D98C00F01D01D
:100F20002D2007E02068810701D52B2002E0400733
:100F3000C00F4001032A0F9001D0072A05DB0346AA
:100F40002946204600F04AFB0EE12078800601D5B4
:100F5000E76900E006272846652D04D0662814D0EE
:100F6000672D69D12DE00020112F009001DB1123A6
:100F700000E07B1C0CAA03A910A8FFF7F3FE11994F
:100F8000002610987D1C0E9142E001203B460CAAE1
:100F9000C0070B900120009003A910A8FFF7E2FE04
:100FA000119D12981099002600280E9501D1781CE9
:100FB0000D18781B02D446427D1C761EE81B00905B
:100FC0003AE0012F00DA01270020112F009001DD07
:100FD000112300E03B460CAA03A910A8FFF7C2FEAC
:100FE00011993D46109800260E91217809070BD4DF
:100FF0000E99A94200DA0D4603A9012D04DD4A1914
:10100000203AD27F302A06D0B84201DA011D04DA34
:10101000012100910FE06D1EEFE7002802DC861928
:101020002D1A03E0411CA94200DD0D46801B401C27
:1010300000900120C0070B902078000705D400988D
:10104000A84202DB0020C043009069460020C8721D
:101050000B98012102AF0337C907884225D002202F
:1010600010902B2011900B9800280BDA40420B9027
:101070002D20119006E00B9800F039FA30317F1ED8
:101080000B9039701099481E00291090F3DC0B98D2
:101090000028F0D111987F1E38702088000501D5F6
:1010A000452000E065207F1E387001A8C01BC01DD0
:1010B0000B900F98002800D0012041190098C0170C
:1010C00009180B980818A169081A401EA061207819
:1010D000C00602D42046FFF706FB0F98002805D073
:1010E0006268A1689047206A401C20622078C00690
:1010F00025D52046FFF7F7FA21E0002E07DB0E98F2
:10110000B04204DD03A86268805DA16802E0626805
:10111000A16830209047206A761C401C206200980D
:10112000401E002800900AD100F054FAC06862689E
:101130000168405CA1689047206A401C20622846F4
:101140006D1E0028D9DC07E062683878A1687F1C32
:101150009047206A401C20620B99481E00290B9082
:10116000F2DC2046FFF7D5FA032042E601FCFFFF40
:10117000104D0000E1DFFFFFD21DF0B504460D4623
:10118000D0088DB0C000466807683146384602F086
:10119000C3F90246F00F01D02D2307E02068810734
:1011A00001D52B2302E04007C00F43016846002B06
:1011B000037001D0012000E00020032A0A9001D032
:1011C000072A04DB2946204600F008FA2DE12078A2
:1011D000800601D40D2500E0E5697000400D0D2D5D
:1011E00001904BDA300D00210B9008460020C046DC
:1011F000032189050840002E05DA82008018C20FFD
:101200001018401008408015012801DD0020C0435F
:10121000A9000023182906D39C460A460123183A40
:101220001B07D34003E001221205CA4094460C314B
:10123000202902D33A46203900E032468A4000286D
:1012400002DD002A06D119E0002817D10121C907C3
:101250008A4213D3194663467F185E41002806D19F
:101260000120C007824202D1084687439E430B9863
:10127000310D814202D00198401C01902088000568
:1012800002D57149794402E06F49794419396B46B6
:101290000A9830221A540A980A7C401C1A54401C9E
:1012A0000A900198002801DC302000E031201872FB
:1012B000019A0120002A02D0644BD21804E0720087
:1012C0003A4302D0614A521C0192002D02DC22787E
:1012D000120703D56A462E2050720220002286464D
:1012E00094460CE032033601120F6D1E8B5C02AA8D
:1012F00013546246521C401C9446052A01DA002D04
:10130000F0DC002202AE08E03B0F3F01CB5C521C38
:101310006D1E3354401C082A01DA002DF4DC2368CA
:101320009A0601D511E0401E704504DD3218203ABE
:10133000D27F302AF7D0002807DD3218203AD27F3A
:101340002E2A02D11A0700D4401E002D03DD3E22B2
:101350003254401C6D1E497C31540199401C0029B7
:1013600006DA2D21471C315401984042019003E0D8
:101370002B21471C315401987D21C900884206DB8E
:10138000FEF7BAFF3030F0557F1C019101E0642870
:1013900008DB01986421FEF7AFFF3030F0557F1C69
:1013A000019101E00A2806DB01980A21FEF7A4FF5B
:1013B0003030F0557F1C01980A21FEF79DFF303137
:1013C000F1550A98A1697F1C7A191018081AA061B2
:1013D0002078C00602D42046FFF785F9216A6E46C0
:1013E0000A980818206204E062683078A168761CC8
:1013F00090470A98401E0A90401CF5D12078C006FC
:1014000002D52046FFF76FF902AE09E03078761C6E
:101410003E280DD06268A1689047206A401C206277
:101420007F1EF3D22046FFF774F90DB00320F0BD04
:10143000206A4019206203E06268A168302090476A
:101440006D1EEDD3F8E700003C27000001FCFFFF14
:1014500010B54369002B02D0C046C04601E0FFF73B
:101460007BF9012010BD1278014624310A70002258
:101470004A700122ECE711680022D243E8E710B578
:101480004369002B02D0C046C04601E0FFF7F6F9E1
:10149000012010BD12880146243182840022C284BA
:1014A0000122ECE711680022D243E8E7F8B51646BE
:1014B0000C46054600F086F80368FF200230C05C49
:1014C000012807D0FF2C0FD8185D00280CD0012070
:1014D0002C70F8BDFF333246214608331868C71810
:1014E00028460023B847F8BD0020C043F8BD014698
:1014F0008008081A02091018020A1018020C1018A5
:10150000C008820012185200891A01E0401C0A39F2
:101510000A29FBD27047000010B5FF231B064400C8
:101520009C421DD84C009C421AD80346124A0B43D9
:1015300007D4401A02D3EFF3008010BDEFF3008010
:1015400010BD081A03D3EFF30080904305E0EFF3DA
:10155000008001219043C907084380F3008810BD33
:101560000D231B041A4204D01146002000F0AEFBEC
:1015700010BD00F0C3FB10BD000000900048704794
:10158000D80020207546FFF7F9FFAE4605006946F2
:101590005346C008C000854618B020B5FEF77CFE53
:1015A00060BCB64600260027C0C5C0C5C0C5C0C5C2
:1015B000C0C5C0C5C0C5C0C5403D490849008D462D
:1015C0007047000010B500F005F8001D10BD00BF09
:1015D0000D20000000487047F8002020F8B51F4695
:1015E000044601230068DB02032601461840072A4F
:1015F00005DB002801D017A506E017A504E00028A8
:1016000001D016A500E016A5102081432160A06935
:10161000C01E002FA06101D0401EA0612046FFF730
:1016200062F8002F09D038466268A1689047206AA6
:10163000401C2062C01C206206E0206AFAE7626853
:101640002878A1686D1C9047761EF8D22046FFF7D7
:1016500060F8F8BD4E414E006E616E00494E460086
:10166000696E6600F7B516468AB0334878446C4612
:1016700003467C33C06F5A689B680DC42E4878447B
:10168000763003AC0DC80DC43720C00108183721CF
:101690001B30FEF731FE05460C46803D1B3C02D553
:1016A0006442012000E000200027099010E0E007DC
:1016B0000CD00C2020497843794432464C394118EB
:1016C0006846012300F054FA6B4607C364107F1C80
:1016D000002CECD1184F7F442E3F16E0E80712D0C3
:1016E0002001C0190EC80691089307920068F042C5
:1016F00001D1981908903246012306A903A800F0E9
:1017000037FA03AB07C36D10641C002DE6D10998AE
:10171000002806D032466946012303A800F07EFA6D
:1017200005E001233246694603A800F021FA0A9B2E
:1017300007C30DB0F0BD0000682300000346400061
:101740000A4610B5400D0BD00121C9070F24A40291
:1017500000191C0364082143540D2143D20207E001
:1017600000210120F2E7D40F490021435200401E1E
:101770000029F8DADB0FDB07184310BDFFB50D4673
:10178000144685B04868516801F0AEFE00910190A2
:10179000A868A16801F0A8FE02910390A86861689A
:1017A00001F0A2FE029A12188242029201D2012096
:1017B00000E00020019A0B18D2180028019202D0F4
:1017C0008A4202D903E08A4201D2012000E00020CF
:1017D0000099081800906868A16801F085FE029AD7
:1017E00012188242029201D2012000E00020019AE8
:1017F0000B18D2180028019202D08A4202D903E0C5
:101800008A4201D2012000E00020009908180090CF
:101810002868216840004900400849084018FA49F2
:10182000471814E001994000C90F0843009001983F
:1018300002994000C90F08430190029803994000A3
:10184000C90F08430290039840007F1E0390009840
:101850000028E7DA0898002801D0EC4E00E00026C6
:10186000B74201DA012000E00020002804902AD0CD
:10187000F71BF806C00E15D0029B2021091A039A07
:101880008B401A430392029A019BC2408B401A4339
:101890000292019A009BC2408B4000991A43019228
:1018A000C14000917B110DD06F460320C11A03D5B2
:1018B00000218200B95003E08A008100BA587A50B2
:1018C000401EF3D5374603980299002800D0012026
:1018D000014308980291002808460CD0002800D047
:1018E00001200199019A490508430121D20AC90240
:1018F000D202019200E001210E9B0122D207012BAE
:1019000002D0002B03D013E0002807D120E0904242
:1019100004D890420CD1019B0B4209D0019B59186D
:10192000019105D10099491C009101D17F1C0092C1
:1019300000280DD0102108460020C0460498002839
:1019400006D00F98002803D0082108460020C04682
:1019500028682168019B009A4840C10F0598C90773
:1019600039430EC009B0F0BDFFB587B0099A089899
:1019700008995368926840688968964600220393E4
:1019800017469446089A12685300099A5B08126831
:10199000520052089A1A9E4BD4180A9A002A01D073
:1019A000352200E0402206920022012315460492CF
:1019B000DB07059324E0002D05D175460346039E01
:1019C0004D1BB34109D375466646039B491B049DD5
:1019D0009841059B7519AC465F4163463B4308D06F
:1019E000059B049EDD0776082E435B08049605934D
:1019F00001E0521E641EC50FED0749184041521CFC
:101A0000069B9A42D7DB002D04D17546039A6B1AC8
:101A1000824101D203200CE0039A0B466B40424006
:101A2000134303D0014303D0012002E0022000E071
:101A30000020614601910021009702910A99002936
:101A400005D0614640020143704B019102E08007DE
:101A5000002302909C4201DA012000E000200700F0
:101A60003AD01A1BD006C00E15D0029D2021019C31
:101A7000091AC5408C402543029C8C4000D00124AB
:101A80002543019C0295009DC4408D4000992C4344
:101A90000194C140009154111DD06D4602210022D5
:101AA00002290CD10320001B07E0002804DB86007C
:101AB000AE59002E00D00122401C0328F5DB081B84
:101AC00002D588002A5004E08000285810438A007C
:101AD000A850491EE3D51C460A98002802980CD04D
:101AE000002800D001200199019A490508430121ED
:101AF000D20AC902D202019200E00121109B012208
:101B0000D207012B02D0002B03D013E0002807D10D
:101B10001FE0904204D890420CD1019B0B4209D0A7
:101B2000019B5918019105D10099491C009101D1DF
:101B3000641C009200280CD0102108460020C046EA
:101B4000002F06D01198002803D008210846002055
:101B5000C04608980999019A009B006809684840A6
:101B6000C10F0798C907214382600AC00BB0F0BDBE
:101B700000B585B0019300920A460146002302A8F1
:101B8000FFF7FCFD02A807C805B000BDFFB50A4677
:101B90001F4685B00799019301230091014602A8D1
:101BA000FFF7ECFD02990398049ECA0F4900D20783
:101BB00000920F22490892028C1A0021002800DBB3
:101BC0000C46450013486D08844214D3079A002A36
:101BD00004DA441E0026104DF64302E004460D468A
:101BE0000E46102108460020C046002F03D00421D5
:101BF00008460020C0462005E90A0843009908432A
:101C00006905F20A1143ADE602C0FFFF013C000086
:101C1000FF3F0000FF070000FFFFFF7F00B585B01A
:101C2000019300920A460146002302A8FFF79CFE9A
:101C300002A807C8A8E7FFB50A461F4685B007995E
:101C4000019301230091014602A8FFF78DFE02993E
:101C50000398049ECA0F4900D20700920F22490838
:101C600092028C1A0021002800DB0C464500114826
:101C70006D08844214D3079A002A04DA441E002611
:101C80000D4DF64302E004460D460E46102108466F
:101C90000020C046002F03D0042108460020C04683
:101CA0002005E90A0843009908436905F20A11432F
:101CB00058E60000FF070000FFFFFF7F10B5044655
:101CC000C046C0462046FEF7D9FA10BDC80212D55C
:101CD0004803400F002804D0C803C04301218840B6
:101CE0007047EFF300800001000903210907084352
:101CF00080F30088704700207047000010B502484C
:101D000000F05CF810BD00000000C07F82078B0768
:101D10009A423FD170B5920F0AD0032402780B7813
:101D2000401C491C002A33D09A4231D12042F5D1BF
:101D3000214EF40104C808C9951B9543254018D1CC
:101D40009A420FD104C808C9951B9543254010D16C
:101D50009A4207D104C808C9951B9543254008D16C
:101D60009A42E7D012BA1BBA01209A4200D24042EE
:101D700070BD12BA1BBA2DBA18241000E040190029
:101D8000E140401A05D12E00E64002D1083CF4D1D2
:101D9000D01A70BD02780B78401C491C002A09D06B
:101DA0009A4207D102780B78401C491C002A01D0C6
:101DB0009A42EFD0D01A70470101010110B50C46CC
:101DC0001107090F092904D00A290AD008290CD1C2
:101DD00004E011460820FFF779FF06E0510606D51A
:101DE00001E0510601D50120C007214610BDD106F2
:101DF00007D501010909CC084907000E0006044374
:101E000009E0410F20024907000A0143200E0006A5
:101E10001D22D14101430846E7E70000014918208F
:101E2000ABBEFEE72600020070470000B0B50A789E
:101E3000032313400B4A84580B4D2540EB18A9246B
:101E400024061B198350072212064B6813401124E5
:101E5000240205599543EA18025100194978016195
:101E6000B0BDC04608080000FCFFFF00811E091F2E
:101E700000BFFCD270470000F0B583B00B794A79FF
:101E8000002A2BD01B4A1C4C1C4F202B02D00525AE
:101E9000EE0100E04C4E851802190092C219002B89
:101EA00000D188261768474C2740BF19176057682C
:101EB0002740BE1956602E68804F3E402E606E68E7
:101EC0003E406E600025009C256065608F24E443E1
:101ED00015692540156155692540556101AA1371A1
:101EE0008B79537109680191114600F009F803B02C
:101EF000F0BDC046381800005818000078180000DF
:101F0000F0B584B06B4A82180292734BC618784BB6
:101F1000C21800922A4BC4180A7901910D68294F02
:101F2000202A03920AD0254BC018002A17D16B1E15
:101F3000029A536023683B40882517E0681E029A86
:101F4000506020683840204B18432060606838405B
:101F500018436060012045071C4F104608E06B08DD
:101F6000029A536023683B400525ED012B43236013
:101F7000009903683B402B43036030684F4B184087
:101F800030607068184070600020086048608F20E2
:101F9000C04323690340236163690340636101987F
:101FA000407903990843BD2101401068084B034064
:101FB000C818801C106004B0F0BDC0467418000042
:101FC0007018000024493E0001040000FFFFFFCF0D
:101FD0004000FFCF70B5374A82184B6853603E4BC4
:101FE000C3180878222857D8840001A52C59A74681
:101FF0008F200000992000008F2000009920000011
:1020000099200000992000009920000099200000EC
:1020100099200000992000009920000099200000DC
:1020200099200000992000009920000099200000CC
:102030007D200000992000007D20000099200000F4
:1020400099200000992000009920000099200000AC
:10205000992000009920000099200000992000009C
:10206000992000009920000099200000992000008C
:102070007D200000992000007D200000032424071B
:102080001568A543012464072C19146004E0032497
:1020900024071568A54315600C69D460CC68064D0B
:1020A00025401C68054E264074191C60097A0143BE
:1020B000116070BD04180000777702008888FDFF6A
:1020C00010B507239B04194092008018024A8458D7
:1020D0009C436118815010BD3018000010B5029C5F
:1020E000A400001911431943014A815010BDC04694
:1020F0005018000092008018014A81507047C04675
:102100001018000010B50122120383180C789C608F
:102110004B7883508978014A815010BD0C11000022
:10212000B0B51122120283580124A34383508B7847
:102130000C881C438B882343094C1C408358094D51
:102140001D402B1983508B79CC791C43097A21438C
:102150007E231940801842689A4351184160B0BDEF
:1021600018670000E798FDFF10B5012212038318DD
:102170000C789C604978815010BD000070B5012238
:102180003848014610390B681103DC0413D49C0352
:1021900022D411061A460A4038D15A025CD50122CF
:1021A0009405314D2B682E68234256D1264244D1E6
:1021B0002E68304B1BE02C4C256823680D421DD146
:1021C0000B4246D1012223689B03284B3ED4520484
:1021D000246814423DD138E001225404224D2B687A
:1021E0002E68234220D1264227D12E681F4B0E4253
:1021F00020D12D680D42214628D02AE09B031B4B9D
:1022000023D4550424682C4220D022E0164C2368A5
:1022100022680B4213D10A421BD1012223685B02C0
:10222000144B13D49205D3E7104B0E4203D12A6806
:102230000A4202D10E4A214608E0214609E0520234
:102240000C4B02D401229505DCE7094A1C88A21830
:102250001A8002680A43026070BD064B0E42E6D047
:10226000E9E7C04648100A4080130A403C0120209C
:10227000FFFF00003E012020F0B581B0437D002526
:10228000002B00D1ED43EB4309B20029009500DC9F
:102290001D46C0C83D402524E4013259BA435219B5
:1022A00032510838002900DC009BC2681340856861
:1022B0002E599643F2182A51CA175140891A0369B8
:1022C000027D1846FFF716FF01B0F0BDF0B583B0F0
:1022D00001200607C7070020524C00900290C0B2B0
:1022E0000190009D294600F0C1FB4F492068304312
:1022F0002060206838432060206808402060781EF5
:10230000216801402160782000F01CF8402000F096
:1023100019F8002000F016F84349206808402060B2
:10232000206838432060206830432060681C45B234
:10233000002DDBD50298401C01990729CED303B0AC
:10234000F0BDC046F0B537490A68374C22408023BB
:1023500003405B05D2180A60344A531C0D681D43C4
:102360000D600D6815400D6001252D0786052E4076
:102370000F682740BE190E600E681E430E600E687F
:1023800016400E60C6052E400F682740BE190E602D
:102390000E681E430E600E6816400E6006062E4044
:1023A0000F682740BE190E600E681E430E600E684F
:1023B00016400E6046062E400F682740BE190E607C
:1023C0000E681E430E600E6816400E6086062E4094
:1023D0000F682740BE190E600E681E430E600E681F
:1023E00016400E60C6062E400D682540AD190D60E2
:1023F0000D681D430D600D6815400D600D6825408A
:10240000C007C008281808600868184308600868F2
:1024100010400860086818430860086810400860A9
:10242000F0BDC04680120A40FFFFFFEFFFFFFF7FB5
:10243000F0B585B00120C707FC4E316839433160E3
:1024400004073068204330603068204330603068D3
:10245000384330603068F649084030607D1E30688F
:1024600028400195306078200290FFF76BFF002034
:102470000490FFF767FFAE20FFF764FF3068EC4978
:102480000840306030683843306030682043306046
:10249000306820433060306838433060306808402E
:1024A0003060306828403060029D2846FFF74AFFC0
:1024B0000498FFF747FFD520FFF744FF3068DC4959
:1024C00008403060306838433060306803942043FF
:1024D00030603068204330603068384330603068A6
:1024E000084030603068019C204030602846FFF78B
:1024F00029FF049D2846FFF725FF8020FFF722FFD4
:102500003068CB490840306030680097384330600D
:102510003068039A10433060306810433060306890
:1025200038433060306808403060306820403060A8
:10253000029F3846FFF706FF2846FFF703FFA82053
:10254000FFF700FF3068BA49084030603068009CEF
:10255000204330603068039B184330603068184374
:102560003060306820433060306808403060306848
:10257000019D284030603846FFF7E4FE0498FFF7DD
:10258000E1FE3F20FFF7DEFE3068A94908403060D9
:1025900030682746204330603068039C2043306019
:1025A000306820433060306838433060306808401D
:1025B0003060306828403060029D2846FFF7C2FE38
:1025C0000498FFF7BFFED320FFF7BCFE30689849A0
:1025D00008403060306838433060306820433060F5
:1025E00030682043306030683843306030680840DD
:1025F000306030680199084030602846FFF7A2FE3D
:10260000049D2846FFF79EFE2846FFF79BFE306894
:102610008749084030603068384330603068204374
:102620003060306820433060306838433C4630606A
:102630003068084030603068019D28403060029862
:10264000FFF780FE049F3846FFF77CFE4020FFF72F
:1026500079FE3068764A1040306030682043306040
:102660003068039B1843306030681843306030682E
:10267000204330603068104030603068284030605F
:10268000029D2846FFF75EFE3846FFF75BFEA1205D
:10269000FFF758FE3068F449084030603068204346
:1026A00030603068039A1043306030681043306007
:1026B000306820432746306030680840306030681A
:1026C000019C204030602846FFF73CFE049D2846D0
:1026D000FFF738FEC820FFF735FE3068E2490840B2
:1026E00030603068384330603068039A104330609F
:1026F00030681043306030683843306030680840DC
:102700003060306820403060029F3846FFF71AFE84
:102710002846FFF717FEDA20FFF714FE3068D2498B
:10272000084030603068009C204330603068039B74
:1027300018433060306818433060306820433060A0
:102740003068084030603068019D2840306038466D
:10275000FFF7F8FD0498FFF7F5FD1220FFF7F2FDF3
:102760003068FD4908403060306820433060306890
:10277000039A104330603068104330603068204363
:10278000274630603068084030603068284030604C
:10279000029C2046FFF7D6FD0498FFF7D3FD812069
:1027A000FFF7D0FD3068EC4A1040306030683843A5
:1027B0003060306803990843306030680843306007
:1027C00030683843306030681040306030682840EE
:1027D00030602046FFF7B6FD049C2046FFF7B2FDAF
:1027E000CF20FFF7AFFD3068DB4A10403060306823
:1027F00038433060306803990843306030680843DC
:102800003060306838433060306810403060306885
:1028100028403060029F3846FFF794FD2046FFF7BE
:1028200091FDD920FFF78EFD04E0C04680120A40DA
:10283000FFFFFFEF3068C84B1840306030680099E8
:10284000084330603068039A1043306030681043AA
:10285000306030680843306030681840306030685D
:10286000019C204030603846FFF76CFD049D2846EF
:10287000FFF768FDF120FFF765FD3068B64A1040AC
:1028800030603068009F38433060306803990843F7
:1028900030603068084330603068384330603068FA
:1028A000104030603068204030600298FFF74AFDE9
:1028B0002846FFF747FDDB20FFF744FD3068A649B7
:1028C000084030603068384330603068039C2043F3
:1028D00030603068204330603068384330603068A2
:1028E000084030603068019D284030600298FFF752
:1028F00029FD0498FFF726FD3020FFF723FD3068FF
:102900009549084030603068384330603068204373
:102910003060306820433060306838433060306861
:1029200008403060306828403060029D2846FFF73C
:1029300009FD0498FFF706FDA420FFF703FD3068AA
:102940008549084030603068384330603068204343
:102950003060306820433060306838433060306821
:102960000840306030680199084030602846FFF721
:10297000E9FC049D2846FFF7E5FCA620FFF7E2FCF2
:1029800030687549084030603068384330603068DE
:1029900020433060306820433060306838433C4624
:1029A000306030680840306030680199084030601D
:1029B000029F3846FFF7C6FC2846FFF7C3FC8D2070
:1029C000FFF7C0FC30686449084030603068254635
:1029D000204330603068039C2043306030682043DF
:1029E00030603068284330603068084030603068BC
:1029F0000199084030603846FFF7A4FC049F384630
:102A0000FFF7A0FC1420FFF79DFC306852490840F6
:102A10003060306828433060306820433060306870
:102A200020433060306828433060306808403060B0
:102A300030680199084030600298FFF783FC3846FF
:102A4000FFF780FCAF20FFF77DFC3068424908406B
:102A50003060306828433060306820433060FFF7D2
:102A600035FC05B0F0BDC046FFFFFFEFF0B585B007
:102A70000291009001200407364F396821433960E4
:102A8000C5073868284338603868334908403860DB
:102A9000691E386808400E4601913860782004901D
:102AA000FFF750FC00200390FFF74CFCB02000998A
:102AB0000843FFF747FC3868274908403860386802
:102AC00028433860386820433860386820433860CD
:102AD00038682843386038680840386038683040C3
:102AE00038600498FFF72EFC0398FFF72BFC029E3A
:102AF00030091030FFF726FC386817490840386065
:102B00003868284338603868204338603868204384
:102B1000386038682843386038680840386038685A
:102B20000199084038600498FFF70CFC0398FFF700
:102B300009FC0F203040FFF705FC386806490840C3
:102B4000386038682843386038682043386005B0FA
:102B5000F0BDC04680120A40FFFFFFEFF0B585B020
:102B600004910446C6694E480568A81BFDF7B8FDE8
:102B70004C49FDF7B3FC002E07D007467F20C10566
:102B8000384600F0F5FC002804D120200121215412
:102B900000276761E5612068049900F0F9FD0646A9
:102BA000A5680021284600F0CDFC00283BD1029505
:102BB00000253846294600F0C5FC002833D12020E6
:102BC000205C0128039605D1204620300570019530
:102BD000049E09E02169049E304600F031FE39462A
:102BE000FDF77CFC0190A56926612F4801683846F5
:102BF00000F00AFD01463846FDF770FC06460198D4
:102C0000294600F01DFE0146304600F0C1FD294670
:102C100000F0FAFC0146A061029800F0B9FD0399AA
:102C200000F0F2FC064665680021284600F08AFCA8
:102C300000282ED10021384600F084FC002828D13D
:102C400003962846049900F0A3FD394600F0A0FD44
:102C5000616900F0D9FC0746A6897042FDF738FD8E
:102C600005463846294600F090FC002800D13D4634
:102C70003046FDF735FD06462846314600F06DFC2E
:102C8000002800D12E4666610398314600F0BCFC56
:102C900006463046FDF7D2FC00B205B0F0BDC04696
:102CA000AC02202000007A444800202010B5174CC8
:102CB00017492046FFF758FA16492046FFF730FA21
:102CC0000321CA0314480368934303600269134B4A
:102CD00013401A33036142690A433C218A4342612B
:102CE000426801210A4043688B439A1842608A0275
:102CF0000B4B1C6814431C60FF2212066B4B1C68B4
:102D000094431C6002680A43026010BD00005040FA
:102D10006C3A00006E3A0000001150400000FFFFC6
:102D20002810504010B522488522826401231C02DD
:102D300020490C60C2645A020A60822282631E4AE1
:102D4000C2638122826042611C4B5A655A660266E8
:102D500042661B4C1C605C611C655C6342600260E7
:102D60000A46303A0320430613600A46403A154BA0
:102D70001360154A0A600106144A13680B43136076
:102D80001369134C23431361124A13680B431360F6
:102D900051682143516010490A6A104B1A430A6274
:102DA0000A681A430A6000020D490860086310BDF2
:102DB00004804240D0120A408200040088804240D1
:102DC00081000500030000900300009690130A4064
:102DD0000C30030008150A4028100A400010420178
:102DE000A0320A4070B582B0194C1A492046FFF74C
:102DF00089F919492046FFF73FF80025009520463C
:102E000029462A462B46FFF769F9204629462A46D5
:102E1000FFF756F9204629462A46FFF76BF90126A7
:102E20000096204629462A462B46FFF757F92046AA
:102E300029463246FFF744F9204629463246FFF735
:102E400059F9064886600321016002B070BDC04692
:102E500000008640783A00007C3A0000001186406D
:102E60001048002101600320C0430F490A46083A78
:102E70001368034013600A68012082430A6002025B
:102E80000B6893430B600203091F0B6813430B602D
:102E9000FF210902054A13688B438003181810604C
:102EA0007047C04608030B4008010B4000E400E0F7
:102EB00080B510481049FEF7B9FF10484168104A24
:102EC0000A40032109045118416081680D4A0A40F3
:102ED00001214B06D21882600B4A00231360516017
:102EE0000523936019221201426102680A430260BD
:102EF00080BDC04600200040843A00000031004000
:102F0000FEFFECFFF8FFE0E08031004080B500F00C
:102F10001FF8FFF707FFFFF7A3FFFFF763FF00F0BE
:102F200069F800F045F8FFF7C1FEFFF7C1FF742014
:102F3000044900220A54B82003490A542C200349AA
:102F40000A5480BD2C022020700120204001202046
:102F5000F0B581B00D480E4941600E4A51600E4BEC
:102F600059600E4C61600E4D69600E4E71600E4FDF
:102F700079600E490160116019602160296031603B
:102F800039601020FEF772FF01B0F0BD00080A4062
:102F9000030000B100280A400008864000480840AD
:102FA00000888640000850400028004001000026AC
:102FB00010B50B4C0B492046FFF7A4F80A492046F0
:102FC000FFF708F809480168012211430160FF205A
:102FD000000219490B6883430B600548026010BD6D
:102FE000008086408C3A0000903A0000289086408D
:102FF0000891864010B50C4C0C492046FFF782F82A
:103000000B492046FEF7E6FF0A48016801221143FA
:10301000016009480168C0230B433F218B430360D3
:103020000648026010BDC04600400840A43A0000B7
:10303000A83A00002850084010E400E00851084079
:1030400010B5044600F05AF80146E071CC4800F093
:103050005DF8A179022907D0002915D1E179FF296E
:1030600012D10221A17110BD2179E279FE2A04D189
:10307000032902D10121617110BD63181A72491C24
:103080002171C9B2042902D3204600F001F810BD15
:10309000002181718180704700218171818070479A
:1030A00082B0B0B592B004461692179316AA019258
:1030B00002AD2846FDF700F92878002818D02168CD
:1030C0001B4A8918002206E08861521CD0B202AB6C
:1030D000185C00280CD00B68DB07F5D00B68DB0709
:1030E000F2D00B68DB07EFD00B68DB07F3D1EBE71F
:1030F00012B0B0BC01BC02B00047C0460068024933
:103100004058C0B27047C046241100000068084A09
:1031100080180268D20708D00268D20705D002687A
:10312000D20702D00268D207F3D181617047C0464E
:1031300008110000F0B581B08C480068C0B20128C9
:1031400000D011E18A4D288840428A4C20808A4F65
:1031500039884942894A118002B20BB2884889A154
:10316000FFF79EFF00263E802E8088480168884A2F
:1031700011804168874A1180806887490880BE486D
:103180000078032800D9EFE07844007940008744B4
:10319000019E247EA05FFDF79BFA014680480068EF
:1031A00000F0F6FA01467F48FFF7D8FC7E4C2080FD
:1031B0007248805FFDF78CFA01467C48006800F099
:1031C000E7FA01467A48FFF7C9FC7B4D2880A15FEA
:1031D0007A48FFF751F8A95FC3E0AD48008800289E
:1031E00000D1C1E0A05FFDF773FA0446A74FB85FB6
:1031F000FDF76EFA05466A480168204600F0C8FAF5
:10320000294600F01DFB01466648FFF7A7FC66490A
:1032100008805A48805FFDF75BFA0446B85F404279
:10322000FDF756FA054661480168204600F0B0FAFD
:10323000294600F005FB01465D48FFF78FFC5D491C
:10324000884200DC0846E1225201904200DB104631
:10325000594C2080544B985F884200DC08469042CD
:1032600000DB10461880574D2988081801B25348D2
:10327000FFF702F828882188081801B25048FEF7A5
:10328000FBFF834908880A30088001B0F0BDA05FC9
:10329000FDF71EFA044641480088FDF721FA05466D
:1032A0003F480168204600F073FA294600F0C8FA4A
:1032B00001463C48FFF752FC3B4F38802F48805F67
:1032C000FDF706FA044635480088404223E0A05F37
:1032D000FDF7FEF904466F48805F3B4909884018B6
:1032E000FDF7F6F905462E480168204600F050FA31
:1032F000294600F0A5FA01462A48FFF72FFC2A4F7D
:1033000038801E48805FFDF7E3F904466148805F1E
:103310002D490988081AFDF7DBF90546234801689D
:10332000204600F035FA294600F08AFA0146204886
:10333000FFF714FC1F4A904200DC1046E1214B01CC
:10334000984200DB18461C4C2080B95F914200DC9B
:103350001146994200DB194639801848FEF78CFF68
:10336000A15F1748FEF788FF01B0F0BD205008406C
:103370003C012020B20220203E012020B402202067
:103380000000202025642C25640D0A0080320040B6
:10339000A6022020A4022020A8022020D000202065
:1033A0005000202070002020AA022020540020205D
:1033B000AC002020E0E3FFFFB002202058002020D6
:1033C00094002020D20020204C00202004480068D7
:1033D000C0B2012803D103480168491C016070474D
:1033E00020908640AC02202010B522480068C0B270
:1033F0000B283ED1384C2046FFF722FE6079012889
:1034000037D1207A1C49087003281DD878440079E8
:10341000400087442B01082BA07A617A0902081822
:103420001C49088022E0A07A14490870082811D0AD
:1034300004280CD0022816D11148008811490880B0
:103440001148008840420CE0002008700EE00C4853
:10345000008802E00A48008840000A4908800A48BB
:1034600000880A4908800A48012101801A48FFF7AC
:103470000FFE10BD201050403A0120204E002020A9
:10348000D6002020B8022020D4002020B602202020
:10349000BA02202038012020FFF738FDFEF7C8FFD0
:1034A0000D4C2046FFF7F8FD012568040B4E3060F7
:1034B0000B4F38600820306038602046FFF7ECFD85
:1034C000280208490A6802430A6002203060386016
:1034D000280430603860FEE70000202080E200E031
:1034E00000E100E004310040F8B5040C8BB2264640
:1034F00082B25E43104658430D0C370C360400214F
:103500008019164679416E43370C360480192646D9
:1035100079416E438919F8BD4900CA02024310007F
:1035200000D004204A0D01D001221043044A490D65
:10353000914201D102210843012800D105207047A2
:10354000FF07000010B500F0A5F8EFF30080400081
:1035500001D5012010BD002010BD10B500F0C4F849
:10356000EFF300804000800F012800D0002010BD44
:1035700010B500F0E3F8EFF300804000800F012861
:1035800001D0012010BD002010BD10B500F0D6F80C
:10359000EFF30080800001D4012010BD002010BD99
:1035A00030380A2801D201207047002070470000FF
:1035B00010B500290AD00878002807D005487844BB
:1035C000FEF7A4FB002801D0002010BD024878447B
:1035D00010BD0000220500001A05000010B50029EA
:1035E0000AD00878002807D005487844FEF78EFBFB
:1035F000002801D0002010BD0248784410BD000012
:10360000120500000A05000070B50125ED07040051
:103610004C4020D4441A01D2001B0919C60D4B009E
:10362000F2B2FF2A29D01B0E2CD000020C02284334
:103630002C43D31ADC40051910D2280A02D3401CAF
:103640006D0611D0761EF6058019FF2A00DA70BDCE
:10365000C00DC00570BD694000F0F8F801200543B9
:10366000C541521C761CE8E764089C40C9016140D2
:103670008900E7D10124A043E4E71B0E440200D0F7
:10368000034870BD002AFCD1C00FC00770BD00BF49
:103690000000C07F0123DB0502000A430DD4DA429B
:1036A00003D49A4207D488427047D84214D4D942EE
:1036B00012D48842704780427047DA4203D59A425A
:1036C000F9D5814270475B004200DA4204D24A00D9
:1036D000DA4201D28142704710B5024AFDF71CFF61
:1036E00010BD00BF090012040123DB0502000A43DC
:1036F0000DD4DA4203D49A4207D488427047D842A4
:1037000014D4D94212D48842704780427047DA42BA
:1037100003D59A42F9D5814270475B004200DA42F4
:1037200004D24A00DA4201D28142704710B5024AFF
:10373000FDF7F2FE10BD00BF090013040123DB05F5
:1037400002000A430DD4DA4203D49A4207D48842D5
:103750007047D84214D4D94212D48842704780426C
:103760007047DA4203D59A42F9D5814270475B002F
:103770004200DA4204D24A00DA4201D28142704762
:1037800010B5024AFDF7C8FE10BD00BF09001604BF
:1037900070B5420064414B005C41120E39D01B0EE3
:1037A00038D0FF2A3CD0FF2B3AD0D2187F3A4002C3
:1037B0004902400A490A4518ED0106004E43000A35
:1037C000090A48430104731A4019190C4318990F48
:1037D00004D05B08012149075B1A521CD80904D3A5
:1037E000401CF50301D19D0607D0FF2A08D2D5055C
:1037F00006D0E4072043401970BD0125A843F4E733
:10380000002A01DCE00770BD2402FF202043C00530
:1038100070BD1B0EFF2A03D0FF2B01D0E00770BD47
:10382000FF2636064500B54206D84D00B54203D8FE
:10383000D218FF2A00D0E7E7004870BD0000C07F23
:1038400070B50125ED0704004C4022D4441A02D281
:103850006C40001B0919C60D4B00F2B2FF2A4BD079
:103860001B0E50D000020C02A8432C43D31ADC409C
:10387000051B05D5AD0019D36D08761E521E37D035
:10388000F605280A01D2801970BD70416D0603D07B
:1038900070BD6940FFF7BEFE9C40090261404900CF
:1038A00001D0401E70BD0124A04370BD6D081DD025
:1038B00001202B0C01D12D0410302B0E01D12D0233
:1038C00008302B0F01D12D01001DAB0F01D1AD0030
:1038D000801CEB0F01D16D00401C361A121A6D00CE
:1038E000680AF5054019012A02DB70BD002070BD91
:1038F000C036300AC00770BD1B0E440201D1FF2B39
:1039000000D1024870BD002AF0D070BD0000C07F19
:1039100003B402487844844603BC6047E9D5FFFFFE
:1039200003B402487844844603BC604751D8FFFF83
:103930008182838485868788898B8C8D8E8F9192F6
:1039400093959697999A9C9D9FA0A2A3A5A7A8AA94
:10395000ACAEB0B2B3B5B7B9BCBEC0C2C5C7C9CCB6
:10396000CED1D4D7D9DCDFE2E6E9ECF0F3F7FAFE0A
:1039700000000000000000003031323334353637AB
:1039800038394142434445464030580030313233A3
:1039900034353637383961626364656640307800A3
:1039A0000400000800000000000000020001000008
:1039B00010303132333435363738396162636465FB
:1039C0006678700030313233343536373839414219
:1039D000434445465850000002400000000000A04B
:1039E0000000000005400000000000C800000000CA
:1039F0000C4000000000409C000000001940000046
:103A00000020BCBE0000000034400000BFC91B8E77
:103A100000000004B5400000504BCFD06607E2CF55
:103A2000010000006C4100003E8251AADFEEA73485
:103A300001000000D9420000DCB5A0E23A301F9737
:103A4000FFFFFFFFB4450000FD25A0C8E9A3C14F5B
:103A5000FFFFFFFFFF3F00000000008000000000AC
:103A6000FF3F000000000080000000000400000094
:103A7000180000000030000008070000201C0000B3
:103A80002001010001050000000000030807630099
:103A900002000000270000000100000000000000FC
:103AA0000000000008076300020000008F01000012
:103AB0000100000000000000000000000000000005
:103AC000103C000000002020D80000002001000071
:103AD000E83C0000D8002020E80300004801000076
:103AE0001C00000043000000F8FFFFFF0C00000076
:103AF0000E0000000F0000002E000000100100006A
:103B000043000000F8FFFFFF0040404040404040BD
:103B100040404141414141404040404040404040A0
:103B20004040404040404040400502020202020244
:103B30000202020202020202022020202020202093
:103B400020202002020202020202909090909090A7
:103B50001010101010101010101010101010101065
:103B600010101010020202020202888888888888D9
:103B700008080808080808080808080808080808C5
:103B800008080808020202024000000000000000CD
:103B90000000000000000000000000000000000025
:103BA0000000000000000000000000000000000015
:103BB0000000000000000000000000000000000005
:103BC00000000000000000000000000000000000F5
:103BD00000000000000000000000000000000000E5
:103BE00000000000000000000000000000000000D5
:103BF00000000000000000000000000000000000C5
:103C000000000000000000000000000000000000B4
:103C10000000504000000000000000000000000014
:103C20000000000000000000000000000000000094
:103C30000000000000000000000000000000000084
:103C40000000000000000000000000000000000074
:103C500000000000000000002472023C0004040088
:103C600005DEFE425555054300000A4000000002F3
:103C700000000A400000000400008640000100002F
:103C8000000000000000000000000000000800002C
:103C90000000000000000000000000000000000024
:103CA0000000000000200A400001000000200A403F
:103CB000000200000000864001000000000000003B
:103CC00000000000000000000008000000000000EC
:103CD00000000000000000000000000000000000E4
:083CE0008601000C8601E803D7
:04000005000000C136
:00000001FF
