:020000040000FA
:10000000E80420208D010000910100009301000010
:1000100000000000000000000000000000000000E0
:10002000000000000000000000000000950100003A
:10003000000000000000000097010000990100008E
:100040009B010000890800009B0100009B0100004B
:100050009B0100009B0100009B0100009B01000030
:10006000000000009B0100009B0100000000000058
:10007000000000009B0100009B0100009B010000AC
:1000800061170000E11900009B0100009B010000C6
:100090009B0100009B010000000000000000000028
:1000A0009B0100009B010000000000000000000018
:1000B0009B010000000000009B0100009B0100006C
:1000C00000F002F800F052F812A030C808382418E6
:1000D0002D18AC4201D100F049F80FCCA246AB4636
:1000E0000CA730CF2D1B083F3F197C427F1E544484
:1000F0002D090426F441641EAC4201D300F036F809
:100100000126334200D0FB1A3343984754465D46DC
:10011000DFE70000441D0000641D00000000000037
:10012000103A02D378C878C1FAD8520701D330C840
:1001300030C101D504680C60704700000000000069
:100140007047000000000000002300240025002666
:10015000103A01D378C1FBD8520700D330C100D583
:100160000B6070471FB51FBD10B510BD00F066F9DC
:100170001146FFF7F7FF01F041FC00F07EF903B4F0
:10018000FFF7F2FF03BC00F0CFF90000064800477C
:10019000FEE7FEE7FEE7FEE7FEE7FEE70348044969
:1001A000044A054B70470000C1000000E80220200F
:1001B000E8042020E8032020E8032020704770474F
:1001C00070470000F0B5FF252D04C609C209FF27BE
:1001D00004462E400137CB093E4348402A402B407D
:1001E0000746002A6BD0002B69D0AA4267D0AB42E9
:1001F00065D0002800DA32460125ED0529432C435D
:1002000009022002090AD21A4B0C7F24E31A434C3C
:10021000000A7C44E35C7D242404121914145B005E
:10022000A218884201D3521C00E0400049420C460B
:100230005C4324115C43DB016415E318040A5C434E
:10024000C502200D0C4644436419250A5D4323036F
:10025000EC0C0D46654300030019EB184C42A34219
:1002600001D35B18401CD4052018002B07D05B007D
:10027000C91804D3401C002901D1400840003F2187
:1002800089048A4209D3002A08DC1106090F04D028
:10029000032149074018C00FC007F0BD01224100EB
:1002A000120689187F2252069142F6D2052149078B
:1002B000C84201D59010F0BDFF20C005F0BD002F51
:1002C00000DA32461648AA4207D2AB4205D21902DA
:1002D000090E17D0F80FC007F0BDFF2563002D06EB
:1002E000AB42F9D84900A942F6D8AB4201D1A942A4
:1002F000F2D0A94201D1002101E061004908D005F6
:100300000843F0BD1102090EFBD0FF200243D005C7
:10031000F0BD0A460146104654E70000B21B00003B
:100320000000C07F10B501469E240002CA15A30735
:10033000002A02D01843002A04DBA21A002A0CDD8E
:10034000D04010BD1206120E01D140004008A21A82
:1003500003D4D04040420028F3DDFF2248001206BB
:10036000904201D9002010BDC817C043584010BDAD
:100370001F22030C02D10F2200041CD0030E01D156
:100380000002083A030F01D10001121F830F01D1AF
:100390008000921E002801DB4000521ED205511839
:1003A000021251181922904004D3491C002801D18F
:1003B0004908490008467047C10FC90700D04042AC
:1003C000012292071143D3E701218907D0E70000FA
:1003D00010B5FF231B0644009C421DD84C009C42D4
:1003E0001AD80346124A0B4307D4401A02D3EFF33C
:1003F000008010BDEFF3008010BD081A03D3EFF3A7
:100400000080904305E0EFF3008001219043C9078D
:10041000084380F3008810BD0D231B041A4204D04A
:100420001146002000F031F810BD00F045F810BD75
:100430000000009000487047000120207546FFF73B
:10044000F9FFAE46050069465346C008C000854620
:1004500018B020B5FFF7A2FE60BCB6460026002704
:10046000C0C5C0C5C0C5C0C5C0C5C0C5C0C5C0C564
:10047000403D490849008D46704710B50446C046C6
:10048000C0462046FFF77BFE10BDC80212D54803C8
:10049000400F002804D0C803C043012188407047A2
:1004A000EFF300800001000903210907084380F3EE
:1004B000008870470020704710B5024800F004F82B
:1004C00010BD00000000C07F10B50C461107090FD9
:1004D000092904D00A290AD008290CD104E01146C0
:1004E0000820FFF7D2FF06E0510606D501E05106CD
:1004F00001D50120C007214610BDD10607D5010155
:100500000909CC084907000E0006044309E0410F21
:1005100020024907000A0143200E00061D22D14196
:1005200001430846E7E7000001491820ABBEFEE79B
:100530002600020070470000B0B50A78032313407C
:100540000B4A84580B4D2540EB18A92424061B198F
:100550008350072212064B681340112424020559C8
:100560009543EA180251001949780161B0BDC046AF
:1005700008080000FCFFFF00811E091F00BFFCD21D
:1005800070470000F0B583B00B794A79002A2BD070
:100590001B4A1C4C1C4F202B02D00525EE0100E00D
:1005A0004C4E851802190092C219002B00D18826E2
:1005B0001768474C2740BF19176057682740BE1976
:1005C00056602E68804F3E402E606E683E406E60E2
:1005D0000025009C256065608F24E4431569254053
:1005E000156155692540556101AA13718B795371C5
:1005F00009680191114600F009F803B0F0BDC0464A
:10060000381800005818000078180000F0B584B0C1
:100610006B4A82180292734BC618784BC21800922C
:100620002A4BC4180A7901910D68294F202A039298
:100630000AD0254BC018002A17D16B1E029A5360AE
:1006400023683B40882517E0681E029A50602068A6
:100650003840204B18432060606838401843606081
:10066000012045071C4F104608E06B08029A5360B2
:1006700023683B400525ED012B4323600099036867
:100680003B402B43036030684F4B1840306070682C
:10069000184070600020086048608F20C0432369C4
:1006A00003402361636903406361019840790399C2
:1006B0000843BD2101401068084B0340C818801C46
:1006C000106004B0F0BDC04674180000701800003F
:1006D00024493E0001040000FFFFFFCF4000FFCF90
:1006E00070B5374A82184B6853603E4BC318087880
:1006F000222857D8840001A52C59A7469B07000043
:10070000A50700009B070000A5070000A507000043
:10071000A5070000A5070000A5070000A507000029
:10072000A5070000A5070000A5070000A507000019
:10073000A5070000A5070000A50700008907000025
:10074000A507000089070000A5070000A507000015
:10075000A5070000A5070000A5070000A5070000E9
:10076000A5070000A5070000A5070000A5070000D9
:10077000A5070000A5070000A507000089070000E5
:10078000A507000089070000032424071568A54376
:10079000012464072C19146004E00324240715685D
:1007A000A54315600C69D460CC68064D25401C68D3
:1007B000054E264074191C60097A0143116070BD12
:1007C00004180000777702008888FDFF10B5072322
:1007D0009B04194092008018024A84589C43611877
:1007E000815010BD3018000010B5029CA400001903
:1007F00011431943014A815010BDC04650180000F2
:1008000092008018014A81507047C04610180000BD
:1008100010B50122120383180C789C604B7883502A
:100820008978014A815010BD0C110000B0B5112229
:10083000120283580124A34383508B780C881C43F5
:100840008B882343094C1C408358094D1D402B19AC
:1008500083508B79CC791C43097A21437E2319403C
:10086000801842689A4351184160B0BD1867000073
:10087000E798FDFF10B50122120383180C789C60E5
:100880004978815010BD000070B50122110637482B
:100890000346103B1B68DC0113D45A0222D4012208
:1008A0001103DC0438D49A035BD501225404304D83
:1008B0002B682E68234255D1264244D12E682F4BF7
:1008C0001BE02B4C256823680D421DD10B4245D1FE
:1008D000012223685B02274B3DD492052468144211
:1008E0003CD137E001229405214D2B682E6823422C
:1008F00020D1264227D12E681E4B0E4220D12D68D2
:100900000D42214627D029E05B021A4B22D49505DF
:1009100024682C421FD021E0154C256823680D4225
:1009200013D10B421AD1012223689B03134B12D41B
:100930005204D3E70F4B0E4203D12A680A4202D178
:100940000D4A214607E0214608E09B030B4B01D4EA
:100950005504DDE7084A1C88A2181A8002680A4379
:10096000026070BD054B0E42E7D0EAE748100A402E
:1009700080130A4062012020FFFF00006401202054
:10098000F0B581B0437D0025002B00D1ED43EB4352
:1009900009B20029009500DC1D46C0C83D40252451
:1009A000E4013259BA43521932510838002900DCA7
:1009B000009BC268134085682E599643F2182A514D
:1009C000CA175140891A0369027D1846FFF718FFBC
:1009D00001B0F0BDF0B583B001200607C7070020C5
:1009E000524C00900290C0B20190009D294600F048
:1009F000C1FB4F49206830432060206838432060A5
:100A0000206808402060781E21680140216078201D
:100A100000F01CF8402000F019F8002000F016F853
:100A200043492068084020602068384320602068DF
:100A300030432060681C45B2002DDBD50298401C75
:100A400001990729CED303B0F0BDC046F0B53749B0
:100A50000A68374C2240802303405B05D2180A60A5
:100A6000344A531C0D681D430D600D6815400D6020
:100A700001252D0786052E400F682740BE190E6000
:100A80000E681E430E600E6816400E60C6052E40AE
:100A90000F682740BE190E600E681E430E600E6878
:100AA00016400E6006062E400F682740BE190E60E5
:100AB0000E681E430E600E6816400E6046062E40FD
:100AC0000F682740BE190E600E681E430E600E6848
:100AD00016400E6086062E400F682740BE190E6035
:100AE0000E681E430E600E6816400E60C6062E404D
:100AF0000D682540AD190D600D681D430D600D6832
:100B000015400D600D682540C007C0082818086012
:100B100008681843086008681040086008681843AF
:100B20000860086810400860F0BDC04680120A40A6
:100B3000FFFFFFEFFFFFFF7FF0B585B00120C70784
:100B4000FC4E31683943316004073068204330601F
:100B50003068204330603068384330603068F64990
:100B6000084030607D1E3068284001953060782054
:100B70000290FFF76BFF00200490FFF767FFAE20A5
:100B8000FFF764FF3068EC49084030603068384354
:100B90003060306820433060306820433060306817
:100BA000384330603068084030603068284030603A
:100BB000029D2846FFF74AFF0498FFF747FFD5201C
:100BC000FFF744FF3068DC49084030603068384344
:100BD00030603068039420433060306820433060D8
:100BE0003068384330603068084030603068019CBD
:100BF000204030602846FFF729FF049D2846FFF774
:100C000025FF8020FFF722FF3068CB490840306085
:100C100030680097384330603068039A1043306082
:100C200030681043306030683843306030680840C6
:100C30003060306820403060029F3846FFF706FF82
:100C40002846FFF703FFA820FFF700FF3068BA49E6
:100C5000084030603068009C204330603068039B5F
:100C6000184330603068184330603068204330608B
:100C70003068084030603068019D28403060384658
:100C8000FFF7E4FE0498FFF7E1FE3F20FFF7DEFEEA
:100C90003068A949084030603068274620433060FA
:100CA0003068039C204330603068204330603068F7
:100CB0003843306030680840306030682840306029
:100CC000029D2846FFF7C2FE0498FFF7BFFED3201F
:100CD000FFF7BCFE30689849084030603068384300
:100CE00030603068204330603068204330603068C6
:100CF00038433060306808403060306801990840FF
:100D000030602846FFF7A2FE049D2846FFF79EFEAE
:100D10002846FFF79BFE30688749084030603068FE
:100D200038433060306820433060306820433060A2
:100D3000306838433C463060306808403060306886
:100D4000019D284030600298FFF780FE049F3846DE
:100D5000FFF77CFE4020FFF779FE3068764A1040AE
:100D600030603068204330603068039B1843306047
:100D7000306818433060306820433060306810407D
:100D80003060306828403060029D2846FFF75EFEE4
:100D90003846FFF75BFEA120FFF758FE3068F449A4
:100DA000084030603068204330603068039A104358
:100DB0003060306810433060306820432746306030
:100DC0003068084030603068019C20403060284620
:100DD000FFF73CFE049D2846FFF738FEC820FFF7CA
:100DE00035FE3068E2490840306030683843306092
:100DF0003068039A104330603068104330603068C8
:100E000038433060306808403060306820403060DF
:100E1000029F3846FFF71AFE2846FFF717FEDA2032
:100E2000FFF714FE3068D249084030603068009CFB
:100E3000204330603068039B1843306030681843AB
:100E4000306030682043306030680840306030687F
:100E5000019D284030603846FFF7F8FD0498FFF701
:100E6000F5FD1220FFF7F2FD3068FD4908403060C3
:100E70003068204330603068039A10433060306837
:100E800010433060306820432746306030680840A7
:100E90003060306828403060029C2046FFF7D6FD65
:100EA0000498FFF7D3FD8120FFF7D0FD3068EC4AAE
:100EB0001040306030683843306030680399084330
:100EC00030603068084330603068384330603068E4
:100ED000104030603068284030602046FFF7B6FD93
:100EE000049C2046FFF7B2FDCF20FFF7AFFD30682E
:100EF000DB4A104030603068384330603068039916
:100F000008433060306808433060306838433060F0
:100F1000306810403060306828403060029F3846AA
:100F2000FFF794FD2046FFF791FDD920FFF78EFDD6
:100F300004E0C04680120A40FFFFFFEF3068C84B54
:100F40001840306030680099084330603068039A78
:100F500010433060306810433060306808433060C0
:100F60003068184030603068019C2040306038465E
:100F7000FFF76CFD049D2846FFF768FDF120FFF7A1
:100F800065FD3068B64A104030603068009F3843D5
:100F9000306030680399084330603068084330603F
:100FA000306838433060306810403060306820402E
:100FB00030600298FFF74AFD2846FFF747FDDB2027
:100FC000FFF744FD3068A649084030603068384378
:100FD00030603068039C20433060306820433060CC
:100FE0003068384330603068084030603068019DB8
:100FF000284030600298FFF729FD0498FFF726FD8E
:101000003020FFF723FD3068954908403060306894
:1010100038433060306820433060306820433060AF
:1010200030683843306030680840306030682840AD
:101030003060029D2846FFF709FD0498FFF706FD82
:10104000A420FFF703FD3068854908403060306810
:10105000384330603068204330603068204330606F
:10106000306838433060306808403060306801993B
:10107000084030602846FFF7E9FC049D2846FFF74A
:10108000E5FCA620FFF7E2FC3068754908403060B7
:101090003068384330603068204330603068204327
:1010A0003060306838433C4630603068084030601B
:1010B0003068019908403060029F3846FFF7C6FC4F
:1010C0002846FFF7C3FC8D20FFF7C0FC3068644959
:1010D0000840306030682546204330603068039C0B
:1010E00020433060306820433060306828433060EF
:1010F00030680840306030680199084030603846F8
:10110000FFF7A4FC049F3846FFF7A0FC1420FFF76C
:101110009DFC306852490840306030682843306098
:1011200030682043306030682043306030682843A6
:1011300030603068084030603068019908403060A5
:101140000298FFF783FC3846FFF780FCAF20FFF7DB
:101150007DFC306842490840306030682843306088
:10116000306820433060FFF735FC05B0F0BDC04665
:10117000FFFFFFEFF0B585B002910090012004075A
:10118000364F396821433960C507386828433860CD
:101190003868334908403860691E386808400E4690
:1011A0000191386078200490FFF750FC00200390F4
:1011B000FFF74CFCB02000990843FFF747FC386864
:1011C0002749084038603868284338603868204329
:1011D0003860386820433860386828433860386899
:1011E000084038603868304038600498FFF72EFCBB
:1011F0000398FFF72BFC029E30091030FFF726FC06
:1012000038681749084038603868284338603868BB
:101210002043386038682043386038682843386095
:101220003868084038603868019908403860049888
:10123000FFF70CFC0398FFF709FC0F203040FFF785
:1012400005FC38680649084038603868284338602B
:1012500038682043386005B0F0BDC04680120A40AF
:10126000FFFFFFEFF0B585B004910446C6694E4814
:101270000568A81BFFF7A8F84C49FEF7A3FF002E4E
:1012800007D007467F20C105384600F001FC002842
:1012900004D120200121215400276761E5612068E5
:1012A000049900F0D1FC0646A5680021284600F00C
:1012B000D9FB00283BD1029500253846294600F08D
:1012C000D1FB002833D12020205C0128039605D1D2
:1012D0002046203005700195049E09E02169049E96
:1012E000304600F009FD3946FEF76CFF0190A56914
:1012F00026612F480168384600F0E2FB0146384677
:10130000FEF760FF06460198294600F0F5FC01460D
:10131000304600F099FC294600F0D2FB0146A0615E
:10132000029800F091FC039900F0CAFB064665683C
:101330000021284600F096FB00282ED100213846D7
:1013400000F090FB002828D103962846049900F06D
:101350007BFC394600F078FC616900F0B1FB074680
:10136000A6897042FFF728F805463846294600F05E
:101370009CFB002800D13D463046FFF725F8064685
:101380002846314600F079FB002800D12E466661E0
:101390000398314600F094FB06463046FEF7C2FF44
:1013A00000B205B0F0BDC046D402202000007A444F
:1013B000480020200021016141618161C16110303C
:1013C0000174704710B5174C17492046FFF752FAC1
:1013D00016492046FFF72AFA0321CA031448036876
:1013E000934303600269134B13401A33036142694C
:1013F0000A433C218A434261426801210A40436812
:101400008B439A1842608A020B4B1C6814431C6081
:10141000FF2212066B4B1C6894431C6002680A434F
:10142000026010BD00005040081E00000A1E0000AF
:10143000001150400000FFFF2810504010B5224816
:101440008522826401231C0220490C60C2645A0276
:101450000A60822282631E4AC263812282604261E4
:101460001C4B5A655A66026642661B4C1C655C63DF
:101470001C605C61426002600A46303A0320430609
:1014800013600A46403A154B1360154A0A6001067C
:10149000144A13680B4313601369134C23431361FD
:1014A000124A13680B43136051682143516010497D
:1014B0000A6A104B1A430A620A681A430A60000259
:1014C0000D490860086310BD04804240D0120A40F4
:1014D00082000400888042408100050003000090E3
:1014E0000300009690130A400C30030008150A40D0
:1014F00028100A4000104201A0320A4070B582B0A4
:10150000194C1A492046FFF783F919492046FFF77D
:1015100039F800250095204629462A462B46FFF734
:1015200063F9204629462A46FFF750F92046294606
:101530002A46FFF765F901260096204629462A46E5
:101540002B46FFF751F9204629463246FFF73EF970
:10155000204629463246FFF753F9064886600321A4
:10156000016002B070BDC04600008640141E00003D
:10157000181E000000118640104800210160032061
:10158000C0430F490A46083A1368034013600A68CB
:10159000012082430A6002020B6893430B6002033E
:1015A000091F0B6813430B60FF210902054A1368EA
:1015B0008B438003181810607047C04608030B4027
:1015C00008010B4000E400E080B510481049FEF728
:1015D000B3FF10484168104A0A400321090451181A
:1015E000416081680D4A0A4001214B06D218826091
:1015F0000B4A0023136051600523936019221201E6
:10160000426102680A43026080BDC046002000407B
:10161000201E000000310040FEFFECFFF8FFE0E07C
:101620008031004080B500F01FF8FFF707FFFFF79B
:10163000A3FFFFF763FF00F069F800F045F8FFF73C
:10164000C1FEFFF7C1FF7420044900220A54B820EC
:1016500003490A542C2003490A5480BD5402202017
:101660009801202068012020F0B581B00D480E4976
:1016700041600E4A51600E4B59600E4C61600E4D38
:1016800069600E4E71600E4F79600E490160116005
:10169000196021602960316039601020FEF76CFF0D
:1016A00001B0F0BD00080A40030000B100280A4064
:1016B00000088640004808400088864000085040E6
:1016C000002800400100002610B50B4C0B492046B5
:1016D000FFF79EF80A492046FFF702F8094801681B
:1016E000012211430160FF20000219490B68834366
:1016F0000B600548026010BD00808640281E000077
:101700002C1E0000289086400891864010B50C4C95
:101710000C492046FFF77CF80B492046FEF7E0FF16
:101720000A48016801221143016009480168C02389
:101730000B433F218B4303600648026010BDC04647
:1017400000400840401E0000441E00002850084091
:1017500010E400E008510840002181718180704749
:10176000F0B581B087480068C0B2012800D007E119
:1017700085490888854A1080854A13880026168086
:10178000844F3B800E8084490A68844B1A804A68E3
:10179000834B1A808968834A118083490978032919
:1017A00000D9EDE07944097949008F44019C237DFB
:1017B00000B2FEF701FE01467D48006800F044FAE1
:1017C0000146A548FFF74EFD7A4C2080B85FFEF732
:1017D000F3FD01467848006800F036FA01469F485C
:1017E000FFF740FD764D2880A15F7648FFF7C8F8E7
:1017F000A95FC2E075490988002900D1C0E000B2A4
:10180000FEF7DAFD04467248805FFEF7D5FD054617
:1018100067480168204600F017FA294600F06CFA84
:1018200001468D48FFF71EFD62490880B85FFEF74C
:10183000C3FD04466648805F4042FEF7BDFD054695
:101840005D480168204600F0FFF9294600F054FA8F
:1018500001468248FFF706FD5849884200DC0846E9
:10186000E1225201904200DB1046554C2080514B42
:10187000985F884200DC0846904200DB10461880E2
:10188000544D2988081801B24E48FFF779F8288886
:101890002188081801B24C48FFF772F84B490888B4
:1018A0000A30088001B0F0BD00B2FEF785FD0446A5
:1018B0003E480088FEF788FD05463D480168204601
:1018C00000F0C2F9294600F017FA01466248FFF716
:1018D000C9FC38490880B85FFEF76EFD04463348FE
:1018E0000088404222E03C498D5F00B2FEF764FD73
:1018F00004463A4800882818FEF75EFD05462C4845
:101900000168204600F0A0F9294600F0F5F90146EB
:101910005148FFF7A7FC27490880B85FFEF74CFD48
:1019200004462D48805F2D490988081AFEF744FDBA
:10193000054621480168204600F086F9294600F056
:10194000DBF901464548FFF78DFC1C4A904200DC5C
:101950001046E1214B01984200DB1846184C2080CC
:101960001448815F914200DC1146994200DB194620
:1019700001801448FFF704F8A15F1348FFF700F84F
:1019800001B0F0BD2050084062012020DA02202082
:1019900064012020DC02202080320040CE02202082
:1019A000CC022020D00220204C002020D00020207B
:1019B00050002020D202202054002020E0E3FFFF2E
:1019C000D80220205800202094002020E00220206F
:1019D000DE022020F8002020600120204E00202080
:1019E00004480068C0B2012803D103480168491CBB
:1019F0000160704720908640D4022020FFF712FE3D
:101A0000FFF79AF8104C2046FFF7A6FE0125680460
:101A10000E4E30600E4F38602046FFF79DFE0D4899
:101A2000FFF7C8FC0C48FFF7C5FC0C48FFF7C2FCE9
:101A300028020B490A6802430A60022030603860BD
:101A4000280430603860FEE70000202080E200E0DB
:101A500000E100E0D400202070002020AC00202015
:101A60000431004010B500F071F8EFF30080400041
:101A700001D5012010BD002010BD10B500F090F878
:101A8000EFF300804000800F012800D0002010BD3F
:101A900010B500F0AFF8EFF300804000800F012890
:101AA00001D0012010BD002010BD10B500F0A2F83B
:101AB000EFF30080800001D4012010BD002010BD94
:101AC00070B50125ED0704004C4020D4441A01D222
:101AD000001B0919C60D4B00F2B2FF2A29D01B0EBC
:101AE0002CD000020C0228432C43D31ADC400519E9
:101AF00010D2280A02D3401C6D0611D0761EF605BE
:101B00008019FF2A00DA70BDC00DC00570BD6940A4
:101B100000F0F8F801200543C541521C761CE8E7A7
:101B200064089C40C90161408900E7D10124A043B9
:101B3000E4E71B0E440200D0034870BD002AFCD12C
:101B4000C00FC00770BD00BF0000C07F0123DB05D0
:101B500002000A430DD4DA4203D49A4207D48842E1
:101B60007047D84214D4D94212D488427047804278
:101B70007047DA4203D59A42F9D5814270475B003B
:101B80004200DA4204D24A00DA4201D2814270476E
:101B900010B5024AFEF71CFC10BD00BF090012047C
:101BA0000123DB0502000A430DD4DA4203D49A4232
:101BB00007D488427047D84214D4D94212D48842FC
:101BC000704780427047DA4203D59A42F9D5814284
:101BD00070475B004200DA4204D24A00DA4201D286
:101BE0008142704710B5024AFEF7F2FB10BD00BFFC
:101BF000090013040123DB0502000A430DD4DA4275
:101C000003D49A4207D488427047D84214D4D942A8
:101C100012D48842704780427047DA4203D59A4214
:101C2000F9D5814270475B004200DA4204D24A0093
:101C3000DA4201D28142704710B5024AFEF7C8FB72
:101C400010BD00BF0900160470B5420064414B008E
:101C50005C41120E39D01B0E38D0FF2A3CD0FF2B2E
:101C60003AD0D2187F3A40024902400A490A451840
:101C7000ED0106004E43000A090A48430104731AA5
:101C80004019190C4318990F04D05B08012149072A
:101C90005B1A521CD80904D3401CF50301D19D06E0
:101CA00007D0FF2A08D2D50506D0E4072043401903
:101CB00070BD0125A843F4E7002A01DCE00770BDF0
:101CC0002402FF202043C00570BD1B0EFF2A03D055
:101CD000FF2B01D0E00770BDFF2636064500B54258
:101CE00006D84D00B54203D8D218FF2A00D0E7E746
:101CF000004870BD0000C07F70B50125ED070400ED
:101D00004C4022D4441A02D26C40001B0919C60D63
:101D10004B00F2B2FF2A4BD01B0E50D000020C0237
:101D2000A8432C43D31ADC40051B05D5AD0019D3BD
:101D30006D08761E521E37D0F605280A01D280198A
:101D400070BD70416D0603D070BD6940FFF7BEFEE7
:101D50009C4009026140490001D0401E70BD012431
:101D6000A04370BD6D081DD001202B0C01D12D04A6
:101D700010302B0E01D12D0208302B0F01D12D0177
:101D8000001DAB0F01D1AD00801CEB0F01D16D0028
:101D9000401C361A121A6D00680AF5054019012A0E
:101DA00002DB70BD002070BDC036300AC00770BDB8
:101DB0001B0E440201D1FF2B00D1024870BD002A46
:101DC000F0D070BD0000C07F8182838485868788C3
:101DD000898B8C8D8E8F919293959697999A9C9DD5
:101DE0009FA0A2A3A5A7A8AAACAEB0B2B3B5B7B93D
:101DF000BCBEC0C2C5C7C9CCCED1D4D7D9DCDFE206
:101E0000E6E9ECF0F3F7FAFE040000001800000029
:101E10000030000008070000201C00002001010025
:101E20000105000000000003080763000200000035
:101E3000270000000100000000000000000000007A
:101E400008076300020000008F010000010000008D
:101E50000000000000000000781E000000002020AC
:101E60000001000020010000781F00000001202078
:101E7000E80300004801000000005040000000009E
:101E80000000000000000000000000000000000052
:101E90000000000000000000000000000000000042
:101EA0000000000000000000000000000000000032
:101EB0000000000000000000000000000000000022
:101EC0002472023C01000004E180D34250E1CC4284
:101ED00000000A400000000200000A400000000468
:101EE0000000864000000000000010C0000000C19B
:101EF00000000000000800000000000000000000DA
:101F000000000000000000000000000000200A4067
:101F10000001000000200A4000020000000086408E
:101F200001010000000010C0000000C1000000001E
:101F30000008000000000000000000000000000099
:101F4000000000000000000086010000000000000A
:101F5000000000000000000000040000000000007D
:101F60000000000000000000000000000000000071
:081F7000000C0000000000005D
:04000005000000C136
:00000001FF
