:020000040000FA
:10000000E80420208D010000910100009301000010
:1000100000000000000000000000000000000000E0
:10002000000000000000000000000000950100003A
:10003000000000000000000097010000990100008E
:100040009B010000B10800009B0100009B01000023
:100050009B010000390500009B0100009B0100008E
:10006000000000009B0100009B0100000000000058
:10007000000000009B0100009B0100009B010000AC
:10008000B1170000BD1A00009B0100009B01000099
:100090009B0100009B010000000000000000000028
:1000A0009B0100009B010000000000000000000018
:1000B0009B010000000000009B0100009B0100006C
:1000C00000F002F800F052F812A030C808382418E6
:1000D0002D18AC4201D100F049F80FCCA246AB4636
:1000E0000CA730CF2D1B083F3F197C427F1E544484
:1000F0002D090426F441641EAC4201D300F036F809
:100100000126334200D0FB1A3343984754465D46DC
:10011000DFE700002C1E00004C1E00000000000065
:10012000103A02D378C878C1FAD8520701D330C840
:1001300030C101D504680C60704700000000000069
:100140007047000000000000002300240025002666
:10015000103A01D378C1FBD8520700D330C100D583
:100160000B6070471FB51FBD10B510BD00F066F9DC
:100170001146FFF7F7FF01F0AFFC00F07EF903B482
:10018000FFF7F2FF03BC00F0CFF90000064800477C
:10019000FEE7FEE7FEE7FEE7FEE7FEE70348044969
:1001A000044A054B70470000C1000000E80220200F
:1001B000E8042020E8032020E8032020704770474F
:1001C00070470000F0B5FF252D04C609C209FF27BE
:1001D00004462E400137CB093E4348402A402B407D
:1001E0000746002A6BD0002B69D0AA4267D0AB42E9
:1001F00065D0002800DA32460125ED0529432C435D
:1002000009022002090AD21A4B0C7F24E31A434C3C
:10021000000A7C44E35C7D242404121914145B005E
:10022000A218884201D3521C00E0400049420C460B
:100230005C4324115C43DB016415E318040A5C434E
:10024000C502200D0C4644436419250A5D4323036F
:10025000EC0C0D46654300030019EB184C42A34219
:1002600001D35B18401CD4052018002B07D05B007D
:10027000C91804D3401C002901D1400840003F2187
:1002800089048A4209D3002A08DC1106090F04D028
:10029000032149074018C00FC007F0BD01224100EB
:1002A000120689187F2252069142F6D2052149078B
:1002B000C84201D59010F0BDFF20C005F0BD002F51
:1002C00000DA32461648AA4207D2AB4205D21902DA
:1002D000090E17D0F80FC007F0BDFF2563002D06EB
:1002E000AB42F9D84900A942F6D8AB4201D1A942A4
:1002F000F2D0A94201D1002101E061004908D005F6
:100300000843F0BD1102090EFBD0FF200243D005C7
:10031000F0BD0A460146104654E700009A1C000052
:100320000000C07F10B501469E240002CA15A30735
:10033000002A02D01843002A04DBA21A002A0CDD8E
:10034000D04010BD1206120E01D140004008A21A82
:1003500003D4D04040420028F3DDFF2248001206BB
:10036000904201D9002010BDC817C043584010BDAD
:100370001F22030C02D10F2200041CD0030E01D156
:100380000002083A030F01D10001121F830F01D1AF
:100390008000921E002801DB4000521ED205511839
:1003A000021251181922904004D3491C002801D18F
:1003B0004908490008467047C10FC90700D04042AC
:1003C000012292071143D3E701218907D0E70000FA
:1003D00010B5FF231B0644009C421DD84C009C42D4
:1003E0001AD80346124A0B4307D4401A02D3EFF33C
:1003F000008010BDEFF3008010BD081A03D3EFF3A7
:100400000080904305E0EFF3008001219043C9078D
:10041000084380F3008810BD0D231B041A4204D04A
:100420001146002000F031F810BD00F045F810BD75
:100430000000009000487047000120207546FFF73B
:10044000F9FFAE46050069465346C008C000854620
:1004500018B020B5FFF7A2FE60BCB6460026002704
:10046000C0C5C0C5C0C5C0C5C0C5C0C5C0C5C0C564
:10047000403D490849008D46704710B50446C046C6
:10048000C0462046FFF77BFE10BDC80212D54803C8
:10049000400F002804D0C803C043012188407047A2
:1004A000EFF300800001000903210907084380F3EE
:1004B000008870470020704710B5024800F004F82B
:1004C00010BD00000000C07F10B50C461107090FD9
:1004D000092904D00A290AD008290CD104E01146C0
:1004E0000820FFF7D2FF06E0510606D501E05106CD
:1004F00001D50120C007214610BDD10607D5010155
:100500000909CC084907000E0006044309E0410F21
:1005100020024907000A0143200E00061D22D14196
:1005200001430846E7E7000001491820ABBEFEE79B
:10053000260002007047000006480068C0B20B2881
:1005400007D105480168054A1180416851808068DB
:10055000908070472030004080825540600120200C
:10056000B0B50A78032313400B4A84580B4D25403D
:10057000EB18A92424061B198350072212064B6886
:1005800013401124240205599543EA180251001919
:1005900049780161B0BDC04608080000FCFFFF00BB
:1005A000811E091F00BFFCD270470000F0B583B068
:1005B0000B794A79002A2BD01B4A1C4C1C4F202B4C
:1005C00002D00525EE0100E04C4E8518021900927C
:1005D000C219002B00D188261768474C2740BF1945
:1005E000176057682740BE1956602E68804F3E40FE
:1005F0002E606E683E406E600025009C2560656040
:100600008F24E443156925401561556925405561DE
:1006100001AA13718B79537109680191114600F099
:1006200009F803B0F0BDC0463818000058180000A3
:1006300078180000F0B584B06B4A82180292734BB0
:10064000C618784BC21800922A4BC4180A79019137
:100650000D68294F202A03920AD0254BC018002A82
:1006600017D16B1E029A536023683B40882517E020
:10067000681E029A506020683840204B1843206062
:100680006068384018436060012045071C4F1046E1
:1006900008E06B08029A536023683B400525ED0192
:1006A0002B432360009903683B402B430360306871
:1006B0004F4B184030607068184070600020086030
:1006C00048608F20C043236903402361636903406E
:1006D00063610198407903990843BD210140106886
:1006E000084B0340C818801C106004B0F0BDC04621
:1006F000741800007018000024493E000104000036
:10070000FFFFFFCF4000FFCF70B5374A82184B681C
:1007100053603E4BC3180878222857D8840001A59F
:100720002C59A746C3070000CD070000C3070000EF
:10073000CD070000CD070000CD070000CD07000069
:10074000CD070000CD070000CD070000CD07000059
:10075000CD070000CD070000CD070000CD07000049
:10076000CD070000B1070000CD070000B107000071
:10077000CD070000CD070000CD070000CD07000029
:10078000CD070000CD070000CD070000CD07000019
:10079000CD070000CD070000CD070000CD07000009
:1007A000CD070000B1070000CD070000B107000031
:1007B000032424071568A543012464072C19146039
:1007C00004E0032424071568A54315600C69D46070
:1007D000CC68064D25401C68054E264074191C60E7
:1007E000097A0143116070BD041800007777020098
:1007F0008888FDFF10B507239B04194092008018DC
:10080000024A84589C436118815010BD3018000082
:1008100010B5029CA400001911431943014A8150EC
:1008200010BDC0465018000092008018014A815047
:100830007047C0461018000010B50122120383183B
:100840000C789C604B7883508978014A815010BDA8
:100850000C110000B0B51122120283580124A343E9
:1008600083508B780C881C438B882343094C1C4095
:100870008358094D1D402B1983508B79CC791C432B
:10088000097A21437E231940801842689A435118FF
:100890004160B0BD18670000E798FDFF10B5012268
:1008A000120383180C789C604978815010BD0000B9
:1008B00070B50122110637480346103B1B68DC0166
:1008C00013D45A0222D401221103DC0438D49A032F
:1008D0005BD501225404304D2B682E68234255D13C
:1008E000264244D12E682F4B1BE02B4C25682368F1
:1008F0000D421DD10B4245D1012223685B02274BDB
:100900003DD49205246814423CD137E0012294057D
:10091000214D2B682E68234220D1264227D12E68F4
:100920001E4B0E4220D12D680D42214627D029E0D2
:100930005B021A4B22D4950524682C421FD021E07B
:10094000154C256823680D4213D10B421AD10122A0
:1009500023689B03134B12D45204D3E70F4B0E4270
:1009600003D12A680A4202D10D4A214607E02146F6
:1009700008E09B030B4B01D45504DDE7084A1C88B3
:10098000A2181A8002680A43026070BD054B0E422D
:10099000E7D0EAE748100A4080130A4068012020A7
:1009A000FFFF00006A012020F0B581B0437D0025E3
:1009B000002B00D1ED43EB4309B20029009500DC88
:1009C0001D46C0C83D402524E4013259BA4352199E
:1009D00032510838002900DC009BC268134085684A
:1009E0002E599643F2182A51CA175140891A0369A1
:1009F000027D1846FFF718FF01B0F0BDF0B583B0D7
:100A000001200607C7070020524C00900290C0B298
:100A10000190009D294600F0C1FB4F4920683043FA
:100A20002060206838432060206808402060781EDD
:100A3000216801402160782000F01CF8402000F07F
:100A400019F8002000F016F843492068084020609B
:100A5000206838432060206830432060681C45B21D
:100A6000002DDBD50298401C01990729CED303B095
:100A7000F0BDC046F0B537490A68374C22408023A4
:100A800003405B05D2180A60344A531C0D681D43AD
:100A90000D600D6815400D6001252D0786052E405F
:100AA0000F682740BE190E600E681E430E600E6868
:100AB00016400E60C6052E400F682740BE190E6016
:100AC0000E681E430E600E6816400E6006062E402D
:100AD0000F682740BE190E600E681E430E600E6838
:100AE00016400E6046062E400F682740BE190E6065
:100AF0000E681E430E600E6816400E6086062E407D
:100B00000F682740BE190E600E681E430E600E6807
:100B100016400E60C6062E400D682540AD190D60CA
:100B20000D681D430D600D6815400D600D68254072
:100B3000C007C008281808600868184308600868DB
:100B40001040086008681843086008681040086092
:100B5000F0BDC04680120A40FFFFFFEFFFFFFF7F9E
:100B6000F0B585B00120C707FC4E316839433160CC
:100B700004073068204330603068204330603068BC
:100B8000384330603068F649084030607D1E306878
:100B900028400195306078200290FFF76BFF00201D
:100BA0000490FFF767FFAE20FFF764FF3068EC4961
:100BB000084030603068384330603068204330602F
:100BC0003068204330603068384330603068084017
:100BD0003060306828403060029D2846FFF74AFFA9
:100BE0000498FFF747FFD520FFF744FF3068DC4942
:100BF00008403060306838433060306803942043E8
:100C0000306030682043306030683843306030688E
:100C1000084030603068019C204030602846FFF773
:100C200029FF049D2846FFF725FF8020FFF722FFBC
:100C30003068CB49084030603068009738433060F6
:100C40003068039A10433060306810433060306879
:100C50003843306030680840306030682040306091
:100C6000029F3846FFF706FF2846FFF703FFA8203C
:100C7000FFF700FF3068BA49084030603068009CD8
:100C8000204330603068039B18433060306818435D
:100C90003060306820433060306808403060306831
:100CA000019D284030603846FFF7E4FE0498FFF7C6
:100CB000E1FE3F20FFF7DEFE3068A94908403060C2
:100CC00030682746204330603068039C2043306002
:100CD0003068204330603068384330603068084006
:100CE0003060306828403060029D2846FFF7C2FE21
:100CF0000498FFF7BFFED320FFF7BCFE3068984989
:100D000008403060306838433060306820433060DD
:100D100030682043306030683843306030680840C5
:100D2000306030680199084030602846FFF7A2FE25
:100D3000049D2846FFF79EFE2846FFF79BFE30687D
:100D4000874908403060306838433060306820435D
:100D50003060306820433060306838433C46306053
:100D60003068084030603068019D2840306002984B
:100D7000FFF780FE049F3846FFF77CFE4020FFF718
:100D800079FE3068764A1040306030682043306029
:100D90003068039B18433060306818433060306817
:100DA0002043306030681040306030682840306048
:100DB000029D2846FFF75EFE3846FFF75BFEA12046
:100DC000FFF758FE3068F44908403060306820432F
:100DD00030603068039A10433060306810433060F0
:100DE0003068204327463060306808403060306803
:100DF000019C204030602846FFF73CFE049D2846B9
:100E0000FFF738FEC820FFF735FE3068E24908409A
:100E100030603068384330603068039A1043306087
:100E200030681043306030683843306030680840C4
:100E30003060306820403060029F3846FFF71AFE6D
:100E40002846FFF717FEDA20FFF714FE3068D24974
:100E5000084030603068009C204330603068039B5D
:100E60001843306030681843306030682043306089
:100E70003068084030603068019D28403060384656
:100E8000FFF7F8FD0498FFF7F5FD1220FFF7F2FDDC
:100E90003068FD4908403060306820433060306879
:100EA000039A10433060306810433060306820434C
:100EB0002746306030680840306030682840306035
:100EC000029C2046FFF7D6FD0498FFF7D3FD812052
:100ED000FFF7D0FD3068EC4A10403060306838438E
:100EE00030603068039908433060306808433060F0
:100EF00030683843306030681040306030682840D7
:100F000030602046FFF7B6FD049C2046FFF7B2FD97
:100F1000CF20FFF7AFFD3068DB4A1040306030680B
:100F200038433060306803990843306030680843C4
:100F3000306030683843306030681040306030686E
:100F400028403060029F3846FFF794FD2046FFF7A7
:100F500091FDD920FFF78EFD04E0C04680120A40C3
:100F6000FFFFFFEF3068C84B1840306030680099D1
:100F7000084330603068039A104330603068104393
:100F80003060306808433060306818403060306846
:100F9000019C204030603846FFF76CFD049D2846D8
:100FA000FFF768FDF120FFF765FD3068B64A104095
:100FB00030603068009F38433060306803990843E0
:100FC00030603068084330603068384330603068E3
:100FD000104030603068204030600298FFF74AFDD2
:100FE0002846FFF747FDDB20FFF744FD3068A649A0
:100FF000084030603068384330603068039C2043DC
:10100000306030682043306030683843306030688A
:10101000084030603068019D284030600298FFF73A
:1010200029FD0498FFF726FD3020FFF723FD3068E7
:10103000954908403060306838433060306820435C
:10104000306030682043306030683843306030684A
:1010500008403060306828403060029D2846FFF725
:1010600009FD0498FFF706FDA420FFF703FD306893
:10107000854908403060306838433060306820432C
:10108000306030682043306030683843306030680A
:101090000840306030680199084030602846FFF70A
:1010A000E9FC049D2846FFF7E5FCA620FFF7E2FCDB
:1010B00030687549084030603068384330603068C7
:1010C00020433060306820433060306838433C460D
:1010D0003060306808403060306801990840306006
:1010E000029F3846FFF7C6FC2846FFF7C3FC8D2059
:1010F000FFF7C0FC3068644908403060306825461E
:10110000204330603068039C2043306030682043C7
:1011100030603068284330603068084030603068A4
:101120000199084030603846FFF7A4FC049F384618
:10113000FFF7A0FC1420FFF79DFC306852490840DF
:101140003060306828433060306820433060306859
:101150002043306030682843306030680840306099
:1011600030680199084030600298FFF783FC3846E8
:10117000FFF780FCAF20FFF77DFC30684249084054
:101180003060306828433060306820433060FFF7BB
:1011900035FC05B0F0BDC046FFFFFFEFF0B585B0F0
:1011A0000291009001200407364F396821433960CD
:1011B000C5073868284338603868334908403860C4
:1011C000691E386808400E46019138607820049006
:1011D000FFF750FC00200390FFF74CFCB020009973
:1011E0000843FFF747FC38682749084038603868EB
:1011F00028433860386820433860386820433860B6
:1012000038682843386038680840386038683040AB
:1012100038600498FFF72EFC0398FFF72BFC029E22
:1012200030091030FFF726FC38681749084038604D
:10123000386828433860386820433860386820436D
:101240003860386828433860386808403860386843
:101250000199084038600498FFF70CFC0398FFF7E9
:1012600009FC0F203040FFF705FC386806490840AC
:10127000386038682843386038682043386005B0E3
:10128000F0BDC04680120A40FFFFFFEFF0B585B009
:1012900004910446C6694E480568A81BFFF794F8F8
:1012A0004C49FEF78FFF002E07D007467F20C1056F
:1012B000384600F061FC002804D12020012121548F
:1012C00000276761E5612068049900F031FD06465A
:1012D000A5680021284600F039FC00283BD1029582
:1012E00000253846294600F031FC002833D1202063
:1012F000205C0128039605D1204620300570019519
:10130000049E09E02169049E304600F069FD3946DB
:10131000FEF758FF0190A56926612F4801683846FD
:1013200000F042FC01463846FEF74CFF06460198A5
:10133000294600F055FD0146304600F0F9FC2946EB
:1013400000F032FC0146A061029800F0F1FC039924
:1013500000F02AFC064665680021284600F0F6FBEE
:1013600000282ED10021384600F0F0FB002828D1BB
:1013700003962846049900F0DBFC394600F0D8FCBF
:10138000616900F011FC0746A6897042FFF714F866
:1013900005463846294600F0FCFB002800D13D46B2
:1013A0003046FFF711F806462846314600F0D9FBD3
:1013B000002800D12E4666610398314600F0F4FB08
:1013C00006463046FEF7AEFF00B205B0F0BDC0469F
:1013D000D802202000007A4448002020002101612A
:1013E00041618161C16110300174704710B5174CC3
:1013F00017492046FFF752FA16492046FFF72AFA06
:101400000321CA0314480368934303600269134B22
:1014100013401A33036142690A433C218A43426103
:10142000426801210A4043688B439A1842608A024D
:101430000B4B1C6814431C60FF2212066B4B1C688C
:1014400094431C6002680A43026010BD00005040D3
:10145000F01E0000F21E0000001150400000FFFFCF
:101460002810504010B522488522826401231C02B6
:1014700020490C60C2645A020A60822282631E4ABA
:10148000C2638122826042611C4B5A655A660266C1
:1014900042661B4C1C655C631C605C6142600260C0
:1014A0000A46303A0320430613600A46403A154B79
:1014B0001360154A0A600106144A13680B4313604F
:1014C0001369134C23431361124A13680B431360CF
:1014D00051682143516010490A6A104B1A430A624D
:1014E0000A681A430A6000020D490860086310BDCB
:1014F00004804240D0120A408200040088804240AA
:1015000081000500030000900300009690130A403C
:101510000C30030008150A4028100A400010420150
:10152000A0320A4070B582B0194C1A492046FFF724
:1015300083F919492046FFF739F800250095204620
:1015400029462A462B46FFF763F9204629462A46B4
:10155000FFF750F9204629462A46FFF765F901268C
:101560000096204629462A462B46FFF751F9204689
:1015700029463246FFF73EF9204629463246FFF714
:1015800053F9064886600321016002B070BDC04671
:1015900000008640FC1E0000001F00000011864075
:1015A0001048002101600320C0430F490A46083A51
:1015B0001368034013600A68012082430A60020234
:1015C0000B6893430B600203091F0B6813430B6006
:1015D000FF210902054A13688B4380031818106025
:1015E0007047C04608030B4008010B4000E400E0D0
:1015F00010B517481749FEF7B3FF17484168174A57
:101600000A4003210904511841608168144A0A40C4
:1016100001214B06D2188260124A002313605160E8
:1016200005239360104A42618A02104B1C6A1443DE
:101630001C621C6814431C60FF2212020C4B1C68C5
:1016400094438A03A2181A6002680A43026010BD1C
:1016500000200040081F000000310040FEFFECFFAA
:10166000F8FFE0E080310040409C0000283000405E
:1016700004E400E080B500F01FF8FFF7F3FEFFF789
:101680008FFFFFF74FFF00F069F800F045F8FFF714
:10169000ADFEFFF7ADFF7420044900220A54B820C4
:1016A00003490A542C2003490A5480BD58022020C3
:1016B0009C0120206C012020F0B581B00D480E491E
:1016C00041600E4A51600E4B59600E4C61600E4DE8
:1016D00069600E4E71600E4F79600E4901601160B5
:1016E000196021602960316039601020FEF758FFD1
:1016F00001B0F0BD00080A40030000B100280A4014
:101700000008864000480840008886400008504095
:10171000002800400100002610B50B4C0B49204664
:10172000FFF78AF80A492046FEF7EEFF09480168EC
:10173000012211430160FF20000219490B68834315
:101740000B600548026010BD00808640101F00003D
:10175000141F0000289086400891864010B50C4C5C
:101760000C492046FFF768F80B492046FEF7CCFFEE
:101770000A48016801221143016009480168C02339
:101780000B433F218B4303600648026010BDC046F7
:1017900000400840281F00002C1F0000285008406F
:1017A00010E400E0085108400021817181807047F9
:1017B000F0B581B0A7480068C0B2012800D043E16D
:1017C000A5490888A54D2880A54A138800261680BB
:1017D000A44A13800E80A44A1188A44B1980538810
:1017E000A34C23809288A34C2280A34C2478032C02
:1017F00000D929E17C4424796400A74401B9247FFD
:1018000000B2FEF7D9FD01469D48006800F090FA4D
:101810000146CB48FFF73AFD9A4C20809148805F03
:10182000FEF7CAFD01469848006800F081FA0146BB
:10183000C448FFF72BFD964D2880A15F9548FFF720
:10184000B3F8A95FFDE0954909880029854F00D1CB
:10185000FAE000B2FEF7B0FD04469148805FFEF763
:10186000ABFD054686480168204600F061FA29462E
:1018700000F0B6FA0146B248FFF708FD814908803A
:10188000B85FFEF799FD04468548805F4042FEF749
:1018900093FD05467C480168204600F049FA294638
:1018A00000F09EFA0146A748FFF7F0FC774988420E
:1018B00000DC0846E1225201904200DB1046744CE5
:1018C0002080704B985F884200DC0846904200DB25
:1018D00010461880734D2988081801B26D48FFF72B
:1018E00063F828882188081801B26B48FFF75CF874
:1018F0006A4908880A30088001B0F0BD00B2FEF7DE
:101900005BFD04465D480088FEF75EFD05465C48C9
:101910000168204600F00CFA294600F061FA014601
:101920008748FFF7B3FC574F38804E48805FFEF77B
:1019300043FD0446514800884042FEF73DFD054600
:1019400051480168204600F0F3F9294600F048FAB2
:1019500001467C48FFF79AFC4C4A904200DC104656
:10196000E1214B01984200DB1846494C20805CE0A5
:101970004D48008883423B4F01D9881A0DE09142BF
:1019800005D950184A4909884900081A05E05DD26E
:101990005018474909884900401A4449088000B254
:1019A000FEF70AFD01466548FFF770FC0446414812
:1019B0000480A85FFEF700FD05463F480088001937
:1019C000FEF7FAFC04462E480168284600F0B0F9FC
:1019D000214600F005FA01465948FFF757FC29490E
:1019E0000880B85FFEF7E8FC04463248805F324961
:1019F0000988081AFEF7E0FC0546234801682046DE
:101A000000F096F9294600F0EBF901464D48FFF742
:101A10003DFC1E4A904200DC1046E1214B019842F9
:101A200000DB18461A4C2080164FB95F914200DC4B
:101A30001146994200DB194639801648FEF7B4FF7B
:101A4000A15F1548FEF7B0FF01B0F0BD1748008850
:101A5000A5E7C0462050084068012020DE02202073
:101A60006A012020E002202060012020D2022020F4
:101A7000D0022020D40220204C002020D40020209E
:101A800050002020D602202054002020E0E3FFFF59
:101A9000DC0220205C00202098002020E60220208C
:101AA000E4022020FC0020205A002020E202202016
:101AB00058002020660120204E00202004480068A5
:101AC000C0B2012803D103480168491C0160704776
:101AD00020908640D8022020FFF7CCFDFFF740F889
:101AE000134C2046FFF760FE01256804114E30605C
:101AF000114F38600820306038602046FFF754FEF0
:101B00000E48FFF76BFC0E48FFF768FC0D48FFF727
:101B100065FC28020C490A6802430A600220306012
:101B20003860202030603860280430603860FEE77C
:101B30000000202080E200E000E100E0D80020204A
:101B400074002020B00020200431004010B500F0C7
:101B500071F8EFF30080400001D5012010BD002096
:101B600010BD10B500F090F8EFF300804000800F3A
:101B7000012800D0002010BD10B500F0AFF8EFF341
:101B800000804000800F012801D0012010BD0020FE
:101B900010BD10B500F0A2F8EFF30080800001D472
:101BA000012010BD002010BD70B50125ED07040017
:101BB0004C4020D4441A01D2001B0919C60D4B0019
:101BC000F2B2FF2A29D01B0E2CD000020C022843AF
:101BD0002C43D31ADC40051910D2280A02D3401C2A
:101BE0006D0611D0761EF6058019FF2A00DA70BD49
:101BF000C00DC00570BD694000F0F8F80120054334
:101C0000C541521C761CE8E764089C40C90161404C
:101C10008900E7D10124A043E4E71B0E440200D071
:101C2000034870BD002AFCD1C00FC00770BD00BFC3
:101C30000000C07F0123DB0502000A430DD4DA4215
:101C400003D49A4207D488427047D84214D4D94268
:101C500012D48842704780427047DA4203D59A42D4
:101C6000F9D5814270475B004200DA4204D24A0053
:101C7000DA4201D28142704710B5024AFEF7A8FB52
:101C800010BD00BF090012040123DB0502000A4356
:101C90000DD4DA4203D49A4207D488427047D8421E
:101CA00014D4D94212D48842704780427047DA4235
:101CB00003D59A42F9D5814270475B004200DA426F
:101CC00004D24A00DA4201D28142704710B5024A7A
:101CD000FEF77EFB10BD00BF090013040123DB05E6
:101CE00002000A430DD4DA4203D49A4207D4884250
:101CF0007047D84214D4D94212D4884270478042E7
:101D00007047DA4203D59A42F9D5814270475B00A9
:101D10004200DA4204D24A00DA4201D281427047DC
:101D200010B5024AFEF754FB10BD00BF09001604AF
:101D300070B5420064414B005C41120E39D01B0E5D
:101D400038D0FF2A3CD0FF2B3AD0D2187F3A40023D
:101D50004902400A490A4518ED0106004E43000AAF
:101D6000090A48430104731A4019190C4318990FC2
:101D700004D05B08012149075B1A521CD80904D31F
:101D8000401CF50301D19D0607D0FF2A08D2D505D6
:101D900006D0E4072043401970BD0125A843F4E7AD
:101DA000002A01DCE00770BD2402FF202043C005AB
:101DB00070BD1B0EFF2A03D0FF2B01D0E00770BDC2
:101DC000FF2636064500B54206D84D00B54203D879
:101DD000D218FF2A00D0E7E7004870BD0000C07F9E
:101DE00070B50125ED0704004C4022D4441A02D2FC
:101DF0006C40001B0919C60D4B00F2B2FF2A4BD0F4
:101E00001B0E50D000020C02A8432C43D31ADC4016
:101E1000051B05D5AD0019D36D08761E521E37D0AF
:101E2000F605280A01D2801970BD70416D0603D0F5
:101E300070BD6940FFF7BEFE9C4009026140490049
:101E400001D0401E70BD0124A04370BD6D081DD09F
:101E500001202B0C01D12D0410302B0E01D12D02AD
:101E600008302B0F01D12D01001DAB0F01D1AD00AA
:101E7000801CEB0F01D16D00401C361A121A6D0048
:101E8000680AF5054019012A02DB70BD002070BD0B
:101E9000C036300AC00770BD1B0E440201D1FF2BB3
:101EA00000D1024870BD002AF0D070BD0000C07F94
:101EB0008182838485868788898B8C8D8E8F919291
:101EC00093959697999A9C9D9FA0A2A3A5A7A8AA2F
:101ED000ACAEB0B2B3B5B7B9BCBEC0C2C5C7C9CC51
:101EE000CED1D4D7D9DCDFE2E6E9ECF0F3F7FAFEA5
:101EF0000400000018000000003000000807000087
:101F0000201C00002001010001050000000000036A
:101F10000807630002000000270000000100000025
:101F2000000000000000000008076300020000003D
:101F30008F01000001000000000000000000000010
:101F4000601F0000000020200001000020010000B0
:101F50006020000000012020E8030000480100008C
:101F600000005040000000000000000000000000E1
:101F70000000000000000000000000000000000061
:101F80000000000000000000000000000000000051
:101F90000000000000000000000000000000000041
:101FA00000000000000000002472023C0100000854
:101FB00082B8CB4250E1CC420A0FC40900000A406B
:101FC0000000000200000A400000000400008640FB
:101FD00000000000000010C0000000C10000000070
:101FE00000080000000000000000000000000000E9
:101FF000000000000000000000200A400001000076
:1020000000200A400002000000008640010100009C
:10201000000010C0000000C1000000000008000027
:1020200000000000000000000000000000000000B0
:102030000000000086010000CDCCCCBE00000000F6
:10204000000000000004000000000000000000008C
:10205000000000000000000000000000000C000074
:04000005000000C136
:00000001FF
