:020000040000FA
:10000000D00220208D01000091010000930100002A
:1000100000000000000000000000000000000000E0
:10002000000000000000000000000000950100003A
:10003000000000000000000097010000B51400005F
:100040009B0100009B0100009B0100009B01000040
:100050009B0100009B0100009B0100009B01000030
:10006000000000009B0100009B0100000000000058
:10007000000000007D1500009B0100009B010000B6
:10008000C91400009B0100009B0100009B010000BF
:100090009B0100009B010000000000000000000028
:1000A0009B0100009B010000000000000000000018
:1000B0009B010000000000009B0100009B0100006C
:1000C00000F002F800F052F812A030C808382418E6
:1000D0002D18AC4201D100F049F80FCCA246AB4636
:1000E0000CA730CF2D1B083F3F197C427F1E544484
:1000F0002D090426F441641EAC4201D300F036F809
:100100000126334200D0FB1A3343984754465D46DC
:10011000DFE70000441E0000641E00000000000035
:10012000103A02D378C878C1FAD8520701D330C840
:1001300030C101D504680C60704700000000000069
:100140007047000000000000002300240025002666
:10015000103A01D378C1FBD8520700D330C100D583
:100160000B6070471FB51FBD10B510BD00F023F91F
:100170001146FFF7F7FF01F071FA00F03BF903B405
:10018000FFF7F2FF03BC00F041F90000064800470A
:10019000FEE7FEE7FEE7FEE7FEE7FEE70348044969
:1001A000024A044B70470000C1000000D00120202B
:1001B000D0022020D0012020002203098B4273D3DB
:1001C000030A8B4258D3030B8B423CD3030C8B4264
:1001D00021D312E003460B437FD4002243088B4215
:1001E00074D303098B425FD3030A8B4244D3030BBE
:1001F0008B4228D3030C8B420DD30902FF2212BA83
:10020000030C8B4202D31212090265D0030B8B42FE
:1002100019D300E0090AC30B8B4201D3CB03C01AE8
:100220005241830B8B4201D38B03C01A5241430BC3
:100230008B4201D34B03C01A5241030B8B4201D3B3
:100240000B03C01A5241C30A8B4201D3CB02C01A1E
:100250005241830A8B4201D38B02C01A5241430A96
:100260008B4201D34B02C01A5241030A8B4201D385
:100270000B02C01A5241CDD2C3098B4201D3CB012C
:10028000C01A524183098B4201D38B01C01A5241DB
:1002900043098B4201D34B01C01A524103098B42DF
:1002A00001D30B01C01A5241C3088B4201D3CB00CA
:1002B000C01A524183088B4201D38B00C01A5241AD
:1002C00043088B4201D34B00C01A5241411A00D25D
:1002D00001465241104670475DE0CA0F00D04942C6
:1002E000031000D3404253409C46002203098B4236
:1002F0002DD3030A8B4212D38901FC2212BA030ABE
:100300008B420CD3890192118B4208D3890192113F
:100310008B4204D389013AD0921100E08909C309C4
:100320008B4201D3CB01C01A524183098B4201D3C6
:100330008B01C01A524143098B4201D34B01C01AB1
:10034000524103098B4201D30B01C01A5241C30829
:100350008B4201D3CB00C01A524183088B4201D398
:100360008B00C01A5241D9D243088B4201D34B00B3
:10037000C01A5241411A00D201465241104663460A
:100380005B1001D34042002B00D5494270476346C1
:100390005B1000D3404201B50449002802DC491C2F
:1003A000084000E00846C046C04602BDFFFFFF7F90
:1003B000704770477047754600F024F8AE46050058
:1003C00069465346C008C000854618B020B5FFF7FF
:1003D000E5FE60BCB64600260027C0C5C0C5C0C546
:1003E000C0C5C0C5C0C5C0C5C0C5403D490849005D
:1003F0008D46704710B50446C046C0462046FFF7FC
:10040000BEFE10BD00487047A00020200149182002
:10041000ABBEFEE7260002007047811E091F00BF29
:10042000FCD27047F0B583B00B794A79002A2BD003
:100430001B4A1C4C1C4F202B02D00525EE0100E06E
:100440004C4E851802190092C219002B00D1882643
:100450001768474C2740BF19176057682740BE19D7
:1004600056602E68804F3E402E606E683E406E6043
:100470000025009C256065608F24E44315692540B4
:10048000156155692540556101AA13718B79537126
:1004900009680191114600F009F803B0F0BDC046AB
:1004A000381800005818000078180000F0B584B023
:1004B0006B4A82180292734BC618784BC21800928E
:1004C0002A4BC4180A7901910D68294F202A0392FA
:1004D0000AD0254BC018002A17D16B1E029A536010
:1004E00023683B40882517E0681E029A5060206808
:1004F0003840204B184320606068384018436060E3
:10050000012045071C4F104608E06B08029A536013
:1005100023683B400525ED012B43236000990368C8
:100520003B402B43036030684F4B1840306070688D
:10053000184070600020086048608F20C043236925
:100540000340236163690340636101984079039923
:100550000843BD2101401068084B0340C818801CA7
:10056000106004B0F0BDC0467418000070180000A0
:1005700024493E0001040000FFFFFFCF4000FFCFF1
:1005800070B5374A82184B6853603E4BC3180878E1
:10059000222857D8840001A52C59A7463B06000005
:1005A000450600003B060000450600004506000029
:1005B000450600004506000045060000450600000F
:1005C00045060000450600004506000045060000FF
:1005D000450600004506000045060000290600000B
:1005E00045060000290600004506000045060000FB
:1005F00045060000450600004506000045060000CF
:1006000045060000450600004506000045060000BE
:1006100045060000450600004506000029060000CA
:100620004506000029060000032424071568A54399
:10063000012464072C19146004E0032424071568BE
:10064000A54315600C69D460CC68064D25401C6834
:10065000054E264074191C60097A0143116070BD73
:1006600004180000777702008888FDFF10B5072383
:100670009B04194092008018024A84589C436118D8
:10068000815010BD3018000010B5029CA400001964
:1006900011431943014A815010BDC0465018000053
:1006A00092008018014A81507047C046101800001F
:1006B00010B50122120383180C789C604B7883508C
:1006C0008978014A815010BD0C110000B0B511228B
:1006D000120283580124A34383508B780C881C4357
:1006E0008B882343094C1C408358094D1D402B190E
:1006F00083508B79CC791C43097A21437E2319409E
:10070000801842689A4351184160B0BD18670000D4
:10071000E798FDFF10B50122120383180C789C6046
:100720004978815010BD000010B5044600F046FE27
:10073000084804600168002908D00168002905D034
:100740000168002902D001680029F3D10248002184
:10075000016010BDC001202010E000E0F0B581B0C4
:10076000437D0025002B00D1ED43EB4309B2002966
:10077000009500DC1D46C0C83D402524E4013259E7
:10078000BA43521932510838002900DC009BC26874
:10079000134085682E599643F2182A51CA175140C2
:1007A000891A0369027D1846FFF77AFF01B0F0BD90
:1007B000F0B583B001200607C7070020524C009017
:1007C0000290C0B20190009D294600F0C1FB4F4944
:1007D000206830432060206838432060206808404B
:1007E0002060781E216801402160782000F01CF80C
:1007F000402000F019F8002000F016F84349206866
:100800000840206020683843206020683043206022
:10081000681C45B2002DDBD50298401C01990729C0
:10082000CED303B0F0BDC046F0B537490A68374CA7
:100830002240802303405B05D2180A60344A531CCF
:100840000D681D430D600D6815400D6001252D07D5
:1008500086052E400F682740BE190E600E681E43A5
:100860000E600E6816400E60C6052E400F682740C9
:10087000BE190E600E681E430E600E6816400E60B4
:1008800006062E400F682740BE190E600E681E43F4
:100890000E600E6816400E6046062E400F68274018
:1008A000BE190E600E681E430E600E6816400E6084
:1008B00086062E400F682740BE190E600E681E4344
:1008C0000E600E6816400E60C6062E400D6825406C
:1008D000AD190D600D681D430D600D6815400D606C
:1008E0000D682540C007C00828180860086818432C
:1008F00008600868104008600868184308600868C5
:1009000010400860F0BDC04680120A40FFFFFFEFB4
:10091000FFFFFF7FF0B585B00120C707FC4E3168AF
:100920003943316004073068204330603068204329
:1009300030603068384330603068F64908403060D5
:100940007D1E306828400195306078200290FFF7C6
:100950006BFF00200490FFF767FFAE20FFF764FFF6
:100960003068EC49084030603068384330603068A7
:100970002043306030682043306030683843306056
:10098000306808403060306828403060029D28465A
:10099000FFF74AFF0498FFF747FFD520FFF744FF12
:1009A0003068DC4908403060306838433060306877
:1009B000039420433060306820433060306838430F
:1009C00030603068084030603068019C2040306002
:1009D0002846FFF729FF049D2846FFF725FF8020C2
:1009E000FFF722FF3068CB4908403060306800973D
:1009F000384330603068039A1043306030681043E9
:100A000030603068384330603068084030603068AB
:100A100020403060029F3846FFF706FF2846FFF768
:100A200003FFA820FFF700FF3068BA490840306094
:100A30003068009C204330603068039B184330606E
:100A400030681843306030682043306030680840B8
:100A500030603068019D284030603846FFF7E4FE82
:100A60000498FFF7E1FE3F20FFF7DEFE3068A9495A
:100A70000840306030682746204330603068039C6F
:100A80002043306030682043306030683843306045
:100A9000306808403060306828403060029D284649
:100AA000FFF7C2FE0498FFF7BFFED320FFF7BCFE9E
:100AB00030689849084030603068384330603068AA
:100AC0002043306030682043306030683843306005
:100AD000306808403060306801990840306028462E
:100AE000FFF7A2FE049D2846FFF79EFE2846FFF76B
:100AF0009BFE30688749084030603068384330607A
:100B000030682043306030682043306030683843BC
:100B10003C4630603068084030603068019D2840B5
:100B200030600298FFF780FE049F3846FFF77CFE96
:100B30004020FFF779FE3068764A10403060306818
:100B4000204330603068039B18433060306818439E
:100B5000306030682043306030681040306030686A
:100B600028403060029D2846FFF75EFE3846FFF7BA
:100B70005BFEA120FFF758FE3068F4490840306062
:100B80003068204330603068039A1043306030682A
:100B9000104330603068204327463060306808409A
:100BA00030603068019C204030602846FFF73CFEF2
:100BB000049D2846FFF738FEC820FFF735FE306851
:100BC000E249084030603068384330603068039A4A
:100BD0001043306030681043306030683843306014
:100BE000306808403060306820403060029F3846EE
:100BF000FFF71AFE2846FFF717FEDA20FFF714FE6C
:100C00003068D249084030603068009C2043306032
:100C10003068039B18433060306818433060306898
:100C2000204330603068084030603068019D2840C3
:100C300030603846FFF7F8FD0498FFF7F5FD122005
:100C4000FFF7F2FD3068FC4908403060306820430F
:100C500030603068039A1043306030681043306071
:100C60003068204327463060306808403060306884
:100C700028403060029C2046FFF7D6FD0498FFF71D
:100C8000D3FD8120FFF7D0FD3068EB4A1040306083
:100C9000306838433060306803990843306030680A
:100CA000084330603068384330603068104030604E
:100CB0003068284030602046FFF7B6FD049C20468F
:100CC000FFF7B2FDCF20FFF7AFFD3068DA4A1040E2
:100CD00030603068384330603068039908433060D2
:100CE0003068084330603068384330603068104006
:100CF0003060306828403060029F3846FFF794FD2E
:100D00002046FFF791FDD920FFF78EFD04E0C04695
:100D100080120A40FFFFFFEF3068C74B1840306079
:100D200030680099084330603068039A104330609F
:100D300030681043306030680843306030681840D5
:100D400030603068019C204030603846FFF76CFD11
:100D5000049D2846FFF768FDF120FFF765FD306828
:100D6000F84A104030603068009F38433060306887
:100D70000399084330603068084330603068384376
:100D80003060306810403060306820403060029839
:100D9000FFF74AFD2846FFF747FDDB20FFF744FD3C
:100DA0003068E84908403060306838433060306867
:100DB000039C204330603068204330603068384303
:100DC00030603068084030603068019D28403060F5
:100DD0000298FFF729FD0498FFF726FD3020FFF762
:100DE00023FD3068D74908403060306838433060B0
:100DF00030682043306030682043306030683843CA
:100E00003060306808403060306828403060029DB3
:100E10002846FFF709FD0498FFF706FDA420FFF719
:100E200003FD3068C749084030603068384330609F
:100E30003068204330603068204330603068384389
:100E40003060306808403060306801990840306098
:100E50002846FFF7E9FC049D2846FFF7E5FCA6209D
:100E6000FFF7E2FC3068B74908403060306838432B
:100E70003060306820433060306820433060306834
:100E800038433C4630603068084030603068019933
:100E900008403060029F3846FFF7C6FC2846FFF73F
:100EA000C3FC8D20FFF7C0FC3068A64908403060C5
:100EB00030682546204330603068039C2043306012
:100EC0003068204330603068284330603068084024
:100ED000306030680199084030603846FFF7A4FC64
:100EE000049F3846FFF7A0FC1420FFF79DFC3068F4
:100EF00094490840306030682843306030682043AF
:100F0000306030682043306030682843306030689B
:100F10000840306030680199084030600298FFF75F
:100F200083FC3846FFF780FCAF20FFF77DFC30687C
:100F3000844908403060306828433060306820437E
:100F40003060FFF735FC05B0F0BDC046FFFFFFEF96
:100F5000F0B585B00291009001200407784F396800
:100F600021433960C50738682843386038687549B7
:100F700008403860691E386808400E4601913860A4
:100F800078200490FFF750FC00200390FFF74CFC02
:100F9000B02000990843FFF747FC386869490840CA
:100FA00038603868284338603868204338603868CB
:100FB0002043386038682843386038680840386013
:100FC0003868304038600498FFF72EFC0398FFF72C
:100FD0002BFC029E30091030FFF726FC3868594977
:100FE00008403860386828433860386820433860E3
:100FF00038682043386038682843386038680840CB
:10100000386038680199084038600498FFF70CFC94
:101010000398FFF709FC0F203040FFF705FC386804
:1010200048490840386038682843386038682043A9
:10103000386005B0F0BDC046FFFFFFEFF0B587B0E8
:10104000154640000390801EC0B2C9000839C9B2DD
:101050000291FFF77DFF2801374901904018374979
:101060004018049001200107C2070025344F354B7A
:10107000069138680843386038681043386038682B
:1010800018403860511E3868059108403860782053
:1010900014461E46FFF7C8FB4020FFF7C5FB049827
:1010A000405DFFF7C1FB3346224606993868304061
:1010B00038603868204338603868084338606D1CF1
:1010C000082DD6D10398401EC0B20299FFF740FF09
:1010D0003346224606990198184D2818164D401996
:1010E0000830049000253868084338603868104399
:1010F00038603868184038603868059908403860AA
:101100007820FFF791FB4020FFF78EFB0498405DAD
:10111000FFF78AFB3346224606993868304038602C
:101120003868204338603868084338606D1C082DE3
:10113000D9D107B0F0BDC046FA18000000FEFFFF8D
:1011400080120A40FFFFFFEFF0B587B00693144608
:101150000D46002A049005D405942B222946FFF75A
:101160006DFF05E02D222946FFF768FF64420594D4
:10117000069800283ED00698471E801E0190681CE5
:10118000029000251C4E039713E001210298441998
:10119000059800F0B7FA0A21FFF70EF830220A434B
:1011A000E1B20498FFF74AFF7F1E6D1C0698854246
:1011B00020D003988542E8D003200199491B0329D8
:1011C00001D2012105E03A46824301217143121FF9
:1011D000FCD1EA43069BD2180240D7D0012A01D1A4
:1011E0000A2005E0022A02D07D20C00000E0642031
:1011F0004143CBE707B0F0BD10270000F0B581B048
:101200000646107800280DD014460D46002779199F
:10121000C9B2C2B23046FFF711FF7F1CF8B2205CA2
:101220000028F4D101B0F0BD10B5114985220A643F
:1012300001231C020F4804604A645A0202608222A1
:101240000A650D4A4A658122CA600A600B4B1A6022
:101250001A618A65CA65014630394B2252060A6016
:1012600002600320000206490860086310BDC04602
:101270000C804240D0120A4082000400DC804240D0
:10128000A0320A4070B582B0194C1A492046FFF7C7
:101290000FFA19492046FFF7C5F8002500952046AA
:1012A00029462A462B46FFF7EFF9204629462A46CB
:1012B000FFF7DCF9204629462A46FFF7F1F9012617
:1012C0000096204629462A462B46FFF7DDF92046A0
:1012D00029463246FFF7CAF9204629463246FFF72B
:1012E000DFF9064886600321016002B070BDC04688
:1012F00000008640EA1E0000F01E0000001186403B
:10130000B0B5184C18492046FFF704FA1749204693
:10131000FFF7DCF90322D103154803688B43036010
:10132000036914490B401A330361436913433C2298
:101330009343436143680122134044689443E31894
:10134000436093020C4C25681D432560FF310B4B15
:101350001C680C4091036118196001681143016019
:10136000B0BDC04600001040F81E0000FA1E00008C
:10137000001110400000FFFF281010400CE400E0B6
:101380000C48002101600320C1430B480246083A83
:1013900013680B4013600168012291430160110240
:1013A00003688B4303601103001F02680A43026055
:1013B0007047C04608030B4008010B40C24808496B
:1013C0004160FF210906074A13688B4303218907FF
:1013D0005918116000218160072101607047C046E3
:1013E000FF7C000020ED00E010B5084C08492046C5
:1013F000FFF75EF907492046FFF7C2F80648016883
:101400000122114301600548026010BD0040084000
:10141000041F0000081F0000285008400851084021
:1014200080B500F013F8FFF7FFFEFFF7A9FFFFF705
:1014300029FFFFF7D9FFFFF763FFFFF7BFFFB820D2
:10144000014900220A5480BD04012020B0B50A4899
:101450000A4941600A4A51600A4B59600A4C61606E
:101460000A4D69600A4901601160196021602960B4
:101470001020FEF7D2FFB0BD00080A40030000B103
:1014800000280A4000088640004808400008104034
:101490000100002600218171818070470021817147
:1014A00081807047006802494058C0B27047C0460A
:1014B0002411000003480168002902D00168491E78
:1014C00001607047C0012020F0B581B02748006856
:1014D000C0B2012848D1884C2078032844D8C0469F
:1014E0007844007940008744012F092520480024D2
:1014F0002146FFF733F91F48214633E0564D28882F
:10150000002831D0534F3888404201B21848FFF7C5
:1015100025F90026B95F1748FFF720F928880A3017
:1015200028804A49098880B288421DD92E802670B9
:1015300001B0F0BD474C2088404201B20C48FFF793
:101540000DF90020215E0CE06D4C20880A4D2988A1
:10155000081A01B20648FFF701F9288821880818FF
:1015600001B20448FFF7FAF801B0F0BD205008407E
:101570006C002020840020205800202010B58120FD
:101580004001534C21680858C0B20B285BD120465B
:10159000FFF788FFE071A179022906D0002913D155
:1015A000FF2811D10220A07111E02179FE2804D179
:1015B000032902D1012060710CE062181072481CEE
:1015C0002071C0B2042802D34148FFF763FF60795D
:1015D000012838D1207A4849087003281ED8C0460F
:1015E00078440079400087442B01082BA07A617A67
:1015F000090208184249088022E0A07A3C49087094
:10160000032811D002280CD0012816D10E480088DA
:101610000E4908800E48008840420CE00020087007
:101620000EE00948008802E00748008840000749AA
:101630000880074800880749088007480121018081
:101640002348FFF727FF10BD9E002020C601202061
:101650009C002020C4012020C8012020FFF7E0FECC
:101660001948002606601948FFF75EF8FFF752F99F
:101670001748FFF713FF01204103164A1160164B6C
:1016800019600004106018601B4F1D4C0DE08000B5
:101690001A490818026808212846FFF7AFFDA25F23
:1016A000022006210523FFF74FFD01252846294684
:1016B0000AA2FFF7A3FD38780228E8D10C48007889
:1016C00080000C49E5E7C04610E000E0C4090000D6
:1016D0000000202080E200E000E100E04163746946
:1016E0006F6E3A20202020202020202000000000C3
:1016F000030120205C00202002012020480020203F
:101700000001202043088B421AD3002203098B4298
:1017100079D3030A8B425ED3030B8B4242D3030C73
:101720008B4227D30902FF2212BA030C8B4202D349
:101730001212090203D0030B8B4233D31AE0D3E019
:10174000411A8041401C704703460B4371D4430843
:101750008B42F5D3002203098B4254D3030A8B42F8
:1017600039D3030B8B421DD3030C8B4202D3944617
:101770006EE0090AC30B8B4201D3CB03C01A52415E
:10178000830B8B4201D38B03C01A5241430B8B4214
:1017900001D34B03C01A5241030B8B4201D30B03FD
:1017A000C01A5241C30A8B4201D3CB02C01A524124
:1017B000830A8B4201D38B02C01A5241430A8B42E7
:1017C00001D34B02C01A5241030A8B4201D30B02D0
:1017D000C01A5241CDD2C3098B4201D3CB01C01AEA
:1017E000524183098B4201D38B01C01A52414309F4
:1017F0008B4201D34B01C01A524103098B4201D3E2
:101800000B01C01A5241C3088B4201D3CB00C01A4E
:10181000524183088B4201D38B00C01A52414308C6
:101820008B4201D34B00C01A5241411A5241100061
:101830007047CA0F00D04942031000D340425340C2
:1018400000229C4603098B422DD3030A8B4212D3FC
:101850008901FC2212BA030A8B420CD3890192112E
:101860008B4208D3890192118B4204D3890137D06E
:10187000921100E08909C3098B4201D3CB01C01A40
:10188000524183098B4201D38B01C01A5241430953
:101890008B4201D34B01C01A524103098B4201D341
:1018A0000B01C01A5241C3088B4201D3CB00C01AAE
:1018B000524183088B4201D38B00C01A5241D9D2C6
:1018C00043088B4201D34B00C01A5241411A00D247
:1018D00001465241104663465B1000D340427047B8
:1018E00063465B1000D3404201B50021004201D0A5
:1018F000C9430846C046C04602BD000000000000C3
:1019000000000000000000000000000000F80000DF
:101910000000000000333000000000100C06100C26
:101920000600000000000000000040C07840C078C1
:101930004000043F04043F040400007088FC0830A9
:101940000000001820FF211E0000F008F000E01841
:10195000000000211C031E211E0000F008887000FA
:1019600000001E2123241927211010160E0000004C
:1019700000000000000000000000000000E018046B
:101980000200000000071820400000020418E000D8
:1019900000000040201807000000404080F0804018
:1019A00040000202010F01020200000000F00000EE
:1019B00000000101011F0101010000000000000002
:1019C000000080B070000000000000000000000077
:1019D0000000000101010101010100000000000000
:1019E00000000030300000000000000000008060B7
:1019F0001804006018060100000000E0100808103C
:101A0000E000000F102020100F00001010F8000060
:101A100000000020203F20200000007008080888F7
:101A200070000030282422213000003008888848C7
:101A300030000018202020110E000000C02010F8F7
:101A4000000000070424243F240000F808888808C8
:101A500008000019212020110E0000E010888818CD
:101A60000000000F112020110E0000380808C838AF
:101A700008000000003F000000000070880808888F
:101A80007000001C222121221C0000E01008081018
:101A9000E0000000312222110F00000000C0C00051
:101AA0000000000000303000000000000080000056
:101AB0000000000080600000000000008040201056
:101AC000080000010204081020004040404040404F
:101AD00040000404040404040400000810204080B2
:101AE00000000020100804020100007048080808E7
:101AF000F0000000003036010000C030C828E810B7
:101B0000E0000718272423140B000000C038E00071
:101B10000000203C23020227382008F888888870BB
:101B20000000203F202020110E00C03008080808C7
:101B30003800071820202010080008F808080810AE
:101B4000E000203F202020100F0008F88888E808D7
:101B50001000203F20202320180008F88888E8087B
:101B60001000203F200003000000C03008080838A3
:101B7000000007182020221E020008F808000008B4
:101B8000F808203F210101213F20000808F808083B
:101B900000000020203F2020000000000808F80876
:101BA0000800C08080807F00000008F888C02818E6
:101BB0000800203F20012638200008F80800000017
:101BC0000000203F20202020300008F8F800F8F81E
:101BD0000800203F003F003F200008F830C0000808
:101BE000F808203F200007183F00E0100808081000
:101BF000E0000F10202020100F0008F80808080847
:101C0000F000203F210101010000E0100808081049
:101C1000E0000F18242438504F0008F8888888887E
:101C20007000203F2000030C302000708808080856
:101C300038000038202121221C00180808F8080864
:101C400018000000203F2000000008F808000008ED
:101C5000F808001F202020201F000878880000C8F6
:101C60003808000007380E010000F80800F80008E6
:101C7000F800033C0700073C0300081868808068F0
:101C8000180820302C03032C30200838C800C8382E
:101C900008000000203F2000000010080808C83895
:101CA00008002038262120201800000000FE020233
:101CB00002000000007F40404000000C30C00000E7
:101CC0000000000000010638C00000020202FE0011
:101CD0000000004040407F000000000004020202BB
:101CE00004000000000000000000000000000000F0
:101CF00000008080808080808080000202040000DC
:101D000000000000000000000000000080808080D3
:101D100000000019242222223F2008F800808000C1
:101D20000000003F112020110E0000000080808084
:101D30000000000E1120202011000000008080888B
:101D4000F800000E112020103F20000080808080CD
:101D50000000001F222222221300008080F08888C9
:101D600088180020203F2020000000008080808014
:101D70008000006B94949493600008F80080808049
:101D80000000203F210000203F20008098980000A4
:101D900000000020203F20200000000000809898D4
:101DA000000000C08080807F000008F80000808074
:101DB0008000203F24022D302000000808F8000099
:101DC00000000020203F2020000080808080808054
:101DD0008000203F20003F20003F808000808080E6
:101DE0000000203F210000203F20000080808080F4
:101DF0000000001F202020201F0080800080800025
:101E0000000080FFA12020110E00000000808080D3
:101E10008000000E112020A0FF8080808000808044
:101E2000800020203F212000010000008080808071
:101E300080000033242424241900008080E0808066
:101E400000000000001F20200000808000000080B3
:101E50008000001F202020103F2080808000008014
:101E6000808000010E300806010080800080008024
:101E700080800F300C030C300F00008080008080C9
:101E800080000020312E0E312000808080000080F4
:101E9000808080818E7018060100008080808080A4
:101EA00080000021302C2221300000000000807CC6
:101EB000020200000000003F404000000000FF0060
:101EC000000000000000FF0000000002027C800013
:101ED00000000040403F0000000000060101020237
:101EE00004040000000000000000080700000000DB
:101EF000201C000020010100040000001800000068
:101F00000030000008076300020000008F0100009D
:101F1000010000000000000000000000526F756E1C
:101F20006400466F727761726400416476616E632B
:101F300065005475726E4261636B005475726E0079
:101F400053746F70005475726E4C656674005475EE
:101F5000726E526967687400781F000000002020CC
:101F6000A00000002001000018200000A000202098
:101F70003002000048010000000010400000000096
:101F80000000000000000000000000000000000051
:101F90000000000000000000000000000000000041
:101FA0000000000000000000000000000000000031
:101FB0000000000000000000000000000000000021
:101FC000401F00002A1F00003B1F00001C1F0000D4
:101FD00000080000221F0000451F00004E1F0000E7
:101FE000321F000000000A400000000200000A400A
:101FF00000000004000086400001000000200A40AC
:102000000001000000200A4000020000000086409D
:08201000010000009803E80341
:04000005000000C136
:00000001FF
