:020000040000FA
:10000000C80220208D010000910100009301000032
:1000100000000000000000000000000000000000E0
:10002000000000000000000000000000950100003A
:10003000000000000000000097010000990100008E
:100040009B0100009B0100009B0100009B01000040
:100050009B0100009B0100009B0100009B01000030
:10006000000000009B0100009B0100000000000058
:1000700000000000711700009B0100009B010000C0
:10008000BD1600009B0100009B0100009B010000C9
:100090009B0100009B010000000000000000000028
:1000A0009B0100009B010000000000000000000018
:1000B0009B010000000000009B0100009B0100006C
:1000C00000F002F800F052F812A030C808382418E6
:1000D0002D18AC4201D100F049F80FCCA246AB4636
:1000E0000CA730CF2D1B083F3F197C427F1E544484
:1000F0002D090426F441641EAC4201D300F036F809
:100100000126334200D0FB1A3343984754465D46DC
:10011000DFE700003C2000005C2000000000000041
:10012000103A02D378C878C1FAD8520701D330C840
:1001300030C101D504680C60704700000000000069
:100140007047000000000000002300240025002666
:10015000103A01D378C1FBD8520700D330C100D583
:100160000B6070471FB51FBD10B510BD00F028F91A
:100170001146FFF7F7FF01F06BFB00F040F903B405
:10018000FFF7F2FF03BC00F043F900000648004708
:10019000FEE7FEE7FEE7FEE7FEE7FEE70348044969
:1001A000024A044B70470000C1000000C801202033
:1001B000C8022020C8012020002203098B4273D3EB
:1001C000030A8B4258D3030B8B423CD3030C8B4264
:1001D00021D312E003460B437FD4002243088B4215
:1001E00074D303098B425FD3030A8B4244D3030BBE
:1001F0008B4228D3030C8B420DD30902FF2212BA83
:10020000030C8B4202D31212090265D0030B8B42FE
:1002100019D300E0090AC30B8B4201D3CB03C01AE8
:100220005241830B8B4201D38B03C01A5241430BC3
:100230008B4201D34B03C01A5241030B8B4201D3B3
:100240000B03C01A5241C30A8B4201D3CB02C01A1E
:100250005241830A8B4201D38B02C01A5241430A96
:100260008B4201D34B02C01A5241030A8B4201D385
:100270000B02C01A5241CDD2C3098B4201D3CB012C
:10028000C01A524183098B4201D38B01C01A5241DB
:1002900043098B4201D34B01C01A524103098B42DF
:1002A00001D30B01C01A5241C3088B4201D3CB00CA
:1002B000C01A524183088B4201D38B00C01A5241AD
:1002C00043088B4201D34B00C01A5241411A00D25D
:1002D00001465241104670475DE0CA0F00D04942C6
:1002E000031000D3404253409C46002203098B4236
:1002F0002DD3030A8B4212D38901FC2212BA030ABE
:100300008B420CD3890192118B4208D3890192113F
:100310008B4204D389013AD0921100E08909C309C4
:100320008B4201D3CB01C01A524183098B4201D3C6
:100330008B01C01A524143098B4201D34B01C01AB1
:10034000524103098B4201D30B01C01A5241C30829
:100350008B4201D3CB00C01A524183088B4201D398
:100360008B00C01A5241D9D243088B4201D34B00B3
:10037000C01A5241411A00D201465241104663460A
:100380005B1001D34042002B00D5494270476346C1
:100390005B1000D3404201B50449002802DC491C2F
:1003A000084000E00846C046C04602BDFFFFFF7F90
:1003B000704770477047000000487047A000202039
:1003C0007546FFF7F9FFAE46050069465346C0087B
:1003D000C000854618B020B5FFF7E0FE60BCB64609
:1003E00000260027C0C5C0C5C0C5C0C5C0C5C0C5A2
:1003F000C0C5C0C5403D490849008D46704710B58D
:100400000446C046C0462046FFF7B9FE10BD0000B6
:1004100001491820ABBEFEE726000200704700002D
:10042000B0B50A78032313400B4A84580B4D25407E
:10043000EB18A92424061B198350072212064B68C7
:1004400013401124240205599543EA18025100195A
:1004500049780161B0BDC04608080000FCFFFF00FC
:10046000811E091F00BFFCD270470000F0B583B0A9
:100470000B794A79002A2BD01B4A1C4C1C4F202B8D
:1004800002D00525EE0100E04C4E851802190092BD
:10049000C219002B00D188261768474C2740BF1986
:1004A000176057682740BE1956602E68804F3E403F
:1004B0002E606E683E406E600025009C2560656081
:1004C0008F24E44315692540156155692540556120
:1004D00001AA13718B79537109680191114600F0DB
:1004E00009F803B0F0BDC0463818000058180000E5
:1004F00078180000F0B584B06B4A82180292734BF2
:10050000C618784BC21800922A4BC4180A79019178
:100510000D68294F202A03920AD0254BC018002AC3
:1005200017D16B1E029A536023683B40882517E061
:10053000681E029A506020683840204B18432060A3
:100540006068384018436060012045071C4F104622
:1005500008E06B08029A536023683B400525ED01D3
:100560002B432360009903683B402B4303603068B2
:100570004F4B184030607068184070600020086071
:1005800048608F20C04323690340236163690340AF
:1005900063610198407903990843BD2101401068C7
:1005A000084B0340C818801C106004B0F0BDC04662
:1005B000741800007018000024493E000104000077
:1005C000FFFFFFCF4000FFCF70B5374A82184B685E
:1005D00053603E4BC3180878222857D8840001A5E1
:1005E0002C59A746830600008D06000083060000F4
:1005F0008D0600008D0600008D0600008D060000AF
:100600008D0600008D0600008D0600008D0600009E
:100610008D0600008D0600008D0600008D0600008E
:100620008D060000710600008D06000071060000B6
:100630008D0600008D0600008D0600008D0600006E
:100640008D0600008D0600008D0600008D0600005E
:100650008D0600008D0600008D0600008D0600004E
:100660008D060000710600008D0600007106000076
:10067000032424071568A543012464072C1914607A
:1006800004E0032424071568A54315600C69D460B1
:10069000CC68064D25401C68054E264074191C6028
:1006A000097A0143116070BD0418000077770200D9
:1006B0008888FDFF10B507239B041940920080181D
:1006C000024A84589C436118815010BD30180000C4
:1006D00010B5029CA400001911431943014A81502E
:1006E00010BDC0465018000092008018014A815089
:1006F0007047C0461018000010B50122120383187D
:100700000C789C604B7883508978014A815010BDE9
:100710000C110000B0B51122120283580124A3432A
:1007200083508B780C881C438B882343094C1C40D6
:100730008358094D1D402B1983508B79CC791C436C
:10074000097A21437E231940801842689A43511840
:100750004160B0BD18670000E798FDFF10B50122A9
:10076000120383180C789C604978815010BD0000FA
:10077000F0B582B0002843D0032606407D2109024F
:1007800001221304574C002E054637D06160002526
:100790000195A5602568052700973D4325602568DC
:1007A0001D4208D125681D4205D125681D4202D190
:1007B00025681D42F3D0256895432560012E03D19D
:1007C000451E04283DD21BE06160019DA56025689F
:1007D000009F3D43256025681D4208D125681D42C4
:1007E00005D125681D4202D125681D42F3D0D543AD
:1007F00027682F402760022E04D1851E042820D2AE
:1008000002B0F0BD6160019DA5602568009E354382
:10081000256025681D4208D125681D4205D125683F
:100820001D4202D125681D42F3D0256895432560FD
:10083000C51E042805D2E3E72068904320602D1FE1
:10084000DED061600020A06027680526374327605E
:1008500027681F4208D127681F4205D127681F4219
:1008600002D127681F42F3D0276897432760616051
:10087000A06027683743276027681F4208D1276890
:100880001F4205D127681F4202D127681F42F3D0BB
:100890002768974327606160A06027683743276017
:1008A00027681F4208D127681F4205D127681F42C9
:1008B00002D127681F42F3D0276897432760616001
:1008C000A06020683043206020681842B4D12068BE
:1008D0001842B1D120681842AED120681842F3D036
:1008E000AAE7C04610E000E0F0B581B0437D0025E6
:1008F000002B00D1ED43EB4309B20029009500DC49
:100900001D46C0C83D402524E4013259BA4352195E
:1009100032510838002900DC009BC268134085680A
:100920002E599643F2182A51CA175140891A036961
:10093000027D1846FFF7D8FE01B0F0BDF0B583B0D8
:10094000012006070020514F00900290C0B2019094
:10095000009D294600F0B6FB4D494C1C38682043E9
:100960003860386830433860386808403860386824
:10097000B0433860782000F01BF8402000F018F8F1
:10098000002000F015F8424938680840386038689F
:1009900030433860386820433860681C45B2002D09
:1009A000DBD50298401C01990729CED303B0F0BDD6
:1009B000F0B536490A68364C2240802303401B06B6
:1009C000D2180A60012212070B6813430B600D68EE
:1009D000304B1D400D60651C46062E400F682740B9
:1009E000BE190E600E6816430E600E681E400E6043
:1009F00086062E400F682740BE190E600E6816430B
:100A00000E600E681E400E60C6062E400F6827401E
:100A1000BE190E600E6816430E600E681E400E6012
:100A200006072E400F682740BE190E600E68164359
:100A30000E600E681E400E6046072E400F6827406D
:100A4000BE190E600E6816430E600E681E400E60E2
:100A500086072E400D682540AD190D600D681543C1
:100A60000D600D681D400D600D682540C0072818F9
:100A70000860086810430860086818400860086843
:100A800010430860086818400860F0BD80120A40F2
:100A9000FFFFFF7FFFFFFFEFF0B585B001200507E7
:100AA000FC4E316829433160C40730682043306010
:100AB000306820433060306828433060611E306801
:100AC00008400F4630603068F349084030607820B5
:100AD0000290FFF76DFF00200390FFF769FFAE2043
:100AE000FFF766FF30683840306030682843306078
:100AF00030680494204330603068204330603068B0
:100B0000284330603068384030603068E24908403F
:100B10003060029C2046FFF74BFF0398FFF748FF29
:100B2000D520FFF745FF30683840306030682843F3
:100B300030603068049908433060306808433060A2
:100B40003068284330603068384030603068D249BF
:100B5000084030602046FFF72BFF0398FFF728FF7F
:100B60008020FFF725FF3068384030603068284328
:100B70003060306804990843306030680843306062
:100B80003068284330603068384030603068C2498F
:100B9000084030602046FFF70BFF0398FFF708FF7F
:100BA000A820FFF705FF30680197384030603068B3
:100BB0002843306030680499084330603068084347
:100BC00030603068284330603068384030603068CA
:100BD000B149084030602046FFF7EAFE039F3846DF
:100BE000FFF7E6FE3F20FFF7E3FE3068019A104072
:100BF00030603068284330603068049908433060C2
:100C000030680843306030682843306030681040F6
:100C100030603068A049084030602046FFF7C8FEC9
:100C20003846FFF7C5FED320FFF7C2FE3068019AB1
:100C300010403060306828433060306804990843C1
:100C40003060306808433060306828433060306876
:100C5000104030603068904908403060029F38464C
:100C6000FFF7A6FE039C2046FFF7A2FE2046FFF7F3
:100C70009FFE30680199084030603068284330603A
:100C80003068049C20433060306820433060306816
:100C90002843306030680840306030687E49084042
:100CA00030603846FFF784FE039F3846FFF780FE2A
:100CB0004020FFF77DFE30680199084030603068C1
:100CC0002843306030682043306030682043306013
:100CD0003068284330603068084030603068F84938
:100CE000084030600298FFF763FE3846FFF760FE69
:100CF000A120FFF75DFE3068019908403060306840
:100D000028433060306820433060306820433060D2
:100D10003068284330603068084030603068E84907
:100D200008403060029F3846FFF742FE0398FFF705
:100D30003FFEC820FFF73CFE306801990840306054
:100D4000306828433060306820433060306820438A
:100D50003060306828433060306808403060306868
:100D6000D749084030603846FFF722FE039F3846D7
:100D7000FFF71EFEDA20FFF71BFE306801990840DE
:100D8000306030682843306030682043306030681D
:100D9000204330603068284330603068084030605D
:100DA0003068C749084030600298FFF701FE3846B6
:100DB000FFF7FEFD1220FFF7FBFD3068019F384072
:100DC00030603068009528433060306820433060E0
:100DD00030682043306030682843306030683840E5
:100DE00030603068F14908403060029C2046FFF7CF
:100DF000DFFD039D2846FFF7DBFD8120FFF7D8FDCF
:100E00003068384030603068009A10433060306895
:100E100004990843306030680843306030681043FC
:100E200030603068384030603068E04908403060F9
:100E30002046FFF7BDFD2846FFF7BAFDCF20FFF79C
:100E4000B7FD3068384030603068009D284330601E
:100E50003068049908433060306808433060306877
:100E6000284330603068384030603068CF490840EF
:100E700030600298FFF79CFD039C2046FFF798FD29
:100E8000D920FFF795FD306838403060306828433E
:100E900004E0C04680120A40FFFFFFEF3060306878
:100EA0000499084330603068084330603068284354
:100EB00030603068384030603068FD49084030604C
:100EC0000298FFF775FD2046FFF772FDF120FFF74E
:100ED0006FFD3068384030603068284330603068DB
:100EE0000499084330603068084330603068284314
:100EF00030603068384030603068ED49084030601C
:100F0000029C2046FFF754FD0398FFF751FDDB20BC
:100F1000FFF74EFD3068384030603068284330605D
:100F200030680499084330603068084330603068A6
:100F3000284330603068384030603068DC49084011
:100F400030602046FFF734FD0398FFF731FD302075
:100F5000FFF72EFD3068384030603068284330603D
:100F60003068049908433060306808433060306866
:100F7000284330603068384030603068CC490840E1
:100F80003060029D2846FFF713FD039C2046FFF7C3
:100F90000FFDA420FFF70CFD30683840306030684A
:100FA000009A10433060306804990843306030681C
:100FB000084330603068104330603068384030603B
:100FC0003068BB49084030602846FFF7F1FC2046F6
:100FD000FFF7EEFCA620FFF7EBFC306838403060EE
:100FE0003068009A104330603068049908433060DC
:100FF00030680843306030681043306030683840F3
:1010000030603068AA4908403060029C2046FFF7F3
:10101000CFFC039D2846FFF7CBFC8D20FFF7C8FCD3
:101020003068384030603068009A10433060306873
:1010300004990843306030680843306030681043DA
:10104000306030683840306030689949084030601E
:101050002046FFF7ADFC2846FFF7AAFC1420FFF757
:10106000A7FC3068384030603068009D284330600D
:101070003068049C20433060306820433060306822
:101080002843306030683840306030688849084014
:1010900030600298FFF78CFC0398FFF789FCAF20C3
:1010A000FFF786FC30683840306030682843306095
:1010B000306820433060FFF741FC05B0F0BDC0460A
:1010C000FFFFFFEFF0B585B0039101907748441C16
:1010D0000146754F3868204338600120050738689D
:1010E00028433860386808403860386870490840DC
:1010F0003860782630460296FFF75AFC00200490AC
:10110000FFF756FCB02001990843FFF751FC3868FF
:10111000664908403860386828433860386820439A
:101120003860386820433860386828433860386849
:101130000840386038685E49084038603046FFF73C
:1011400037FC0498FFF734FC039E30091030FFF79A
:101150002FFC3868554908403860386828433860A3
:10116000386820433860386820433860386828433E
:10117000386038680840386038684D490840386041
:101180000298FFF715FC0498FFF712FC0F2030407F
:10119000FFF70EFC38684549084038603868284336
:1011A000386038682043386005B0F0BDFFFFFFEFBE
:1011B000F0B585B0154640000390801EC0B2C9004E
:1011C0000839C9B20291FFF77DFF28013449019027
:1011D0004018344940180490012001070027324E7E
:1011E000324A541C30682043306030680843306015
:1011F00030681040306030682D4A104030607820F0
:101200000D46FFF7D5FB4020FFF7D2FB0498C05DE9
:10121000FFF7CEFB2946254A306810403060306821
:10122000284330603068204330607F1C082FD8D1BD
:101230000398401EC0B20299FFF744FF2A461B499B
:101240000198184B1818164BC01808300490002746
:1012500030682043306030681043306030680840A8
:10126000306030681249084030607820FFF7A0FBFA
:101270004020FFF79DFB0498C05DFFF799FB2A46CD
:101280000A49306808403060306828433060306870
:10129000204330607F1C082FDAD105B0F0BDC04676
:1012A000E61A000000FEFFFF80120A40FFFFFF7FEA
:1012B000FFFFFFEFF0B587B0069314460D46002AF6
:1012C000049005D405942B222946FFF771FF05E011
:1012D0002D222946FFF76CFF6442059406980028EA
:1012E0003ED00698471E801E0190681C0290002583
:1012F0001C4E039713E0012102984419059800F051
:10130000F7FA0A21FEF758FF30220A43E1B20498A7
:10131000FFF74EFF7F1E6D1C0698854220D0039874
:101320008542E8D003200199491B032901D20121FC
:1013300005E03A46824301217143121FFCD1EA4382
:10134000069BD2180240D7D0012A01D10A2005E01D
:10135000022A02D07D20C00000E064204143CBE798
:1013600007B0F0BD10270000F0B581B00646107838
:1013700000280DD014460D4600277919C9B2C2B213
:101380003046FFF715FF7F1CF8B2205C0028F4D12F
:1013900001B0F0BD10B51B488522826401231C02F8
:1013A00019490C60C2645A020A6082228265174A97
:1013B000531CC365812343618360154C6365636679
:1013C0000366436622606260A260E260036043607D
:1013D000084630380F4A02600A60FF2000060E49B6
:1013E0000A6802430A600F2000030C490A6A02439C
:1013F0000A620A6802430A60032000020849086082
:10140000086310BD04804240D0120A4081000400ED
:10141000888042400300009690130A4028100A403A
:10142000A0320A4070B582B0194C1A492046FFF725
:1014300063F919492046FFF719F800250095204661
:1014400029462A462B46FFF743F9204629462A46D5
:10145000FFF730F9204629462A46FFF745F90126CD
:101460000096204629462A462B46FFF731F92046AA
:1014700029463246FFF71EF9204629463246FFF735
:1014800033F9064886600321016002B070BDC04692
:1014900000008640D6200000DC20000000118640BD
:1014A000B0B5184C18492046FFF758F9174920469F
:1014B000FFF730F90322D103154803688B4303601B
:1014C000036914490B401A330361436913433C22F7
:1014D0009343436143680122134044689443E318F3
:1014E000436093020C4C25681D432560FF310B4B74
:1014F0001C680C4091036118196001681143016078
:10150000B0BDC04600001040E4200000E62000000E
:10151000001110400000FFFF281010400CE400E014
:101520000C48002101600320C1430B480246083AE1
:1015300013680B401360016801229143016011029E
:1015400003688B4303601103001F02680A430260B3
:101550007047C04608030B4008010B4010B5084C0B
:1015600008492046FFF7C8F807492046FFF72CF83E
:10157000064801680122114301600548026010BD60
:1015800000400840F0200000F420000028500840EF
:101590000851084010B518481849FEF741FF18488F
:1015A0004168184A0A4003231904511841608168B0
:1015B000154A0A40154951188160154A01211160E8
:1015C00002245460936019221201426107225202E0
:1015D000104B1C6A14431C621C6814431C60FF22DD
:1015E00012020D4B1C6894438A03A2181A60026809
:1015F0000A43026010BDC0460020004008210000E0
:1016000000310040FEFFECFFF8FFE0E000000103C6
:10161000843100402830004004E400E080B500F050
:1016200013F8FFF7B7FEFFF77BFFFFF7FBFEFFF7AF
:1016300095FFFFF735FFFFF7ADFFB8200149002206
:101640000A5480BD0401202070B50C480C4941604B
:101650000C4A51600C4B59600C4C61600C4D696038
:101660000C4E71600C4901601160196021602960A5
:1016700031601020FEF7F4FE70BDC04600080A403D
:10168000030000B100280A400008864000480840D6
:101690000008104000280040010000260021817150
:1016A0008180704700218171818070470068024904
:1016B0004058C0B27047C04624110000F0B581B058
:1016C00027480068C0B2012848D1864C20780328FA
:1016D00044D8C0467844007940008744012F09254A
:1016E000204800242146FFF7FFF81F48214633E039
:1016F000564D2888002831D0534F3888404201B2D7
:101700001848FFF7F1F80026B95F1748FFF7ECF823
:1017100028880A3028804A49098880B288421DD921
:101720002E80267001B0F0BD474C2088404201B2A7
:101730000C48FFF7D9F80020215E0CE06B4C2088A4
:101740000A4D2988081A01B20648FFF7CDF8288803
:101750002188081801B20448FFF7C6F801B0F0BDAF
:10176000205008406C0020208400202058002020B9
:1017700010B581204001514C21680858C0B20B2897
:101780005BD12046FFF792FFE071A179022906D0D4
:10179000002913D1FF2811D10220A07111E0217975
:1017A000FE2804D1032902D1012060710CE06218E7
:1017B0001072481C2071C0B2042802D33F48FFF7C2
:1017C0006DFF6079012838D1207A464908700328D6
:1017D0001ED8C04678440079400087442B01082B6E
:1017E000A07A617A090208184049088022E0A07AAC
:1017F0003A490870032811D002280CD0012816D1CC
:101800000E4800880E4908800E48008840420CE0CF
:10181000002008700EE00948008802E007480088B0
:1018200040000749088007480088074908800748A2
:10183000012101802148FFF731FF10BD9E002020CB
:10184000C20120209C002020C0012020C4012020B3
:10185000FFF7E4FE1848FEF78BFFFFF71DF9174866
:10186000FFF720FF01204103154A1160154B196055
:1018700000041060186014A41A4E1C4F0EE0800083
:1018800019490818026808212846FFF76DFD002055
:101890003A5E022006210523FFF70CFD01252846AC
:1018A00029462246FFF760FD30780228E7D10B4831
:1018B000007880000A49E4E7C40900000000202005
:1018C00080E200E000E100E0416374696F6E3A205D
:1018D00020202020202020200000000003012020C4
:1018E0005C00202002012020480020200001202050
:1018F00043088B421AD3002203098B4279D3030A8F
:101900008B425ED3030B8B4242D3030C8B4227D313
:101910000902FF2212BA030C8B4202D312120902EF
:1019200003D0030B8B4233D31AE0D3E0411A80413A
:10193000401C704703460B4371D443088B42F5D3D8
:10194000002203098B4254D3030A8B4239D3030B81
:101950008B421DD3030C8B4202D394466EE0090ADE
:10196000C30B8B4201D3CB03C01A5241830B8B4272
:1019700001D38B03C01A5241430B8B4201D34B035B
:10198000C01A5241030B8B4201D30B03C01A5241C0
:10199000C30A8B4201D3CB02C01A5241830A8B4245
:1019A00001D38B02C01A5241430A8B4201D34B022E
:1019B000C01A5241030A8B4201D30B02C01A524192
:1019C000CDD2C3098B4201D3CB01C01A5241830946
:1019D0008B4201D38B01C01A524143098B4201D380
:1019E0004B01C01A524103098B4201D30B01C01AAB
:1019F0005241C3088B4201D3CB00C01A5241830825
:101A00008B4201D38B00C01A524143088B4201D351
:101A10004B00C01A5241411A524110007047CA0F80
:101A200000D04942031000D34042534000229C465C
:101A300003098B422DD3030A8B4212D38901FC2266
:101A400012BA030A8B420CD3890192118B4208D33C
:101A5000890192118B4204D3890137D0921100E0A1
:101A60008909C3098B4201D3CB01C01A52418309B2
:101A70008B4201D38B01C01A524143098B4201D3DF
:101A80004B01C01A524103098B4201D30B01C01A0A
:101A90005241C3088B4201D3CB00C01A5241830884
:101AA0008B4201D38B00C01A5241D9D243088B42DA
:101AB00001D34B00C01A5241411A00D20146524193
:101AC000104663465B1000D34042704763465B108C
:101AD00000D3404201B50021004201D0C94308466D
:101AE000C046C04602BD000000000000000000002B
:101AF000000000000000000000F8000000000000EE
:101B000000333000000000100C06100C060000002E
:101B100000000000000040C07840C0784000043F52
:101B200004043F040400007088FC08300000001822
:101B300020FF211E0000F008F000E0180000002146
:101B40001C031E211E0000F00888700000001E21EA
:101B500023241927211010160E0000000000000099
:101B6000000000000000000000E018040200000077
:101B700000071820400000020418E00000000040A8
:101B8000201807000000404080F080404000020222
:101B9000010F01020200000000F00000000001013E
:101BA000011F01010100000000000000000080B0E2
:101BB00070000000000000000000000000000001B4
:101BC00001010101010100000000000000000030DF
:101BD0003000000000000000000080601804006079
:101BE00018060100000000E010080810E000000FD7
:101BF000102020100F00001010F80000000000203E
:101C0000203F202000000070080808887000003085
:101C1000282422213000003008888848300000182D
:101C2000202020110E000000C02010F80000000746
:101C30000424243F240000F80888880808000019BC
:101C4000212020110E0000E0108888180000000FED
:101C5000112020110E0000380808C83808000000C4
:101C6000003F000000000070880808887000001C19
:101C7000222121221C0000E010080810E0000000D2
:101C8000312222110F00000000C0C000000000003F
:101C90000030300000000000008000000000000064
:101CA000806000000000000080402010080000015B
:101CB000020408102000404040404040400004041E
:101CC00004040404040000081020408000000020E8
:101CD000100804020100007048080808F000000025
:101CE000003036010000C030C828E810E0000718B6
:101CF000272423140B000000C038E0000000203C23
:101D000023020227382008F8888888700000203FC6
:101D1000202020110E00C0300808080838000718DD
:101D200020202010080008F808080810E000203FD4
:101D3000202020100F0008F88888E8081000203FB5
:101D400020202320180008F88888E8081000203F89
:101D5000200003000000C030080808380000071801
:101D60002020221E020008F808000008F808203F82
:101D7000210101213F20000808F808080000002088
:101D8000203F2020000000000808F8080800C0805C
:101D900080807F00000008F888C028180800203FD5
:101DA00020012638200008F8080000000000203F2D
:101DB00020202020300008F8F800F8F80800203F24
:101DC000003F003F200008F830C00008F808203F1E
:101DD000200007183F00E01008080810E0000F106E
:101DE000202020100F0008F808080808F000203F05
:101DF000210101010000E01008080810E0000F18A0
:101E0000242438504F0008F8888888887000203FC4
:101E10002000030C302000708808080838000038C3
:101E2000202121221C00180808F8080818000000CA
:101E3000203F2000000008F808000008F808001FF4
:101E4000202020201F000878880000C838080000E3
:101E500007380E010000F80800F80008F800033CFD
:101E60000700073C030008186880806818082030C5
:101E70002C03032C30200838C800C83808000000A4
:101E8000203F2000000010080808C838080020384B
:101E9000262120201800000000FE0202020000009F
:101EA000007F40404000000C30C0000000000000F7
:101EB00000010638C00000020202FE0000000040DF
:101EC00040407F0000000000040202020400000005
:101ED0000000000000000000000000000000808002
:101EE00080808080808000020204000000000000EA
:101EF00000000000000000008080808000000019C9
:101F0000242222223F2008F8008080000000003FA9
:101F1000112020110E000000008080800000000EC3
:101F2000112020201100000000808088F800000EA1
:101F3000112020103F200000808080800000001FC2
:101F4000222222221300008080F088888818002036
:101F5000203F202000000000808080808000006BF7
:101F600094949493600008F8008080800000203FE3
:101F7000210000203F2000809898000000000020F1
:101F8000203F20200000000000809898000000C042
:101F90008080807F000008F8000080808000203F63
:101FA00024022D302000000808F800000000002066
:101FB000203F202000008080808080808000203FA3
:101FC00020003F20003F8080008080800000203F74
:101FD000210000203F200000808080800000001F42
:101FE000202020201F00808000808000000080FFD3
:101FF000A12020110E000000008080808000000ED3
:10200000112020A0FF808080800080808000202020
:102010003F2120000100000080808080800000338C
:10202000242424241900008080E080800000000027
:10203000001F202000008080000000808000001F22
:10204000202020103F2080808000008080800001C0
:102050000E300806010080800080008080800F30F4
:102060000C030C300F000080800080808000002076
:10207000312E0E31200080808000008080808081A1
:102080008E70180601000080808080808000002112
:10209000302C2221300000000000807C0202000071
:1020A0000000003F404000000000FF000000000072
:1020B0000000FF0000000002027C800000000040E1
:1020C000403F00000000000601010202040400007D
:1020D000000000000000080700000000201C0000B5
:1020E0002001010004000000180000000030000082
:1020F00008076300020000008F01000001000000DB
:1021000000000000000000000105000000000003C6
:10211000526F756E6400466F72776172640041643D
:1021200076616E6365005475726E4261636B005434
:1021300075726E0053746F70005475726E4C6566E4
:1021400074005475726E5269676874000000000074
:102150007021000000002020A000000020010000ED
:1021600010220000A00020202802000048010000EA
:10217000000010400000000000000000000000000F
:10218000000000000000000000000000000000004F
:10219000000000000000000000000000000000003F
:1021A000000000000000000000000000000000002F
:1021B0000000000000000000342100001E2100008B
:1021C0002F2100001021000000080000162100004F
:1021D00039210000422100002621000000000A40B1
:1021E0000000000200000A400000000400008640D9
:1021F0000001000000200A400001000000200A4009
:102200000002000000008640010000009803E8037F
:04000005000000C136
:00000001FF
